{
  "_format": "hh-sol-artifact-1",
  "contractName": "CryptoVaultNFT",
  "sourceName": "contracts/CryptoVaultNFT.sol",
  "abi": [
    {
      "inputs": [
        {
          "internalType": "address",
          "name": "_usdcToken",
          "type": "address"
        }
      ],
      "stateMutability": "nonpayable",
      "type": "constructor"
    },
    {
      "anonymous": false,
      "inputs": [
        {
          "indexed": true,
          "internalType": "address",
          "name": "owner",
          "type": "address"
        },
        {
          "indexed": true,
          "internalType": "address",
          "name": "approved",
          "type": "address"
        },
        {
          "indexed": true,
          "internalType": "uint256",
          "name": "tokenId",
          "type": "uint256"
        }
      ],
      "name": "Approval",
      "type": "event"
    },
    {
      "anonymous": false,
      "inputs": [
        {
          "indexed": true,
          "internalType": "address",
          "name": "owner",
          "type": "address"
        },
        {
          "indexed": true,
          "internalType": "address",
          "name": "operator",
          "type": "address"
        },
        {
          "indexed": false,
          "internalType": "bool",
          "name": "approved",
          "type": "bool"
        }
      ],
      "name": "ApprovalForAll",
      "type": "event"
    },
    {
      "anonymous": false,
      "inputs": [
        {
          "indexed": false,
          "internalType": "uint256",
          "name": "_fromTokenId",
          "type": "uint256"
        },
        {
          "indexed": false,
          "internalType": "uint256",
          "name": "_toTokenId",
          "type": "uint256"
        }
      ],
      "name": "BatchMetadataUpdate",
      "type": "event"
    },
    {
      "anonymous": false,
      "inputs": [
        {
          "indexed": true,
          "internalType": "address",
          "name": "user",
          "type": "address"
        },
        {
          "indexed": true,
          "internalType": "uint256",
          "name": "tokenId",
          "type": "uint256"
        }
      ],
      "name": "FidelityNFTClaimed",
      "type": "event"
    },
    {
      "anonymous": false,
      "inputs": [
        {
          "indexed": false,
          "internalType": "uint256",
          "name": "_tokenId",
          "type": "uint256"
        }
      ],
      "name": "MetadataUpdate",
      "type": "event"
    },
    {
      "anonymous": false,
      "inputs": [
        {
          "indexed": true,
          "internalType": "address",
          "name": "buyer",
          "type": "address"
        },
        {
          "indexed": true,
          "internalType": "uint256",
          "name": "tokenId",
          "type": "uint256"
        },
        {
          "indexed": false,
          "internalType": "uint256",
          "name": "tier",
          "type": "uint256"
        },
        {
          "indexed": false,
          "internalType": "uint256",
          "name": "price",
          "type": "uint256"
        }
      ],
      "name": "NFTPurchased",
      "type": "event"
    },
    {
      "anonymous": false,
      "inputs": [
        {
          "indexed": true,
          "internalType": "address",
          "name": "previousOwner",
          "type": "address"
        },
        {
          "indexed": true,
          "internalType": "address",
          "name": "newOwner",
          "type": "address"
        }
      ],
      "name": "OwnershipTransferred",
      "type": "event"
    },
    {
      "anonymous": false,
      "inputs": [
        {
          "indexed": true,
          "internalType": "uint256",
          "name": "tier",
          "type": "uint256"
        },
        {
          "indexed": false,
          "internalType": "uint256",
          "name": "amount",
          "type": "uint256"
        },
        {
          "indexed": false,
          "internalType": "address",
          "name": "treasury",
          "type": "address"
        }
      ],
      "name": "RevenueGenerated",
      "type": "event"
    },
    {
      "anonymous": false,
      "inputs": [
        {
          "indexed": true,
          "internalType": "address",
          "name": "to",
          "type": "address"
        },
        {
          "indexed": true,
          "internalType": "uint256",
          "name": "tokenId",
          "type": "uint256"
        },
        {
          "indexed": false,
          "internalType": "uint256",
          "name": "tier",
          "type": "uint256"
        },
        {
          "indexed": false,
          "internalType": "string",
          "name": "reason",
          "type": "string"
        }
      ],
      "name": "SpecialNFTMinted",
      "type": "event"
    },
    {
      "anonymous": false,
      "inputs": [
        {
          "indexed": true,
          "internalType": "uint256",
          "name": "tier",
          "type": "uint256"
        },
        {
          "indexed": false,
          "internalType": "string",
          "name": "name",
          "type": "string"
        },
        {
          "indexed": false,
          "internalType": "uint256",
          "name": "price",
          "type": "uint256"
        },
        {
          "indexed": false,
          "internalType": "uint256",
          "name": "supply",
          "type": "uint256"
        }
      ],
      "name": "TierCreated",
      "type": "event"
    },
    {
      "anonymous": false,
      "inputs": [
        {
          "indexed": true,
          "internalType": "uint256",
          "name": "tier",
          "type": "uint256"
        },
        {
          "indexed": false,
          "internalType": "uint256",
          "name": "price",
          "type": "uint256"
        },
        {
          "indexed": false,
          "internalType": "uint256",
          "name": "supply",
          "type": "uint256"
        }
      ],
      "name": "TierUpdated",
      "type": "event"
    },
    {
      "anonymous": false,
      "inputs": [
        {
          "indexed": true,
          "internalType": "address",
          "name": "from",
          "type": "address"
        },
        {
          "indexed": true,
          "internalType": "address",
          "name": "to",
          "type": "address"
        },
        {
          "indexed": true,
          "internalType": "uint256",
          "name": "tokenId",
          "type": "uint256"
        }
      ],
      "name": "Transfer",
      "type": "event"
    },
    {
      "anonymous": false,
      "inputs": [
        {
          "indexed": false,
          "internalType": "address",
          "name": "oldTreasury",
          "type": "address"
        },
        {
          "indexed": false,
          "internalType": "address",
          "name": "newTreasury",
          "type": "address"
        }
      ],
      "name": "TreasuryUpdated",
      "type": "event"
    },
    {
      "inputs": [],
      "name": "TREASURY_WALLET",
      "outputs": [
        {
          "internalType": "address",
          "name": "",
          "type": "address"
        }
      ],
      "stateMutability": "view",
      "type": "function"
    },
    {
      "inputs": [
        {
          "internalType": "uint256",
          "name": "",
          "type": "uint256"
        }
      ],
      "name": "activeTiers",
      "outputs": [
        {
          "internalType": "uint256",
          "name": "",
          "type": "uint256"
        }
      ],
      "stateMutability": "view",
      "type": "function"
    },
    {
      "inputs": [
        {
          "internalType": "uint256",
          "name": "tier",
          "type": "uint256"
        },
        {
          "internalType": "string[]",
          "name": "newPlans",
          "type": "string[]"
        }
      ],
      "name": "addAccessPlansToTier",
      "outputs": [],
      "stateMutability": "nonpayable",
      "type": "function"
    },
    {
      "inputs": [
        {
          "internalType": "address",
          "name": "to",
          "type": "address"
        },
        {
          "internalType": "uint256",
          "name": "tokenId",
          "type": "uint256"
        }
      ],
      "name": "approve",
      "outputs": [],
      "stateMutability": "nonpayable",
      "type": "function"
    },
    {
      "inputs": [],
      "name": "backupTreasuryWallet",
      "outputs": [
        {
          "internalType": "address",
          "name": "",
          "type": "address"
        }
      ],
      "stateMutability": "view",
      "type": "function"
    },
    {
      "inputs": [
        {
          "internalType": "address",
          "name": "owner",
          "type": "address"
        }
      ],
      "name": "balanceOf",
      "outputs": [
        {
          "internalType": "uint256",
          "name": "",
          "type": "uint256"
        }
      ],
      "stateMutability": "view",
      "type": "function"
    },
    {
      "inputs": [
        {
          "internalType": "address",
          "name": "fidelUser",
          "type": "address"
        }
      ],
      "name": "claimFidelityNFT",
      "outputs": [],
      "stateMutability": "nonpayable",
      "type": "function"
    },
    {
      "inputs": [
        {
          "internalType": "string",
          "name": "name",
          "type": "string"
        },
        {
          "internalType": "string",
          "name": "description",
          "type": "string"
        },
        {
          "internalType": "uint256",
          "name": "supply",
          "type": "uint256"
        },
        {
          "internalType": "uint256",
          "name": "multiplier",
          "type": "uint256"
        },
        {
          "internalType": "string",
          "name": "baseURI",
          "type": "string"
        },
        {
          "internalType": "string[]",
          "name": "accessPlans",
          "type": "string[]"
        }
      ],
      "name": "createEventNFT",
      "outputs": [
        {
          "internalType": "uint256",
          "name": "",
          "type": "uint256"
        }
      ],
      "stateMutability": "nonpayable",
      "type": "function"
    },
    {
      "inputs": [
        {
          "internalType": "string",
          "name": "name",
          "type": "string"
        },
        {
          "internalType": "string",
          "name": "description",
          "type": "string"
        },
        {
          "internalType": "uint256",
          "name": "price",
          "type": "uint256"
        },
        {
          "internalType": "uint256",
          "name": "supply",
          "type": "uint256"
        },
        {
          "internalType": "uint256",
          "name": "multiplier",
          "type": "uint256"
        },
        {
          "internalType": "string",
          "name": "baseURI",
          "type": "string"
        },
        {
          "internalType": "string[]",
          "name": "accessPlans",
          "type": "string[]"
        },
        {
          "internalType": "bool",
          "name": "isSpecial",
          "type": "bool"
        }
      ],
      "name": "createNewTier",
      "outputs": [
        {
          "internalType": "uint256",
          "name": "",
          "type": "uint256"
        }
      ],
      "stateMutability": "nonpayable",
      "type": "function"
    },
    {
      "inputs": [
        {
          "internalType": "string",
          "name": "partnerName",
          "type": "string"
        },
        {
          "internalType": "string",
          "name": "description",
          "type": "string"
        },
        {
          "internalType": "uint256",
          "name": "price",
          "type": "uint256"
        },
        {
          "internalType": "uint256",
          "name": "supply",
          "type": "uint256"
        },
        {
          "internalType": "uint256",
          "name": "multiplier",
          "type": "uint256"
        },
        {
          "internalType": "string",
          "name": "baseURI",
          "type": "string"
        },
        {
          "internalType": "string[]",
          "name": "accessPlans",
          "type": "string[]"
        }
      ],
      "name": "createPartnershipNFT",
      "outputs": [
        {
          "internalType": "uint256",
          "name": "",
          "type": "uint256"
        }
      ],
      "stateMutability": "nonpayable",
      "type": "function"
    },
    {
      "inputs": [
        {
          "internalType": "address",
          "name": "token",
          "type": "address"
        },
        {
          "internalType": "uint256",
          "name": "amount",
          "type": "uint256"
        }
      ],
      "name": "emergencyWithdraw",
      "outputs": [],
      "stateMutability": "nonpayable",
      "type": "function"
    },
    {
      "inputs": [],
      "name": "getAllActiveTiers",
      "outputs": [
        {
          "internalType": "uint256[]",
          "name": "",
          "type": "uint256[]"
        }
      ],
      "stateMutability": "view",
      "type": "function"
    },
    {
      "inputs": [
        {
          "internalType": "uint256",
          "name": "tokenId",
          "type": "uint256"
        }
      ],
      "name": "getApproved",
      "outputs": [
        {
          "internalType": "address",
          "name": "",
          "type": "address"
        }
      ],
      "stateMutability": "view",
      "type": "function"
    },
    {
      "inputs": [
        {
          "internalType": "uint256",
          "name": "tier",
          "type": "uint256"
        }
      ],
      "name": "getRemainingSupply",
      "outputs": [
        {
          "internalType": "uint256",
          "name": "",
          "type": "uint256"
        }
      ],
      "stateMutability": "view",
      "type": "function"
    },
    {
      "inputs": [],
      "name": "getRevenueStats",
      "outputs": [
        {
          "internalType": "uint256",
          "name": "totalRev",
          "type": "uint256"
        },
        {
          "internalType": "uint256[]",
          "name": "tierIds",
          "type": "uint256[]"
        },
        {
          "internalType": "uint256[]",
          "name": "tierRevenues",
          "type": "uint256[]"
        }
      ],
      "stateMutability": "view",
      "type": "function"
    },
    {
      "inputs": [],
      "name": "getSpecialTiers",
      "outputs": [
        {
          "internalType": "uint256[]",
          "name": "",
          "type": "uint256[]"
        }
      ],
      "stateMutability": "view",
      "type": "function"
    },
    {
      "inputs": [
        {
          "internalType": "uint256",
          "name": "tier",
          "type": "uint256"
        }
      ],
      "name": "getTierAccessPlans",
      "outputs": [
        {
          "internalType": "string[]",
          "name": "",
          "type": "string[]"
        }
      ],
      "stateMutability": "view",
      "type": "function"
    },
    {
      "inputs": [
        {
          "internalType": "uint256",
          "name": "tier",
          "type": "uint256"
        }
      ],
      "name": "getTierInfo",
      "outputs": [
        {
          "components": [
            {
              "internalType": "uint256",
              "name": "price",
              "type": "uint256"
            },
            {
              "internalType": "uint256",
              "name": "supply",
              "type": "uint256"
            },
            {
              "internalType": "uint256",
              "name": "minted",
              "type": "uint256"
            },
            {
              "internalType": "string",
              "name": "baseURI",
              "type": "string"
            },
            {
              "internalType": "bool",
              "name": "active",
              "type": "bool"
            },
            {
              "internalType": "string",
              "name": "name",
              "type": "string"
            },
            {
              "internalType": "string",
              "name": "description",
              "type": "string"
            },
            {
              "internalType": "uint256",
              "name": "multiplier",
              "type": "uint256"
            },
            {
              "internalType": "string[]",
              "name": "accessPlans",
              "type": "string[]"
            },
            {
              "internalType": "uint256",
              "name": "createdAt",
              "type": "uint256"
            }
          ],
          "internalType": "struct CryptoVaultNFT.NFTTier",
          "name": "",
          "type": "tuple"
        }
      ],
      "stateMutability": "view",
      "type": "function"
    },
    {
      "inputs": [],
      "name": "getTreasuryInfo",
      "outputs": [
        {
          "internalType": "address",
          "name": "primaryTreasury",
          "type": "address"
        },
        {
          "internalType": "address",
          "name": "backupTreasury",
          "type": "address"
        },
        {
          "internalType": "uint256",
          "name": "totalGenerated",
          "type": "uint256"
        }
      ],
      "stateMutability": "view",
      "type": "function"
    },
    {
      "inputs": [
        {
          "internalType": "address",
          "name": "user",
          "type": "address"
        }
      ],
      "name": "getUserHighestTier",
      "outputs": [
        {
          "internalType": "uint256",
          "name": "",
          "type": "uint256"
        }
      ],
      "stateMutability": "view",
      "type": "function"
    },
    {
      "inputs": [
        {
          "internalType": "address",
          "name": "user",
          "type": "address"
        }
      ],
      "name": "getUserMultiplier",
      "outputs": [
        {
          "internalType": "uint256",
          "name": "",
          "type": "uint256"
        }
      ],
      "stateMutability": "view",
      "type": "function"
    },
    {
      "inputs": [
        {
          "internalType": "address",
          "name": "owner",
          "type": "address"
        },
        {
          "internalType": "address",
          "name": "operator",
          "type": "address"
        }
      ],
      "name": "isApprovedForAll",
      "outputs": [
        {
          "internalType": "bool",
          "name": "",
          "type": "bool"
        }
      ],
      "stateMutability": "view",
      "type": "function"
    },
    {
      "inputs": [
        {
          "internalType": "uint256",
          "name": "",
          "type": "uint256"
        }
      ],
      "name": "isSpecialTier",
      "outputs": [
        {
          "internalType": "bool",
          "name": "",
          "type": "bool"
        }
      ],
      "stateMutability": "view",
      "type": "function"
    },
    {
      "inputs": [
        {
          "internalType": "address",
          "name": "to",
          "type": "address"
        },
        {
          "internalType": "uint256",
          "name": "tier",
          "type": "uint256"
        },
        {
          "internalType": "string",
          "name": "reason",
          "type": "string"
        }
      ],
      "name": "mintSpecialNFT",
      "outputs": [],
      "stateMutability": "nonpayable",
      "type": "function"
    },
    {
      "inputs": [],
      "name": "name",
      "outputs": [
        {
          "internalType": "string",
          "name": "",
          "type": "string"
        }
      ],
      "stateMutability": "view",
      "type": "function"
    },
    {
      "inputs": [],
      "name": "nextTierId",
      "outputs": [
        {
          "internalType": "uint256",
          "name": "",
          "type": "uint256"
        }
      ],
      "stateMutability": "view",
      "type": "function"
    },
    {
      "inputs": [
        {
          "internalType": "uint256",
          "name": "",
          "type": "uint256"
        }
      ],
      "name": "nftTiers",
      "outputs": [
        {
          "internalType": "uint256",
          "name": "price",
          "type": "uint256"
        },
        {
          "internalType": "uint256",
          "name": "supply",
          "type": "uint256"
        },
        {
          "internalType": "uint256",
          "name": "minted",
          "type": "uint256"
        },
        {
          "internalType": "string",
          "name": "baseURI",
          "type": "string"
        },
        {
          "internalType": "bool",
          "name": "active",
          "type": "bool"
        },
        {
          "internalType": "string",
          "name": "name",
          "type": "string"
        },
        {
          "internalType": "string",
          "name": "description",
          "type": "string"
        },
        {
          "internalType": "uint256",
          "name": "multiplier",
          "type": "uint256"
        },
        {
          "internalType": "uint256",
          "name": "createdAt",
          "type": "uint256"
        }
      ],
      "stateMutability": "view",
      "type": "function"
    },
    {
      "inputs": [
        {
          "internalType": "uint256",
          "name": "",
          "type": "uint256"
        }
      ],
      "name": "nftToTier",
      "outputs": [
        {
          "internalType": "uint256",
          "name": "",
          "type": "uint256"
        }
      ],
      "stateMutability": "view",
      "type": "function"
    },
    {
      "inputs": [],
      "name": "owner",
      "outputs": [
        {
          "internalType": "address",
          "name": "",
          "type": "address"
        }
      ],
      "stateMutability": "view",
      "type": "function"
    },
    {
      "inputs": [
        {
          "internalType": "address",
          "name": "",
          "type": "address"
        },
        {
          "internalType": "uint256",
          "name": "",
          "type": "uint256"
        }
      ],
      "name": "ownerHasTier",
      "outputs": [
        {
          "internalType": "bool",
          "name": "",
          "type": "bool"
        }
      ],
      "stateMutability": "view",
      "type": "function"
    },
    {
      "inputs": [
        {
          "internalType": "uint256",
          "name": "tokenId",
          "type": "uint256"
        }
      ],
      "name": "ownerOf",
      "outputs": [
        {
          "internalType": "address",
          "name": "",
          "type": "address"
        }
      ],
      "stateMutability": "view",
      "type": "function"
    },
    {
      "inputs": [
        {
          "internalType": "uint256",
          "name": "tier",
          "type": "uint256"
        }
      ],
      "name": "pauseTier",
      "outputs": [],
      "stateMutability": "nonpayable",
      "type": "function"
    },
    {
      "inputs": [
        {
          "internalType": "uint256",
          "name": "tier",
          "type": "uint256"
        }
      ],
      "name": "purchaseNFT",
      "outputs": [],
      "stateMutability": "nonpayable",
      "type": "function"
    },
    {
      "inputs": [],
      "name": "renounceOwnership",
      "outputs": [],
      "stateMutability": "nonpayable",
      "type": "function"
    },
    {
      "inputs": [
        {
          "internalType": "address",
          "name": "from",
          "type": "address"
        },
        {
          "internalType": "address",
          "name": "to",
          "type": "address"
        },
        {
          "internalType": "uint256",
          "name": "tokenId",
          "type": "uint256"
        }
      ],
      "name": "safeTransferFrom",
      "outputs": [],
      "stateMutability": "nonpayable",
      "type": "function"
    },
    {
      "inputs": [
        {
          "internalType": "address",
          "name": "from",
          "type": "address"
        },
        {
          "internalType": "address",
          "name": "to",
          "type": "address"
        },
        {
          "internalType": "uint256",
          "name": "tokenId",
          "type": "uint256"
        },
        {
          "internalType": "bytes",
          "name": "data",
          "type": "bytes"
        }
      ],
      "name": "safeTransferFrom",
      "outputs": [],
      "stateMutability": "nonpayable",
      "type": "function"
    },
    {
      "inputs": [
        {
          "internalType": "address",
          "name": "operator",
          "type": "address"
        },
        {
          "internalType": "bool",
          "name": "approved",
          "type": "bool"
        }
      ],
      "name": "setApprovalForAll",
      "outputs": [],
      "stateMutability": "nonpayable",
      "type": "function"
    },
    {
      "inputs": [
        {
          "internalType": "bytes4",
          "name": "interfaceId",
          "type": "bytes4"
        }
      ],
      "name": "supportsInterface",
      "outputs": [
        {
          "internalType": "bool",
          "name": "",
          "type": "bool"
        }
      ],
      "stateMutability": "view",
      "type": "function"
    },
    {
      "inputs": [],
      "name": "symbol",
      "outputs": [
        {
          "internalType": "string",
          "name": "",
          "type": "string"
        }
      ],
      "stateMutability": "view",
      "type": "function"
    },
    {
      "inputs": [
        {
          "internalType": "uint256",
          "name": "",
          "type": "uint256"
        }
      ],
      "name": "tierRevenue",
      "outputs": [
        {
          "internalType": "uint256",
          "name": "",
          "type": "uint256"
        }
      ],
      "stateMutability": "view",
      "type": "function"
    },
    {
      "inputs": [
        {
          "internalType": "address",
          "name": "owner",
          "type": "address"
        },
        {
          "internalType": "uint256",
          "name": "index",
          "type": "uint256"
        }
      ],
      "name": "tokenOfOwnerByIndex",
      "outputs": [
        {
          "internalType": "uint256",
          "name": "",
          "type": "uint256"
        }
      ],
      "stateMutability": "view",
      "type": "function"
    },
    {
      "inputs": [
        {
          "internalType": "uint256",
          "name": "tokenId",
          "type": "uint256"
        }
      ],
      "name": "tokenURI",
      "outputs": [
        {
          "internalType": "string",
          "name": "",
          "type": "string"
        }
      ],
      "stateMutability": "view",
      "type": "function"
    },
    {
      "inputs": [],
      "name": "totalRevenue",
      "outputs": [
        {
          "internalType": "uint256",
          "name": "",
          "type": "uint256"
        }
      ],
      "stateMutability": "view",
      "type": "function"
    },
    {
      "inputs": [
        {
          "internalType": "address",
          "name": "from",
          "type": "address"
        },
        {
          "internalType": "address",
          "name": "to",
          "type": "address"
        },
        {
          "internalType": "uint256",
          "name": "tokenId",
          "type": "uint256"
        }
      ],
      "name": "transferFrom",
      "outputs": [],
      "stateMutability": "nonpayable",
      "type": "function"
    },
    {
      "inputs": [
        {
          "internalType": "address",
          "name": "newOwner",
          "type": "address"
        }
      ],
      "name": "transferOwnership",
      "outputs": [],
      "stateMutability": "nonpayable",
      "type": "function"
    },
    {
      "inputs": [
        {
          "internalType": "uint256",
          "name": "tier",
          "type": "uint256"
        }
      ],
      "name": "unpauseTier",
      "outputs": [],
      "stateMutability": "nonpayable",
      "type": "function"
    },
    {
      "inputs": [
        {
          "internalType": "address",
          "name": "newBackupTreasury",
          "type": "address"
        }
      ],
      "name": "updateBackupTreasury",
      "outputs": [],
      "stateMutability": "nonpayable",
      "type": "function"
    },
    {
      "inputs": [
        {
          "internalType": "uint256",
          "name": "tier",
          "type": "uint256"
        },
        {
          "internalType": "uint256",
          "name": "newPrice",
          "type": "uint256"
        },
        {
          "internalType": "uint256",
          "name": "newSupply",
          "type": "uint256"
        },
        {
          "internalType": "bool",
          "name": "active",
          "type": "bool"
        }
      ],
      "name": "updateTier",
      "outputs": [],
      "stateMutability": "nonpayable",
      "type": "function"
    },
    {
      "inputs": [],
      "name": "usdcToken",
      "outputs": [
        {
          "internalType": "contract IERC20",
          "name": "",
          "type": "address"
        }
      ],
      "stateMutability": "view",
      "type": "function"
    }
  ],
  "bytecode": "0x60a060405260056012553480156200001657600080fd5b50604051620050d6380380620050d6833981016040819052620000399162000a8c565b6040518060400160405280601681526020017f43727970746f5661756c7420416363657373204e4654000000000000000000008152506040518060400160405280600581526020016410d593919560da1b81525081600090816200009e919062000b63565b506001620000ad828262000b63565b505050620000ca620000c46200011360201b60201c565b62000117565b60016008556001600160a01b038116608052601080546001600160a01b03191673e0b7bcb42aebb5be565cc81518a48d780f3c001c1790556200010c62000169565b5062000c45565b3390565b600780546001600160a01b038381166001600160a01b0319831681179093556040519116919082907f8be0079c531659141344cd1fd0a4f28419497f9722a3daafe3b4186f6b6457e090600090a35050565b62000257600160405180610140016040528068068155a43676e0000081526020016103e88152602001600081526020016040518060600160405280602781526020016200501d6027913981526020016001151581526020016040518060400160405280600a8152602001694e46542042726f6e7a6560b01b81525081526020016040518060600160405280602b815260200162005064602b913981526078602082015260400160015b6040519080825280602002602001820160405280156200024757816020015b6060815260200190600190039081620002315790505b50815242602090910152620008c9565b6040518060400160405280600781526020016639ba30b93a32b960c91b8152506009600060018152602001908152602001600020600801600081548110620002a357620002a362000c2f565b906000526020600020019081620002bb919062000b63565b50620003816002604051806101400160405280680d8d726b7177a8000081526020016101f4815260200160008152602001604051806060016040528060278152602001620050af6027913981526001602080830191909152604080518082018252600a81526913919508105c99d95b9d60b21b81840152818401528051808201909152601b81527f4163636573206574656e6475206176656320626f6e75732035302500000000009181019190915260608201526096608082015260a001600262000212565b6040518060400160405280600781526020016639ba30b93a32b960c91b8152506009600060028152602001908152602001600020600801600081548110620003cd57620003cd62000c2f565b906000526020600020019081620003e5919062000b63565b506040805180820190915260088152671cdd185b99185c9960c21b6020808301919091526002600052600990527f6cde3cea4b3a3fb2488b2808bae7556f4a405e50f65e1794383bc026131b13cb8054600190811062000449576200044962000c2f565b90600052602060002001908162000461919062000b63565b50620005226003604051806101400160405280681b1ae4d6e2ef500000815260200160c881526020016000815260200160405180606001604052806025815260200162004ff86025913981526001602080830191909152604080518082018252600681526527232a1027b960d11b81840152818401528051808201909152601d81527f4163636573207072656d69756d206176656320626f6e7573203130302500000091810191909152606082015260c8608082015260a001600362000212565b6040518060400160405280600781526020016639ba30b93a32b960c91b81525060096000600381526020019081526020016000206008016000815481106200056e576200056e62000c2f565b90600052602060002001908162000586919062000b63565b506040805180820190915260088152671cdd185b99185c9960c21b6020808301919091526003600052600990526000805160206200508f83398151915280546001908110620005d957620005d962000c2f565b906000526020600020019081620005f1919062000b63565b506040805180820190915260078152667072656d69756d60c81b6020808301919091526003600052600990526000805160206200508f8339815191528054600290811062000643576200064362000c2f565b9060005260206000200190816200065b919062000b63565b50620007236004604051806101400160405280683635c9adc5dea00000815260200160328152602001600081526020016040518060600160405280602a815260200162004fce602a913981526001602080830191909152604080518082018252600d81526c4e46542050726976696c65676560981b81840152818401528051808201909152601e81527f4163636573206578636c75736966206176656320626f6e75732031353025000091810191909152606082015260fa608082015260a001600462000212565b6040518060400160405280600781526020016639ba30b93a32b960c91b81525060096000600481526020019081526020016000206008016000815481106200076f576200076f62000c2f565b90600052602060002001908162000787919062000b63565b506040805180820190915260088152671cdd185b99185c9960c21b6020808301919091526004600052600990526000805160206200504483398151915280546001908110620007da57620007da62000c2f565b906000526020600020019081620007f2919062000b63565b506040805180820190915260078152667072656d69756d60c81b602080830191909152600460005260099052600080516020620050448339815191528054600290811062000844576200084462000c2f565b9060005260206000200190816200085c919062000b63565b506040805180820190915260098082526870726976696c65676560b81b6020808401919091526004600052526000805160206200504483398151915280546003908110620008ae57620008ae62000c2f565b906000526020600020019081620008c6919062000b63565b50565b60008281526009602090815260409182902083518155908301516001820155908201516002820155606082015182919060038201906200090a908262000b63565b50608082015160048201805460ff191691151591909117905560a0820151600582019062000939908262000b63565b5060c0820151600682019062000950908262000b63565b5060e08201516007820155610100820151805162000979916008840191602090910190620009be565b50610120919091015160099091015550600a80546001810182556000919091527fc65a7bb8d6351c1cf70c95a316cc6a92839c986682d98bc35f958f4883f9d2a80155565b82805482825590600052602060002090810192821562000a09579160200282015b8281111562000a095782518290620009f8908262000b63565b5091602001919060010190620009df565b5062000a1792915062000a1b565b5090565b8082111562000a1757600062000a32828262000a3c565b5060010162000a1b565b50805462000a4a9062000ad4565b6000825580601f1062000a5b575050565b601f016020900490600052602060002090810190620008c691905b8082111562000a17576000815560010162000a76565b60006020828403121562000a9f57600080fd5b81516001600160a01b038116811462000ab757600080fd5b9392505050565b634e487b7160e01b600052604160045260246000fd5b600181811c9082168062000ae957607f821691505b60208210810362000b0a57634e487b7160e01b600052602260045260246000fd5b50919050565b601f82111562000b5e57600081815260208120601f850160051c8101602086101562000b395750805b601f850160051c820191505b8181101562000b5a5782815560010162000b45565b5050505b505050565b81516001600160401b0381111562000b7f5762000b7f62000abe565b62000b978162000b90845462000ad4565b8462000b10565b602080601f83116001811462000bcf576000841562000bb65750858301515b600019600386901b1c1916600185901b17855562000b5a565b600085815260208120601f198616915b8281101562000c005788860151825594840194600190910190840162000bdf565b508582101562000c1f5787850151600019600388901b60f8161c191681555b5050505050600190811b01905550565b634e487b7160e01b600052603260045260246000fd5b60805161435862000c766000396000818161036c01528181610a6201528181610b3a0152610c3401526143586000f3fe608060405234801561001057600080fd5b50600436106102bb5760003560e01c806370a0823111610182578063bf2d9e0b116100e9578063cf457321116100a2578063e985e9c51161007c578063e985e9c5146106e9578063ee93ba2214610725578063f2fde38b1461072d578063f59323821461074057600080fd5b8063cf45732114610695578063e0ca0cd1146106a8578063e79004f6146106bb57600080fd5b8063bf2d9e0b146105f7578063c293947114610600578063c5e22f3f1461063c578063c621f94c1461064f578063c87b56dd14610662578063cc9d75191461067557600080fd5b806395ccea671161013b57806395ccea671461058c57806395d89b411461059f5780639ff522f0146105a7578063a22cb465146105ba578063ac18992c146105cd578063b88d4fde146105e457600080fd5b806370a082311461052757806370bbcc481461053a578063715018a61461054d5780637a65cdca146105555780638c858a14146105685780638da5cb5b1461057b57600080fd5b80632e51bf761161022657806342842e0e116101df57806342842e0e146104ad5780634752184d146104c057806358c3fa46146104d35780635daf3146146104e65780636352211e146105015780636a8d0c6b1461051457600080fd5b80632e51bf76146104075780632f745c591461041c5780633b2e86571461042f5780633ea4a0231461044f5780633fe323481461046257806340241b691461048557600080fd5b806311eac8551161027857806311eac85514610367578063150bde031461038e5780631bc806e3146103a157806323b872dd146103b457806327cd41c2146103c75780632afd4295146103e757600080fd5b806301ffc9a7146102c057806304e2886b146102e85780630594fd04146102fd57806306fdde0314610314578063081812fc14610329578063095ea7b314610354575b600080fd5b6102d36102ce3660046135c7565b610753565b60405190151581526020015b60405180910390f35b6102fb6102f63660046135eb565b610764565b005b61030660125481565b6040519081526020016102df565b61031c610787565b6040516102df9190613654565b61033c6103373660046135eb565b610819565b6040516001600160a01b0390911681526020016102df565b6102fb610362366004613683565b610840565b61033c7f000000000000000000000000000000000000000000000000000000000000000081565b6102fb61039c3660046135eb565b61095a565b6102fb6103af36600461376a565b610de6565b6102fb6103c23660046137c0565b610f21565b6103066103d53660046135eb565b600b6020526000908152604090205481565b6103fa6103f53660046135eb565b610f52565b6040516102df9190613854565b61040f611041565b6040516102df91906138a2565b61030661042a366004613683565b6111a0565b61030661043d3660046135eb565b60146020526000908152604090205481565b61030661045d36600461396c565b61122b565b6102d36104703660046135eb565b600d6020526000908152604090205460ff1681565b6104986104933660046135eb565b6113f2565b6040516102df99989796959493929190613a46565b6102fb6104bb3660046137c0565b6115dc565b6103066104ce366004613ab6565b6115f7565b6103066104e13660046135eb565b6117c6565b61033c73e0b7bcb42aebb5be565cc81518a48d780f3c001c81565b61033c61050f3660046135eb565b6117e7565b60105461033c906001600160a01b031681565b610306610535366004613b7f565b611847565b610306610548366004613b9a565b6118cd565b6102fb611a89565b610306610563366004613b7f565b611a9d565b6103066105763660046135eb565b611b3c565b6007546001600160a01b031661033c565b6102fb61059a366004613683565b611b5f565b61031c611c3b565b6102fb6105b5366004613c58565b611c4a565b6102fb6105c8366004613c9e565b611d13565b6105d5611d22565b6040516102df93929190613cd5565b6102fb6105f2366004613d0a565b611e6b565b61030660135481565b6010546013546040805173e0b7bcb42aebb5be565cc81518a48d780f3c001c81526001600160a01b0390931660208401528201526060016102df565b61030661064a366004613b7f565b611ea3565b6102fb61065d366004613d85565b611f3b565b61031c6106703660046135eb565b61205e565b6106886106833660046135eb565b612109565b6040516102df9190613dc6565b6102fb6106a3366004613b7f565b61245b565b6102fb6106b63660046135eb565b61250d565b6102d36106c9366004613683565b600c60209081526000928352604080842090915290825290205460ff1681565b6102d36106f7366004613e94565b6001600160a01b03918216600090815260056020908152604080832093909416825291909152205460ff1690565b61040f612533565b6102fb61073b366004613b7f565b61268f565b6102fb61074e366004613b7f565b612705565b600061075e82612834565b92915050565b61076c612859565b6000908152600960205260409020600401805460ff19169055565b60606000805461079690613ec7565b80601f01602080910402602001604051908101604052809291908181526020018280546107c290613ec7565b801561080f5780601f106107e45761010080835404028352916020019161080f565b820191906000526020600020905b8154815290600101906020018083116107f257829003601f168201915b5050505050905090565b6000610824826128b3565b506000908152600460205260409020546001600160a01b031690565b600061084b826117e7565b9050806001600160a01b0316836001600160a01b0316036108bd5760405162461bcd60e51b815260206004820152602160248201527f4552433732313a20617070726f76616c20746f2063757272656e74206f776e656044820152603960f91b60648201526084015b60405180910390fd5b336001600160a01b03821614806108d957506108d981336106f7565b61094b5760405162461bcd60e51b815260206004820152603d60248201527f4552433732313a20617070726f76652063616c6c6572206973206e6f7420746f60448201527f6b656e206f776e6572206f7220617070726f76656420666f7220616c6c00000060648201526084016108b4565b6109558383612912565b505050565b610962612980565b60008181526009602052604090206004015460ff166109b45760405162461bcd60e51b815260206004820152600e60248201526d2a34b2b9103737b71030b1ba34b360911b60448201526064016108b4565b60008181526009602052604090206001810154600290910154106109ea5760405162461bcd60e51b81526004016108b490613f01565b600081815260096020526040902054610a355760405162461bcd60e51b815260206004820152600d60248201526c5469657220696e76616c69646560981b60448201526064016108b4565b60008181526009602052604090819020549051636eb1769f60e11b815233600482015230602482015281907f00000000000000000000000000000000000000000000000000000000000000006001600160a01b03169063dd62ed3e90604401602060405180830381865afa158015610ab1573d6000803e3d6000fd5b505050506040513d601f19601f82011682018060405250810190610ad59190613f29565b1015610b235760405162461bcd60e51b815260206004820152601b60248201527f416c6c6f77616e6365205553444320696e737566666973616e7465000000000060448201526064016108b4565b6040516370a0823160e01b815233600482015281907f00000000000000000000000000000000000000000000000000000000000000006001600160a01b0316906370a0823190602401602060405180830381865afa158015610b89573d6000803e3d6000fd5b505050506040513d601f19601f82011682018060405250810190610bad9190613f29565b1015610bfb5760405162461bcd60e51b815260206004820152601960248201527f42616c616e6365205553444320696e737566666973616e74650000000000000060448201526064016108b4565b6040516323b872dd60e01b815233600482015273e0b7bcb42aebb5be565cc81518a48d780f3c001c6024820152604481018290526000907f00000000000000000000000000000000000000000000000000000000000000006001600160a01b0316906323b872dd906064016020604051808303816000875af1158015610c85573d6000803e3d6000fd5b505050506040513d601f19601f82011682018060405250810190610ca99190613f42565b905080610d045760405162461bcd60e51b815260206004820152602360248201527f5472616e736665727420555344432076657273207472656173757279206563686044820152626f756560e81b60648201526084016108b4565b8160136000828254610d169190613f75565b909155505060008381526014602052604081208054849290610d39908490613f75565b90915550610d4b9050338460006129d9565b601154604080518581526020810185905233917f25d1144310b3f5e9cb8ad2e2bd379aef97847a57087ab9cbcd95a06105a4629c910160405180910390a36040805183815273e0b7bcb42aebb5be565cc81518a48d780f3c001c602082015284917f46bfe087193767d942e8352e78fdcc40911c5c3b332c01410b9864a6fa8a89ae910160405180910390a25050610de36001600855565b50565b610dee612859565b60008281526009602052604090206004015460ff16610e405760405162461bcd60e51b815260206004820152600e60248201526d2a34b2b9103737b71030b1ba34b360911b60448201526064016108b4565b6000828152600d602052604090205460ff16610e945760405162461bcd60e51b815260206004820152601360248201527214185cc81d5b881d1a595c881cdc1958da585b606a1b60448201526064016108b4565b6000828152600960205260409020600181015460029091015410610eca5760405162461bcd60e51b81526004016108b490613f01565b610ed6838360016129d9565b601154836001600160a01b03167fc7ece8dd4ef8de13da640ef8b2d8ad4cdf8e1fc865d3a7356d995ad714528a5c8484604051610f14929190613f88565b60405180910390a3505050565b610f2b3382612aa2565b610f475760405162461bcd60e51b81526004016108b490613fa1565b610955838383612b21565b606060096000838152602001908152602001600020600801805480602002602001604051908101604052809291908181526020016000905b82821015611036578382906000526020600020018054610fa990613ec7565b80601f0160208091040260200160405190810160405280929190818152602001828054610fd590613ec7565b80156110225780601f10610ff757610100808354040283529160200191611022565b820191906000526020600020905b81548152906001019060200180831161100557829003601f168201915b505050505081526020019060010190610f8a565b505050509050919050565b60606000805b600a548110156110ac57600d6000600a838154811061106857611068613fee565b6000918252602080832090910154835282019290925260400190205460ff161561109a578161109681614004565b9250505b806110a481614004565b915050611047565b506000816001600160401b038111156110c7576110c76136ad565b6040519080825280602002602001820160405280156110f0578160200160208202803683370190505b5090506000805b600a5481101561119757600d6000600a838154811061111857611118613fee565b6000918252602080832090910154835282019290925260400190205460ff161561118557600a818154811061114f5761114f613fee565b906000526020600020015483838151811061116c5761116c613fee565b60209081029190910101528161118181614004565b9250505b8061118f81614004565b9150506110f7565b50909392505050565b60006111ab83611847565b82106111ee5760405162461bcd60e51b8152602060048201526012602482015271496e64657820686f7273206c696d6974657360701b60448201526064016108b4565b6001600160a01b0383166000908152600e6020526040902080548390811061121857611218613fee565b9060005260206000200154905092915050565b6000611235612859565b60128054908190600061124783614004565b9190505550604051806101400160405280898152602001888152602001600081526020018681526020016001151581526020018b81526020018a8152602001878152602001858152602001428152506009600083815260200190815260200160002060008201518160000155602082015181600101556040820151816002015560608201518160030190816112dc919061406b565b50608082015160048201805460ff191691151591909117905560a08201516005820190611309908261406b565b5060c0820151600682019061131e908261406b565b5060e0820151600782015561010082015180516113459160088401916020909101906134f4565b506101209190910151600990910155600a80546001810182556000919091527fc65a7bb8d6351c1cf70c95a316cc6a92839c986682d98bc35f958f4883f9d2a80181905582156113a9576000818152600d60205260409020805460ff191660011790555b807f0655289c4d9d7c45c2b83b18a45e3ce05f40710e413db2117ee045e2ab12cab28b8a8a6040516113dd9392919061412a565b60405180910390a29998505050505050505050565b60096020526000908152604090208054600182015460028301546003840180549394929391929161142290613ec7565b80601f016020809104026020016040519081016040528092919081815260200182805461144e90613ec7565b801561149b5780601f106114705761010080835404028352916020019161149b565b820191906000526020600020905b81548152906001019060200180831161147e57829003601f168201915b5050506004840154600585018054949560ff9092169491935091506114bf90613ec7565b80601f01602080910402602001604051908101604052809291908181526020018280546114eb90613ec7565b80156115385780601f1061150d57610100808354040283529160200191611538565b820191906000526020600020905b81548152906001019060200180831161151b57829003601f168201915b50505050509080600601805461154d90613ec7565b80601f016020809104026020016040519081016040528092919081815260200182805461157990613ec7565b80156115c65780601f1061159b576101008083540402835291602001916115c6565b820191906000526020600020905b8154815290600101906020018083116115a957829003601f168201915b5050505050908060070154908060090154905089565b61095583838360405180602001604052806000815250611e6b565b6000611601612859565b600088604051602001611614919061414f565b60408051601f19818403018152919052601280549192508190600061163883614004565b9190505550604051806101400160405280898152602001888152602001600081526020018681526020016001151581526020018381526020018a8152602001878152602001858152602001428152506009600083815260200190815260200160002060008201518160000155602082015181600101556040820151816002015560608201518160030190816116cd919061406b565b50608082015160048201805460ff191691151591909117905560a082015160058201906116fa908261406b565b5060c0820151600682019061170f908261406b565b5060e0820151600782015561010082015180516117369160088401916020909101906134f4565b506101209190910151600990910155600a805460018181019092557fc65a7bb8d6351c1cf70c95a316cc6a92839c986682d98bc35f958f4883f9d2a8018290556000828152600d602052604090819020805460ff19169092179091555181907f0655289c4d9d7c45c2b83b18a45e3ce05f40710e413db2117ee045e2ab12cab2906113dd9085908c908c9061412a565b600a81815481106117d657600080fd5b600091825260209091200154905081565b6000818152600260205260408120546001600160a01b03168061075e5760405162461bcd60e51b8152602060048201526018602482015277115490cdcc8c4e881a5b9d985b1a59081d1bdad95b88125160421b60448201526064016108b4565b60006001600160a01b0382166118b15760405162461bcd60e51b815260206004820152602960248201527f4552433732313a2061646472657373207a65726f206973206e6f7420612076616044820152683634b21037bbb732b960b91b60648201526084016108b4565b506001600160a01b031660009081526003602052604090205490565b60006118d7612859565b6012805490819060006118e983614004565b919050555060405180610140016040528060008152602001878152602001600081526020018581526020016001151581526020018981526020018881526020018681526020018481526020014281525060096000838152602001908152602001600020600082015181600001556020820151816001015560408201518160020155606082015181600301908161197f919061406b565b50608082015160048201805460ff191691151591909117905560a082015160058201906119ac908261406b565b5060c082015160068201906119c1908261406b565b5060e0820151600782015561010082015180516119e89160088401916020909101906134f4565b506101209190910151600990910155600a805460018181019092557fc65a7bb8d6351c1cf70c95a316cc6a92839c986682d98bc35f958f4883f9d2a8018290556000828152600d6020526040808220805460ff1916909317909255905182917f0655289c4d9d7c45c2b83b18a45e3ce05f40710e413db2117ee045e2ab12cab291611a76918c918b9061412a565b60405180910390a2979650505050505050565b611a91612859565b611a9b6000612c8d565b565b600080805b600a54811015611b35576000600a8281548110611ac157611ac1613fee565b60009182526020808320909101546001600160a01b0388168352600c8252604080842082855290925291205490915060ff1615611b225760008381526009602052604080822060079081015484845291909220909101541115611b22578092505b5080611b2d81614004565b915050611aa2565b5092915050565b6000818152600960205260408120600281015460019091015461075e919061417b565b611b67612859565b6001600160a01b038216611bb65760405162461bcd60e51b81526020600482015260166024820152754164726573736520746f6b656e20696e76616c69646560501b60448201526064016108b4565b60405163a9059cbb60e01b815273e0b7bcb42aebb5be565cc81518a48d780f3c001c6004820152602481018290526001600160a01b0383169063a9059cbb906044016020604051808303816000875af1158015611c17573d6000803e3d6000fd5b505050506040513d601f19601f820116820180604052508101906109559190613f42565b60606001805461079690613ec7565b611c52612859565b60008281526009602081905260409091200154611ca35760405162461bcd60e51b815260206004820152600f60248201526e151a595c881a5b995e1a5cdd185b9d608a1b60448201526064016108b4565b60005b81518110156109555760096000848152602001908152602001600020600801828281518110611cd757611cd7613fee565b60209081029190910181015182546001810184556000938452919092200190611d00908261406b565b5080611d0b81614004565b915050611ca6565b611d1e338383612cdf565b5050565b6000606080600a805490506001600160401b03811115611d4457611d446136ad565b604051908082528060200260200182016040528015611d6d578160200160208202803683370190505b50600a549092506001600160401b03811115611d8b57611d8b6136ad565b604051908082528060200260200182016040528015611db4578160200160208202803683370190505b50905060005b600a54811015611e6057600a8181548110611dd757611dd7613fee565b9060005260206000200154838281518110611df457611df4613fee565b60200260200101818152505060146000600a8381548110611e1757611e17613fee565b9060005260206000200154815260200190815260200160002054828281518110611e4357611e43613fee565b602090810291909101015280611e5881614004565b915050611dba565b506013549250909192565b611e753383612aa2565b611e915760405162461bcd60e51b81526004016108b490613fa1565b611e9d84848484612da5565b50505050565b604051633d32e6e560e11b81526001600160a01b038216600482015260009081903090637a65cdca90602401602060405180830381865afa158015611eec573d6000803e3d6000fd5b505050506040513d601f19601f82011682018060405250810190611f109190613f29565b905080600003611f235750606492915050565b60009081526009602052604090206007015492915050565b611f43612859565b60008481526009602081905260409091200154611f945760405162461bcd60e51b815260206004820152600f60248201526e151a595c881a5b995e1a5cdd185b9d608a1b60448201526064016108b4565b600084815260096020526040902060020154821015611ff55760405162461bcd60e51b815260206004820152601a60248201527f537570706c7920696e66657269657572206175206d696e74656400000000000060448201526064016108b4565b60008481526009602090815260409182902085815560018101859055600401805460ff1916841515179055815185815290810184905285917f2702951ec468d8fb7c1501e01af87b4bd50cda65a20463fc38ee59b954a777b0910160405180910390a250505050565b6000818152600260205260409020546060906001600160a01b03166120b85760405162461bcd60e51b815260206004820152601060248201526f151bdad95b881a5b995e1a5cdd185b9d60821b60448201526064016108b4565b6000828152600b602090815260408083205480845260099092529091206003016120e184612dd8565b6040516020016120f292919061418e565b604051602081830303815290604052915050919050565b6121616040518061014001604052806000815260200160008152602001600081526020016060815260200160001515815260200160608152602001606081526020016000815260200160608152602001600081525090565b60096000838152602001908152602001600020604051806101400160405290816000820154815260200160018201548152602001600282015481526020016003820180546121ae90613ec7565b80601f01602080910402602001604051908101604052809291908181526020018280546121da90613ec7565b80156122275780601f106121fc57610100808354040283529160200191612227565b820191906000526020600020905b81548152906001019060200180831161220a57829003601f168201915b5050509183525050600482015460ff161515602082015260058201805460409092019161225390613ec7565b80601f016020809104026020016040519081016040528092919081815260200182805461227f90613ec7565b80156122cc5780601f106122a1576101008083540402835291602001916122cc565b820191906000526020600020905b8154815290600101906020018083116122af57829003601f168201915b505050505081526020016006820180546122e590613ec7565b80601f016020809104026020016040519081016040528092919081815260200182805461231190613ec7565b801561235e5780601f106123335761010080835404028352916020019161235e565b820191906000526020600020905b81548152906001019060200180831161234157829003601f168201915b505050505081526020016007820154815260200160088201805480602002602001604051908101604052809291908181526020016000905b828210156124425783829060005260206000200180546123b590613ec7565b80601f01602080910402602001604051908101604052809291908181526020018280546123e190613ec7565b801561242e5780601f106124035761010080835404028352916020019161242e565b820191906000526020600020905b81548152906001019060200180831161241157829003601f168201915b505050505081526020019060010190612396565b5050505081526020016009820154815250509050919050565b612463612859565b6001600160a01b0381166124ac5760405162461bcd60e51b815260206004820152601060248201526f4164726573736520696e76616c69646560801b60448201526064016108b4565b601080546001600160a01b038381166001600160a01b031983168117909355604080519190921680825260208201939093527f4ab5be82436d353e61ca18726e984e561f5c1cc7c6d38b29d2553c790434705a910160405180910390a15050565b612515612859565b6000908152600960205260409020600401805460ff19166001179055565b60606000805b600a548110156125a15760096000600a838154811061255a5761255a613fee565b6000918252602080832090910154835282019290925260400190206004015460ff161561258f578161258b81614004565b9250505b8061259981614004565b915050612539565b506000816001600160401b038111156125bc576125bc6136ad565b6040519080825280602002602001820160405280156125e5578160200160208202803683370190505b5090506000805b600a548110156111975760096000600a838154811061260d5761260d613fee565b6000918252602080832090910154835282019290925260400190206004015460ff161561267d57600a818154811061264757612647613fee565b906000526020600020015483838151811061266457612664613fee565b60209081029190910101528161267981614004565b9250505b8061268781614004565b9150506125ec565b612697612859565b6001600160a01b0381166126fc5760405162461bcd60e51b815260206004820152602660248201527f4f776e61626c653a206e6577206f776e657220697320746865207a65726f206160448201526564647265737360d01b60648201526084016108b4565b610de381612c8d565b61270d612859565b6001600160a01b0381166000908152600c602090815260408083206004845290915290205460ff16156127825760405162461bcd60e51b815260206004820152601a60248201527f4e46542050726976696c6567652064656a6120706f737365646500000000000060448201526064016108b4565b600460005260096020527f8dc18c4ccfd75f5c815b63770fa542fd953e8fef7e0e44bbdd4913470ce7e9cc547f8dc18c4ccfd75f5c815b63770fa542fd953e8fef7e0e44bbdd4913470ce7e9cd54106127ed5760405162461bcd60e51b81526004016108b490613f01565b6127fa81600460016129d9565b6011546040516001600160a01b038316907f4a953b86fd09d570573647f99531f4d35f1f3c5c165b58296e072709eef1d55c90600090a350565b60006001600160e01b03198216632483248360e11b148061075e575061075e82612e6a565b6007546001600160a01b03163314611a9b5760405162461bcd60e51b815260206004820181905260248201527f4f776e61626c653a2063616c6c6572206973206e6f7420746865206f776e657260448201526064016108b4565b6000818152600260205260409020546001600160a01b0316610de35760405162461bcd60e51b8152602060048201526018602482015277115490cdcc8c4e881a5b9d985b1a59081d1bdad95b88125160421b60448201526064016108b4565b600081815260046020526040902080546001600160a01b0319166001600160a01b0384169081179091558190612947826117e7565b6001600160a01b03167f8c5be1e5ebec7d5bd14f71427d1e84f3dd0314c0f7b2291e5b200ac8c7c3b92560405160405180910390a45050565b6002600854036129d25760405162461bcd60e51b815260206004820152601f60248201527f5265656e7472616e637947756172643a207265656e7472616e742063616c6c0060448201526064016108b4565b6002600855565b601180549060006129e983614004565b90915550506011546129fb8482612eba565b6000818152600b602090815260408083208690556001600160a01b0387168352600c82528083208684528252808320805460ff1916600117905560099091528120600201805491612a4b83614004565b90915550506001600160a01b0384166000818152600e60209081526040822080546001818101835582855292842001859055929091529054612a8d919061417b565b6000918252600f602052604090912055505050565b600080612aae836117e7565b9050806001600160a01b0316846001600160a01b03161480612af557506001600160a01b0380821660009081526005602090815260408083209388168352929052205460ff165b80612b195750836001600160a01b0316612b0e84610819565b6001600160a01b0316145b949350505050565b826001600160a01b0316612b34826117e7565b6001600160a01b031614612b5a5760405162461bcd60e51b81526004016108b490614225565b6001600160a01b038216612bbc5760405162461bcd60e51b8152602060048201526024808201527f4552433732313a207472616e7366657220746f20746865207a65726f206164646044820152637265737360e01b60648201526084016108b4565b826001600160a01b0316612bcf826117e7565b6001600160a01b031614612bf55760405162461bcd60e51b81526004016108b490614225565b600081815260046020908152604080832080546001600160a01b03199081169091556001600160a01b0387811680865260038552838620805460001901905590871680865283862080546001019055868652600290945282852080549092168417909155905184937fddf252ad1be2c89b69c2b068fc378daa952ba7f163c4a11628f55a4df523b3ef91a46109558383836001612ed4565b600780546001600160a01b038381166001600160a01b0319831681179093556040519116919082907f8be0079c531659141344cd1fd0a4f28419497f9722a3daafe3b4186f6b6457e090600090a35050565b816001600160a01b0316836001600160a01b031603612d405760405162461bcd60e51b815260206004820152601960248201527f4552433732313a20617070726f766520746f2063616c6c65720000000000000060448201526064016108b4565b6001600160a01b03838116600081815260056020908152604080832094871680845294825291829020805460ff191686151590811790915591519182527f17307eab39ab6107e8899845ad3d59bd9653f200f220920489ca2b5937696c319101610f14565b612db0848484612b21565b612dbc848484846130eb565b611e9d5760405162461bcd60e51b81526004016108b49061426a565b60606000612de5836131ec565b60010190506000816001600160401b03811115612e0457612e046136ad565b6040519080825280601f01601f191660200182016040528015612e2e576020820181803683370190505b5090508181016020015b600019016f181899199a1a9b1b9c1cb0b131b232b360811b600a86061a8153600a8504945084612e3857509392505050565b60006001600160e01b031982166380ac58cd60e01b1480612e9b57506001600160e01b03198216635b5e139f60e01b145b8061075e57506301ffc9a760e01b6001600160e01b031983161461075e565b611d1e8282604051806020016040528060008152506132c4565b6001600160a01b03841615801590612ef457506001600160a01b03831615155b15611e9d576000828152600b60209081526040808320546001600160a01b0388168452600e909252822054909190612f2e9060019061417b565b6000858152600f6020526040902054909150808214612fd5576001600160a01b0387166000908152600e60205260408120805484908110612f7157612f71613fee565b9060005260206000200154905080600e60008a6001600160a01b03166001600160a01b031681526020019081526020016000208381548110612fb557612fb5613fee565b6000918252602080832090910192909255918252600f9052604090208190555b6001600160a01b0387166000908152600e60205260409020805480612ffc57612ffc6142bc565b600082815260208082208301600019908101839055909201909255868252600f815260408083208390556001600160a01b038916808452600e8352908320805460018181018355828652938520018990559252905461305b919061417b565b6000868152600f602052604090205561307387611847565b1580613086575061308487846132f7565b155b156130b7576001600160a01b0387166000908152600c602090815260408083208684529091529020805460ff191690555b50506001600160a01b0384166000908152600c6020908152604080832093835292905220805460ff19166001179055611e9d565b60006001600160a01b0384163b156131e157604051630a85bd0160e11b81526001600160a01b0385169063150b7a029061312f9033908990889088906004016142d2565b6020604051808303816000875af192505050801561316a575060408051601f3d908101601f1916820190925261316791810190614305565b60015b6131c7573d808015613198576040519150601f19603f3d011682016040523d82523d6000602084013e61319d565b606091505b5080516000036131bf5760405162461bcd60e51b81526004016108b49061426a565b805181602001fd5b6001600160e01b031916630a85bd0160e11b149050612b19565b506001949350505050565b60008072184f03e93ff9f4daa797ed6e38ed64bf6a1f0160401b831061322b5772184f03e93ff9f4daa797ed6e38ed64bf6a1f0160401b830492506040015b6d04ee2d6d415b85acef81000000008310613257576d04ee2d6d415b85acef8100000000830492506020015b662386f26fc10000831061327557662386f26fc10000830492506010015b6305f5e100831061328d576305f5e100830492506008015b61271083106132a157612710830492506004015b606483106132b3576064830492506002015b600a831061075e5760010192915050565b6132ce838361335f565b6132db60008484846130eb565b6109555760405162461bcd60e51b81526004016108b49061426a565b60008061330384611847565b905060005b8181101561335457600061331c86836111a0565b6000818152600b6020526040902054909150859003613341576001935050505061075e565b508061334c81614004565b915050613308565b506000949350505050565b6001600160a01b0382166133b55760405162461bcd60e51b815260206004820181905260248201527f4552433732313a206d696e7420746f20746865207a65726f206164647265737360448201526064016108b4565b6000818152600260205260409020546001600160a01b03161561341a5760405162461bcd60e51b815260206004820152601c60248201527f4552433732313a20746f6b656e20616c7265616479206d696e7465640000000060448201526064016108b4565b6000818152600260205260409020546001600160a01b03161561347f5760405162461bcd60e51b815260206004820152601c60248201527f4552433732313a20746f6b656e20616c7265616479206d696e7465640000000060448201526064016108b4565b6001600160a01b038216600081815260036020908152604080832080546001019055848352600290915280822080546001600160a01b0319168417905551839291907fddf252ad1be2c89b69c2b068fc378daa952ba7f163c4a11628f55a4df523b3ef908290a4611d1e600083836001612ed4565b82805482825590600052602060002090810192821561353a579160200282015b8281111561353a578251829061352a908261406b565b5091602001919060010190613514565b5061354692915061354a565b5090565b8082111561354657600061355e8282613567565b5060010161354a565b50805461357390613ec7565b6000825580601f10613583575050565b601f016020900490600052602060002090810190610de391905b80821115613546576000815560010161359d565b6001600160e01b031981168114610de357600080fd5b6000602082840312156135d957600080fd5b81356135e4816135b1565b9392505050565b6000602082840312156135fd57600080fd5b5035919050565b60005b8381101561361f578181015183820152602001613607565b50506000910152565b60008151808452613640816020860160208601613604565b601f01601f19169290920160200192915050565b6020815260006135e46020830184613628565b80356001600160a01b038116811461367e57600080fd5b919050565b6000806040838503121561369657600080fd5b61369f83613667565b946020939093013593505050565b634e487b7160e01b600052604160045260246000fd5b604051601f8201601f191681016001600160401b03811182821017156136eb576136eb6136ad565b604052919050565b60006001600160401b0383111561370c5761370c6136ad565b61371f601f8401601f19166020016136c3565b905082815283838301111561373357600080fd5b828260208301376000602084830101529392505050565b600082601f83011261375b57600080fd5b6135e4838335602085016136f3565b60008060006060848603121561377f57600080fd5b61378884613667565b92506020840135915060408401356001600160401b038111156137aa57600080fd5b6137b68682870161374a565b9150509250925092565b6000806000606084860312156137d557600080fd5b6137de84613667565b92506137ec60208501613667565b9150604084013590509250925092565b600082825180855260208086019550808260051b84010181860160005b8481101561384757601f19868403018952613835838351613628565b98840198925090830190600101613819565b5090979650505050505050565b6020815260006135e460208301846137fc565b600081518084526020808501945080840160005b838110156138975781518752958201959082019060010161387b565b509495945050505050565b6020815260006135e46020830184613867565b600082601f8301126138c657600080fd5b813560206001600160401b03808311156138e2576138e26136ad565b8260051b6138f18382016136c3565b938452858101830193838101908886111561390b57600080fd5b84880192505b85831015613947578235848111156139295760008081fd5b6139378a87838c010161374a565b8352509184019190840190613911565b98975050505050505050565b8015158114610de357600080fd5b803561367e81613953565b600080600080600080600080610100898b03121561398957600080fd5b88356001600160401b03808211156139a057600080fd5b6139ac8c838d0161374a565b995060208b01359150808211156139c257600080fd5b6139ce8c838d0161374a565b985060408b0135975060608b0135965060808b0135955060a08b01359150808211156139f957600080fd5b613a058c838d0161374a565b945060c08b0135915080821115613a1b57600080fd5b50613a288b828c016138b5565b925050613a3760e08a01613961565b90509295985092959890939650565b60006101208b83528a6020840152896040840152806060840152613a6c8184018a613628565b9050871515608084015282810360a0840152613a888188613628565b905082810360c0840152613a9c8187613628565b60e084019590955250506101000152979650505050505050565b600080600080600080600060e0888a031215613ad157600080fd5b87356001600160401b0380821115613ae857600080fd5b613af48b838c0161374a565b985060208a0135915080821115613b0a57600080fd5b613b168b838c0161374a565b975060408a0135965060608a0135955060808a0135945060a08a0135915080821115613b4157600080fd5b613b4d8b838c0161374a565b935060c08a0135915080821115613b6357600080fd5b50613b708a828b016138b5565b91505092959891949750929550565b600060208284031215613b9157600080fd5b6135e482613667565b60008060008060008060c08789031215613bb357600080fd5b86356001600160401b0380821115613bca57600080fd5b613bd68a838b0161374a565b97506020890135915080821115613bec57600080fd5b613bf88a838b0161374a565b965060408901359550606089013594506080890135915080821115613c1c57600080fd5b613c288a838b0161374a565b935060a0890135915080821115613c3e57600080fd5b50613c4b89828a016138b5565b9150509295509295509295565b60008060408385031215613c6b57600080fd5b8235915060208301356001600160401b03811115613c8857600080fd5b613c94858286016138b5565b9150509250929050565b60008060408385031215613cb157600080fd5b613cba83613667565b91506020830135613cca81613953565b809150509250929050565b838152606060208201526000613cee6060830185613867565b8281036040840152613d008185613867565b9695505050505050565b60008060008060808587031215613d2057600080fd5b613d2985613667565b9350613d3760208601613667565b92506040850135915060608501356001600160401b03811115613d5957600080fd5b8501601f81018713613d6a57600080fd5b613d79878235602084016136f3565b91505092959194509250565b60008060008060808587031215613d9b57600080fd5b8435935060208501359250604085013591506060850135613dbb81613953565b939692955090935050565b6020815281516020820152602082015160408201526040820151606082015260006060830151610140806080850152613e03610160850183613628565b91506080850151613e1860a086018215159052565b5060a0850151601f19808685030160c0870152613e358483613628565b935060c08701519150808685030160e0870152613e528483613628565b935060e08701519150610100828188015280880151925050610120818786030181880152613e8085846137fc565b970151959092019490945250929392505050565b60008060408385031215613ea757600080fd5b613eb083613667565b9150613ebe60208401613667565b90509250929050565b600181811c90821680613edb57607f821691505b602082108103613efb57634e487b7160e01b600052602260045260246000fd5b50919050565b6020808252600e908201526d537570706c79206570756973656560901b604082015260600190565b600060208284031215613f3b57600080fd5b5051919050565b600060208284031215613f5457600080fd5b81516135e481613953565b634e487b7160e01b600052601160045260246000fd5b8082018082111561075e5761075e613f5f565b828152604060208201526000612b196040830184613628565b6020808252602d908201527f4552433732313a2063616c6c6572206973206e6f7420746f6b656e206f776e6560408201526c1c881bdc88185c1c1c9bdd9959609a1b606082015260800190565b634e487b7160e01b600052603260045260246000fd5b60006001820161401657614016613f5f565b5060010190565b601f82111561095557600081815260208120601f850160051c810160208610156140445750805b601f850160051c820191505b8181101561406357828155600101614050565b505050505050565b81516001600160401b03811115614084576140846136ad565b614098816140928454613ec7565b8461401d565b602080601f8311600181146140cd57600084156140b55750858301515b600019600386901b1c1916600185901b178555614063565b600085815260208120601f198616915b828110156140fc578886015182559484019460019091019084016140dd565b508582101561411a5787850151600019600388901b60f8161c191681555b5050505050600190811b01905550565b60608152600061413d6060830186613628565b60208301949094525060400152919050565b63027232a160e51b81526000825161416e816004850160208701613604565b9190910160040192915050565b8181038181111561075e5761075e613f5f565b600080845461419c81613ec7565b600182811680156141b457600181146141c9576141f8565b60ff19841687528215158302870194506141f8565b8860005260208060002060005b858110156141ef5781548a8201529084019082016141d6565b50505082870194505b50505050835161420c818360208801613604565b64173539b7b760d91b9101908152600501949350505050565b60208082526025908201527f4552433732313a207472616e736665722066726f6d20696e636f72726563742060408201526437bbb732b960d91b606082015260800190565b60208082526032908201527f4552433732313a207472616e7366657220746f206e6f6e20455243373231526560408201527131b2b4bb32b91034b6b83632b6b2b73a32b960711b606082015260800190565b634e487b7160e01b600052603160045260246000fd5b6001600160a01b0385811682528416602082015260408101839052608060608201819052600090613d0090830184613628565b60006020828403121561431757600080fd5b81516135e4816135b156fea2646970667358221220799d6c5cf4673567d2c7dd2f3f6bfc8ec4d8ae591b7354881630bf1c6cbdc1e264736f6c6343000814003368747470733a2f2f6170692e63727970746f7661756c742e636f6d2f6e66742f70726976696c6567652f68747470733a2f2f6170692e63727970746f7661756c742e636f6d2f6e66742f676f6c642f68747470733a2f2f6170692e63727970746f7661756c742e636f6d2f6e66742f62726f6e7a652f8dc18c4ccfd75f5c815b63770fa542fd953e8fef7e0e44bbdd4913470ce7e9d341636365732061757820737472617465676965732064652062617365206176656320626f6e757320323025c575c31fea594a6eb97c8e9d3f9caee4c16218c6ef37e923234c0fe9014a61ef68747470733a2f2f6170692e63727970746f7661756c742e636f6d2f6e66742f73696c7665722f",
  "linkReferences": {},
  "deployedLinkReferences": {}
}