{"contracts/CryptocaVaultNFT.sol":{"CryptocaVaultNFT":{"abi":[{"inputs":[{"internalType":"address","name":"_usdcToken","type":"address"}],"stateMutability":"nonpayable","type":"constructor"},{"anonymous":false,"inputs":[{"indexed":true,"internalType":"address","name":"owner","type":"address"},{"indexed":true,"internalType":"address","name":"approved","type":"address"},{"indexed":true,"internalType":"uint256","name":"tokenId","type":"uint256"}],"name":"Approval","type":"event"},{"anonymous":false,"inputs":[{"indexed":true,"internalType":"address","name":"owner","type":"address"},{"indexed":true,"internalType":"address","name":"operator","type":"address"},{"indexed":false,"internalType":"bool","name":"approved","type":"bool"}],"name":"ApprovalForAll","type":"event"},{"anonymous":false,"inputs":[{"indexed":false,"internalType":"uint256","name":"_fromTokenId","type":"uint256"},{"indexed":false,"internalType":"uint256","name":"_toTokenId","type":"uint256"}],"name":"BatchMetadataUpdate","type":"event"},{"anonymous":false,"inputs":[{"indexed":true,"internalType":"address","name":"user","type":"address"},{"indexed":false,"internalType":"bool","name":"eligible","type":"bool"}],"name":"FidelityEligibilitySet","type":"event"},{"anonymous":false,"inputs":[{"indexed":true,"internalType":"address","name":"user","type":"address"},{"indexed":true,"internalType":"uint256","name":"tokenId","type":"uint256"}],"name":"FidelityNFTClaimed","type":"event"},{"anonymous":false,"inputs":[{"indexed":false,"internalType":"uint256","name":"_tokenId","type":"uint256"}],"name":"MetadataUpdate","type":"event"},{"anonymous":false,"inputs":[{"indexed":true,"internalType":"address","name":"buyer","type":"address"},{"indexed":true,"internalType":"uint256","name":"tokenId","type":"uint256"},{"indexed":false,"internalType":"uint256","name":"tier","type":"uint256"},{"indexed":false,"internalType":"uint256","name":"price","type":"uint256"}],"name":"NFTPurchased","type":"event"},{"anonymous":false,"inputs":[{"indexed":true,"internalType":"address","name":"previousOwner","type":"address"},{"indexed":true,"internalType":"address","name":"newOwner","type":"address"}],"name":"OwnershipTransferred","type":"event"},{"anonymous":false,"inputs":[{"indexed":true,"internalType":"uint256","name":"tier","type":"uint256"},{"indexed":false,"internalType":"uint256","name":"amount","type":"uint256"},{"indexed":false,"internalType":"address","name":"treasury","type":"address"}],"name":"RevenueGenerated","type":"event"},{"anonymous":false,"inputs":[{"indexed":true,"internalType":"address","name":"to","type":"address"},{"indexed":true,"internalType":"uint256","name":"tokenId","type":"uint256"},{"indexed":false,"internalType":"uint256","name":"tier","type":"uint256"},{"indexed":false,"internalType":"string","name":"reason","type":"string"}],"name":"SpecialNFTMinted","type":"event"},{"anonymous":false,"inputs":[{"indexed":true,"internalType":"uint256","name":"tier","type":"uint256"},{"indexed":false,"internalType":"string","name":"name","type":"string"},{"indexed":false,"internalType":"uint256","name":"price","type":"uint256"},{"indexed":false,"internalType":"uint256","name":"supply","type":"uint256"}],"name":"TierCreated","type":"event"},{"anonymous":false,"inputs":[{"indexed":true,"internalType":"uint256","name":"tier","type":"uint256"},{"indexed":false,"internalType":"uint256","name":"price","type":"uint256"},{"indexed":false,"internalType":"uint256","name":"supply","type":"uint256"}],"name":"TierUpdated","type":"event"},{"anonymous":false,"inputs":[{"indexed":true,"internalType":"address","name":"from","type":"address"},{"indexed":true,"internalType":"address","name":"to","type":"address"},{"indexed":true,"internalType":"uint256","name":"tokenId","type":"uint256"}],"name":"Transfer","type":"event"},{"anonymous":false,"inputs":[{"indexed":false,"internalType":"address","name":"oldTreasury","type":"address"},{"indexed":false,"internalType":"address","name":"newTreasury","type":"address"}],"name":"TreasuryUpdated","type":"event"},{"inputs":[],"name":"TREASURY_WALLET","outputs":[{"internalType":"address","name":"","type":"address"}],"stateMutability":"view","type":"function"},{"inputs":[{"internalType":"uint256","name":"","type":"uint256"}],"name":"activeTiers","outputs":[{"internalType":"uint256","name":"","type":"uint256"}],"stateMutability":"view","type":"function"},{"inputs":[{"internalType":"uint256","name":"tier","type":"uint256"},{"internalType":"string[]","name":"newPlans","type":"string[]"}],"name":"addAccessPlansToTier","outputs":[],"stateMutability":"nonpayable","type":"function"},{"inputs":[{"internalType":"address","name":"to","type":"address"},{"internalType":"uint256","name":"tokenId","type":"uint256"}],"name":"approve","outputs":[],"stateMutability":"nonpayable","type":"function"},{"inputs":[],"name":"backupTreasuryWallet","outputs":[{"internalType":"address","name":"","type":"address"}],"stateMutability":"view","type":"function"},{"inputs":[{"internalType":"address","name":"owner","type":"address"}],"name":"balanceOf","outputs":[{"internalType":"uint256","name":"","type":"uint256"}],"stateMutability":"view","type":"function"},{"inputs":[{"internalType":"address","name":"user","type":"address"}],"name":"checkFidelityEligibility","outputs":[{"internalType":"bool","name":"eligible","type":"bool"},{"internalType":"bool","name":"alreadyClaimed","type":"bool"},{"internalType":"bool","name":"tierActive","type":"bool"},{"internalType":"uint256","name":"remaining","type":"uint256"}],"stateMutability":"view","type":"function"},{"inputs":[{"internalType":"address","name":"fidelUser","type":"address"}],"name":"claimFidelityNFT","outputs":[],"stateMutability":"nonpayable","type":"function"},{"inputs":[],"name":"claimMyFidelityNFT","outputs":[],"stateMutability":"nonpayable","type":"function"},{"inputs":[{"internalType":"string","name":"name","type":"string"},{"internalType":"string","name":"description","type":"string"},{"internalType":"uint256","name":"supply","type":"uint256"},{"internalType":"uint256","name":"multiplier","type":"uint256"},{"internalType":"string","name":"baseURI","type":"string"},{"internalType":"string[]","name":"accessPlans","type":"string[]"}],"name":"createEventNFT","outputs":[{"internalType":"uint256","name":"","type":"uint256"}],"stateMutability":"nonpayable","type":"function"},{"inputs":[{"internalType":"string","name":"name","type":"string"},{"internalType":"string","name":"description","type":"string"},{"internalType":"uint256","name":"price","type":"uint256"},{"internalType":"uint256","name":"supply","type":"uint256"},{"internalType":"uint256","name":"multiplier","type":"uint256"},{"internalType":"string","name":"baseURI","type":"string"},{"internalType":"string[]","name":"accessPlans","type":"string[]"},{"internalType":"bool","name":"isSpecial","type":"bool"}],"name":"createNewTier","outputs":[{"internalType":"uint256","name":"","type":"uint256"}],"stateMutability":"nonpayable","type":"function"},{"inputs":[{"internalType":"string","name":"partnerName","type":"string"},{"internalType":"string","name":"description","type":"string"},{"internalType":"uint256","name":"price","type":"uint256"},{"internalType":"uint256","name":"supply","type":"uint256"},{"internalType":"uint256","name":"multiplier","type":"uint256"},{"internalType":"string","name":"baseURI","type":"string"},{"internalType":"string[]","name":"accessPlans","type":"string[]"}],"name":"createPartnershipNFT","outputs":[{"internalType":"uint256","name":"","type":"uint256"}],"stateMutability":"nonpayable","type":"function"},{"inputs":[{"internalType":"address","name":"token","type":"address"},{"internalType":"uint256","name":"amount","type":"uint256"}],"name":"emergencyWithdraw","outputs":[],"stateMutability":"nonpayable","type":"function"},{"inputs":[{"internalType":"address","name":"","type":"address"}],"name":"fidelityEligible","outputs":[{"internalType":"bool","name":"","type":"bool"}],"stateMutability":"view","type":"function"},{"inputs":[],"name":"getAllActiveTiers","outputs":[{"internalType":"uint256[]","name":"","type":"uint256[]"}],"stateMutability":"view","type":"function"},{"inputs":[{"internalType":"uint256","name":"tokenId","type":"uint256"}],"name":"getApproved","outputs":[{"internalType":"address","name":"","type":"address"}],"stateMutability":"view","type":"function"},{"inputs":[{"internalType":"uint256","name":"tier","type":"uint256"}],"name":"getRemainingSupply","outputs":[{"internalType":"uint256","name":"","type":"uint256"}],"stateMutability":"view","type":"function"},{"inputs":[],"name":"getRevenueStats","outputs":[{"internalType":"uint256","name":"totalRev","type":"uint256"},{"internalType":"uint256[]","name":"tierIds","type":"uint256[]"},{"internalType":"uint256[]","name":"tierRevenues","type":"uint256[]"}],"stateMutability":"view","type":"function"},{"inputs":[],"name":"getSpecialTiers","outputs":[{"internalType":"uint256[]","name":"","type":"uint256[]"}],"stateMutability":"view","type":"function"},{"inputs":[{"internalType":"uint256","name":"tier","type":"uint256"}],"name":"getTierAccessPlans","outputs":[{"internalType":"string[]","name":"","type":"string[]"}],"stateMutability":"view","type":"function"},{"inputs":[{"internalType":"uint256","name":"tier","type":"uint256"}],"name":"getTierInfo","outputs":[{"components":[{"internalType":"uint256","name":"price","type":"uint256"},{"internalType":"uint256","name":"supply","type":"uint256"},{"internalType":"uint256","name":"minted","type":"uint256"},{"internalType":"string","name":"baseURI","type":"string"},{"internalType":"bool","name":"active","type":"bool"},{"internalType":"string","name":"name","type":"string"},{"internalType":"string","name":"description","type":"string"},{"internalType":"uint256","name":"multiplier","type":"uint256"},{"internalType":"string[]","name":"accessPlans","type":"string[]"},{"internalType":"uint256","name":"createdAt","type":"uint256"}],"internalType":"struct CryptocaVaultNFT.NFTTier","name":"","type":"tuple"}],"stateMutability":"view","type":"function"},{"inputs":[],"name":"getTreasuryInfo","outputs":[{"internalType":"address","name":"primaryTreasury","type":"address"},{"internalType":"address","name":"backupTreasury","type":"address"},{"internalType":"uint256","name":"totalGenerated","type":"uint256"}],"stateMutability":"view","type":"function"},{"inputs":[{"internalType":"address","name":"user","type":"address"}],"name":"getUserHighestTier","outputs":[{"internalType":"uint256","name":"","type":"uint256"}],"stateMutability":"view","type":"function"},{"inputs":[{"internalType":"address","name":"user","type":"address"}],"name":"getUserMultiplier","outputs":[{"internalType":"uint256","name":"","type":"uint256"}],"stateMutability":"view","type":"function"},{"inputs":[{"internalType":"address","name":"owner","type":"address"},{"internalType":"address","name":"operator","type":"address"}],"name":"isApprovedForAll","outputs":[{"internalType":"bool","name":"","type":"bool"}],"stateMutability":"view","type":"function"},{"inputs":[{"internalType":"uint256","name":"","type":"uint256"}],"name":"isSpecialTier","outputs":[{"internalType":"bool","name":"","type":"bool"}],"stateMutability":"view","type":"function"},{"inputs":[{"internalType":"address","name":"to","type":"address"},{"internalType":"uint256","name":"tier","type":"uint256"},{"internalType":"string","name":"reason","type":"string"}],"name":"mintSpecialNFT","outputs":[],"stateMutability":"nonpayable","type":"function"},{"inputs":[],"name":"name","outputs":[{"internalType":"string","name":"","type":"string"}],"stateMutability":"view","type":"function"},{"inputs":[],"name":"nextTierId","outputs":[{"internalType":"uint256","name":"","type":"uint256"}],"stateMutability":"view","type":"function"},{"inputs":[{"internalType":"uint256","name":"","type":"uint256"}],"name":"nftTiers","outputs":[{"internalType":"uint256","name":"price","type":"uint256"},{"internalType":"uint256","name":"supply","type":"uint256"},{"internalType":"uint256","name":"minted","type":"uint256"},{"internalType":"string","name":"baseURI","type":"string"},{"internalType":"bool","name":"active","type":"bool"},{"internalType":"string","name":"name","type":"string"},{"internalType":"string","name":"description","type":"string"},{"internalType":"uint256","name":"multiplier","type":"uint256"},{"internalType":"uint256","name":"createdAt","type":"uint256"}],"stateMutability":"view","type":"function"},{"inputs":[{"internalType":"uint256","name":"","type":"uint256"}],"name":"nftToTier","outputs":[{"internalType":"uint256","name":"","type":"uint256"}],"stateMutability":"view","type":"function"},{"inputs":[],"name":"owner","outputs":[{"internalType":"address","name":"","type":"address"}],"stateMutability":"view","type":"function"},{"inputs":[{"internalType":"address","name":"","type":"address"},{"internalType":"uint256","name":"","type":"uint256"}],"name":"ownerHasTier","outputs":[{"internalType":"bool","name":"","type":"bool"}],"stateMutability":"view","type":"function"},{"inputs":[{"internalType":"uint256","name":"tokenId","type":"uint256"}],"name":"ownerOf","outputs":[{"internalType":"address","name":"","type":"address"}],"stateMutability":"view","type":"function"},{"inputs":[{"internalType":"uint256","name":"tier","type":"uint256"}],"name":"pauseTier","outputs":[],"stateMutability":"nonpayable","type":"function"},{"inputs":[{"internalType":"uint256","name":"tier","type":"uint256"}],"name":"purchaseNFT","outputs":[],"stateMutability":"nonpayable","type":"function"},{"inputs":[],"name":"renounceOwnership","outputs":[],"stateMutability":"nonpayable","type":"function"},{"inputs":[{"internalType":"address","name":"from","type":"address"},{"internalType":"address","name":"to","type":"address"},{"internalType":"uint256","name":"tokenId","type":"uint256"}],"name":"safeTransferFrom","outputs":[],"stateMutability":"nonpayable","type":"function"},{"inputs":[{"internalType":"address","name":"from","type":"address"},{"internalType":"address","name":"to","type":"address"},{"internalType":"uint256","name":"tokenId","type":"uint256"},{"internalType":"bytes","name":"data","type":"bytes"}],"name":"safeTransferFrom","outputs":[],"stateMutability":"nonpayable","type":"function"},{"inputs":[{"internalType":"address","name":"operator","type":"address"},{"internalType":"bool","name":"approved","type":"bool"}],"name":"setApprovalForAll","outputs":[],"stateMutability":"nonpayable","type":"function"},{"inputs":[{"internalType":"address","name":"user","type":"address"},{"internalType":"bool","name":"eligible","type":"bool"}],"name":"setFidelityEligible","outputs":[],"stateMutability":"nonpayable","type":"function"},{"inputs":[{"internalType":"address[]","name":"users","type":"address[]"},{"internalType":"bool","name":"eligible","type":"bool"}],"name":"setMultipleFidelityEligible","outputs":[],"stateMutability":"nonpayable","type":"function"},{"inputs":[{"internalType":"bytes4","name":"interfaceId","type":"bytes4"}],"name":"supportsInterface","outputs":[{"internalType":"bool","name":"","type":"bool"}],"stateMutability":"view","type":"function"},{"inputs":[],"name":"symbol","outputs":[{"internalType":"string","name":"","type":"string"}],"stateMutability":"view","type":"function"},{"inputs":[{"internalType":"uint256","name":"","type":"uint256"}],"name":"tierRevenue","outputs":[{"internalType":"uint256","name":"","type":"uint256"}],"stateMutability":"view","type":"function"},{"inputs":[{"internalType":"address","name":"owner","type":"address"},{"internalType":"uint256","name":"index","type":"uint256"}],"name":"tokenOfOwnerByIndex","outputs":[{"internalType":"uint256","name":"","type":"uint256"}],"stateMutability":"view","type":"function"},{"inputs":[{"internalType":"uint256","name":"tokenId","type":"uint256"}],"name":"tokenURI","outputs":[{"internalType":"string","name":"","type":"string"}],"stateMutability":"view","type":"function"},{"inputs":[],"name":"totalRevenue","outputs":[{"internalType":"uint256","name":"","type":"uint256"}],"stateMutability":"view","type":"function"},{"inputs":[{"internalType":"address","name":"from","type":"address"},{"internalType":"address","name":"to","type":"address"},{"internalType":"uint256","name":"tokenId","type":"uint256"}],"name":"transferFrom","outputs":[],"stateMutability":"nonpayable","type":"function"},{"inputs":[{"internalType":"address","name":"newOwner","type":"address"}],"name":"transferOwnership","outputs":[],"stateMutability":"nonpayable","type":"function"},{"inputs":[{"internalType":"uint256","name":"tier","type":"uint256"}],"name":"unpauseTier","outputs":[],"stateMutability":"nonpayable","type":"function"},{"inputs":[{"internalType":"address","name":"newBackupTreasury","type":"address"}],"name":"updateBackupTreasury","outputs":[],"stateMutability":"nonpayable","type":"function"},{"inputs":[{"internalType":"uint256","name":"tier","type":"uint256"},{"internalType":"uint256","name":"newPrice","type":"uint256"},{"internalType":"uint256","name":"newSupply","type":"uint256"},{"internalType":"bool","name":"active","type":"bool"}],"name":"updateTier","outputs":[],"stateMutability":"nonpayable","type":"function"},{"inputs":[],"name":"usdcToken","outputs":[{"internalType":"contract IERC20","name":"","type":"address"}],"stateMutability":"view","type":"function"}],"evm":{"bytecode":{"linkReferences":{},"object":"60a060405260056013553480156200001657600080fd5b506040516200576b3803806200576b833981016040819052620000399162000ab2565b6040518060400160405280601881526020017f43727970746f63615661756c7420416363657373204e465400000000000000008152506040518060400160405280600581526020016410d593919560da1b81525081600090816200009e919062000b89565b506001620000ad828262000b89565b505050620000ca620000c46200011360201b60201c565b62000117565b60016008556001600160a01b038116608052601180546001600160a01b03191673e0b7bcb42aebb5be565cc81518a48d780f3c001c1790556200010c62000169565b5062000c6b565b3390565b600780546001600160a01b038381166001600160a01b0319831681179093556040519116919082907f8be0079c531659141344cd1fd0a4f28419497f9722a3daafe3b4186f6b6457e090600090a35050565b6200025c600160405180610140016040528068068155a43676e0000081526020016103e88152602001600081526020016040518060a0016040528060708152602001620056906070913981526020016001151581526020016040518060400160405280600f81526020016e5661656c697468206465205365766560881b81525081526020016040518060600160405280602b815260200162005720602b913981526078602082015260400160015b6040519080825280602002602001820160405280156200024c57816020015b6060815260200190600190039081620002365790505b50815242602090910152620008ef565b6040518060400160405280600781526020016639ba30b93a32b960c91b8152506009600060018152602001908152602001600020600801600081548110620002a857620002a862000c55565b906000526020600020019081620002c0919062000b89565b506200038d6002604051806101400160405280680d8d726b7177a8000081526020016101f48152602001600081526020016040518060a0016040528060708152602001620056906070913981526001602080830191909152604080518082018252601181527053796c77656e20646573204272756d657360781b81840152818401528051808201909152601b81527f4163636573206574656e6475206176656320626f6e75732035302500000000009181019190915260608201526096608082015260a001600262000217565b6040518060400160405280600781526020016639ba30b93a32b960c91b8152506009600060028152602001908152602001600020600801600081548110620003d957620003d962000c55565b906000526020600020019081620003f1919062000b89565b506040805180820190915260088152671cdd185b99185c9960c21b6020808301919091526002600052600990527f6cde3cea4b3a3fb2488b2808bae7556f4a405e50f65e1794383bc026131b13cb8054600190811062000455576200045562000c55565b9060005260206000200190816200046d919062000b89565b50620005386003604051806101400160405280681b1ae4d6e2ef500000815260200160c88152602001600081526020016040518060a0016040528060708152602001620056906070913981526001602080830191909152604080518082018252601081526f4e796d657269656c206465204c756e6560801b81840152818401528051808201909152601d81527f4163636573207072656d69756d206176656320626f6e7573203130302500000091810191909152606082015260c8608082015260a001600362000217565b6040518060400160405280600781526020016639ba30b93a32b960c91b815250600960006003815260200190815260200160002060080160008154811062000584576200058462000c55565b9060005260206000200190816200059c919062000b89565b506040805180820190915260088152671cdd185b99185c9960c21b6020808301919091526003600052600990526000805160206200574b83398151915280546001908110620005ef57620005ef62000c55565b90600052602060002001908162000607919062000b89565b506040805180820190915260078152667072656d69756d60c81b6020808301919091526003600052600990526000805160206200574b8339815191528054600290811062000659576200065962000c55565b90600052602060002001908162000671919062000b89565b50620007496004604051806101400160405280683635c9adc5dea00000815260200160328152602001600081526020016040518060a0016040528060708152602001620056906070913981526001602080830191909152604080518082018252601481527f4661656c6f726961206c6120526164696575736500000000000000000000000081840152818401528051808201909152601e81527f4163636573206578636c75736966206176656320626f6e75732031353025000091810191909152606082015260fa608082015260a001600462000217565b6040518060400160405280600781526020016639ba30b93a32b960c91b815250600960006004815260200190815260200160002060080160008154811062000795576200079562000c55565b906000526020600020019081620007ad919062000b89565b506040805180820190915260088152671cdd185b99185c9960c21b602080830191909152600460005260099052600080516020620057008339815191528054600190811062000800576200080062000c55565b90600052602060002001908162000818919062000b89565b506040805180820190915260078152667072656d69756d60c81b60208083019190915260046000526009905260008051602062005700833981519152805460029081106200086a576200086a62000c55565b90600052602060002001908162000882919062000b89565b506040805180820190915260098082526870726976696c65676560b81b6020808401919091526004600052526000805160206200570083398151915280546003908110620008d457620008d462000c55565b906000526020600020019081620008ec919062000b89565b50565b600082815260096020908152604091829020835181559083015160018201559082015160028201556060820151829190600382019062000930908262000b89565b50608082015160048201805460ff191691151591909117905560a082015160058201906200095f908262000b89565b5060c0820151600682019062000976908262000b89565b5060e0820151600782015561010082015180516200099f916008840191602090910190620009e4565b50610120919091015160099091015550600a80546001810182556000919091527fc65a7bb8d6351c1cf70c95a316cc6a92839c986682d98bc35f958f4883f9d2a80155565b82805482825590600052602060002090810192821562000a2f579160200282015b8281111562000a2f578251829062000a1e908262000b89565b509160200191906001019062000a05565b5062000a3d92915062000a41565b5090565b8082111562000a3d57600062000a58828262000a62565b5060010162000a41565b50805462000a709062000afa565b6000825580601f1062000a81575050565b601f016020900490600052602060002090810190620008ec91905b8082111562000a3d576000815560010162000a9c565b60006020828403121562000ac557600080fd5b81516001600160a01b038116811462000add57600080fd5b9392505050565b634e487b7160e01b600052604160045260246000fd5b600181811c9082168062000b0f57607f821691505b60208210810362000b3057634e487b7160e01b600052602260045260246000fd5b50919050565b601f82111562000b8457600081815260208120601f850160051c8101602086101562000b5f5750805b601f850160051c820191505b8181101562000b805782815560010162000b6b565b5050505b505050565b81516001600160401b0381111562000ba55762000ba562000ae4565b62000bbd8162000bb6845462000afa565b8462000b36565b602080601f83116001811462000bf5576000841562000bdc5750858301515b600019600386901b1c1916600185901b17855562000b80565b600085815260208120601f198616915b8281101562000c265788860151825594840194600190910190840162000c05565b508582101562000c455787850151600019600388901b60f8161c191681555b5050505050600190811b01905550565b634e487b7160e01b600052603260045260246000fd5b6080516149f462000c9c600039600081816103f301528181610c0501528181610cdd0152610dd701526149f46000f3fe608060405234801561001057600080fd5b50600436106103425760003560e01c806370bbcc48116101b8578063bf2d9e0b11610104578063e0ca0cd1116100a2578063ee93ba221161007c578063ee93ba2214610830578063f2fde38b14610838578063f49fcb1c1461084b578063f59323821461085357600080fd5b8063e0ca0cd1146107b3578063e79004f6146107c6578063e985e9c5146107f457600080fd5b8063c621f94c116100de578063c621f94c1461075a578063c87b56dd1461076d578063cc9d751914610780578063cf457321146107a057600080fd5b8063bf2d9e0b14610702578063c29394711461070b578063c5e22f3f1461074757600080fd5b806395ccea6711610171578063a22cb4651161014b578063a22cb465146106a2578063ac18992c146106b5578063b49829f6146106cc578063b88d4fde146106ef57600080fd5b806395ccea671461067457806395d89b41146106875780639ff522f01461068f57600080fd5b806370bbcc481461060f578063715018a61461062257806372a8d6231461062a5780637a65cdca1461063d5780638c858a14146106505780638da5cb5b1461066357600080fd5b80632afd42951161029257806342842e0e116102305780635daf31461161020a5780635daf3146146105bb5780636352211e146105d65780636a8d0c6b146105e957806370a08231146105fc57600080fd5b806342842e0e146105825780634752184d1461059557806358c3fa46146105a857600080fd5b80633b2e86571161026c5780633b2e8657146105045780633ea4a023146105245780633fe323481461053757806340241b691461055a57600080fd5b80632afd4295146104bc5780632e51bf76146104dc5780632f745c59146104f157600080fd5b806311eac855116102ff5780631d2572b6116102d95780631d2572b61461043b57806323b872dd1461047657806323bacf8a1461048957806327cd41c21461049c57600080fd5b806311eac855146103ee578063150bde03146104155780631bc806e31461042857600080fd5b806301ffc9a71461034757806304e2886b1461036f5780630594fd041461038457806306fdde031461039b578063081812fc146103b0578063095ea7b3146103db575b600080fd5b61035a610355366004613bd1565b610866565b60405190151581526020015b60405180910390f35b61038261037d366004613bf5565b610877565b005b61038d60135481565b604051908152602001610366565b6103a361089a565b6040516103669190613c5e565b6103c36103be366004613bf5565b61092c565b6040516001600160a01b039091168152602001610366565b6103826103e9366004613c8d565b610953565b6103c37f000000000000000000000000000000000000000000000000000000000000000081565b610382610423366004613bf5565b610a6d565b610382610436366004613d74565b610f89565b61044e610449366004613dca565b6110e5565b6040805194151585529215156020850152901515918301919091526060820152608001610366565b610382610484366004613de5565b6111ad565b610382610497366004613e3a565b6111de565b61038d6104aa366004613bf5565b600b6020526000908152604090205481565b6104cf6104ca366004613bf5565b611245565b6040516103669190613ec6565b6104e4611334565b6040516103669190613f14565b61038d6104ff366004613c8d565b611493565b61038d610512366004613bf5565b60156020526000908152604090205481565b61038d610532366004613fd9565b61151e565b61035a610545366004613bf5565b600d6020526000908152604090205460ff1681565b61056d610568366004613bf5565b6116e5565b604051610366999897969594939291906140b3565b610382610590366004613de5565b6118cf565b61038d6105a3366004614123565b6118ea565b61038d6105b6366004613bf5565b611ab9565b6103c373e0b7bcb42aebb5be565cc81518a48d780f3c001c81565b6103c36105e4366004613bf5565b611ada565b6011546103c3906001600160a01b031681565b61038d61060a366004613dca565b611b3a565b61038d61061d3660046141ec565b611bc0565b610382611d7c565b6103826106383660046142aa565b611d90565b61038d61064b366004613dca565b611e6a565b61038d61065e366004613bf5565b611f09565b6007546001600160a01b03166103c3565b610382610682366004613c8d565b611f2c565b6103a3612008565b61038261069d366004614353565b612017565b6103826106b0366004613e3a565b6120e0565b6106bd6120ef565b60405161036693929190614399565b61035a6106da366004613dca565b600e6020526000908152604090205460ff1681565b6103826106fd3660046143ce565b612238565b61038d60145481565b6011546014546040805173e0b7bcb42aebb5be565cc81518a48d780f3c001c81526001600160a01b039093166020840152820152606001610366565b61038d610755366004613dca565b612270565b610382610768366004614449565b612308565b6103a361077b366004613bf5565b61242b565b61079361078e366004613bf5565b6124d6565b604051610366919061448a565b6103826107ae366004613dca565b612828565b6103826107c1366004613bf5565b6128da565b61035a6107d4366004613c8d565b600c60209081526000928352604080842090915290825290205460ff1681565b61035a610802366004614558565b6001600160a01b03918216600090815260056020908152604080832093909416825291909152205460ff1690565b6104e4612900565b610382610846366004613dca565b612a5c565b610382612ad2565b610382610861366004613dca565b612ca8565b600061087182612e3e565b92915050565b61087f612e63565b6000908152600960205260409020600401805460ff19169055565b6060600080546108a99061458b565b80601f01602080910402602001604051908101604052809291908181526020018280546108d59061458b565b80156109225780601f106108f757610100808354040283529160200191610922565b820191906000526020600020905b81548152906001019060200180831161090557829003601f168201915b5050505050905090565b600061093782612ebd565b506000908152600460205260409020546001600160a01b031690565b600061095e82611ada565b9050806001600160a01b0316836001600160a01b0316036109d05760405162461bcd60e51b815260206004820152602160248201527f4552433732313a20617070726f76616c20746f2063757272656e74206f776e656044820152603960f91b60648201526084015b60405180910390fd5b336001600160a01b03821614806109ec57506109ec8133610802565b610a5e5760405162461bcd60e51b815260206004820152603d60248201527f4552433732313a20617070726f76652063616c6c6572206973206e6f7420746f60448201527f6b656e206f776e6572206f7220617070726f76656420666f7220616c6c00000060648201526084016109c7565b610a688383612f1c565b505050565b610a75612f8a565b60008181526009602052604090206004015460ff16610ac75760405162461bcd60e51b815260206004820152600e60248201526d2a34b2b9103737b71030b1ba34b360911b60448201526064016109c7565b6000818152600960205260409020600181015460029091015410610b1e5760405162461bcd60e51b815260206004820152600e60248201526d537570706c79206570756973656560901b60448201526064016109c7565b600081815260096020526040902054610b795760405162461bcd60e51b815260206004820152601860248201527f5469657220696e76616c69646520706f7572206163686174000000000000000060448201526064016109c7565b6000818152600d602052604090205460ff1615610bd85760405162461bcd60e51b815260206004820152601a60248201527f54696572207370656369616c206e6f6e20616368657461626c6500000000000060448201526064016109c7565b60008181526009602052604090819020549051636eb1769f60e11b815233600482015230602482015281907f00000000000000000000000000000000000000000000000000000000000000006001600160a01b03169063dd62ed3e90604401602060405180830381865afa158015610c54573d6000803e3d6000fd5b505050506040513d601f19601f82011682018060405250810190610c7891906145c5565b1015610cc65760405162461bcd60e51b815260206004820152601b60248201527f416c6c6f77616e6365205553444320696e737566666973616e7465000000000060448201526064016109c7565b6040516370a0823160e01b815233600482015281907f00000000000000000000000000000000000000000000000000000000000000006001600160a01b0316906370a0823190602401602060405180830381865afa158015610d2c573d6000803e3d6000fd5b505050506040513d601f19601f82011682018060405250810190610d5091906145c5565b1015610d9e5760405162461bcd60e51b815260206004820152601960248201527f42616c616e6365205553444320696e737566666973616e74650000000000000060448201526064016109c7565b6040516323b872dd60e01b815233600482015273e0b7bcb42aebb5be565cc81518a48d780f3c001c6024820152604481018290526000907f00000000000000000000000000000000000000000000000000000000000000006001600160a01b0316906323b872dd906064016020604051808303816000875af1158015610e28573d6000803e3d6000fd5b505050506040513d601f19601f82011682018060405250810190610e4c91906145de565b905080610ea75760405162461bcd60e51b815260206004820152602360248201527f5472616e736665727420555344432076657273207472656173757279206563686044820152626f756560e81b60648201526084016109c7565b8160146000828254610eb99190614611565b909155505060008381526015602052604081208054849290610edc908490614611565b90915550610eee905033846000612fe3565b601254604080518581526020810185905233917f25d1144310b3f5e9cb8ad2e2bd379aef97847a57087ab9cbcd95a06105a4629c910160405180910390a36040805183815273e0b7bcb42aebb5be565cc81518a48d780f3c001c602082015284917f46bfe087193767d942e8352e78fdcc40911c5c3b332c01410b9864a6fa8a89ae910160405180910390a25050610f866001600855565b50565b610f91612e63565b60008281526009602052604090206004015460ff16610fe35760405162461bcd60e51b815260206004820152600e60248201526d2a34b2b9103737b71030b1ba34b360911b60448201526064016109c7565b6000828152600d602052604090205460ff166110375760405162461bcd60e51b815260206004820152601360248201527214185cc81d5b881d1a595c881cdc1958da585b606a1b60448201526064016109c7565b600082815260096020526040902060018101546002909101541061108e5760405162461bcd60e51b815260206004820152600e60248201526d537570706c79206570756973656560901b60448201526064016109c7565b61109a83836001612fe3565b601254836001600160a01b03167fc7ece8dd4ef8de13da640ef8b2d8ad4cdf8e1fc865d3a7356d995ad714528a5c84846040516110d8929190614624565b60405180910390a3505050565b6001600160a01b0381166000908152600e6020908152604080832054600c835281842060058086529084529184205460099093527f74b05292d1d4b2b48b65261b07099d24244bcb069f138d9a6bfdcf776becac50547f74b05292d1d4b2b48b65261b07099d24244bcb069f138d9a6bfdcf776becac4e547f74b05292d1d4b2b48b65261b07099d24244bcb069f138d9a6bfdcf776becac4d54869586958695909460ff918216949282169391169161119d9161463d565b9450945094509450509193509193565b6111b733826130ac565b6111d35760405162461bcd60e51b81526004016109c790614650565b610a6883838361312b565b6111e6612e63565b6001600160a01b0382166000818152600e6020908152604091829020805460ff191685151590811790915591519182527fb411a8b21a8114c276967c0fbdfa921c9d323c499c34022b1d150f60622d9622910160405180910390a25050565b606060096000838152602001908152602001600020600801805480602002602001604051908101604052809291908181526020016000905b8282101561132957838290600052602060002001805461129c9061458b565b80601f01602080910402602001604051908101604052809291908181526020018280546112c89061458b565b80156113155780601f106112ea57610100808354040283529160200191611315565b820191906000526020600020905b8154815290600101906020018083116112f857829003601f168201915b50505050508152602001906001019061127d565b505050509050919050565b60606000805b600a5481101561139f57600d6000600a838154811061135b5761135b61469d565b6000918252602080832090910154835282019290925260400190205460ff161561138d5781611389816146b3565b9250505b80611397816146b3565b91505061133a565b506000816001600160401b038111156113ba576113ba613cb7565b6040519080825280602002602001820160405280156113e3578160200160208202803683370190505b5090506000805b600a5481101561148a57600d6000600a838154811061140b5761140b61469d565b6000918252602080832090910154835282019290925260400190205460ff161561147857600a81815481106114425761144261469d565b906000526020600020015483838151811061145f5761145f61469d565b602090810291909101015281611474816146b3565b9250505b80611482816146b3565b9150506113ea565b50909392505050565b600061149e83611b3a565b82106114e15760405162461bcd60e51b8152602060048201526012602482015271496e64657820686f7273206c696d6974657360701b60448201526064016109c7565b6001600160a01b0383166000908152600f6020526040902080548390811061150b5761150b61469d565b9060005260206000200154905092915050565b6000611528612e63565b60138054908190600061153a836146b3565b9190505550604051806101400160405280898152602001888152602001600081526020018681526020016001151581526020018b81526020018a8152602001878152602001858152602001428152506009600083815260200190815260200160002060008201518160000155602082015181600101556040820151816002015560608201518160030190816115cf919061471a565b50608082015160048201805460ff191691151591909117905560a082015160058201906115fc908261471a565b5060c08201516006820190611611908261471a565b5060e082015160078201556101008201518051611638916008840191602090910190613afe565b506101209190910151600990910155600a80546001810182556000919091527fc65a7bb8d6351c1cf70c95a316cc6a92839c986682d98bc35f958f4883f9d2a801819055821561169c576000818152600d60205260409020805460ff191660011790555b807f0655289c4d9d7c45c2b83b18a45e3ce05f40710e413db2117ee045e2ab12cab28b8a8a6040516116d0939291906147d9565b60405180910390a29998505050505050505050565b6009602052600090815260409020805460018201546002830154600384018054939492939192916117159061458b565b80601f01602080910402602001604051908101604052809291908181526020018280546117419061458b565b801561178e5780601f106117635761010080835404028352916020019161178e565b820191906000526020600020905b81548152906001019060200180831161177157829003601f168201915b5050506004840154600585018054949560ff9092169491935091506117b29061458b565b80601f01602080910402602001604051908101604052809291908181526020018280546117de9061458b565b801561182b5780601f106118005761010080835404028352916020019161182b565b820191906000526020600020905b81548152906001019060200180831161180e57829003601f168201915b5050505050908060060180546118409061458b565b80601f016020809104026020016040519081016040528092919081815260200182805461186c9061458b565b80156118b95780601f1061188e576101008083540402835291602001916118b9565b820191906000526020600020905b81548152906001019060200180831161189c57829003601f168201915b5050505050908060070154908060090154905089565b610a6883838360405180602001604052806000815250612238565b60006118f4612e63565b60008860405160200161190791906147fe565b60408051601f19818403018152919052601380549192508190600061192b836146b3565b9190505550604051806101400160405280898152602001888152602001600081526020018681526020016001151581526020018381526020018a8152602001878152602001858152602001428152506009600083815260200190815260200160002060008201518160000155602082015181600101556040820151816002015560608201518160030190816119c0919061471a565b50608082015160048201805460ff191691151591909117905560a082015160058201906119ed908261471a565b5060c08201516006820190611a02908261471a565b5060e082015160078201556101008201518051611a29916008840191602090910190613afe565b506101209190910151600990910155600a805460018181019092557fc65a7bb8d6351c1cf70c95a316cc6a92839c986682d98bc35f958f4883f9d2a8018290556000828152600d602052604090819020805460ff19169092179091555181907f0655289c4d9d7c45c2b83b18a45e3ce05f40710e413db2117ee045e2ab12cab2906116d09085908c908c906147d9565b600a8181548110611ac957600080fd5b600091825260209091200154905081565b6000818152600260205260408120546001600160a01b0316806108715760405162461bcd60e51b8152602060048201526018602482015277115490cdcc8c4e881a5b9d985b1a59081d1bdad95b88125160421b60448201526064016109c7565b60006001600160a01b038216611ba45760405162461bcd60e51b815260206004820152602960248201527f4552433732313a2061646472657373207a65726f206973206e6f7420612076616044820152683634b21037bbb732b960b91b60648201526084016109c7565b506001600160a01b031660009081526003602052604090205490565b6000611bca612e63565b601380549081906000611bdc836146b3565b9190505550604051806101400160405280600081526020018781526020016000815260200185815260200160011515815260200189815260200188815260200186815260200184815260200142815250600960008381526020019081526020016000206000820151816000015560208201518160010155604082015181600201556060820151816003019081611c72919061471a565b50608082015160048201805460ff191691151591909117905560a08201516005820190611c9f908261471a565b5060c08201516006820190611cb4908261471a565b5060e082015160078201556101008201518051611cdb916008840191602090910190613afe565b506101209190910151600990910155600a805460018181019092557fc65a7bb8d6351c1cf70c95a316cc6a92839c986682d98bc35f958f4883f9d2a8018290556000828152600d6020526040808220805460ff1916909317909255905182917f0655289c4d9d7c45c2b83b18a45e3ce05f40710e413db2117ee045e2ab12cab291611d69918c918b906147d9565b60405180910390a2979650505050505050565b611d84612e63565b611d8e6000613297565b565b611d98612e63565b60005b8251811015610a685781600e6000858481518110611dbb57611dbb61469d565b60200260200101516001600160a01b03166001600160a01b0316815260200190815260200160002060006101000a81548160ff021916908315150217905550828181518110611e0c57611e0c61469d565b60200260200101516001600160a01b03167fb411a8b21a8114c276967c0fbdfa921c9d323c499c34022b1d150f60622d962283604051611e50911515815260200190565b60405180910390a280611e62816146b3565b915050611d9b565b600080805b600a54811015611f02576000600a8281548110611e8e57611e8e61469d565b60009182526020808320909101546001600160a01b0388168352600c8252604080842082855290925291205490915060ff1615611eef5760008381526009602052604080822060079081015484845291909220909101541115611eef578092505b5080611efa816146b3565b915050611e6f565b5092915050565b60008181526009602052604081206002810154600190910154610871919061463d565b611f34612e63565b6001600160a01b038216611f835760405162461bcd60e51b81526020600482015260166024820152754164726573736520746f6b656e20696e76616c69646560501b60448201526064016109c7565b60405163a9059cbb60e01b815273e0b7bcb42aebb5be565cc81518a48d780f3c001c6004820152602481018290526001600160a01b0383169063a9059cbb906044016020604051808303816000875af1158015611fe4573d6000803e3d6000fd5b505050506040513d601f19601f82011682018060405250810190610a6891906145de565b6060600180546108a99061458b565b61201f612e63565b600082815260096020819052604090912001546120705760405162461bcd60e51b815260206004820152600f60248201526e151a595c881a5b995e1a5cdd185b9d608a1b60448201526064016109c7565b60005b8151811015610a6857600960008481526020019081526020016000206008018282815181106120a4576120a461469d565b602090810291909101810151825460018101845560009384529190922001906120cd908261471a565b50806120d8816146b3565b915050612073565b6120eb3383836132e9565b5050565b6000606080600a805490506001600160401b0381111561211157612111613cb7565b60405190808252806020026020018201604052801561213a578160200160208202803683370190505b50600a549092506001600160401b0381111561215857612158613cb7565b604051908082528060200260200182016040528015612181578160200160208202803683370190505b50905060005b600a5481101561222d57600a81815481106121a4576121a461469d565b90600052602060002001548382815181106121c1576121c161469d565b60200260200101818152505060156000600a83815481106121e4576121e461469d565b90600052602060002001548152602001908152602001600020548282815181106122105761221061469d565b602090810291909101015280612225816146b3565b915050612187565b506014549250909192565b61224233836130ac565b61225e5760405162461bcd60e51b81526004016109c790614650565b61226a848484846133af565b50505050565b604051633d32e6e560e11b81526001600160a01b038216600482015260009081903090637a65cdca90602401602060405180830381865afa1580156122b9573d6000803e3d6000fd5b505050506040513d601f19601f820116820180604052508101906122dd91906145c5565b9050806000036122f05750606492915050565b60009081526009602052604090206007015492915050565b612310612e63565b600084815260096020819052604090912001546123615760405162461bcd60e51b815260206004820152600f60248201526e151a595c881a5b995e1a5cdd185b9d608a1b60448201526064016109c7565b6000848152600960205260409020600201548210156123c25760405162461bcd60e51b815260206004820152601a60248201527f537570706c7920696e66657269657572206175206d696e74656400000000000060448201526064016109c7565b60008481526009602090815260409182902085815560018101859055600401805460ff1916841515179055815185815290810184905285917f2702951ec468d8fb7c1501e01af87b4bd50cda65a20463fc38ee59b954a777b0910160405180910390a250505050565b6000818152600260205260409020546060906001600160a01b03166124855760405162461bcd60e51b815260206004820152601060248201526f151bdad95b881a5b995e1a5cdd185b9d60821b60448201526064016109c7565b6000828152600b602090815260408083205480845260099092529091206003016124ae846133e2565b6040516020016124bf92919061482a565b604051602081830303815290604052915050919050565b61252e6040518061014001604052806000815260200160008152602001600081526020016060815260200160001515815260200160608152602001606081526020016000815260200160608152602001600081525090565b600960008381526020019081526020016000206040518061014001604052908160008201548152602001600182015481526020016002820154815260200160038201805461257b9061458b565b80601f01602080910402602001604051908101604052809291908181526020018280546125a79061458b565b80156125f45780601f106125c9576101008083540402835291602001916125f4565b820191906000526020600020905b8154815290600101906020018083116125d757829003601f168201915b5050509183525050600482015460ff16151560208201526005820180546040909201916126209061458b565b80601f016020809104026020016040519081016040528092919081815260200182805461264c9061458b565b80156126995780601f1061266e57610100808354040283529160200191612699565b820191906000526020600020905b81548152906001019060200180831161267c57829003601f168201915b505050505081526020016006820180546126b29061458b565b80601f01602080910402602001604051908101604052809291908181526020018280546126de9061458b565b801561272b5780601f106127005761010080835404028352916020019161272b565b820191906000526020600020905b81548152906001019060200180831161270e57829003601f168201915b505050505081526020016007820154815260200160088201805480602002602001604051908101604052809291908181526020016000905b8282101561280f5783829060005260206000200180546127829061458b565b80601f01602080910402602001604051908101604052809291908181526020018280546127ae9061458b565b80156127fb5780601f106127d0576101008083540402835291602001916127fb565b820191906000526020600020905b8154815290600101906020018083116127de57829003601f168201915b505050505081526020019060010190612763565b5050505081526020016009820154815250509050919050565b612830612e63565b6001600160a01b0381166128795760405162461bcd60e51b815260206004820152601060248201526f4164726573736520696e76616c69646560801b60448201526064016109c7565b601180546001600160a01b038381166001600160a01b031983168117909355604080519190921680825260208201939093527f4ab5be82436d353e61ca18726e984e561f5c1cc7c6d38b29d2553c790434705a910160405180910390a15050565b6128e2612e63565b6000908152600960205260409020600401805460ff19166001179055565b60606000805b600a5481101561296e5760096000600a83815481106129275761292761469d565b6000918252602080832090910154835282019290925260400190206004015460ff161561295c5781612958816146b3565b9250505b80612966816146b3565b915050612906565b506000816001600160401b0381111561298957612989613cb7565b6040519080825280602002602001820160405280156129b2578160200160208202803683370190505b5090506000805b600a5481101561148a5760096000600a83815481106129da576129da61469d565b6000918252602080832090910154835282019290925260400190206004015460ff1615612a4a57600a8181548110612a1457612a1461469d565b9060005260206000200154838381518110612a3157612a3161469d565b602090810291909101015281612a46816146b3565b9250505b80612a54816146b3565b9150506129b9565b612a64612e63565b6001600160a01b038116612ac95760405162461bcd60e51b815260206004820152602660248201527f4f776e61626c653a206e6577206f776e657220697320746865207a65726f206160448201526564647265737360d01b60648201526084016109c7565b610f8681613297565b336000908152600e602052604090205460059060ff16612b345760405162461bcd60e51b815260206004820152601e60248201527f4e6f6e20656c696769626c6520706f7572204e465420666964656c697465000060448201526064016109c7565b60008181526009602052604090206004015460ff16612b8f5760405162461bcd60e51b81526020600482015260176024820152762a34b2b9103334b232b634ba32903737b71030b1ba34b360491b60448201526064016109c7565b6000818152600960205260409020600181015460029091015410612bef5760405162461bcd60e51b8152602060048201526017602482015276537570706c7920666964656c697465206570756973656560481b60448201526064016109c7565b336000908152600c6020908152604080832084845290915290205460ff1615612c565760405162461bcd60e51b81526020600482015260196024820152784e465420466964656c6974652064656a6120706f737365646560381b60448201526064016109c7565b612c6233826001612fe3565b336000818152600e6020526040808220805460ff1916905560125490519092917f4a953b86fd09d570573647f99531f4d35f1f3c5c165b58296e072709eef1d55c91a350565b612cb0612e63565b6005600081905260096020527f74b05292d1d4b2b48b65261b07099d24244bcb069f138d9a6bfdcf776becac505460ff16612d275760405162461bcd60e51b81526020600482015260176024820152762a34b2b9103334b232b634ba32903737b71030b1ba34b360491b60448201526064016109c7565b6000818152600960205260409020600181015460029091015410612d875760405162461bcd60e51b8152602060048201526017602482015276537570706c7920666964656c697465206570756973656560481b60448201526064016109c7565b6001600160a01b0382166000908152600c6020908152604080832084845290915290205460ff1615612df75760405162461bcd60e51b81526020600482015260196024820152784e465420466964656c6974652064656a6120706f737365646560381b60448201526064016109c7565b612e0382826001612fe3565b6012546040516001600160a01b038416907f4a953b86fd09d570573647f99531f4d35f1f3c5c165b58296e072709eef1d55c90600090a35050565b60006001600160e01b03198216632483248360e11b1480610871575061087182613474565b6007546001600160a01b03163314611d8e5760405162461bcd60e51b815260206004820181905260248201527f4f776e61626c653a2063616c6c6572206973206e6f7420746865206f776e657260448201526064016109c7565b6000818152600260205260409020546001600160a01b0316610f865760405162461bcd60e51b8152602060048201526018602482015277115490cdcc8c4e881a5b9d985b1a59081d1bdad95b88125160421b60448201526064016109c7565b600081815260046020526040902080546001600160a01b0319166001600160a01b0384169081179091558190612f5182611ada565b6001600160a01b03167f8c5be1e5ebec7d5bd14f71427d1e84f3dd0314c0f7b2291e5b200ac8c7c3b92560405160405180910390a45050565b600260085403612fdc5760405162461bcd60e51b815260206004820152601f60248201527f5265656e7472616e637947756172643a207265656e7472616e742063616c6c0060448201526064016109c7565b6002600855565b60128054906000612ff3836146b3565b909155505060125461300584826134c4565b6000818152600b602090815260408083208690556001600160a01b0387168352600c82528083208684528252808320805460ff1916600117905560099091528120600201805491613055836146b3565b90915550506001600160a01b0384166000818152600f60209081526040822080546001818101835582855292842001859055929091529054613097919061463d565b60009182526010602052604090912055505050565b6000806130b883611ada565b9050806001600160a01b0316846001600160a01b031614806130ff57506001600160a01b0380821660009081526005602090815260408083209388168352929052205460ff165b806131235750836001600160a01b03166131188461092c565b6001600160a01b0316145b949350505050565b826001600160a01b031661313e82611ada565b6001600160a01b0316146131645760405162461bcd60e51b81526004016109c7906148c1565b6001600160a01b0382166131c65760405162461bcd60e51b8152602060048201526024808201527f4552433732313a207472616e7366657220746f20746865207a65726f206164646044820152637265737360e01b60648201526084016109c7565b826001600160a01b03166131d982611ada565b6001600160a01b0316146131ff5760405162461bcd60e51b81526004016109c7906148c1565b600081815260046020908152604080832080546001600160a01b03199081169091556001600160a01b0387811680865260038552838620805460001901905590871680865283862080546001019055868652600290945282852080549092168417909155905184937fddf252ad1be2c89b69c2b068fc378daa952ba7f163c4a11628f55a4df523b3ef91a4610a6883838360016134de565b600780546001600160a01b038381166001600160a01b0319831681179093556040519116919082907f8be0079c531659141344cd1fd0a4f28419497f9722a3daafe3b4186f6b6457e090600090a35050565b816001600160a01b0316836001600160a01b03160361334a5760405162461bcd60e51b815260206004820152601960248201527f4552433732313a20617070726f766520746f2063616c6c65720000000000000060448201526064016109c7565b6001600160a01b03838116600081815260056020908152604080832094871680845294825291829020805460ff191686151590811790915591519182527f17307eab39ab6107e8899845ad3d59bd9653f200f220920489ca2b5937696c3191016110d8565b6133ba84848461312b565b6133c6848484846136f5565b61226a5760405162461bcd60e51b81526004016109c790614906565b606060006133ef836137f6565b60010190506000816001600160401b0381111561340e5761340e613cb7565b6040519080825280601f01601f191660200182016040528015613438576020820181803683370190505b5090508181016020015b600019016f181899199a1a9b1b9c1cb0b131b232b360811b600a86061a8153600a850494508461344257509392505050565b60006001600160e01b031982166380ac58cd60e01b14806134a557506001600160e01b03198216635b5e139f60e01b145b8061087157506301ffc9a760e01b6001600160e01b0319831614610871565b6120eb8282604051806020016040528060008152506138ce565b6001600160a01b038416158015906134fe57506001600160a01b03831615155b1561226a576000828152600b60209081526040808320546001600160a01b0388168452600f9092528220549091906135389060019061463d565b6000858152601060205260409020549091508082146135df576001600160a01b0387166000908152600f6020526040812080548490811061357b5761357b61469d565b9060005260206000200154905080600f60008a6001600160a01b03166001600160a01b0316815260200190815260200160002083815481106135bf576135bf61469d565b600091825260208083209091019290925591825260109052604090208190555b6001600160a01b0387166000908152600f6020526040902080548061360657613606614958565b6000828152602080822083016000199081018390559092019092558682526010815260408083208390556001600160a01b038916808452600f83529083208054600181810183558286529385200189905592529054613665919061463d565b60008681526010602052604090205561367d87611b3a565b1580613690575061368e8784613901565b155b156136c1576001600160a01b0387166000908152600c602090815260408083208684529091529020805460ff191690555b50506001600160a01b0384166000908152600c6020908152604080832093835292905220805460ff1916600117905561226a565b60006001600160a01b0384163b156137eb57604051630a85bd0160e11b81526001600160a01b0385169063150b7a029061373990339089908890889060040161496e565b6020604051808303816000875af1925050508015613774575060408051601f3d908101601f19168201909252613771918101906149a1565b60015b6137d1573d8080156137a2576040519150601f19603f3d011682016040523d82523d6000602084013e6137a7565b606091505b5080516000036137c95760405162461bcd60e51b81526004016109c790614906565b805181602001fd5b6001600160e01b031916630a85bd0160e11b149050613123565b506001949350505050565b60008072184f03e93ff9f4daa797ed6e38ed64bf6a1f0160401b83106138355772184f03e93ff9f4daa797ed6e38ed64bf6a1f0160401b830492506040015b6d04ee2d6d415b85acef81000000008310613861576d04ee2d6d415b85acef8100000000830492506020015b662386f26fc10000831061387f57662386f26fc10000830492506010015b6305f5e1008310613897576305f5e100830492506008015b61271083106138ab57612710830492506004015b606483106138bd576064830492506002015b600a83106108715760010192915050565b6138d88383613969565b6138e560008484846136f5565b610a685760405162461bcd60e51b81526004016109c790614906565b60008061390d84611b3a565b905060005b8181101561395e5760006139268683611493565b6000818152600b602052604090205490915085900361394b5760019350505050610871565b5080613956816146b3565b915050613912565b506000949350505050565b6001600160a01b0382166139bf5760405162461bcd60e51b815260206004820181905260248201527f4552433732313a206d696e7420746f20746865207a65726f206164647265737360448201526064016109c7565b6000818152600260205260409020546001600160a01b031615613a245760405162461bcd60e51b815260206004820152601c60248201527f4552433732313a20746f6b656e20616c7265616479206d696e7465640000000060448201526064016109c7565b6000818152600260205260409020546001600160a01b031615613a895760405162461bcd60e51b815260206004820152601c60248201527f4552433732313a20746f6b656e20616c7265616479206d696e7465640000000060448201526064016109c7565b6001600160a01b038216600081815260036020908152604080832080546001019055848352600290915280822080546001600160a01b0319168417905551839291907fddf252ad1be2c89b69c2b068fc378daa952ba7f163c4a11628f55a4df523b3ef908290a46120eb6000838360016134de565b828054828255906000526020600020908101928215613b44579160200282015b82811115613b445782518290613b34908261471a565b5091602001919060010190613b1e565b50613b50929150613b54565b5090565b80821115613b50576000613b688282613b71565b50600101613b54565b508054613b7d9061458b565b6000825580601f10613b8d575050565b601f016020900490600052602060002090810190610f8691905b80821115613b505760008155600101613ba7565b6001600160e01b031981168114610f8657600080fd5b600060208284031215613be357600080fd5b8135613bee81613bbb565b9392505050565b600060208284031215613c0757600080fd5b5035919050565b60005b83811015613c29578181015183820152602001613c11565b50506000910152565b60008151808452613c4a816020860160208601613c0e565b601f01601f19169290920160200192915050565b602081526000613bee6020830184613c32565b80356001600160a01b0381168114613c8857600080fd5b919050565b60008060408385031215613ca057600080fd5b613ca983613c71565b946020939093013593505050565b634e487b7160e01b600052604160045260246000fd5b604051601f8201601f191681016001600160401b0381118282101715613cf557613cf5613cb7565b604052919050565b60006001600160401b03831115613d1657613d16613cb7565b613d29601f8401601f1916602001613ccd565b9050828152838383011115613d3d57600080fd5b828260208301376000602084830101529392505050565b600082601f830112613d6557600080fd5b613bee83833560208501613cfd565b600080600060608486031215613d8957600080fd5b613d9284613c71565b92506020840135915060408401356001600160401b03811115613db457600080fd5b613dc086828701613d54565b9150509250925092565b600060208284031215613ddc57600080fd5b613bee82613c71565b600080600060608486031215613dfa57600080fd5b613e0384613c71565b9250613e1160208501613c71565b9150604084013590509250925092565b8015158114610f8657600080fd5b8035613c8881613e21565b60008060408385031215613e4d57600080fd5b613e5683613c71565b91506020830135613e6681613e21565b809150509250929050565b600081518084526020808501808196508360051b8101915082860160005b85811015613eb9578284038952613ea7848351613c32565b98850198935090840190600101613e8f565b5091979650505050505050565b602081526000613bee6020830184613e71565b600081518084526020808501945080840160005b83811015613f0957815187529582019590820190600101613eed565b509495945050505050565b602081526000613bee6020830184613ed9565b60006001600160401b03821115613f4057613f40613cb7565b5060051b60200190565b600082601f830112613f5b57600080fd5b81356020613f70613f6b83613f27565b613ccd565b82815260059290921b84018101918181019086841115613f8f57600080fd5b8286015b84811015613fce5780356001600160401b03811115613fb25760008081fd5b613fc08986838b0101613d54565b845250918301918301613f93565b509695505050505050565b600080600080600080600080610100898b031215613ff657600080fd5b88356001600160401b038082111561400d57600080fd5b6140198c838d01613d54565b995060208b013591508082111561402f57600080fd5b61403b8c838d01613d54565b985060408b0135975060608b0135965060808b0135955060a08b013591508082111561406657600080fd5b6140728c838d01613d54565b945060c08b013591508082111561408857600080fd5b506140958b828c01613f4a565b9250506140a460e08a01613e2f565b90509295985092959890939650565b60006101208b83528a60208401528960408401528060608401526140d98184018a613c32565b9050871515608084015282810360a08401526140f58188613c32565b905082810360c08401526141098187613c32565b60e084019590955250506101000152979650505050505050565b600080600080600080600060e0888a03121561413e57600080fd5b87356001600160401b038082111561415557600080fd5b6141618b838c01613d54565b985060208a013591508082111561417757600080fd5b6141838b838c01613d54565b975060408a0135965060608a0135955060808a0135945060a08a01359150808211156141ae57600080fd5b6141ba8b838c01613d54565b935060c08a01359150808211156141d057600080fd5b506141dd8a828b01613f4a565b91505092959891949750929550565b60008060008060008060c0878903121561420557600080fd5b86356001600160401b038082111561421c57600080fd5b6142288a838b01613d54565b9750602089013591508082111561423e57600080fd5b61424a8a838b01613d54565b96506040890135955060608901359450608089013591508082111561426e57600080fd5b61427a8a838b01613d54565b935060a089013591508082111561429057600080fd5b5061429d89828a01613f4a565b9150509295509295509295565b600080604083850312156142bd57600080fd5b82356001600160401b038111156142d357600080fd5b8301601f810185136142e457600080fd5b803560206142f4613f6b83613f27565b82815260059290921b8301810191818101908884111561431357600080fd5b938201935b838510156143385761432985613c71565b82529382019390820190614318565b95506143479050868201613e2f565b93505050509250929050565b6000806040838503121561436657600080fd5b8235915060208301356001600160401b0381111561438357600080fd5b61438f85828601613f4a565b9150509250929050565b8381526060602082015260006143b26060830185613ed9565b82810360408401526143c48185613ed9565b9695505050505050565b600080600080608085870312156143e457600080fd5b6143ed85613c71565b93506143fb60208601613c71565b92506040850135915060608501356001600160401b0381111561441d57600080fd5b8501601f8101871361442e57600080fd5b61443d87823560208401613cfd565b91505092959194509250565b6000806000806080858703121561445f57600080fd5b843593506020850135925060408501359150606085013561447f81613e21565b939692955090935050565b60208152815160208201526020820151604082015260408201516060820152600060608301516101408060808501526144c7610160850183613c32565b915060808501516144dc60a086018215159052565b5060a0850151601f19808685030160c08701526144f98483613c32565b935060c08701519150808685030160e08701526145168483613c32565b935060e087015191506101008281880152808801519250506101208187860301818801526145448584613e71565b970151959092019490945250929392505050565b6000806040838503121561456b57600080fd5b61457483613c71565b915061458260208401613c71565b90509250929050565b600181811c9082168061459f57607f821691505b6020821081036145bf57634e487b7160e01b600052602260045260246000fd5b50919050565b6000602082840312156145d757600080fd5b5051919050565b6000602082840312156145f057600080fd5b8151613bee81613e21565b634e487b7160e01b600052601160045260246000fd5b80820180821115610871576108716145fb565b8281526040602082015260006131236040830184613c32565b81810381811115610871576108716145fb565b6020808252602d908201527f4552433732313a2063616c6c6572206973206e6f7420746f6b656e206f776e6560408201526c1c881bdc88185c1c1c9bdd9959609a1b606082015260800190565b634e487b7160e01b600052603260045260246000fd5b6000600182016146c5576146c56145fb565b5060010190565b601f821115610a6857600081815260208120601f850160051c810160208610156146f35750805b601f850160051c820191505b81811015614712578281556001016146ff565b505050505050565b81516001600160401b0381111561473357614733613cb7565b61474781614741845461458b565b846146cc565b602080601f83116001811461477c57600084156147645750858301515b600019600386901b1c1916600185901b178555614712565b600085815260208120601f198616915b828110156147ab5788860151825594840194600190910190840161478c565b50858210156147c95787850151600019600388901b60f8161c191681555b5050505050600190811b01905550565b6060815260006147ec6060830186613c32565b60208301949094525060400152919050565b63027232a160e51b81526000825161481d816004850160208701613c0e565b9190910160040192915050565b60008084546148388161458b565b60018281168015614850576001811461486557614894565b60ff1984168752821515830287019450614894565b8860005260208060002060005b8581101561488b5781548a820152908401908201614872565b50505082870194505b5050505083516148a8818360208801613c0e565b64173539b7b760d91b9101908152600501949350505050565b60208082526025908201527f4552433732313a207472616e736665722066726f6d20696e636f72726563742060408201526437bbb732b960d91b606082015260800190565b60208082526032908201527f4552433732313a207472616e7366657220746f206e6f6e20455243373231526560408201527131b2b4bb32b91034b6b83632b6b2b73a32b960711b606082015260800190565b634e487b7160e01b600052603160045260246000fd5b6001600160a01b03858116825284166020820152604081018390526080606082018190526000906143c490830184613c32565b6000602082840312156149b357600080fd5b8151613bee81613bbb56fea26469706673582212205a2bec22dc1c04d6d02585185a6492c81d0574893a565e965b88fa81096658b064736f6c6343000814003368747470733a2f2f6f6c6976652d717569636b2d646f6c7068696e2d3236362e6d7970696e6174612e636c6f75642f697066732f62616679626569686434687a6c687337353576726b336666726461786172753334687966376b7375767a796362746b3576716a6c78373263797a692f8dc18c4ccfd75f5c815b63770fa542fd953e8fef7e0e44bbdd4913470ce7e9d341636365732061757820737472617465676965732064652062617365206176656320626f6e757320323025c575c31fea594a6eb97c8e9d3f9caee4c16218c6ef37e923234c0fe9014a61ef","opcodes":"PUSH1 0xA0 PUSH1 0x40 MSTORE PUSH1 0x5 PUSH1 0x13 SSTORE CALLVALUE DUP1 ISZERO PUSH3 0x16 JUMPI PUSH1 0x0 DUP1 REVERT JUMPDEST POP PUSH1 0x40 MLOAD PUSH3 0x576B CODESIZE SUB DUP1 PUSH3 0x576B DUP4 CODECOPY DUP2 ADD PUSH1 0x40 DUP2 SWAP1 MSTORE PUSH3 0x39 SWAP2 PUSH3 0xAB2 JUMP JUMPDEST PUSH1 0x40 MLOAD DUP1 PUSH1 0x40 ADD PUSH1 0x40 MSTORE DUP1 PUSH1 0x18 DUP2 MSTORE PUSH1 0x20 ADD PUSH32 0x43727970746F63615661756C7420416363657373204E46540000000000000000 DUP2 MSTORE POP PUSH1 0x40 MLOAD DUP1 PUSH1 0x40 ADD PUSH1 0x40 MSTORE DUP1 PUSH1 0x5 DUP2 MSTORE PUSH1 0x20 ADD PUSH5 0x10D5939195 PUSH1 0xDA SHL DUP2 MSTORE POP DUP2 PUSH1 0x0 SWAP1 DUP2 PUSH3 0x9E SWAP2 SWAP1 PUSH3 0xB89 JUMP JUMPDEST POP PUSH1 0x1 PUSH3 0xAD DUP3 DUP3 PUSH3 0xB89 JUMP JUMPDEST POP POP POP PUSH3 0xCA PUSH3 0xC4 PUSH3 0x113 PUSH1 0x20 SHL PUSH1 0x20 SHR JUMP JUMPDEST PUSH3 0x117 JUMP JUMPDEST PUSH1 0x1 PUSH1 0x8 SSTORE PUSH1 0x1 PUSH1 0x1 PUSH1 0xA0 SHL SUB DUP2 AND PUSH1 0x80 MSTORE PUSH1 0x11 DUP1 SLOAD PUSH1 0x1 PUSH1 0x1 PUSH1 0xA0 SHL SUB NOT AND PUSH20 0xE0B7BCB42AEBB5BE565CC81518A48D780F3C001C OR SWAP1 SSTORE PUSH3 0x10C PUSH3 0x169 JUMP JUMPDEST POP PUSH3 0xC6B JUMP JUMPDEST CALLER SWAP1 JUMP JUMPDEST PUSH1 0x7 DUP1 SLOAD PUSH1 0x1 PUSH1 0x1 PUSH1 0xA0 SHL SUB DUP4 DUP2 AND PUSH1 0x1 PUSH1 0x1 PUSH1 0xA0 SHL SUB NOT DUP4 AND DUP2 OR SWAP1 SWAP4 SSTORE PUSH1 0x40 MLOAD SWAP2 AND SWAP2 SWAP1 DUP3 SWAP1 PUSH32 0x8BE0079C531659141344CD1FD0A4F28419497F9722A3DAAFE3B4186F6B6457E0 SWAP1 PUSH1 0x0 SWAP1 LOG3 POP POP JUMP JUMPDEST PUSH3 0x25C PUSH1 0x1 PUSH1 0x40 MLOAD DUP1 PUSH2 0x140 ADD PUSH1 0x40 MSTORE DUP1 PUSH9 0x68155A43676E00000 DUP2 MSTORE PUSH1 0x20 ADD PUSH2 0x3E8 DUP2 MSTORE PUSH1 0x20 ADD PUSH1 0x0 DUP2 MSTORE PUSH1 0x20 ADD PUSH1 0x40 MLOAD DUP1 PUSH1 0xA0 ADD PUSH1 0x40 MSTORE DUP1 PUSH1 0x70 DUP2 MSTORE PUSH1 0x20 ADD PUSH3 0x5690 PUSH1 0x70 SWAP2 CODECOPY DUP2 MSTORE PUSH1 0x20 ADD PUSH1 0x1 ISZERO ISZERO DUP2 MSTORE PUSH1 0x20 ADD PUSH1 0x40 MLOAD DUP1 PUSH1 0x40 ADD PUSH1 0x40 MSTORE DUP1 PUSH1 0xF DUP2 MSTORE PUSH1 0x20 ADD PUSH15 0x5661656C6974682064652053657665 PUSH1 0x88 SHL DUP2 MSTORE POP DUP2 MSTORE PUSH1 0x20 ADD PUSH1 0x40 MLOAD DUP1 PUSH1 0x60 ADD PUSH1 0x40 MSTORE DUP1 PUSH1 0x2B DUP2 MSTORE PUSH1 0x20 ADD PUSH3 0x5720 PUSH1 0x2B SWAP2 CODECOPY DUP2 MSTORE PUSH1 0x78 PUSH1 0x20 DUP3 ADD MSTORE PUSH1 0x40 ADD PUSH1 0x1 JUMPDEST PUSH1 0x40 MLOAD SWAP1 DUP1 DUP3 MSTORE DUP1 PUSH1 0x20 MUL PUSH1 0x20 ADD DUP3 ADD PUSH1 0x40 MSTORE DUP1 ISZERO PUSH3 0x24C JUMPI DUP2 PUSH1 0x20 ADD JUMPDEST PUSH1 0x60 DUP2 MSTORE PUSH1 0x20 ADD SWAP1 PUSH1 0x1 SWAP1 SUB SWAP1 DUP2 PUSH3 0x236 JUMPI SWAP1 POP JUMPDEST POP DUP2 MSTORE TIMESTAMP PUSH1 0x20 SWAP1 SWAP2 ADD MSTORE PUSH3 0x8EF JUMP JUMPDEST PUSH1 0x40 MLOAD DUP1 PUSH1 0x40 ADD PUSH1 0x40 MSTORE DUP1 PUSH1 0x7 DUP2 MSTORE PUSH1 0x20 ADD PUSH7 0x39BA30B93A32B9 PUSH1 0xC9 SHL DUP2 MSTORE POP PUSH1 0x9 PUSH1 0x0 PUSH1 0x1 DUP2 MSTORE PUSH1 0x20 ADD SWAP1 DUP2 MSTORE PUSH1 0x20 ADD PUSH1 0x0 KECCAK256 PUSH1 0x8 ADD PUSH1 0x0 DUP2 SLOAD DUP2 LT PUSH3 0x2A8 JUMPI PUSH3 0x2A8 PUSH3 0xC55 JUMP JUMPDEST SWAP1 PUSH1 0x0 MSTORE PUSH1 0x20 PUSH1 0x0 KECCAK256 ADD SWAP1 DUP2 PUSH3 0x2C0 SWAP2 SWAP1 PUSH3 0xB89 JUMP JUMPDEST POP PUSH3 0x38D PUSH1 0x2 PUSH1 0x40 MLOAD DUP1 PUSH2 0x140 ADD PUSH1 0x40 MSTORE DUP1 PUSH9 0xD8D726B7177A80000 DUP2 MSTORE PUSH1 0x20 ADD PUSH2 0x1F4 DUP2 MSTORE PUSH1 0x20 ADD PUSH1 0x0 DUP2 MSTORE PUSH1 0x20 ADD PUSH1 0x40 MLOAD DUP1 PUSH1 0xA0 ADD PUSH1 0x40 MSTORE DUP1 PUSH1 0x70 DUP2 MSTORE PUSH1 0x20 ADD PUSH3 0x5690 PUSH1 0x70 SWAP2 CODECOPY DUP2 MSTORE PUSH1 0x1 PUSH1 0x20 DUP1 DUP4 ADD SWAP2 SWAP1 SWAP2 MSTORE PUSH1 0x40 DUP1 MLOAD DUP1 DUP3 ADD DUP3 MSTORE PUSH1 0x11 DUP2 MSTORE PUSH17 0x53796C77656E20646573204272756D6573 PUSH1 0x78 SHL DUP2 DUP5 ADD MSTORE DUP2 DUP5 ADD MSTORE DUP1 MLOAD DUP1 DUP3 ADD SWAP1 SWAP2 MSTORE PUSH1 0x1B DUP2 MSTORE PUSH32 0x4163636573206574656E6475206176656320626F6E7573203530250000000000 SWAP2 DUP2 ADD SWAP2 SWAP1 SWAP2 MSTORE PUSH1 0x60 DUP3 ADD MSTORE PUSH1 0x96 PUSH1 0x80 DUP3 ADD MSTORE PUSH1 0xA0 ADD PUSH1 0x2 PUSH3 0x217 JUMP JUMPDEST PUSH1 0x40 MLOAD DUP1 PUSH1 0x40 ADD PUSH1 0x40 MSTORE DUP1 PUSH1 0x7 DUP2 MSTORE PUSH1 0x20 ADD PUSH7 0x39BA30B93A32B9 PUSH1 0xC9 SHL DUP2 MSTORE POP PUSH1 0x9 PUSH1 0x0 PUSH1 0x2 DUP2 MSTORE PUSH1 0x20 ADD SWAP1 DUP2 MSTORE PUSH1 0x20 ADD PUSH1 0x0 KECCAK256 PUSH1 0x8 ADD PUSH1 0x0 DUP2 SLOAD DUP2 LT PUSH3 0x3D9 JUMPI PUSH3 0x3D9 PUSH3 0xC55 JUMP JUMPDEST SWAP1 PUSH1 0x0 MSTORE PUSH1 0x20 PUSH1 0x0 KECCAK256 ADD SWAP1 DUP2 PUSH3 0x3F1 SWAP2 SWAP1 PUSH3 0xB89 JUMP JUMPDEST POP PUSH1 0x40 DUP1 MLOAD DUP1 DUP3 ADD SWAP1 SWAP2 MSTORE PUSH1 0x8 DUP2 MSTORE PUSH8 0x1CDD185B99185C99 PUSH1 0xC2 SHL PUSH1 0x20 DUP1 DUP4 ADD SWAP2 SWAP1 SWAP2 MSTORE PUSH1 0x2 PUSH1 0x0 MSTORE PUSH1 0x9 SWAP1 MSTORE PUSH32 0x6CDE3CEA4B3A3FB2488B2808BAE7556F4A405E50F65E1794383BC026131B13CB DUP1 SLOAD PUSH1 0x1 SWAP1 DUP2 LT PUSH3 0x455 JUMPI PUSH3 0x455 PUSH3 0xC55 JUMP JUMPDEST SWAP1 PUSH1 0x0 MSTORE PUSH1 0x20 PUSH1 0x0 KECCAK256 ADD SWAP1 DUP2 PUSH3 0x46D SWAP2 SWAP1 PUSH3 0xB89 JUMP JUMPDEST POP PUSH3 0x538 PUSH1 0x3 PUSH1 0x40 MLOAD DUP1 PUSH2 0x140 ADD PUSH1 0x40 MSTORE DUP1 PUSH9 0x1B1AE4D6E2EF500000 DUP2 MSTORE PUSH1 0x20 ADD PUSH1 0xC8 DUP2 MSTORE PUSH1 0x20 ADD PUSH1 0x0 DUP2 MSTORE PUSH1 0x20 ADD PUSH1 0x40 MLOAD DUP1 PUSH1 0xA0 ADD PUSH1 0x40 MSTORE DUP1 PUSH1 0x70 DUP2 MSTORE PUSH1 0x20 ADD PUSH3 0x5690 PUSH1 0x70 SWAP2 CODECOPY DUP2 MSTORE PUSH1 0x1 PUSH1 0x20 DUP1 DUP4 ADD SWAP2 SWAP1 SWAP2 MSTORE PUSH1 0x40 DUP1 MLOAD DUP1 DUP3 ADD DUP3 MSTORE PUSH1 0x10 DUP2 MSTORE PUSH16 0x4E796D657269656C206465204C756E65 PUSH1 0x80 SHL DUP2 DUP5 ADD MSTORE DUP2 DUP5 ADD MSTORE DUP1 MLOAD DUP1 DUP3 ADD SWAP1 SWAP2 MSTORE PUSH1 0x1D DUP2 MSTORE PUSH32 0x4163636573207072656D69756D206176656320626F6E75732031303025000000 SWAP2 DUP2 ADD SWAP2 SWAP1 SWAP2 MSTORE PUSH1 0x60 DUP3 ADD MSTORE PUSH1 0xC8 PUSH1 0x80 DUP3 ADD MSTORE PUSH1 0xA0 ADD PUSH1 0x3 PUSH3 0x217 JUMP JUMPDEST PUSH1 0x40 MLOAD DUP1 PUSH1 0x40 ADD PUSH1 0x40 MSTORE DUP1 PUSH1 0x7 DUP2 MSTORE PUSH1 0x20 ADD PUSH7 0x39BA30B93A32B9 PUSH1 0xC9 SHL DUP2 MSTORE POP PUSH1 0x9 PUSH1 0x0 PUSH1 0x3 DUP2 MSTORE PUSH1 0x20 ADD SWAP1 DUP2 MSTORE PUSH1 0x20 ADD PUSH1 0x0 KECCAK256 PUSH1 0x8 ADD PUSH1 0x0 DUP2 SLOAD DUP2 LT PUSH3 0x584 JUMPI PUSH3 0x584 PUSH3 0xC55 JUMP JUMPDEST SWAP1 PUSH1 0x0 MSTORE PUSH1 0x20 PUSH1 0x0 KECCAK256 ADD SWAP1 DUP2 PUSH3 0x59C SWAP2 SWAP1 PUSH3 0xB89 JUMP JUMPDEST POP PUSH1 0x40 DUP1 MLOAD DUP1 DUP3 ADD SWAP1 SWAP2 MSTORE PUSH1 0x8 DUP2 MSTORE PUSH8 0x1CDD185B99185C99 PUSH1 0xC2 SHL PUSH1 0x20 DUP1 DUP4 ADD SWAP2 SWAP1 SWAP2 MSTORE PUSH1 0x3 PUSH1 0x0 MSTORE PUSH1 0x9 SWAP1 MSTORE PUSH1 0x0 DUP1 MLOAD PUSH1 0x20 PUSH3 0x574B DUP4 CODECOPY DUP2 MLOAD SWAP2 MSTORE DUP1 SLOAD PUSH1 0x1 SWAP1 DUP2 LT PUSH3 0x5EF JUMPI PUSH3 0x5EF PUSH3 0xC55 JUMP JUMPDEST SWAP1 PUSH1 0x0 MSTORE PUSH1 0x20 PUSH1 0x0 KECCAK256 ADD SWAP1 DUP2 PUSH3 0x607 SWAP2 SWAP1 PUSH3 0xB89 JUMP JUMPDEST POP PUSH1 0x40 DUP1 MLOAD DUP1 DUP3 ADD SWAP1 SWAP2 MSTORE PUSH1 0x7 DUP2 MSTORE PUSH7 0x7072656D69756D PUSH1 0xC8 SHL PUSH1 0x20 DUP1 DUP4 ADD SWAP2 SWAP1 SWAP2 MSTORE PUSH1 0x3 PUSH1 0x0 MSTORE PUSH1 0x9 SWAP1 MSTORE PUSH1 0x0 DUP1 MLOAD PUSH1 0x20 PUSH3 0x574B DUP4 CODECOPY DUP2 MLOAD SWAP2 MSTORE DUP1 SLOAD PUSH1 0x2 SWAP1 DUP2 LT PUSH3 0x659 JUMPI PUSH3 0x659 PUSH3 0xC55 JUMP JUMPDEST SWAP1 PUSH1 0x0 MSTORE PUSH1 0x20 PUSH1 0x0 KECCAK256 ADD SWAP1 DUP2 PUSH3 0x671 SWAP2 SWAP1 PUSH3 0xB89 JUMP JUMPDEST POP PUSH3 0x749 PUSH1 0x4 PUSH1 0x40 MLOAD DUP1 PUSH2 0x140 ADD PUSH1 0x40 MSTORE DUP1 PUSH9 0x3635C9ADC5DEA00000 DUP2 MSTORE PUSH1 0x20 ADD PUSH1 0x32 DUP2 MSTORE PUSH1 0x20 ADD PUSH1 0x0 DUP2 MSTORE PUSH1 0x20 ADD PUSH1 0x40 MLOAD DUP1 PUSH1 0xA0 ADD PUSH1 0x40 MSTORE DUP1 PUSH1 0x70 DUP2 MSTORE PUSH1 0x20 ADD PUSH3 0x5690 PUSH1 0x70 SWAP2 CODECOPY DUP2 MSTORE PUSH1 0x1 PUSH1 0x20 DUP1 DUP4 ADD SWAP2 SWAP1 SWAP2 MSTORE PUSH1 0x40 DUP1 MLOAD DUP1 DUP3 ADD DUP3 MSTORE PUSH1 0x14 DUP2 MSTORE PUSH32 0x4661656C6F726961206C61205261646965757365000000000000000000000000 DUP2 DUP5 ADD MSTORE DUP2 DUP5 ADD MSTORE DUP1 MLOAD DUP1 DUP3 ADD SWAP1 SWAP2 MSTORE PUSH1 0x1E DUP2 MSTORE PUSH32 0x4163636573206578636C75736966206176656320626F6E757320313530250000 SWAP2 DUP2 ADD SWAP2 SWAP1 SWAP2 MSTORE PUSH1 0x60 DUP3 ADD MSTORE PUSH1 0xFA PUSH1 0x80 DUP3 ADD MSTORE PUSH1 0xA0 ADD PUSH1 0x4 PUSH3 0x217 JUMP JUMPDEST PUSH1 0x40 MLOAD DUP1 PUSH1 0x40 ADD PUSH1 0x40 MSTORE DUP1 PUSH1 0x7 DUP2 MSTORE PUSH1 0x20 ADD PUSH7 0x39BA30B93A32B9 PUSH1 0xC9 SHL DUP2 MSTORE POP PUSH1 0x9 PUSH1 0x0 PUSH1 0x4 DUP2 MSTORE PUSH1 0x20 ADD SWAP1 DUP2 MSTORE PUSH1 0x20 ADD PUSH1 0x0 KECCAK256 PUSH1 0x8 ADD PUSH1 0x0 DUP2 SLOAD DUP2 LT PUSH3 0x795 JUMPI PUSH3 0x795 PUSH3 0xC55 JUMP JUMPDEST SWAP1 PUSH1 0x0 MSTORE PUSH1 0x20 PUSH1 0x0 KECCAK256 ADD SWAP1 DUP2 PUSH3 0x7AD SWAP2 SWAP1 PUSH3 0xB89 JUMP JUMPDEST POP PUSH1 0x40 DUP1 MLOAD DUP1 DUP3 ADD SWAP1 SWAP2 MSTORE PUSH1 0x8 DUP2 MSTORE PUSH8 0x1CDD185B99185C99 PUSH1 0xC2 SHL PUSH1 0x20 DUP1 DUP4 ADD SWAP2 SWAP1 SWAP2 MSTORE PUSH1 0x4 PUSH1 0x0 MSTORE PUSH1 0x9 SWAP1 MSTORE PUSH1 0x0 DUP1 MLOAD PUSH1 0x20 PUSH3 0x5700 DUP4 CODECOPY DUP2 MLOAD SWAP2 MSTORE DUP1 SLOAD PUSH1 0x1 SWAP1 DUP2 LT PUSH3 0x800 JUMPI PUSH3 0x800 PUSH3 0xC55 JUMP JUMPDEST SWAP1 PUSH1 0x0 MSTORE PUSH1 0x20 PUSH1 0x0 KECCAK256 ADD SWAP1 DUP2 PUSH3 0x818 SWAP2 SWAP1 PUSH3 0xB89 JUMP JUMPDEST POP PUSH1 0x40 DUP1 MLOAD DUP1 DUP3 ADD SWAP1 SWAP2 MSTORE PUSH1 0x7 DUP2 MSTORE PUSH7 0x7072656D69756D PUSH1 0xC8 SHL PUSH1 0x20 DUP1 DUP4 ADD SWAP2 SWAP1 SWAP2 MSTORE PUSH1 0x4 PUSH1 0x0 MSTORE PUSH1 0x9 SWAP1 MSTORE PUSH1 0x0 DUP1 MLOAD PUSH1 0x20 PUSH3 0x5700 DUP4 CODECOPY DUP2 MLOAD SWAP2 MSTORE DUP1 SLOAD PUSH1 0x2 SWAP1 DUP2 LT PUSH3 0x86A JUMPI PUSH3 0x86A PUSH3 0xC55 JUMP JUMPDEST SWAP1 PUSH1 0x0 MSTORE PUSH1 0x20 PUSH1 0x0 KECCAK256 ADD SWAP1 DUP2 PUSH3 0x882 SWAP2 SWAP1 PUSH3 0xB89 JUMP JUMPDEST POP PUSH1 0x40 DUP1 MLOAD DUP1 DUP3 ADD SWAP1 SWAP2 MSTORE PUSH1 0x9 DUP1 DUP3 MSTORE PUSH9 0x70726976696C656765 PUSH1 0xB8 SHL PUSH1 0x20 DUP1 DUP5 ADD SWAP2 SWAP1 SWAP2 MSTORE PUSH1 0x4 PUSH1 0x0 MSTORE MSTORE PUSH1 0x0 DUP1 MLOAD PUSH1 0x20 PUSH3 0x5700 DUP4 CODECOPY DUP2 MLOAD SWAP2 MSTORE DUP1 SLOAD PUSH1 0x3 SWAP1 DUP2 LT PUSH3 0x8D4 JUMPI PUSH3 0x8D4 PUSH3 0xC55 JUMP JUMPDEST SWAP1 PUSH1 0x0 MSTORE PUSH1 0x20 PUSH1 0x0 KECCAK256 ADD SWAP1 DUP2 PUSH3 0x8EC SWAP2 SWAP1 PUSH3 0xB89 JUMP JUMPDEST POP JUMP JUMPDEST PUSH1 0x0 DUP3 DUP2 MSTORE PUSH1 0x9 PUSH1 0x20 SWAP1 DUP2 MSTORE PUSH1 0x40 SWAP2 DUP3 SWAP1 KECCAK256 DUP4 MLOAD DUP2 SSTORE SWAP1 DUP4 ADD MLOAD PUSH1 0x1 DUP3 ADD SSTORE SWAP1 DUP3 ADD MLOAD PUSH1 0x2 DUP3 ADD SSTORE PUSH1 0x60 DUP3 ADD MLOAD DUP3 SWAP2 SWAP1 PUSH1 0x3 DUP3 ADD SWAP1 PUSH3 0x930 SWAP1 DUP3 PUSH3 0xB89 JUMP JUMPDEST POP PUSH1 0x80 DUP3 ADD MLOAD PUSH1 0x4 DUP3 ADD DUP1 SLOAD PUSH1 0xFF NOT AND SWAP2 ISZERO ISZERO SWAP2 SWAP1 SWAP2 OR SWAP1 SSTORE PUSH1 0xA0 DUP3 ADD MLOAD PUSH1 0x5 DUP3 ADD SWAP1 PUSH3 0x95F SWAP1 DUP3 PUSH3 0xB89 JUMP JUMPDEST POP PUSH1 0xC0 DUP3 ADD MLOAD PUSH1 0x6 DUP3 ADD SWAP1 PUSH3 0x976 SWAP1 DUP3 PUSH3 0xB89 JUMP JUMPDEST POP PUSH1 0xE0 DUP3 ADD MLOAD PUSH1 0x7 DUP3 ADD SSTORE PUSH2 0x100 DUP3 ADD MLOAD DUP1 MLOAD PUSH3 0x99F SWAP2 PUSH1 0x8 DUP5 ADD SWAP2 PUSH1 0x20 SWAP1 SWAP2 ADD SWAP1 PUSH3 0x9E4 JUMP JUMPDEST POP PUSH2 0x120 SWAP2 SWAP1 SWAP2 ADD MLOAD PUSH1 0x9 SWAP1 SWAP2 ADD SSTORE POP PUSH1 0xA DUP1 SLOAD PUSH1 0x1 DUP2 ADD DUP3 SSTORE PUSH1 0x0 SWAP2 SWAP1 SWAP2 MSTORE PUSH32 0xC65A7BB8D6351C1CF70C95A316CC6A92839C986682D98BC35F958F4883F9D2A8 ADD SSTORE JUMP JUMPDEST DUP3 DUP1 SLOAD DUP3 DUP3 SSTORE SWAP1 PUSH1 0x0 MSTORE PUSH1 0x20 PUSH1 0x0 KECCAK256 SWAP1 DUP2 ADD SWAP3 DUP3 ISZERO PUSH3 0xA2F JUMPI SWAP2 PUSH1 0x20 MUL DUP3 ADD JUMPDEST DUP3 DUP2 GT ISZERO PUSH3 0xA2F JUMPI DUP3 MLOAD DUP3 SWAP1 PUSH3 0xA1E SWAP1 DUP3 PUSH3 0xB89 JUMP JUMPDEST POP SWAP2 PUSH1 0x20 ADD SWAP2 SWAP1 PUSH1 0x1 ADD SWAP1 PUSH3 0xA05 JUMP JUMPDEST POP PUSH3 0xA3D SWAP3 SWAP2 POP PUSH3 0xA41 JUMP JUMPDEST POP SWAP1 JUMP JUMPDEST DUP1 DUP3 GT ISZERO PUSH3 0xA3D JUMPI PUSH1 0x0 PUSH3 0xA58 DUP3 DUP3 PUSH3 0xA62 JUMP JUMPDEST POP PUSH1 0x1 ADD PUSH3 0xA41 JUMP JUMPDEST POP DUP1 SLOAD PUSH3 0xA70 SWAP1 PUSH3 0xAFA JUMP JUMPDEST PUSH1 0x0 DUP3 SSTORE DUP1 PUSH1 0x1F LT PUSH3 0xA81 JUMPI POP POP JUMP JUMPDEST PUSH1 0x1F ADD PUSH1 0x20 SWAP1 DIV SWAP1 PUSH1 0x0 MSTORE PUSH1 0x20 PUSH1 0x0 KECCAK256 SWAP1 DUP2 ADD SWAP1 PUSH3 0x8EC SWAP2 SWAP1 JUMPDEST DUP1 DUP3 GT ISZERO PUSH3 0xA3D JUMPI PUSH1 0x0 DUP2 SSTORE PUSH1 0x1 ADD PUSH3 0xA9C JUMP JUMPDEST PUSH1 0x0 PUSH1 0x20 DUP3 DUP5 SUB SLT ISZERO PUSH3 0xAC5 JUMPI PUSH1 0x0 DUP1 REVERT JUMPDEST DUP2 MLOAD PUSH1 0x1 PUSH1 0x1 PUSH1 0xA0 SHL SUB DUP2 AND DUP2 EQ PUSH3 0xADD JUMPI PUSH1 0x0 DUP1 REVERT JUMPDEST SWAP4 SWAP3 POP POP POP JUMP JUMPDEST PUSH4 0x4E487B71 PUSH1 0xE0 SHL PUSH1 0x0 MSTORE PUSH1 0x41 PUSH1 0x4 MSTORE PUSH1 0x24 PUSH1 0x0 REVERT JUMPDEST PUSH1 0x1 DUP2 DUP2 SHR SWAP1 DUP3 AND DUP1 PUSH3 0xB0F JUMPI PUSH1 0x7F DUP3 AND SWAP2 POP JUMPDEST PUSH1 0x20 DUP3 LT DUP2 SUB PUSH3 0xB30 JUMPI PUSH4 0x4E487B71 PUSH1 0xE0 SHL PUSH1 0x0 MSTORE PUSH1 0x22 PUSH1 0x4 MSTORE PUSH1 0x24 PUSH1 0x0 REVERT JUMPDEST POP SWAP2 SWAP1 POP JUMP JUMPDEST PUSH1 0x1F DUP3 GT ISZERO PUSH3 0xB84 JUMPI PUSH1 0x0 DUP2 DUP2 MSTORE PUSH1 0x20 DUP2 KECCAK256 PUSH1 0x1F DUP6 ADD PUSH1 0x5 SHR DUP2 ADD PUSH1 0x20 DUP7 LT ISZERO PUSH3 0xB5F JUMPI POP DUP1 JUMPDEST PUSH1 0x1F DUP6 ADD PUSH1 0x5 SHR DUP3 ADD SWAP2 POP JUMPDEST DUP2 DUP2 LT ISZERO PUSH3 0xB80 JUMPI DUP3 DUP2 SSTORE PUSH1 0x1 ADD PUSH3 0xB6B JUMP JUMPDEST POP POP POP JUMPDEST POP POP POP JUMP JUMPDEST DUP2 MLOAD PUSH1 0x1 PUSH1 0x1 PUSH1 0x40 SHL SUB DUP2 GT ISZERO PUSH3 0xBA5 JUMPI PUSH3 0xBA5 PUSH3 0xAE4 JUMP JUMPDEST PUSH3 0xBBD DUP2 PUSH3 0xBB6 DUP5 SLOAD PUSH3 0xAFA JUMP JUMPDEST DUP5 PUSH3 0xB36 JUMP JUMPDEST PUSH1 0x20 DUP1 PUSH1 0x1F DUP4 GT PUSH1 0x1 DUP2 EQ PUSH3 0xBF5 JUMPI PUSH1 0x0 DUP5 ISZERO PUSH3 0xBDC JUMPI POP DUP6 DUP4 ADD MLOAD JUMPDEST PUSH1 0x0 NOT PUSH1 0x3 DUP7 SWAP1 SHL SHR NOT AND PUSH1 0x1 DUP6 SWAP1 SHL OR DUP6 SSTORE PUSH3 0xB80 JUMP JUMPDEST PUSH1 0x0 DUP6 DUP2 MSTORE PUSH1 0x20 DUP2 KECCAK256 PUSH1 0x1F NOT DUP7 AND SWAP2 JUMPDEST DUP3 DUP2 LT ISZERO PUSH3 0xC26 JUMPI DUP9 DUP7 ADD MLOAD DUP3 SSTORE SWAP5 DUP5 ADD SWAP5 PUSH1 0x1 SWAP1 SWAP2 ADD SWAP1 DUP5 ADD PUSH3 0xC05 JUMP JUMPDEST POP DUP6 DUP3 LT ISZERO PUSH3 0xC45 JUMPI DUP8 DUP6 ADD MLOAD PUSH1 0x0 NOT PUSH1 0x3 DUP9 SWAP1 SHL PUSH1 0xF8 AND SHR NOT AND DUP2 SSTORE JUMPDEST POP POP POP POP POP PUSH1 0x1 SWAP1 DUP2 SHL ADD SWAP1 SSTORE POP JUMP JUMPDEST PUSH4 0x4E487B71 PUSH1 0xE0 SHL PUSH1 0x0 MSTORE PUSH1 0x32 PUSH1 0x4 MSTORE PUSH1 0x24 PUSH1 0x0 REVERT JUMPDEST PUSH1 0x80 MLOAD PUSH2 0x49F4 PUSH3 0xC9C PUSH1 0x0 CODECOPY PUSH1 0x0 DUP2 DUP2 PUSH2 0x3F3 ADD MSTORE DUP2 DUP2 PUSH2 0xC05 ADD MSTORE DUP2 DUP2 PUSH2 0xCDD ADD MSTORE PUSH2 0xDD7 ADD MSTORE PUSH2 0x49F4 PUSH1 0x0 RETURN INVALID PUSH1 0x80 PUSH1 0x40 MSTORE CALLVALUE DUP1 ISZERO PUSH2 0x10 JUMPI PUSH1 0x0 DUP1 REVERT JUMPDEST POP PUSH1 0x4 CALLDATASIZE LT PUSH2 0x342 JUMPI PUSH1 0x0 CALLDATALOAD PUSH1 0xE0 SHR DUP1 PUSH4 0x70BBCC48 GT PUSH2 0x1B8 JUMPI DUP1 PUSH4 0xBF2D9E0B GT PUSH2 0x104 JUMPI DUP1 PUSH4 0xE0CA0CD1 GT PUSH2 0xA2 JUMPI DUP1 PUSH4 0xEE93BA22 GT PUSH2 0x7C JUMPI DUP1 PUSH4 0xEE93BA22 EQ PUSH2 0x830 JUMPI DUP1 PUSH4 0xF2FDE38B EQ PUSH2 0x838 JUMPI DUP1 PUSH4 0xF49FCB1C EQ PUSH2 0x84B JUMPI DUP1 PUSH4 0xF5932382 EQ PUSH2 0x853 JUMPI PUSH1 0x0 DUP1 REVERT JUMPDEST DUP1 PUSH4 0xE0CA0CD1 EQ PUSH2 0x7B3 JUMPI DUP1 PUSH4 0xE79004F6 EQ PUSH2 0x7C6 JUMPI DUP1 PUSH4 0xE985E9C5 EQ PUSH2 0x7F4 JUMPI PUSH1 0x0 DUP1 REVERT JUMPDEST DUP1 PUSH4 0xC621F94C GT PUSH2 0xDE JUMPI DUP1 PUSH4 0xC621F94C EQ PUSH2 0x75A JUMPI DUP1 PUSH4 0xC87B56DD EQ PUSH2 0x76D JUMPI DUP1 PUSH4 0xCC9D7519 EQ PUSH2 0x780 JUMPI DUP1 PUSH4 0xCF457321 EQ PUSH2 0x7A0 JUMPI PUSH1 0x0 DUP1 REVERT JUMPDEST DUP1 PUSH4 0xBF2D9E0B EQ PUSH2 0x702 JUMPI DUP1 PUSH4 0xC2939471 EQ PUSH2 0x70B JUMPI DUP1 PUSH4 0xC5E22F3F EQ PUSH2 0x747 JUMPI PUSH1 0x0 DUP1 REVERT JUMPDEST DUP1 PUSH4 0x95CCEA67 GT PUSH2 0x171 JUMPI DUP1 PUSH4 0xA22CB465 GT PUSH2 0x14B JUMPI DUP1 PUSH4 0xA22CB465 EQ PUSH2 0x6A2 JUMPI DUP1 PUSH4 0xAC18992C EQ PUSH2 0x6B5 JUMPI DUP1 PUSH4 0xB49829F6 EQ PUSH2 0x6CC JUMPI DUP1 PUSH4 0xB88D4FDE EQ PUSH2 0x6EF JUMPI PUSH1 0x0 DUP1 REVERT JUMPDEST DUP1 PUSH4 0x95CCEA67 EQ PUSH2 0x674 JUMPI DUP1 PUSH4 0x95D89B41 EQ PUSH2 0x687 JUMPI DUP1 PUSH4 0x9FF522F0 EQ PUSH2 0x68F JUMPI PUSH1 0x0 DUP1 REVERT JUMPDEST DUP1 PUSH4 0x70BBCC48 EQ PUSH2 0x60F JUMPI DUP1 PUSH4 0x715018A6 EQ PUSH2 0x622 JUMPI DUP1 PUSH4 0x72A8D623 EQ PUSH2 0x62A JUMPI DUP1 PUSH4 0x7A65CDCA EQ PUSH2 0x63D JUMPI DUP1 PUSH4 0x8C858A14 EQ PUSH2 0x650 JUMPI DUP1 PUSH4 0x8DA5CB5B EQ PUSH2 0x663 JUMPI PUSH1 0x0 DUP1 REVERT JUMPDEST DUP1 PUSH4 0x2AFD4295 GT PUSH2 0x292 JUMPI DUP1 PUSH4 0x42842E0E GT PUSH2 0x230 JUMPI DUP1 PUSH4 0x5DAF3146 GT PUSH2 0x20A JUMPI DUP1 PUSH4 0x5DAF3146 EQ PUSH2 0x5BB JUMPI DUP1 PUSH4 0x6352211E EQ PUSH2 0x5D6 JUMPI DUP1 PUSH4 0x6A8D0C6B EQ PUSH2 0x5E9 JUMPI DUP1 PUSH4 0x70A08231 EQ PUSH2 0x5FC JUMPI PUSH1 0x0 DUP1 REVERT JUMPDEST DUP1 PUSH4 0x42842E0E EQ PUSH2 0x582 JUMPI DUP1 PUSH4 0x4752184D EQ PUSH2 0x595 JUMPI DUP1 PUSH4 0x58C3FA46 EQ PUSH2 0x5A8 JUMPI PUSH1 0x0 DUP1 REVERT JUMPDEST DUP1 PUSH4 0x3B2E8657 GT PUSH2 0x26C JUMPI DUP1 PUSH4 0x3B2E8657 EQ PUSH2 0x504 JUMPI DUP1 PUSH4 0x3EA4A023 EQ PUSH2 0x524 JUMPI DUP1 PUSH4 0x3FE32348 EQ PUSH2 0x537 JUMPI DUP1 PUSH4 0x40241B69 EQ PUSH2 0x55A JUMPI PUSH1 0x0 DUP1 REVERT JUMPDEST DUP1 PUSH4 0x2AFD4295 EQ PUSH2 0x4BC JUMPI DUP1 PUSH4 0x2E51BF76 EQ PUSH2 0x4DC JUMPI DUP1 PUSH4 0x2F745C59 EQ PUSH2 0x4F1 JUMPI PUSH1 0x0 DUP1 REVERT JUMPDEST DUP1 PUSH4 0x11EAC855 GT PUSH2 0x2FF JUMPI DUP1 PUSH4 0x1D2572B6 GT PUSH2 0x2D9 JUMPI DUP1 PUSH4 0x1D2572B6 EQ PUSH2 0x43B JUMPI DUP1 PUSH4 0x23B872DD EQ PUSH2 0x476 JUMPI DUP1 PUSH4 0x23BACF8A EQ PUSH2 0x489 JUMPI DUP1 PUSH4 0x27CD41C2 EQ PUSH2 0x49C JUMPI PUSH1 0x0 DUP1 REVERT JUMPDEST DUP1 PUSH4 0x11EAC855 EQ PUSH2 0x3EE JUMPI DUP1 PUSH4 0x150BDE03 EQ PUSH2 0x415 JUMPI DUP1 PUSH4 0x1BC806E3 EQ PUSH2 0x428 JUMPI PUSH1 0x0 DUP1 REVERT JUMPDEST DUP1 PUSH4 0x1FFC9A7 EQ PUSH2 0x347 JUMPI DUP1 PUSH4 0x4E2886B EQ PUSH2 0x36F JUMPI DUP1 PUSH4 0x594FD04 EQ PUSH2 0x384 JUMPI DUP1 PUSH4 0x6FDDE03 EQ PUSH2 0x39B JUMPI DUP1 PUSH4 0x81812FC EQ PUSH2 0x3B0 JUMPI DUP1 PUSH4 0x95EA7B3 EQ PUSH2 0x3DB JUMPI JUMPDEST PUSH1 0x0 DUP1 REVERT JUMPDEST PUSH2 0x35A PUSH2 0x355 CALLDATASIZE PUSH1 0x4 PUSH2 0x3BD1 JUMP JUMPDEST PUSH2 0x866 JUMP JUMPDEST PUSH1 0x40 MLOAD SWAP1 ISZERO ISZERO DUP2 MSTORE PUSH1 0x20 ADD JUMPDEST PUSH1 0x40 MLOAD DUP1 SWAP2 SUB SWAP1 RETURN JUMPDEST PUSH2 0x382 PUSH2 0x37D CALLDATASIZE PUSH1 0x4 PUSH2 0x3BF5 JUMP JUMPDEST PUSH2 0x877 JUMP JUMPDEST STOP JUMPDEST PUSH2 0x38D PUSH1 0x13 SLOAD DUP2 JUMP JUMPDEST PUSH1 0x40 MLOAD SWAP1 DUP2 MSTORE PUSH1 0x20 ADD PUSH2 0x366 JUMP JUMPDEST PUSH2 0x3A3 PUSH2 0x89A JUMP JUMPDEST PUSH1 0x40 MLOAD PUSH2 0x366 SWAP2 SWAP1 PUSH2 0x3C5E JUMP JUMPDEST PUSH2 0x3C3 PUSH2 0x3BE CALLDATASIZE PUSH1 0x4 PUSH2 0x3BF5 JUMP JUMPDEST PUSH2 0x92C JUMP JUMPDEST PUSH1 0x40 MLOAD PUSH1 0x1 PUSH1 0x1 PUSH1 0xA0 SHL SUB SWAP1 SWAP2 AND DUP2 MSTORE PUSH1 0x20 ADD PUSH2 0x366 JUMP JUMPDEST PUSH2 0x382 PUSH2 0x3E9 CALLDATASIZE PUSH1 0x4 PUSH2 0x3C8D JUMP JUMPDEST PUSH2 0x953 JUMP JUMPDEST PUSH2 0x3C3 PUSH32 0x0 DUP2 JUMP JUMPDEST PUSH2 0x382 PUSH2 0x423 CALLDATASIZE PUSH1 0x4 PUSH2 0x3BF5 JUMP JUMPDEST PUSH2 0xA6D JUMP JUMPDEST PUSH2 0x382 PUSH2 0x436 CALLDATASIZE PUSH1 0x4 PUSH2 0x3D74 JUMP JUMPDEST PUSH2 0xF89 JUMP JUMPDEST PUSH2 0x44E PUSH2 0x449 CALLDATASIZE PUSH1 0x4 PUSH2 0x3DCA JUMP JUMPDEST PUSH2 0x10E5 JUMP JUMPDEST PUSH1 0x40 DUP1 MLOAD SWAP5 ISZERO ISZERO DUP6 MSTORE SWAP3 ISZERO ISZERO PUSH1 0x20 DUP6 ADD MSTORE SWAP1 ISZERO ISZERO SWAP2 DUP4 ADD SWAP2 SWAP1 SWAP2 MSTORE PUSH1 0x60 DUP3 ADD MSTORE PUSH1 0x80 ADD PUSH2 0x366 JUMP JUMPDEST PUSH2 0x382 PUSH2 0x484 CALLDATASIZE PUSH1 0x4 PUSH2 0x3DE5 JUMP JUMPDEST PUSH2 0x11AD JUMP JUMPDEST PUSH2 0x382 PUSH2 0x497 CALLDATASIZE PUSH1 0x4 PUSH2 0x3E3A JUMP JUMPDEST PUSH2 0x11DE JUMP JUMPDEST PUSH2 0x38D PUSH2 0x4AA CALLDATASIZE PUSH1 0x4 PUSH2 0x3BF5 JUMP JUMPDEST PUSH1 0xB PUSH1 0x20 MSTORE PUSH1 0x0 SWAP1 DUP2 MSTORE PUSH1 0x40 SWAP1 KECCAK256 SLOAD DUP2 JUMP JUMPDEST PUSH2 0x4CF PUSH2 0x4CA CALLDATASIZE PUSH1 0x4 PUSH2 0x3BF5 JUMP JUMPDEST PUSH2 0x1245 JUMP JUMPDEST PUSH1 0x40 MLOAD PUSH2 0x366 SWAP2 SWAP1 PUSH2 0x3EC6 JUMP JUMPDEST PUSH2 0x4E4 PUSH2 0x1334 JUMP JUMPDEST PUSH1 0x40 MLOAD PUSH2 0x366 SWAP2 SWAP1 PUSH2 0x3F14 JUMP JUMPDEST PUSH2 0x38D PUSH2 0x4FF CALLDATASIZE PUSH1 0x4 PUSH2 0x3C8D JUMP JUMPDEST PUSH2 0x1493 JUMP JUMPDEST PUSH2 0x38D PUSH2 0x512 CALLDATASIZE PUSH1 0x4 PUSH2 0x3BF5 JUMP JUMPDEST PUSH1 0x15 PUSH1 0x20 MSTORE PUSH1 0x0 SWAP1 DUP2 MSTORE PUSH1 0x40 SWAP1 KECCAK256 SLOAD DUP2 JUMP JUMPDEST PUSH2 0x38D PUSH2 0x532 CALLDATASIZE PUSH1 0x4 PUSH2 0x3FD9 JUMP JUMPDEST PUSH2 0x151E JUMP JUMPDEST PUSH2 0x35A PUSH2 0x545 CALLDATASIZE PUSH1 0x4 PUSH2 0x3BF5 JUMP JUMPDEST PUSH1 0xD PUSH1 0x20 MSTORE PUSH1 0x0 SWAP1 DUP2 MSTORE PUSH1 0x40 SWAP1 KECCAK256 SLOAD PUSH1 0xFF AND DUP2 JUMP JUMPDEST PUSH2 0x56D PUSH2 0x568 CALLDATASIZE PUSH1 0x4 PUSH2 0x3BF5 JUMP JUMPDEST PUSH2 0x16E5 JUMP JUMPDEST PUSH1 0x40 MLOAD PUSH2 0x366 SWAP10 SWAP9 SWAP8 SWAP7 SWAP6 SWAP5 SWAP4 SWAP3 SWAP2 SWAP1 PUSH2 0x40B3 JUMP JUMPDEST PUSH2 0x382 PUSH2 0x590 CALLDATASIZE PUSH1 0x4 PUSH2 0x3DE5 JUMP JUMPDEST PUSH2 0x18CF JUMP JUMPDEST PUSH2 0x38D PUSH2 0x5A3 CALLDATASIZE PUSH1 0x4 PUSH2 0x4123 JUMP JUMPDEST PUSH2 0x18EA JUMP JUMPDEST PUSH2 0x38D PUSH2 0x5B6 CALLDATASIZE PUSH1 0x4 PUSH2 0x3BF5 JUMP JUMPDEST PUSH2 0x1AB9 JUMP JUMPDEST PUSH2 0x3C3 PUSH20 0xE0B7BCB42AEBB5BE565CC81518A48D780F3C001C DUP2 JUMP JUMPDEST PUSH2 0x3C3 PUSH2 0x5E4 CALLDATASIZE PUSH1 0x4 PUSH2 0x3BF5 JUMP JUMPDEST PUSH2 0x1ADA JUMP JUMPDEST PUSH1 0x11 SLOAD PUSH2 0x3C3 SWAP1 PUSH1 0x1 PUSH1 0x1 PUSH1 0xA0 SHL SUB AND DUP2 JUMP JUMPDEST PUSH2 0x38D PUSH2 0x60A CALLDATASIZE PUSH1 0x4 PUSH2 0x3DCA JUMP JUMPDEST PUSH2 0x1B3A JUMP JUMPDEST PUSH2 0x38D PUSH2 0x61D CALLDATASIZE PUSH1 0x4 PUSH2 0x41EC JUMP JUMPDEST PUSH2 0x1BC0 JUMP JUMPDEST PUSH2 0x382 PUSH2 0x1D7C JUMP JUMPDEST PUSH2 0x382 PUSH2 0x638 CALLDATASIZE PUSH1 0x4 PUSH2 0x42AA JUMP JUMPDEST PUSH2 0x1D90 JUMP JUMPDEST PUSH2 0x38D PUSH2 0x64B CALLDATASIZE PUSH1 0x4 PUSH2 0x3DCA JUMP JUMPDEST PUSH2 0x1E6A JUMP JUMPDEST PUSH2 0x38D PUSH2 0x65E CALLDATASIZE PUSH1 0x4 PUSH2 0x3BF5 JUMP JUMPDEST PUSH2 0x1F09 JUMP JUMPDEST PUSH1 0x7 SLOAD PUSH1 0x1 PUSH1 0x1 PUSH1 0xA0 SHL SUB AND PUSH2 0x3C3 JUMP JUMPDEST PUSH2 0x382 PUSH2 0x682 CALLDATASIZE PUSH1 0x4 PUSH2 0x3C8D JUMP JUMPDEST PUSH2 0x1F2C JUMP JUMPDEST PUSH2 0x3A3 PUSH2 0x2008 JUMP JUMPDEST PUSH2 0x382 PUSH2 0x69D CALLDATASIZE PUSH1 0x4 PUSH2 0x4353 JUMP JUMPDEST PUSH2 0x2017 JUMP JUMPDEST PUSH2 0x382 PUSH2 0x6B0 CALLDATASIZE PUSH1 0x4 PUSH2 0x3E3A JUMP JUMPDEST PUSH2 0x20E0 JUMP JUMPDEST PUSH2 0x6BD PUSH2 0x20EF JUMP JUMPDEST PUSH1 0x40 MLOAD PUSH2 0x366 SWAP4 SWAP3 SWAP2 SWAP1 PUSH2 0x4399 JUMP JUMPDEST PUSH2 0x35A PUSH2 0x6DA CALLDATASIZE PUSH1 0x4 PUSH2 0x3DCA JUMP JUMPDEST PUSH1 0xE PUSH1 0x20 MSTORE PUSH1 0x0 SWAP1 DUP2 MSTORE PUSH1 0x40 SWAP1 KECCAK256 SLOAD PUSH1 0xFF AND DUP2 JUMP JUMPDEST PUSH2 0x382 PUSH2 0x6FD CALLDATASIZE PUSH1 0x4 PUSH2 0x43CE JUMP JUMPDEST PUSH2 0x2238 JUMP JUMPDEST PUSH2 0x38D PUSH1 0x14 SLOAD DUP2 JUMP JUMPDEST PUSH1 0x11 SLOAD PUSH1 0x14 SLOAD PUSH1 0x40 DUP1 MLOAD PUSH20 0xE0B7BCB42AEBB5BE565CC81518A48D780F3C001C DUP2 MSTORE PUSH1 0x1 PUSH1 0x1 PUSH1 0xA0 SHL SUB SWAP1 SWAP4 AND PUSH1 0x20 DUP5 ADD MSTORE DUP3 ADD MSTORE PUSH1 0x60 ADD PUSH2 0x366 JUMP JUMPDEST PUSH2 0x38D PUSH2 0x755 CALLDATASIZE PUSH1 0x4 PUSH2 0x3DCA JUMP JUMPDEST PUSH2 0x2270 JUMP JUMPDEST PUSH2 0x382 PUSH2 0x768 CALLDATASIZE PUSH1 0x4 PUSH2 0x4449 JUMP JUMPDEST PUSH2 0x2308 JUMP JUMPDEST PUSH2 0x3A3 PUSH2 0x77B CALLDATASIZE PUSH1 0x4 PUSH2 0x3BF5 JUMP JUMPDEST PUSH2 0x242B JUMP JUMPDEST PUSH2 0x793 PUSH2 0x78E CALLDATASIZE PUSH1 0x4 PUSH2 0x3BF5 JUMP JUMPDEST PUSH2 0x24D6 JUMP JUMPDEST PUSH1 0x40 MLOAD PUSH2 0x366 SWAP2 SWAP1 PUSH2 0x448A JUMP JUMPDEST PUSH2 0x382 PUSH2 0x7AE CALLDATASIZE PUSH1 0x4 PUSH2 0x3DCA JUMP JUMPDEST PUSH2 0x2828 JUMP JUMPDEST PUSH2 0x382 PUSH2 0x7C1 CALLDATASIZE PUSH1 0x4 PUSH2 0x3BF5 JUMP JUMPDEST PUSH2 0x28DA JUMP JUMPDEST PUSH2 0x35A PUSH2 0x7D4 CALLDATASIZE PUSH1 0x4 PUSH2 0x3C8D JUMP JUMPDEST PUSH1 0xC PUSH1 0x20 SWAP1 DUP2 MSTORE PUSH1 0x0 SWAP3 DUP4 MSTORE PUSH1 0x40 DUP1 DUP5 KECCAK256 SWAP1 SWAP2 MSTORE SWAP1 DUP3 MSTORE SWAP1 KECCAK256 SLOAD PUSH1 0xFF AND DUP2 JUMP JUMPDEST PUSH2 0x35A PUSH2 0x802 CALLDATASIZE PUSH1 0x4 PUSH2 0x4558 JUMP JUMPDEST PUSH1 0x1 PUSH1 0x1 PUSH1 0xA0 SHL SUB SWAP2 DUP3 AND PUSH1 0x0 SWAP1 DUP2 MSTORE PUSH1 0x5 PUSH1 0x20 SWAP1 DUP2 MSTORE PUSH1 0x40 DUP1 DUP4 KECCAK256 SWAP4 SWAP1 SWAP5 AND DUP3 MSTORE SWAP2 SWAP1 SWAP2 MSTORE KECCAK256 SLOAD PUSH1 0xFF AND SWAP1 JUMP JUMPDEST PUSH2 0x4E4 PUSH2 0x2900 JUMP JUMPDEST PUSH2 0x382 PUSH2 0x846 CALLDATASIZE PUSH1 0x4 PUSH2 0x3DCA JUMP JUMPDEST PUSH2 0x2A5C JUMP JUMPDEST PUSH2 0x382 PUSH2 0x2AD2 JUMP JUMPDEST PUSH2 0x382 PUSH2 0x861 CALLDATASIZE PUSH1 0x4 PUSH2 0x3DCA JUMP JUMPDEST PUSH2 0x2CA8 JUMP JUMPDEST PUSH1 0x0 PUSH2 0x871 DUP3 PUSH2 0x2E3E JUMP JUMPDEST SWAP3 SWAP2 POP POP JUMP JUMPDEST PUSH2 0x87F PUSH2 0x2E63 JUMP JUMPDEST PUSH1 0x0 SWAP1 DUP2 MSTORE PUSH1 0x9 PUSH1 0x20 MSTORE PUSH1 0x40 SWAP1 KECCAK256 PUSH1 0x4 ADD DUP1 SLOAD PUSH1 0xFF NOT AND SWAP1 SSTORE JUMP JUMPDEST PUSH1 0x60 PUSH1 0x0 DUP1 SLOAD PUSH2 0x8A9 SWAP1 PUSH2 0x458B JUMP JUMPDEST DUP1 PUSH1 0x1F ADD PUSH1 0x20 DUP1 SWAP2 DIV MUL PUSH1 0x20 ADD PUSH1 0x40 MLOAD SWAP1 DUP2 ADD PUSH1 0x40 MSTORE DUP1 SWAP3 SWAP2 SWAP1 DUP2 DUP2 MSTORE PUSH1 0x20 ADD DUP3 DUP1 SLOAD PUSH2 0x8D5 SWAP1 PUSH2 0x458B JUMP JUMPDEST DUP1 ISZERO PUSH2 0x922 JUMPI DUP1 PUSH1 0x1F LT PUSH2 0x8F7 JUMPI PUSH2 0x100 DUP1 DUP4 SLOAD DIV MUL DUP4 MSTORE SWAP2 PUSH1 0x20 ADD SWAP2 PUSH2 0x922 JUMP JUMPDEST DUP3 ADD SWAP2 SWAP1 PUSH1 0x0 MSTORE PUSH1 0x20 PUSH1 0x0 KECCAK256 SWAP1 JUMPDEST DUP2 SLOAD DUP2 MSTORE SWAP1 PUSH1 0x1 ADD SWAP1 PUSH1 0x20 ADD DUP1 DUP4 GT PUSH2 0x905 JUMPI DUP3 SWAP1 SUB PUSH1 0x1F AND DUP3 ADD SWAP2 JUMPDEST POP POP POP POP POP SWAP1 POP SWAP1 JUMP JUMPDEST PUSH1 0x0 PUSH2 0x937 DUP3 PUSH2 0x2EBD JUMP JUMPDEST POP PUSH1 0x0 SWAP1 DUP2 MSTORE PUSH1 0x4 PUSH1 0x20 MSTORE PUSH1 0x40 SWAP1 KECCAK256 SLOAD PUSH1 0x1 PUSH1 0x1 PUSH1 0xA0 SHL SUB AND SWAP1 JUMP JUMPDEST PUSH1 0x0 PUSH2 0x95E DUP3 PUSH2 0x1ADA JUMP JUMPDEST SWAP1 POP DUP1 PUSH1 0x1 PUSH1 0x1 PUSH1 0xA0 SHL SUB AND DUP4 PUSH1 0x1 PUSH1 0x1 PUSH1 0xA0 SHL SUB AND SUB PUSH2 0x9D0 JUMPI PUSH1 0x40 MLOAD PUSH3 0x461BCD PUSH1 0xE5 SHL DUP2 MSTORE PUSH1 0x20 PUSH1 0x4 DUP3 ADD MSTORE PUSH1 0x21 PUSH1 0x24 DUP3 ADD MSTORE PUSH32 0x4552433732313A20617070726F76616C20746F2063757272656E74206F776E65 PUSH1 0x44 DUP3 ADD MSTORE PUSH1 0x39 PUSH1 0xF9 SHL PUSH1 0x64 DUP3 ADD MSTORE PUSH1 0x84 ADD JUMPDEST PUSH1 0x40 MLOAD DUP1 SWAP2 SUB SWAP1 REVERT JUMPDEST CALLER PUSH1 0x1 PUSH1 0x1 PUSH1 0xA0 SHL SUB DUP3 AND EQ DUP1 PUSH2 0x9EC JUMPI POP PUSH2 0x9EC DUP2 CALLER PUSH2 0x802 JUMP JUMPDEST PUSH2 0xA5E JUMPI PUSH1 0x40 MLOAD PUSH3 0x461BCD PUSH1 0xE5 SHL DUP2 MSTORE PUSH1 0x20 PUSH1 0x4 DUP3 ADD MSTORE PUSH1 0x3D PUSH1 0x24 DUP3 ADD MSTORE PUSH32 0x4552433732313A20617070726F76652063616C6C6572206973206E6F7420746F PUSH1 0x44 DUP3 ADD MSTORE PUSH32 0x6B656E206F776E6572206F7220617070726F76656420666F7220616C6C000000 PUSH1 0x64 DUP3 ADD MSTORE PUSH1 0x84 ADD PUSH2 0x9C7 JUMP JUMPDEST PUSH2 0xA68 DUP4 DUP4 PUSH2 0x2F1C JUMP JUMPDEST POP POP POP JUMP JUMPDEST PUSH2 0xA75 PUSH2 0x2F8A JUMP JUMPDEST PUSH1 0x0 DUP2 DUP2 MSTORE PUSH1 0x9 PUSH1 0x20 MSTORE PUSH1 0x40 SWAP1 KECCAK256 PUSH1 0x4 ADD SLOAD PUSH1 0xFF AND PUSH2 0xAC7 JUMPI PUSH1 0x40 MLOAD PUSH3 0x461BCD PUSH1 0xE5 SHL DUP2 MSTORE PUSH1 0x20 PUSH1 0x4 DUP3 ADD MSTORE PUSH1 0xE PUSH1 0x24 DUP3 ADD MSTORE PUSH14 0x2A34B2B9103737B71030B1BA34B3 PUSH1 0x91 SHL PUSH1 0x44 DUP3 ADD MSTORE PUSH1 0x64 ADD PUSH2 0x9C7 JUMP JUMPDEST PUSH1 0x0 DUP2 DUP2 MSTORE PUSH1 0x9 PUSH1 0x20 MSTORE PUSH1 0x40 SWAP1 KECCAK256 PUSH1 0x1 DUP2 ADD SLOAD PUSH1 0x2 SWAP1 SWAP2 ADD SLOAD LT PUSH2 0xB1E JUMPI PUSH1 0x40 MLOAD PUSH3 0x461BCD PUSH1 0xE5 SHL DUP2 MSTORE PUSH1 0x20 PUSH1 0x4 DUP3 ADD MSTORE PUSH1 0xE PUSH1 0x24 DUP3 ADD MSTORE PUSH14 0x537570706C792065707569736565 PUSH1 0x90 SHL PUSH1 0x44 DUP3 ADD MSTORE PUSH1 0x64 ADD PUSH2 0x9C7 JUMP JUMPDEST PUSH1 0x0 DUP2 DUP2 MSTORE PUSH1 0x9 PUSH1 0x20 MSTORE PUSH1 0x40 SWAP1 KECCAK256 SLOAD PUSH2 0xB79 JUMPI PUSH1 0x40 MLOAD PUSH3 0x461BCD PUSH1 0xE5 SHL DUP2 MSTORE PUSH1 0x20 PUSH1 0x4 DUP3 ADD MSTORE PUSH1 0x18 PUSH1 0x24 DUP3 ADD MSTORE PUSH32 0x5469657220696E76616C69646520706F75722061636861740000000000000000 PUSH1 0x44 DUP3 ADD MSTORE PUSH1 0x64 ADD PUSH2 0x9C7 JUMP JUMPDEST PUSH1 0x0 DUP2 DUP2 MSTORE PUSH1 0xD PUSH1 0x20 MSTORE PUSH1 0x40 SWAP1 KECCAK256 SLOAD PUSH1 0xFF AND ISZERO PUSH2 0xBD8 JUMPI PUSH1 0x40 MLOAD PUSH3 0x461BCD PUSH1 0xE5 SHL DUP2 MSTORE PUSH1 0x20 PUSH1 0x4 DUP3 ADD MSTORE PUSH1 0x1A PUSH1 0x24 DUP3 ADD MSTORE PUSH32 0x54696572207370656369616C206E6F6E20616368657461626C65000000000000 PUSH1 0x44 DUP3 ADD MSTORE PUSH1 0x64 ADD PUSH2 0x9C7 JUMP JUMPDEST PUSH1 0x0 DUP2 DUP2 MSTORE PUSH1 0x9 PUSH1 0x20 MSTORE PUSH1 0x40 SWAP1 DUP2 SWAP1 KECCAK256 SLOAD SWAP1 MLOAD PUSH4 0x6EB1769F PUSH1 0xE1 SHL DUP2 MSTORE CALLER PUSH1 0x4 DUP3 ADD MSTORE ADDRESS PUSH1 0x24 DUP3 ADD MSTORE DUP2 SWAP1 PUSH32 0x0 PUSH1 0x1 PUSH1 0x1 PUSH1 0xA0 SHL SUB AND SWAP1 PUSH4 0xDD62ED3E SWAP1 PUSH1 0x44 ADD PUSH1 0x20 PUSH1 0x40 MLOAD DUP1 DUP4 SUB DUP2 DUP7 GAS STATICCALL ISZERO DUP1 ISZERO PUSH2 0xC54 JUMPI RETURNDATASIZE PUSH1 0x0 DUP1 RETURNDATACOPY RETURNDATASIZE PUSH1 0x0 REVERT JUMPDEST POP POP POP POP PUSH1 0x40 MLOAD RETURNDATASIZE PUSH1 0x1F NOT PUSH1 0x1F DUP3 ADD AND DUP3 ADD DUP1 PUSH1 0x40 MSTORE POP DUP2 ADD SWAP1 PUSH2 0xC78 SWAP2 SWAP1 PUSH2 0x45C5 JUMP JUMPDEST LT ISZERO PUSH2 0xCC6 JUMPI PUSH1 0x40 MLOAD PUSH3 0x461BCD PUSH1 0xE5 SHL DUP2 MSTORE PUSH1 0x20 PUSH1 0x4 DUP3 ADD MSTORE PUSH1 0x1B PUSH1 0x24 DUP3 ADD MSTORE PUSH32 0x416C6C6F77616E6365205553444320696E737566666973616E74650000000000 PUSH1 0x44 DUP3 ADD MSTORE PUSH1 0x64 ADD PUSH2 0x9C7 JUMP JUMPDEST PUSH1 0x40 MLOAD PUSH4 0x70A08231 PUSH1 0xE0 SHL DUP2 MSTORE CALLER PUSH1 0x4 DUP3 ADD MSTORE DUP2 SWAP1 PUSH32 0x0 PUSH1 0x1 PUSH1 0x1 PUSH1 0xA0 SHL SUB AND SWAP1 PUSH4 0x70A08231 SWAP1 PUSH1 0x24 ADD PUSH1 0x20 PUSH1 0x40 MLOAD DUP1 DUP4 SUB DUP2 DUP7 GAS STATICCALL ISZERO DUP1 ISZERO PUSH2 0xD2C JUMPI RETURNDATASIZE PUSH1 0x0 DUP1 RETURNDATACOPY RETURNDATASIZE PUSH1 0x0 REVERT JUMPDEST POP POP POP POP PUSH1 0x40 MLOAD RETURNDATASIZE PUSH1 0x1F NOT PUSH1 0x1F DUP3 ADD AND DUP3 ADD DUP1 PUSH1 0x40 MSTORE POP DUP2 ADD SWAP1 PUSH2 0xD50 SWAP2 SWAP1 PUSH2 0x45C5 JUMP JUMPDEST LT ISZERO PUSH2 0xD9E JUMPI PUSH1 0x40 MLOAD PUSH3 0x461BCD PUSH1 0xE5 SHL DUP2 MSTORE PUSH1 0x20 PUSH1 0x4 DUP3 ADD MSTORE PUSH1 0x19 PUSH1 0x24 DUP3 ADD MSTORE PUSH32 0x42616C616E6365205553444320696E737566666973616E746500000000000000 PUSH1 0x44 DUP3 ADD MSTORE PUSH1 0x64 ADD PUSH2 0x9C7 JUMP JUMPDEST PUSH1 0x40 MLOAD PUSH4 0x23B872DD PUSH1 0xE0 SHL DUP2 MSTORE CALLER PUSH1 0x4 DUP3 ADD MSTORE PUSH20 0xE0B7BCB42AEBB5BE565CC81518A48D780F3C001C PUSH1 0x24 DUP3 ADD MSTORE PUSH1 0x44 DUP2 ADD DUP3 SWAP1 MSTORE PUSH1 0x0 SWAP1 PUSH32 0x0 PUSH1 0x1 PUSH1 0x1 PUSH1 0xA0 SHL SUB AND SWAP1 PUSH4 0x23B872DD SWAP1 PUSH1 0x64 ADD PUSH1 0x20 PUSH1 0x40 MLOAD DUP1 DUP4 SUB DUP2 PUSH1 0x0 DUP8 GAS CALL ISZERO DUP1 ISZERO PUSH2 0xE28 JUMPI RETURNDATASIZE PUSH1 0x0 DUP1 RETURNDATACOPY RETURNDATASIZE PUSH1 0x0 REVERT JUMPDEST POP POP POP POP PUSH1 0x40 MLOAD RETURNDATASIZE PUSH1 0x1F NOT PUSH1 0x1F DUP3 ADD AND DUP3 ADD DUP1 PUSH1 0x40 MSTORE POP DUP2 ADD SWAP1 PUSH2 0xE4C SWAP2 SWAP1 PUSH2 0x45DE JUMP JUMPDEST SWAP1 POP DUP1 PUSH2 0xEA7 JUMPI PUSH1 0x40 MLOAD PUSH3 0x461BCD PUSH1 0xE5 SHL DUP2 MSTORE PUSH1 0x20 PUSH1 0x4 DUP3 ADD MSTORE PUSH1 0x23 PUSH1 0x24 DUP3 ADD MSTORE PUSH32 0x5472616E73666572742055534443207665727320747265617375727920656368 PUSH1 0x44 DUP3 ADD MSTORE PUSH3 0x6F7565 PUSH1 0xE8 SHL PUSH1 0x64 DUP3 ADD MSTORE PUSH1 0x84 ADD PUSH2 0x9C7 JUMP JUMPDEST DUP2 PUSH1 0x14 PUSH1 0x0 DUP3 DUP3 SLOAD PUSH2 0xEB9 SWAP2 SWAP1 PUSH2 0x4611 JUMP JUMPDEST SWAP1 SWAP2 SSTORE POP POP PUSH1 0x0 DUP4 DUP2 MSTORE PUSH1 0x15 PUSH1 0x20 MSTORE PUSH1 0x40 DUP2 KECCAK256 DUP1 SLOAD DUP5 SWAP3 SWAP1 PUSH2 0xEDC SWAP1 DUP5 SWAP1 PUSH2 0x4611 JUMP JUMPDEST SWAP1 SWAP2 SSTORE POP PUSH2 0xEEE SWAP1 POP CALLER DUP5 PUSH1 0x0 PUSH2 0x2FE3 JUMP JUMPDEST PUSH1 0x12 SLOAD PUSH1 0x40 DUP1 MLOAD DUP6 DUP2 MSTORE PUSH1 0x20 DUP2 ADD DUP6 SWAP1 MSTORE CALLER SWAP2 PUSH32 0x25D1144310B3F5E9CB8AD2E2BD379AEF97847A57087AB9CBCD95A06105A4629C SWAP2 ADD PUSH1 0x40 MLOAD DUP1 SWAP2 SUB SWAP1 LOG3 PUSH1 0x40 DUP1 MLOAD DUP4 DUP2 MSTORE PUSH20 0xE0B7BCB42AEBB5BE565CC81518A48D780F3C001C PUSH1 0x20 DUP3 ADD MSTORE DUP5 SWAP2 PUSH32 0x46BFE087193767D942E8352E78FDCC40911C5C3B332C01410B9864A6FA8A89AE SWAP2 ADD PUSH1 0x40 MLOAD DUP1 SWAP2 SUB SWAP1 LOG2 POP POP PUSH2 0xF86 PUSH1 0x1 PUSH1 0x8 SSTORE JUMP JUMPDEST POP JUMP JUMPDEST PUSH2 0xF91 PUSH2 0x2E63 JUMP JUMPDEST PUSH1 0x0 DUP3 DUP2 MSTORE PUSH1 0x9 PUSH1 0x20 MSTORE PUSH1 0x40 SWAP1 KECCAK256 PUSH1 0x4 ADD SLOAD PUSH1 0xFF AND PUSH2 0xFE3 JUMPI PUSH1 0x40 MLOAD PUSH3 0x461BCD PUSH1 0xE5 SHL DUP2 MSTORE PUSH1 0x20 PUSH1 0x4 DUP3 ADD MSTORE PUSH1 0xE PUSH1 0x24 DUP3 ADD MSTORE PUSH14 0x2A34B2B9103737B71030B1BA34B3 PUSH1 0x91 SHL PUSH1 0x44 DUP3 ADD MSTORE PUSH1 0x64 ADD PUSH2 0x9C7 JUMP JUMPDEST PUSH1 0x0 DUP3 DUP2 MSTORE PUSH1 0xD PUSH1 0x20 MSTORE PUSH1 0x40 SWAP1 KECCAK256 SLOAD PUSH1 0xFF AND PUSH2 0x1037 JUMPI PUSH1 0x40 MLOAD PUSH3 0x461BCD PUSH1 0xE5 SHL DUP2 MSTORE PUSH1 0x20 PUSH1 0x4 DUP3 ADD MSTORE PUSH1 0x13 PUSH1 0x24 DUP3 ADD MSTORE PUSH19 0x14185CC81D5B881D1A595C881CDC1958DA585B PUSH1 0x6A SHL PUSH1 0x44 DUP3 ADD MSTORE PUSH1 0x64 ADD PUSH2 0x9C7 JUMP JUMPDEST PUSH1 0x0 DUP3 DUP2 MSTORE PUSH1 0x9 PUSH1 0x20 MSTORE PUSH1 0x40 SWAP1 KECCAK256 PUSH1 0x1 DUP2 ADD SLOAD PUSH1 0x2 SWAP1 SWAP2 ADD SLOAD LT PUSH2 0x108E JUMPI PUSH1 0x40 MLOAD PUSH3 0x461BCD PUSH1 0xE5 SHL DUP2 MSTORE PUSH1 0x20 PUSH1 0x4 DUP3 ADD MSTORE PUSH1 0xE PUSH1 0x24 DUP3 ADD MSTORE PUSH14 0x537570706C792065707569736565 PUSH1 0x90 SHL PUSH1 0x44 DUP3 ADD MSTORE PUSH1 0x64 ADD PUSH2 0x9C7 JUMP JUMPDEST PUSH2 0x109A DUP4 DUP4 PUSH1 0x1 PUSH2 0x2FE3 JUMP JUMPDEST PUSH1 0x12 SLOAD DUP4 PUSH1 0x1 PUSH1 0x1 PUSH1 0xA0 SHL SUB AND PUSH32 0xC7ECE8DD4EF8DE13DA640EF8B2D8AD4CDF8E1FC865D3A7356D995AD714528A5C DUP5 DUP5 PUSH1 0x40 MLOAD PUSH2 0x10D8 SWAP3 SWAP2 SWAP1 PUSH2 0x4624 JUMP JUMPDEST PUSH1 0x40 MLOAD DUP1 SWAP2 SUB SWAP1 LOG3 POP POP POP JUMP JUMPDEST PUSH1 0x1 PUSH1 0x1 PUSH1 0xA0 SHL SUB DUP2 AND PUSH1 0x0 SWAP1 DUP2 MSTORE PUSH1 0xE PUSH1 0x20 SWAP1 DUP2 MSTORE PUSH1 0x40 DUP1 DUP4 KECCAK256 SLOAD PUSH1 0xC DUP4 MSTORE DUP2 DUP5 KECCAK256 PUSH1 0x5 DUP1 DUP7 MSTORE SWAP1 DUP5 MSTORE SWAP2 DUP5 KECCAK256 SLOAD PUSH1 0x9 SWAP1 SWAP4 MSTORE PUSH32 0x74B05292D1D4B2B48B65261B07099D24244BCB069F138D9A6BFDCF776BECAC50 SLOAD PUSH32 0x74B05292D1D4B2B48B65261B07099D24244BCB069F138D9A6BFDCF776BECAC4E SLOAD PUSH32 0x74B05292D1D4B2B48B65261B07099D24244BCB069F138D9A6BFDCF776BECAC4D SLOAD DUP7 SWAP6 DUP7 SWAP6 DUP7 SWAP6 SWAP1 SWAP5 PUSH1 0xFF SWAP2 DUP3 AND SWAP5 SWAP3 DUP3 AND SWAP4 SWAP2 AND SWAP2 PUSH2 0x119D SWAP2 PUSH2 0x463D JUMP JUMPDEST SWAP5 POP SWAP5 POP SWAP5 POP SWAP5 POP POP SWAP2 SWAP4 POP SWAP2 SWAP4 JUMP JUMPDEST PUSH2 0x11B7 CALLER DUP3 PUSH2 0x30AC JUMP JUMPDEST PUSH2 0x11D3 JUMPI PUSH1 0x40 MLOAD PUSH3 0x461BCD PUSH1 0xE5 SHL DUP2 MSTORE PUSH1 0x4 ADD PUSH2 0x9C7 SWAP1 PUSH2 0x4650 JUMP JUMPDEST PUSH2 0xA68 DUP4 DUP4 DUP4 PUSH2 0x312B JUMP JUMPDEST PUSH2 0x11E6 PUSH2 0x2E63 JUMP JUMPDEST PUSH1 0x1 PUSH1 0x1 PUSH1 0xA0 SHL SUB DUP3 AND PUSH1 0x0 DUP2 DUP2 MSTORE PUSH1 0xE PUSH1 0x20 SWAP1 DUP2 MSTORE PUSH1 0x40 SWAP2 DUP3 SWAP1 KECCAK256 DUP1 SLOAD PUSH1 0xFF NOT AND DUP6 ISZERO ISZERO SWAP1 DUP2 OR SWAP1 SWAP2 SSTORE SWAP2 MLOAD SWAP2 DUP3 MSTORE PUSH32 0xB411A8B21A8114C276967C0FBDFA921C9D323C499C34022B1D150F60622D9622 SWAP2 ADD PUSH1 0x40 MLOAD DUP1 SWAP2 SUB SWAP1 LOG2 POP POP JUMP JUMPDEST PUSH1 0x60 PUSH1 0x9 PUSH1 0x0 DUP4 DUP2 MSTORE PUSH1 0x20 ADD SWAP1 DUP2 MSTORE PUSH1 0x20 ADD PUSH1 0x0 KECCAK256 PUSH1 0x8 ADD DUP1 SLOAD DUP1 PUSH1 0x20 MUL PUSH1 0x20 ADD PUSH1 0x40 MLOAD SWAP1 DUP2 ADD PUSH1 0x40 MSTORE DUP1 SWAP3 SWAP2 SWAP1 DUP2 DUP2 MSTORE PUSH1 0x20 ADD PUSH1 0x0 SWAP1 JUMPDEST DUP3 DUP3 LT ISZERO PUSH2 0x1329 JUMPI DUP4 DUP3 SWAP1 PUSH1 0x0 MSTORE PUSH1 0x20 PUSH1 0x0 KECCAK256 ADD DUP1 SLOAD PUSH2 0x129C SWAP1 PUSH2 0x458B JUMP JUMPDEST DUP1 PUSH1 0x1F ADD PUSH1 0x20 DUP1 SWAP2 DIV MUL PUSH1 0x20 ADD PUSH1 0x40 MLOAD SWAP1 DUP2 ADD PUSH1 0x40 MSTORE DUP1 SWAP3 SWAP2 SWAP1 DUP2 DUP2 MSTORE PUSH1 0x20 ADD DUP3 DUP1 SLOAD PUSH2 0x12C8 SWAP1 PUSH2 0x458B JUMP JUMPDEST DUP1 ISZERO PUSH2 0x1315 JUMPI DUP1 PUSH1 0x1F LT PUSH2 0x12EA JUMPI PUSH2 0x100 DUP1 DUP4 SLOAD DIV MUL DUP4 MSTORE SWAP2 PUSH1 0x20 ADD SWAP2 PUSH2 0x1315 JUMP JUMPDEST DUP3 ADD SWAP2 SWAP1 PUSH1 0x0 MSTORE PUSH1 0x20 PUSH1 0x0 KECCAK256 SWAP1 JUMPDEST DUP2 SLOAD DUP2 MSTORE SWAP1 PUSH1 0x1 ADD SWAP1 PUSH1 0x20 ADD DUP1 DUP4 GT PUSH2 0x12F8 JUMPI DUP3 SWAP1 SUB PUSH1 0x1F AND DUP3 ADD SWAP2 JUMPDEST POP POP POP POP POP DUP2 MSTORE PUSH1 0x20 ADD SWAP1 PUSH1 0x1 ADD SWAP1 PUSH2 0x127D JUMP JUMPDEST POP POP POP POP SWAP1 POP SWAP2 SWAP1 POP JUMP JUMPDEST PUSH1 0x60 PUSH1 0x0 DUP1 JUMPDEST PUSH1 0xA SLOAD DUP2 LT ISZERO PUSH2 0x139F JUMPI PUSH1 0xD PUSH1 0x0 PUSH1 0xA DUP4 DUP2 SLOAD DUP2 LT PUSH2 0x135B JUMPI PUSH2 0x135B PUSH2 0x469D JUMP JUMPDEST PUSH1 0x0 SWAP2 DUP3 MSTORE PUSH1 0x20 DUP1 DUP4 KECCAK256 SWAP1 SWAP2 ADD SLOAD DUP4 MSTORE DUP3 ADD SWAP3 SWAP1 SWAP3 MSTORE PUSH1 0x40 ADD SWAP1 KECCAK256 SLOAD PUSH1 0xFF AND ISZERO PUSH2 0x138D JUMPI DUP2 PUSH2 0x1389 DUP2 PUSH2 0x46B3 JUMP JUMPDEST SWAP3 POP POP JUMPDEST DUP1 PUSH2 0x1397 DUP2 PUSH2 0x46B3 JUMP JUMPDEST SWAP2 POP POP PUSH2 0x133A JUMP JUMPDEST POP PUSH1 0x0 DUP2 PUSH1 0x1 PUSH1 0x1 PUSH1 0x40 SHL SUB DUP2 GT ISZERO PUSH2 0x13BA JUMPI PUSH2 0x13BA PUSH2 0x3CB7 JUMP JUMPDEST PUSH1 0x40 MLOAD SWAP1 DUP1 DUP3 MSTORE DUP1 PUSH1 0x20 MUL PUSH1 0x20 ADD DUP3 ADD PUSH1 0x40 MSTORE DUP1 ISZERO PUSH2 0x13E3 JUMPI DUP2 PUSH1 0x20 ADD PUSH1 0x20 DUP3 MUL DUP1 CALLDATASIZE DUP4 CALLDATACOPY ADD SWAP1 POP JUMPDEST POP SWAP1 POP PUSH1 0x0 DUP1 JUMPDEST PUSH1 0xA SLOAD DUP2 LT ISZERO PUSH2 0x148A JUMPI PUSH1 0xD PUSH1 0x0 PUSH1 0xA DUP4 DUP2 SLOAD DUP2 LT PUSH2 0x140B JUMPI PUSH2 0x140B PUSH2 0x469D JUMP JUMPDEST PUSH1 0x0 SWAP2 DUP3 MSTORE PUSH1 0x20 DUP1 DUP4 KECCAK256 SWAP1 SWAP2 ADD SLOAD DUP4 MSTORE DUP3 ADD SWAP3 SWAP1 SWAP3 MSTORE PUSH1 0x40 ADD SWAP1 KECCAK256 SLOAD PUSH1 0xFF AND ISZERO PUSH2 0x1478 JUMPI PUSH1 0xA DUP2 DUP2 SLOAD DUP2 LT PUSH2 0x1442 JUMPI PUSH2 0x1442 PUSH2 0x469D JUMP JUMPDEST SWAP1 PUSH1 0x0 MSTORE PUSH1 0x20 PUSH1 0x0 KECCAK256 ADD SLOAD DUP4 DUP4 DUP2 MLOAD DUP2 LT PUSH2 0x145F JUMPI PUSH2 0x145F PUSH2 0x469D JUMP JUMPDEST PUSH1 0x20 SWAP1 DUP2 MUL SWAP2 SWAP1 SWAP2 ADD ADD MSTORE DUP2 PUSH2 0x1474 DUP2 PUSH2 0x46B3 JUMP JUMPDEST SWAP3 POP POP JUMPDEST DUP1 PUSH2 0x1482 DUP2 PUSH2 0x46B3 JUMP JUMPDEST SWAP2 POP POP PUSH2 0x13EA JUMP JUMPDEST POP SWAP1 SWAP4 SWAP3 POP POP POP JUMP JUMPDEST PUSH1 0x0 PUSH2 0x149E DUP4 PUSH2 0x1B3A JUMP JUMPDEST DUP3 LT PUSH2 0x14E1 JUMPI PUSH1 0x40 MLOAD PUSH3 0x461BCD PUSH1 0xE5 SHL DUP2 MSTORE PUSH1 0x20 PUSH1 0x4 DUP3 ADD MSTORE PUSH1 0x12 PUSH1 0x24 DUP3 ADD MSTORE PUSH18 0x496E64657820686F7273206C696D69746573 PUSH1 0x70 SHL PUSH1 0x44 DUP3 ADD MSTORE PUSH1 0x64 ADD PUSH2 0x9C7 JUMP JUMPDEST PUSH1 0x1 PUSH1 0x1 PUSH1 0xA0 SHL SUB DUP4 AND PUSH1 0x0 SWAP1 DUP2 MSTORE PUSH1 0xF PUSH1 0x20 MSTORE PUSH1 0x40 SWAP1 KECCAK256 DUP1 SLOAD DUP4 SWAP1 DUP2 LT PUSH2 0x150B JUMPI PUSH2 0x150B PUSH2 0x469D JUMP JUMPDEST SWAP1 PUSH1 0x0 MSTORE PUSH1 0x20 PUSH1 0x0 KECCAK256 ADD SLOAD SWAP1 POP SWAP3 SWAP2 POP POP JUMP JUMPDEST PUSH1 0x0 PUSH2 0x1528 PUSH2 0x2E63 JUMP JUMPDEST PUSH1 0x13 DUP1 SLOAD SWAP1 DUP2 SWAP1 PUSH1 0x0 PUSH2 0x153A DUP4 PUSH2 0x46B3 JUMP JUMPDEST SWAP2 SWAP1 POP SSTORE POP PUSH1 0x40 MLOAD DUP1 PUSH2 0x140 ADD PUSH1 0x40 MSTORE DUP1 DUP10 DUP2 MSTORE PUSH1 0x20 ADD DUP9 DUP2 MSTORE PUSH1 0x20 ADD PUSH1 0x0 DUP2 MSTORE PUSH1 0x20 ADD DUP7 DUP2 MSTORE PUSH1 0x20 ADD PUSH1 0x1 ISZERO ISZERO DUP2 MSTORE PUSH1 0x20 ADD DUP12 DUP2 MSTORE PUSH1 0x20 ADD DUP11 DUP2 MSTORE PUSH1 0x20 ADD DUP8 DUP2 MSTORE PUSH1 0x20 ADD DUP6 DUP2 MSTORE PUSH1 0x20 ADD TIMESTAMP DUP2 MSTORE POP PUSH1 0x9 PUSH1 0x0 DUP4 DUP2 MSTORE PUSH1 0x20 ADD SWAP1 DUP2 MSTORE PUSH1 0x20 ADD PUSH1 0x0 KECCAK256 PUSH1 0x0 DUP3 ADD MLOAD DUP2 PUSH1 0x0 ADD SSTORE PUSH1 0x20 DUP3 ADD MLOAD DUP2 PUSH1 0x1 ADD SSTORE PUSH1 0x40 DUP3 ADD MLOAD DUP2 PUSH1 0x2 ADD SSTORE PUSH1 0x60 DUP3 ADD MLOAD DUP2 PUSH1 0x3 ADD SWAP1 DUP2 PUSH2 0x15CF SWAP2 SWAP1 PUSH2 0x471A JUMP JUMPDEST POP PUSH1 0x80 DUP3 ADD MLOAD PUSH1 0x4 DUP3 ADD DUP1 SLOAD PUSH1 0xFF NOT AND SWAP2 ISZERO ISZERO SWAP2 SWAP1 SWAP2 OR SWAP1 SSTORE PUSH1 0xA0 DUP3 ADD MLOAD PUSH1 0x5 DUP3 ADD SWAP1 PUSH2 0x15FC SWAP1 DUP3 PUSH2 0x471A JUMP JUMPDEST POP PUSH1 0xC0 DUP3 ADD MLOAD PUSH1 0x6 DUP3 ADD SWAP1 PUSH2 0x1611 SWAP1 DUP3 PUSH2 0x471A JUMP JUMPDEST POP PUSH1 0xE0 DUP3 ADD MLOAD PUSH1 0x7 DUP3 ADD SSTORE PUSH2 0x100 DUP3 ADD MLOAD DUP1 MLOAD PUSH2 0x1638 SWAP2 PUSH1 0x8 DUP5 ADD SWAP2 PUSH1 0x20 SWAP1 SWAP2 ADD SWAP1 PUSH2 0x3AFE JUMP JUMPDEST POP PUSH2 0x120 SWAP2 SWAP1 SWAP2 ADD MLOAD PUSH1 0x9 SWAP1 SWAP2 ADD SSTORE PUSH1 0xA DUP1 SLOAD PUSH1 0x1 DUP2 ADD DUP3 SSTORE PUSH1 0x0 SWAP2 SWAP1 SWAP2 MSTORE PUSH32 0xC65A7BB8D6351C1CF70C95A316CC6A92839C986682D98BC35F958F4883F9D2A8 ADD DUP2 SWAP1 SSTORE DUP3 ISZERO PUSH2 0x169C JUMPI PUSH1 0x0 DUP2 DUP2 MSTORE PUSH1 0xD PUSH1 0x20 MSTORE PUSH1 0x40 SWAP1 KECCAK256 DUP1 SLOAD PUSH1 0xFF NOT AND PUSH1 0x1 OR SWAP1 SSTORE JUMPDEST DUP1 PUSH32 0x655289C4D9D7C45C2B83B18A45E3CE05F40710E413DB2117EE045E2AB12CAB2 DUP12 DUP11 DUP11 PUSH1 0x40 MLOAD PUSH2 0x16D0 SWAP4 SWAP3 SWAP2 SWAP1 PUSH2 0x47D9 JUMP JUMPDEST PUSH1 0x40 MLOAD DUP1 SWAP2 SUB SWAP1 LOG2 SWAP10 SWAP9 POP POP POP POP POP POP POP POP POP JUMP JUMPDEST PUSH1 0x9 PUSH1 0x20 MSTORE PUSH1 0x0 SWAP1 DUP2 MSTORE PUSH1 0x40 SWAP1 KECCAK256 DUP1 SLOAD PUSH1 0x1 DUP3 ADD SLOAD PUSH1 0x2 DUP4 ADD SLOAD PUSH1 0x3 DUP5 ADD DUP1 SLOAD SWAP4 SWAP5 SWAP3 SWAP4 SWAP2 SWAP3 SWAP2 PUSH2 0x1715 SWAP1 PUSH2 0x458B JUMP JUMPDEST DUP1 PUSH1 0x1F ADD PUSH1 0x20 DUP1 SWAP2 DIV MUL PUSH1 0x20 ADD PUSH1 0x40 MLOAD SWAP1 DUP2 ADD PUSH1 0x40 MSTORE DUP1 SWAP3 SWAP2 SWAP1 DUP2 DUP2 MSTORE PUSH1 0x20 ADD DUP3 DUP1 SLOAD PUSH2 0x1741 SWAP1 PUSH2 0x458B JUMP JUMPDEST DUP1 ISZERO PUSH2 0x178E JUMPI DUP1 PUSH1 0x1F LT PUSH2 0x1763 JUMPI PUSH2 0x100 DUP1 DUP4 SLOAD DIV MUL DUP4 MSTORE SWAP2 PUSH1 0x20 ADD SWAP2 PUSH2 0x178E JUMP JUMPDEST DUP3 ADD SWAP2 SWAP1 PUSH1 0x0 MSTORE PUSH1 0x20 PUSH1 0x0 KECCAK256 SWAP1 JUMPDEST DUP2 SLOAD DUP2 MSTORE SWAP1 PUSH1 0x1 ADD SWAP1 PUSH1 0x20 ADD DUP1 DUP4 GT PUSH2 0x1771 JUMPI DUP3 SWAP1 SUB PUSH1 0x1F AND DUP3 ADD SWAP2 JUMPDEST POP POP POP PUSH1 0x4 DUP5 ADD SLOAD PUSH1 0x5 DUP6 ADD DUP1 SLOAD SWAP5 SWAP6 PUSH1 0xFF SWAP1 SWAP3 AND SWAP5 SWAP2 SWAP4 POP SWAP2 POP PUSH2 0x17B2 SWAP1 PUSH2 0x458B JUMP JUMPDEST DUP1 PUSH1 0x1F ADD PUSH1 0x20 DUP1 SWAP2 DIV MUL PUSH1 0x20 ADD PUSH1 0x40 MLOAD SWAP1 DUP2 ADD PUSH1 0x40 MSTORE DUP1 SWAP3 SWAP2 SWAP1 DUP2 DUP2 MSTORE PUSH1 0x20 ADD DUP3 DUP1 SLOAD PUSH2 0x17DE SWAP1 PUSH2 0x458B JUMP JUMPDEST DUP1 ISZERO PUSH2 0x182B JUMPI DUP1 PUSH1 0x1F LT PUSH2 0x1800 JUMPI PUSH2 0x100 DUP1 DUP4 SLOAD DIV MUL DUP4 MSTORE SWAP2 PUSH1 0x20 ADD SWAP2 PUSH2 0x182B JUMP JUMPDEST DUP3 ADD SWAP2 SWAP1 PUSH1 0x0 MSTORE PUSH1 0x20 PUSH1 0x0 KECCAK256 SWAP1 JUMPDEST DUP2 SLOAD DUP2 MSTORE SWAP1 PUSH1 0x1 ADD SWAP1 PUSH1 0x20 ADD DUP1 DUP4 GT PUSH2 0x180E JUMPI DUP3 SWAP1 SUB PUSH1 0x1F AND DUP3 ADD SWAP2 JUMPDEST POP POP POP POP POP SWAP1 DUP1 PUSH1 0x6 ADD DUP1 SLOAD PUSH2 0x1840 SWAP1 PUSH2 0x458B JUMP JUMPDEST DUP1 PUSH1 0x1F ADD PUSH1 0x20 DUP1 SWAP2 DIV MUL PUSH1 0x20 ADD PUSH1 0x40 MLOAD SWAP1 DUP2 ADD PUSH1 0x40 MSTORE DUP1 SWAP3 SWAP2 SWAP1 DUP2 DUP2 MSTORE PUSH1 0x20 ADD DUP3 DUP1 SLOAD PUSH2 0x186C SWAP1 PUSH2 0x458B JUMP JUMPDEST DUP1 ISZERO PUSH2 0x18B9 JUMPI DUP1 PUSH1 0x1F LT PUSH2 0x188E JUMPI PUSH2 0x100 DUP1 DUP4 SLOAD DIV MUL DUP4 MSTORE SWAP2 PUSH1 0x20 ADD SWAP2 PUSH2 0x18B9 JUMP JUMPDEST DUP3 ADD SWAP2 SWAP1 PUSH1 0x0 MSTORE PUSH1 0x20 PUSH1 0x0 KECCAK256 SWAP1 JUMPDEST DUP2 SLOAD DUP2 MSTORE SWAP1 PUSH1 0x1 ADD SWAP1 PUSH1 0x20 ADD DUP1 DUP4 GT PUSH2 0x189C JUMPI DUP3 SWAP1 SUB PUSH1 0x1F AND DUP3 ADD SWAP2 JUMPDEST POP POP POP POP POP SWAP1 DUP1 PUSH1 0x7 ADD SLOAD SWAP1 DUP1 PUSH1 0x9 ADD SLOAD SWAP1 POP DUP10 JUMP JUMPDEST PUSH2 0xA68 DUP4 DUP4 DUP4 PUSH1 0x40 MLOAD DUP1 PUSH1 0x20 ADD PUSH1 0x40 MSTORE DUP1 PUSH1 0x0 DUP2 MSTORE POP PUSH2 0x2238 JUMP JUMPDEST PUSH1 0x0 PUSH2 0x18F4 PUSH2 0x2E63 JUMP JUMPDEST PUSH1 0x0 DUP9 PUSH1 0x40 MLOAD PUSH1 0x20 ADD PUSH2 0x1907 SWAP2 SWAP1 PUSH2 0x47FE JUMP JUMPDEST PUSH1 0x40 DUP1 MLOAD PUSH1 0x1F NOT DUP2 DUP5 SUB ADD DUP2 MSTORE SWAP2 SWAP1 MSTORE PUSH1 0x13 DUP1 SLOAD SWAP2 SWAP3 POP DUP2 SWAP1 PUSH1 0x0 PUSH2 0x192B DUP4 PUSH2 0x46B3 JUMP JUMPDEST SWAP2 SWAP1 POP SSTORE POP PUSH1 0x40 MLOAD DUP1 PUSH2 0x140 ADD PUSH1 0x40 MSTORE DUP1 DUP10 DUP2 MSTORE PUSH1 0x20 ADD DUP9 DUP2 MSTORE PUSH1 0x20 ADD PUSH1 0x0 DUP2 MSTORE PUSH1 0x20 ADD DUP7 DUP2 MSTORE PUSH1 0x20 ADD PUSH1 0x1 ISZERO ISZERO DUP2 MSTORE PUSH1 0x20 ADD DUP4 DUP2 MSTORE PUSH1 0x20 ADD DUP11 DUP2 MSTORE PUSH1 0x20 ADD DUP8 DUP2 MSTORE PUSH1 0x20 ADD DUP6 DUP2 MSTORE PUSH1 0x20 ADD TIMESTAMP DUP2 MSTORE POP PUSH1 0x9 PUSH1 0x0 DUP4 DUP2 MSTORE PUSH1 0x20 ADD SWAP1 DUP2 MSTORE PUSH1 0x20 ADD PUSH1 0x0 KECCAK256 PUSH1 0x0 DUP3 ADD MLOAD DUP2 PUSH1 0x0 ADD SSTORE PUSH1 0x20 DUP3 ADD MLOAD DUP2 PUSH1 0x1 ADD SSTORE PUSH1 0x40 DUP3 ADD MLOAD DUP2 PUSH1 0x2 ADD SSTORE PUSH1 0x60 DUP3 ADD MLOAD DUP2 PUSH1 0x3 ADD SWAP1 DUP2 PUSH2 0x19C0 SWAP2 SWAP1 PUSH2 0x471A JUMP JUMPDEST POP PUSH1 0x80 DUP3 ADD MLOAD PUSH1 0x4 DUP3 ADD DUP1 SLOAD PUSH1 0xFF NOT AND SWAP2 ISZERO ISZERO SWAP2 SWAP1 SWAP2 OR SWAP1 SSTORE PUSH1 0xA0 DUP3 ADD MLOAD PUSH1 0x5 DUP3 ADD SWAP1 PUSH2 0x19ED SWAP1 DUP3 PUSH2 0x471A JUMP JUMPDEST POP PUSH1 0xC0 DUP3 ADD MLOAD PUSH1 0x6 DUP3 ADD SWAP1 PUSH2 0x1A02 SWAP1 DUP3 PUSH2 0x471A JUMP JUMPDEST POP PUSH1 0xE0 DUP3 ADD MLOAD PUSH1 0x7 DUP3 ADD SSTORE PUSH2 0x100 DUP3 ADD MLOAD DUP1 MLOAD PUSH2 0x1A29 SWAP2 PUSH1 0x8 DUP5 ADD SWAP2 PUSH1 0x20 SWAP1 SWAP2 ADD SWAP1 PUSH2 0x3AFE JUMP JUMPDEST POP PUSH2 0x120 SWAP2 SWAP1 SWAP2 ADD MLOAD PUSH1 0x9 SWAP1 SWAP2 ADD SSTORE PUSH1 0xA DUP1 SLOAD PUSH1 0x1 DUP2 DUP2 ADD SWAP1 SWAP3 SSTORE PUSH32 0xC65A7BB8D6351C1CF70C95A316CC6A92839C986682D98BC35F958F4883F9D2A8 ADD DUP3 SWAP1 SSTORE PUSH1 0x0 DUP3 DUP2 MSTORE PUSH1 0xD PUSH1 0x20 MSTORE PUSH1 0x40 SWAP1 DUP2 SWAP1 KECCAK256 DUP1 SLOAD PUSH1 0xFF NOT AND SWAP1 SWAP3 OR SWAP1 SWAP2 SSTORE MLOAD DUP2 SWAP1 PUSH32 0x655289C4D9D7C45C2B83B18A45E3CE05F40710E413DB2117EE045E2AB12CAB2 SWAP1 PUSH2 0x16D0 SWAP1 DUP6 SWAP1 DUP13 SWAP1 DUP13 SWAP1 PUSH2 0x47D9 JUMP JUMPDEST PUSH1 0xA DUP2 DUP2 SLOAD DUP2 LT PUSH2 0x1AC9 JUMPI PUSH1 0x0 DUP1 REVERT JUMPDEST PUSH1 0x0 SWAP2 DUP3 MSTORE PUSH1 0x20 SWAP1 SWAP2 KECCAK256 ADD SLOAD SWAP1 POP DUP2 JUMP JUMPDEST PUSH1 0x0 DUP2 DUP2 MSTORE PUSH1 0x2 PUSH1 0x20 MSTORE PUSH1 0x40 DUP2 KECCAK256 SLOAD PUSH1 0x1 PUSH1 0x1 PUSH1 0xA0 SHL SUB AND DUP1 PUSH2 0x871 JUMPI PUSH1 0x40 MLOAD PUSH3 0x461BCD PUSH1 0xE5 SHL DUP2 MSTORE PUSH1 0x20 PUSH1 0x4 DUP3 ADD MSTORE PUSH1 0x18 PUSH1 0x24 DUP3 ADD MSTORE PUSH24 0x115490CDCC8C4E881A5B9D985B1A59081D1BDAD95B881251 PUSH1 0x42 SHL PUSH1 0x44 DUP3 ADD MSTORE PUSH1 0x64 ADD PUSH2 0x9C7 JUMP JUMPDEST PUSH1 0x0 PUSH1 0x1 PUSH1 0x1 PUSH1 0xA0 SHL SUB DUP3 AND PUSH2 0x1BA4 JUMPI PUSH1 0x40 MLOAD PUSH3 0x461BCD PUSH1 0xE5 SHL DUP2 MSTORE PUSH1 0x20 PUSH1 0x4 DUP3 ADD MSTORE PUSH1 0x29 PUSH1 0x24 DUP3 ADD MSTORE PUSH32 0x4552433732313A2061646472657373207A65726F206973206E6F742061207661 PUSH1 0x44 DUP3 ADD MSTORE PUSH9 0x3634B21037BBB732B9 PUSH1 0xB9 SHL PUSH1 0x64 DUP3 ADD MSTORE PUSH1 0x84 ADD PUSH2 0x9C7 JUMP JUMPDEST POP PUSH1 0x1 PUSH1 0x1 PUSH1 0xA0 SHL SUB AND PUSH1 0x0 SWAP1 DUP2 MSTORE PUSH1 0x3 PUSH1 0x20 MSTORE PUSH1 0x40 SWAP1 KECCAK256 SLOAD SWAP1 JUMP JUMPDEST PUSH1 0x0 PUSH2 0x1BCA PUSH2 0x2E63 JUMP JUMPDEST PUSH1 0x13 DUP1 SLOAD SWAP1 DUP2 SWAP1 PUSH1 0x0 PUSH2 0x1BDC DUP4 PUSH2 0x46B3 JUMP JUMPDEST SWAP2 SWAP1 POP SSTORE POP PUSH1 0x40 MLOAD DUP1 PUSH2 0x140 ADD PUSH1 0x40 MSTORE DUP1 PUSH1 0x0 DUP2 MSTORE PUSH1 0x20 ADD DUP8 DUP2 MSTORE PUSH1 0x20 ADD PUSH1 0x0 DUP2 MSTORE PUSH1 0x20 ADD DUP6 DUP2 MSTORE PUSH1 0x20 ADD PUSH1 0x1 ISZERO ISZERO DUP2 MSTORE PUSH1 0x20 ADD DUP10 DUP2 MSTORE PUSH1 0x20 ADD DUP9 DUP2 MSTORE PUSH1 0x20 ADD DUP7 DUP2 MSTORE PUSH1 0x20 ADD DUP5 DUP2 MSTORE PUSH1 0x20 ADD TIMESTAMP DUP2 MSTORE POP PUSH1 0x9 PUSH1 0x0 DUP4 DUP2 MSTORE PUSH1 0x20 ADD SWAP1 DUP2 MSTORE PUSH1 0x20 ADD PUSH1 0x0 KECCAK256 PUSH1 0x0 DUP3 ADD MLOAD DUP2 PUSH1 0x0 ADD SSTORE PUSH1 0x20 DUP3 ADD MLOAD DUP2 PUSH1 0x1 ADD SSTORE PUSH1 0x40 DUP3 ADD MLOAD DUP2 PUSH1 0x2 ADD SSTORE PUSH1 0x60 DUP3 ADD MLOAD DUP2 PUSH1 0x3 ADD SWAP1 DUP2 PUSH2 0x1C72 SWAP2 SWAP1 PUSH2 0x471A JUMP JUMPDEST POP PUSH1 0x80 DUP3 ADD MLOAD PUSH1 0x4 DUP3 ADD DUP1 SLOAD PUSH1 0xFF NOT AND SWAP2 ISZERO ISZERO SWAP2 SWAP1 SWAP2 OR SWAP1 SSTORE PUSH1 0xA0 DUP3 ADD MLOAD PUSH1 0x5 DUP3 ADD SWAP1 PUSH2 0x1C9F SWAP1 DUP3 PUSH2 0x471A JUMP JUMPDEST POP PUSH1 0xC0 DUP3 ADD MLOAD PUSH1 0x6 DUP3 ADD SWAP1 PUSH2 0x1CB4 SWAP1 DUP3 PUSH2 0x471A JUMP JUMPDEST POP PUSH1 0xE0 DUP3 ADD MLOAD PUSH1 0x7 DUP3 ADD SSTORE PUSH2 0x100 DUP3 ADD MLOAD DUP1 MLOAD PUSH2 0x1CDB SWAP2 PUSH1 0x8 DUP5 ADD SWAP2 PUSH1 0x20 SWAP1 SWAP2 ADD SWAP1 PUSH2 0x3AFE JUMP JUMPDEST POP PUSH2 0x120 SWAP2 SWAP1 SWAP2 ADD MLOAD PUSH1 0x9 SWAP1 SWAP2 ADD SSTORE PUSH1 0xA DUP1 SLOAD PUSH1 0x1 DUP2 DUP2 ADD SWAP1 SWAP3 SSTORE PUSH32 0xC65A7BB8D6351C1CF70C95A316CC6A92839C986682D98BC35F958F4883F9D2A8 ADD DUP3 SWAP1 SSTORE PUSH1 0x0 DUP3 DUP2 MSTORE PUSH1 0xD PUSH1 0x20 MSTORE PUSH1 0x40 DUP1 DUP3 KECCAK256 DUP1 SLOAD PUSH1 0xFF NOT AND SWAP1 SWAP4 OR SWAP1 SWAP3 SSTORE SWAP1 MLOAD DUP3 SWAP2 PUSH32 0x655289C4D9D7C45C2B83B18A45E3CE05F40710E413DB2117EE045E2AB12CAB2 SWAP2 PUSH2 0x1D69 SWAP2 DUP13 SWAP2 DUP12 SWAP1 PUSH2 0x47D9 JUMP JUMPDEST PUSH1 0x40 MLOAD DUP1 SWAP2 SUB SWAP1 LOG2 SWAP8 SWAP7 POP POP POP POP POP POP POP JUMP JUMPDEST PUSH2 0x1D84 PUSH2 0x2E63 JUMP JUMPDEST PUSH2 0x1D8E PUSH1 0x0 PUSH2 0x3297 JUMP JUMPDEST JUMP JUMPDEST PUSH2 0x1D98 PUSH2 0x2E63 JUMP JUMPDEST PUSH1 0x0 JUMPDEST DUP3 MLOAD DUP2 LT ISZERO PUSH2 0xA68 JUMPI DUP2 PUSH1 0xE PUSH1 0x0 DUP6 DUP5 DUP2 MLOAD DUP2 LT PUSH2 0x1DBB JUMPI PUSH2 0x1DBB PUSH2 0x469D JUMP JUMPDEST PUSH1 0x20 MUL PUSH1 0x20 ADD ADD MLOAD PUSH1 0x1 PUSH1 0x1 PUSH1 0xA0 SHL SUB AND PUSH1 0x1 PUSH1 0x1 PUSH1 0xA0 SHL SUB AND DUP2 MSTORE PUSH1 0x20 ADD SWAP1 DUP2 MSTORE PUSH1 0x20 ADD PUSH1 0x0 KECCAK256 PUSH1 0x0 PUSH2 0x100 EXP DUP2 SLOAD DUP2 PUSH1 0xFF MUL NOT AND SWAP1 DUP4 ISZERO ISZERO MUL OR SWAP1 SSTORE POP DUP3 DUP2 DUP2 MLOAD DUP2 LT PUSH2 0x1E0C JUMPI PUSH2 0x1E0C PUSH2 0x469D JUMP JUMPDEST PUSH1 0x20 MUL PUSH1 0x20 ADD ADD MLOAD PUSH1 0x1 PUSH1 0x1 PUSH1 0xA0 SHL SUB AND PUSH32 0xB411A8B21A8114C276967C0FBDFA921C9D323C499C34022B1D150F60622D9622 DUP4 PUSH1 0x40 MLOAD PUSH2 0x1E50 SWAP2 ISZERO ISZERO DUP2 MSTORE PUSH1 0x20 ADD SWAP1 JUMP JUMPDEST PUSH1 0x40 MLOAD DUP1 SWAP2 SUB SWAP1 LOG2 DUP1 PUSH2 0x1E62 DUP2 PUSH2 0x46B3 JUMP JUMPDEST SWAP2 POP POP PUSH2 0x1D9B JUMP JUMPDEST PUSH1 0x0 DUP1 DUP1 JUMPDEST PUSH1 0xA SLOAD DUP2 LT ISZERO PUSH2 0x1F02 JUMPI PUSH1 0x0 PUSH1 0xA DUP3 DUP2 SLOAD DUP2 LT PUSH2 0x1E8E JUMPI PUSH2 0x1E8E PUSH2 0x469D JUMP JUMPDEST PUSH1 0x0 SWAP2 DUP3 MSTORE PUSH1 0x20 DUP1 DUP4 KECCAK256 SWAP1 SWAP2 ADD SLOAD PUSH1 0x1 PUSH1 0x1 PUSH1 0xA0 SHL SUB DUP9 AND DUP4 MSTORE PUSH1 0xC DUP3 MSTORE PUSH1 0x40 DUP1 DUP5 KECCAK256 DUP3 DUP6 MSTORE SWAP1 SWAP3 MSTORE SWAP2 KECCAK256 SLOAD SWAP1 SWAP2 POP PUSH1 0xFF AND ISZERO PUSH2 0x1EEF JUMPI PUSH1 0x0 DUP4 DUP2 MSTORE PUSH1 0x9 PUSH1 0x20 MSTORE PUSH1 0x40 DUP1 DUP3 KECCAK256 PUSH1 0x7 SWAP1 DUP2 ADD SLOAD DUP5 DUP5 MSTORE SWAP2 SWAP1 SWAP3 KECCAK256 SWAP1 SWAP2 ADD SLOAD GT ISZERO PUSH2 0x1EEF JUMPI DUP1 SWAP3 POP JUMPDEST POP DUP1 PUSH2 0x1EFA DUP2 PUSH2 0x46B3 JUMP JUMPDEST SWAP2 POP POP PUSH2 0x1E6F JUMP JUMPDEST POP SWAP3 SWAP2 POP POP JUMP JUMPDEST PUSH1 0x0 DUP2 DUP2 MSTORE PUSH1 0x9 PUSH1 0x20 MSTORE PUSH1 0x40 DUP2 KECCAK256 PUSH1 0x2 DUP2 ADD SLOAD PUSH1 0x1 SWAP1 SWAP2 ADD SLOAD PUSH2 0x871 SWAP2 SWAP1 PUSH2 0x463D JUMP JUMPDEST PUSH2 0x1F34 PUSH2 0x2E63 JUMP JUMPDEST PUSH1 0x1 PUSH1 0x1 PUSH1 0xA0 SHL SUB DUP3 AND PUSH2 0x1F83 JUMPI PUSH1 0x40 MLOAD PUSH3 0x461BCD PUSH1 0xE5 SHL DUP2 MSTORE PUSH1 0x20 PUSH1 0x4 DUP3 ADD MSTORE PUSH1 0x16 PUSH1 0x24 DUP3 ADD MSTORE PUSH22 0x4164726573736520746F6B656E20696E76616C696465 PUSH1 0x50 SHL PUSH1 0x44 DUP3 ADD MSTORE PUSH1 0x64 ADD PUSH2 0x9C7 JUMP JUMPDEST PUSH1 0x40 MLOAD PUSH4 0xA9059CBB PUSH1 0xE0 SHL DUP2 MSTORE PUSH20 0xE0B7BCB42AEBB5BE565CC81518A48D780F3C001C PUSH1 0x4 DUP3 ADD MSTORE PUSH1 0x24 DUP2 ADD DUP3 SWAP1 MSTORE PUSH1 0x1 PUSH1 0x1 PUSH1 0xA0 SHL SUB DUP4 AND SWAP1 PUSH4 0xA9059CBB SWAP1 PUSH1 0x44 ADD PUSH1 0x20 PUSH1 0x40 MLOAD DUP1 DUP4 SUB DUP2 PUSH1 0x0 DUP8 GAS CALL ISZERO DUP1 ISZERO PUSH2 0x1FE4 JUMPI RETURNDATASIZE PUSH1 0x0 DUP1 RETURNDATACOPY RETURNDATASIZE PUSH1 0x0 REVERT JUMPDEST POP POP POP POP PUSH1 0x40 MLOAD RETURNDATASIZE PUSH1 0x1F NOT PUSH1 0x1F DUP3 ADD AND DUP3 ADD DUP1 PUSH1 0x40 MSTORE POP DUP2 ADD SWAP1 PUSH2 0xA68 SWAP2 SWAP1 PUSH2 0x45DE JUMP JUMPDEST PUSH1 0x60 PUSH1 0x1 DUP1 SLOAD PUSH2 0x8A9 SWAP1 PUSH2 0x458B JUMP JUMPDEST PUSH2 0x201F PUSH2 0x2E63 JUMP JUMPDEST PUSH1 0x0 DUP3 DUP2 MSTORE PUSH1 0x9 PUSH1 0x20 DUP2 SWAP1 MSTORE PUSH1 0x40 SWAP1 SWAP2 KECCAK256 ADD SLOAD PUSH2 0x2070 JUMPI PUSH1 0x40 MLOAD PUSH3 0x461BCD PUSH1 0xE5 SHL DUP2 MSTORE PUSH1 0x20 PUSH1 0x4 DUP3 ADD MSTORE PUSH1 0xF PUSH1 0x24 DUP3 ADD MSTORE PUSH15 0x151A595C881A5B995E1A5CDD185B9D PUSH1 0x8A SHL PUSH1 0x44 DUP3 ADD MSTORE PUSH1 0x64 ADD PUSH2 0x9C7 JUMP JUMPDEST PUSH1 0x0 JUMPDEST DUP2 MLOAD DUP2 LT ISZERO PUSH2 0xA68 JUMPI PUSH1 0x9 PUSH1 0x0 DUP5 DUP2 MSTORE PUSH1 0x20 ADD SWAP1 DUP2 MSTORE PUSH1 0x20 ADD PUSH1 0x0 KECCAK256 PUSH1 0x8 ADD DUP3 DUP3 DUP2 MLOAD DUP2 LT PUSH2 0x20A4 JUMPI PUSH2 0x20A4 PUSH2 0x469D JUMP JUMPDEST PUSH1 0x20 SWAP1 DUP2 MUL SWAP2 SWAP1 SWAP2 ADD DUP2 ADD MLOAD DUP3 SLOAD PUSH1 0x1 DUP2 ADD DUP5 SSTORE PUSH1 0x0 SWAP4 DUP5 MSTORE SWAP2 SWAP1 SWAP3 KECCAK256 ADD SWAP1 PUSH2 0x20CD SWAP1 DUP3 PUSH2 0x471A JUMP JUMPDEST POP DUP1 PUSH2 0x20D8 DUP2 PUSH2 0x46B3 JUMP JUMPDEST SWAP2 POP POP PUSH2 0x2073 JUMP JUMPDEST PUSH2 0x20EB CALLER DUP4 DUP4 PUSH2 0x32E9 JUMP JUMPDEST POP POP JUMP JUMPDEST PUSH1 0x0 PUSH1 0x60 DUP1 PUSH1 0xA DUP1 SLOAD SWAP1 POP PUSH1 0x1 PUSH1 0x1 PUSH1 0x40 SHL SUB DUP2 GT ISZERO PUSH2 0x2111 JUMPI PUSH2 0x2111 PUSH2 0x3CB7 JUMP JUMPDEST PUSH1 0x40 MLOAD SWAP1 DUP1 DUP3 MSTORE DUP1 PUSH1 0x20 MUL PUSH1 0x20 ADD DUP3 ADD PUSH1 0x40 MSTORE DUP1 ISZERO PUSH2 0x213A JUMPI DUP2 PUSH1 0x20 ADD PUSH1 0x20 DUP3 MUL DUP1 CALLDATASIZE DUP4 CALLDATACOPY ADD SWAP1 POP JUMPDEST POP PUSH1 0xA SLOAD SWAP1 SWAP3 POP PUSH1 0x1 PUSH1 0x1 PUSH1 0x40 SHL SUB DUP2 GT ISZERO PUSH2 0x2158 JUMPI PUSH2 0x2158 PUSH2 0x3CB7 JUMP JUMPDEST PUSH1 0x40 MLOAD SWAP1 DUP1 DUP3 MSTORE DUP1 PUSH1 0x20 MUL PUSH1 0x20 ADD DUP3 ADD PUSH1 0x40 MSTORE DUP1 ISZERO PUSH2 0x2181 JUMPI DUP2 PUSH1 0x20 ADD PUSH1 0x20 DUP3 MUL DUP1 CALLDATASIZE DUP4 CALLDATACOPY ADD SWAP1 POP JUMPDEST POP SWAP1 POP PUSH1 0x0 JUMPDEST PUSH1 0xA SLOAD DUP2 LT ISZERO PUSH2 0x222D JUMPI PUSH1 0xA DUP2 DUP2 SLOAD DUP2 LT PUSH2 0x21A4 JUMPI PUSH2 0x21A4 PUSH2 0x469D JUMP JUMPDEST SWAP1 PUSH1 0x0 MSTORE PUSH1 0x20 PUSH1 0x0 KECCAK256 ADD SLOAD DUP4 DUP3 DUP2 MLOAD DUP2 LT PUSH2 0x21C1 JUMPI PUSH2 0x21C1 PUSH2 0x469D JUMP JUMPDEST PUSH1 0x20 MUL PUSH1 0x20 ADD ADD DUP2 DUP2 MSTORE POP POP PUSH1 0x15 PUSH1 0x0 PUSH1 0xA DUP4 DUP2 SLOAD DUP2 LT PUSH2 0x21E4 JUMPI PUSH2 0x21E4 PUSH2 0x469D JUMP JUMPDEST SWAP1 PUSH1 0x0 MSTORE PUSH1 0x20 PUSH1 0x0 KECCAK256 ADD SLOAD DUP2 MSTORE PUSH1 0x20 ADD SWAP1 DUP2 MSTORE PUSH1 0x20 ADD PUSH1 0x0 KECCAK256 SLOAD DUP3 DUP3 DUP2 MLOAD DUP2 LT PUSH2 0x2210 JUMPI PUSH2 0x2210 PUSH2 0x469D JUMP JUMPDEST PUSH1 0x20 SWAP1 DUP2 MUL SWAP2 SWAP1 SWAP2 ADD ADD MSTORE DUP1 PUSH2 0x2225 DUP2 PUSH2 0x46B3 JUMP JUMPDEST SWAP2 POP POP PUSH2 0x2187 JUMP JUMPDEST POP PUSH1 0x14 SLOAD SWAP3 POP SWAP1 SWAP2 SWAP3 JUMP JUMPDEST PUSH2 0x2242 CALLER DUP4 PUSH2 0x30AC JUMP JUMPDEST PUSH2 0x225E JUMPI PUSH1 0x40 MLOAD PUSH3 0x461BCD PUSH1 0xE5 SHL DUP2 MSTORE PUSH1 0x4 ADD PUSH2 0x9C7 SWAP1 PUSH2 0x4650 JUMP JUMPDEST PUSH2 0x226A DUP5 DUP5 DUP5 DUP5 PUSH2 0x33AF JUMP JUMPDEST POP POP POP POP JUMP JUMPDEST PUSH1 0x40 MLOAD PUSH4 0x3D32E6E5 PUSH1 0xE1 SHL DUP2 MSTORE PUSH1 0x1 PUSH1 0x1 PUSH1 0xA0 SHL SUB DUP3 AND PUSH1 0x4 DUP3 ADD MSTORE PUSH1 0x0 SWAP1 DUP2 SWAP1 ADDRESS SWAP1 PUSH4 0x7A65CDCA SWAP1 PUSH1 0x24 ADD PUSH1 0x20 PUSH1 0x40 MLOAD DUP1 DUP4 SUB DUP2 DUP7 GAS STATICCALL ISZERO DUP1 ISZERO PUSH2 0x22B9 JUMPI RETURNDATASIZE PUSH1 0x0 DUP1 RETURNDATACOPY RETURNDATASIZE PUSH1 0x0 REVERT JUMPDEST POP POP POP POP PUSH1 0x40 MLOAD RETURNDATASIZE PUSH1 0x1F NOT PUSH1 0x1F DUP3 ADD AND DUP3 ADD DUP1 PUSH1 0x40 MSTORE POP DUP2 ADD SWAP1 PUSH2 0x22DD SWAP2 SWAP1 PUSH2 0x45C5 JUMP JUMPDEST SWAP1 POP DUP1 PUSH1 0x0 SUB PUSH2 0x22F0 JUMPI POP PUSH1 0x64 SWAP3 SWAP2 POP POP JUMP JUMPDEST PUSH1 0x0 SWAP1 DUP2 MSTORE PUSH1 0x9 PUSH1 0x20 MSTORE PUSH1 0x40 SWAP1 KECCAK256 PUSH1 0x7 ADD SLOAD SWAP3 SWAP2 POP POP JUMP JUMPDEST PUSH2 0x2310 PUSH2 0x2E63 JUMP JUMPDEST PUSH1 0x0 DUP5 DUP2 MSTORE PUSH1 0x9 PUSH1 0x20 DUP2 SWAP1 MSTORE PUSH1 0x40 SWAP1 SWAP2 KECCAK256 ADD SLOAD PUSH2 0x2361 JUMPI PUSH1 0x40 MLOAD PUSH3 0x461BCD PUSH1 0xE5 SHL DUP2 MSTORE PUSH1 0x20 PUSH1 0x4 DUP3 ADD MSTORE PUSH1 0xF PUSH1 0x24 DUP3 ADD MSTORE PUSH15 0x151A595C881A5B995E1A5CDD185B9D PUSH1 0x8A SHL PUSH1 0x44 DUP3 ADD MSTORE PUSH1 0x64 ADD PUSH2 0x9C7 JUMP JUMPDEST PUSH1 0x0 DUP5 DUP2 MSTORE PUSH1 0x9 PUSH1 0x20 MSTORE PUSH1 0x40 SWAP1 KECCAK256 PUSH1 0x2 ADD SLOAD DUP3 LT ISZERO PUSH2 0x23C2 JUMPI PUSH1 0x40 MLOAD PUSH3 0x461BCD PUSH1 0xE5 SHL DUP2 MSTORE PUSH1 0x20 PUSH1 0x4 DUP3 ADD MSTORE PUSH1 0x1A PUSH1 0x24 DUP3 ADD MSTORE PUSH32 0x537570706C7920696E66657269657572206175206D696E746564000000000000 PUSH1 0x44 DUP3 ADD MSTORE PUSH1 0x64 ADD PUSH2 0x9C7 JUMP JUMPDEST PUSH1 0x0 DUP5 DUP2 MSTORE PUSH1 0x9 PUSH1 0x20 SWAP1 DUP2 MSTORE PUSH1 0x40 SWAP2 DUP3 SWAP1 KECCAK256 DUP6 DUP2 SSTORE PUSH1 0x1 DUP2 ADD DUP6 SWAP1 SSTORE PUSH1 0x4 ADD DUP1 SLOAD PUSH1 0xFF NOT AND DUP5 ISZERO ISZERO OR SWAP1 SSTORE DUP2 MLOAD DUP6 DUP2 MSTORE SWAP1 DUP2 ADD DUP5 SWAP1 MSTORE DUP6 SWAP2 PUSH32 0x2702951EC468D8FB7C1501E01AF87B4BD50CDA65A20463FC38EE59B954A777B0 SWAP2 ADD PUSH1 0x40 MLOAD DUP1 SWAP2 SUB SWAP1 LOG2 POP POP POP POP JUMP JUMPDEST PUSH1 0x0 DUP2 DUP2 MSTORE PUSH1 0x2 PUSH1 0x20 MSTORE PUSH1 0x40 SWAP1 KECCAK256 SLOAD PUSH1 0x60 SWAP1 PUSH1 0x1 PUSH1 0x1 PUSH1 0xA0 SHL SUB AND PUSH2 0x2485 JUMPI PUSH1 0x40 MLOAD PUSH3 0x461BCD PUSH1 0xE5 SHL DUP2 MSTORE PUSH1 0x20 PUSH1 0x4 DUP3 ADD MSTORE PUSH1 0x10 PUSH1 0x24 DUP3 ADD MSTORE PUSH16 0x151BDAD95B881A5B995E1A5CDD185B9D PUSH1 0x82 SHL PUSH1 0x44 DUP3 ADD MSTORE PUSH1 0x64 ADD PUSH2 0x9C7 JUMP JUMPDEST PUSH1 0x0 DUP3 DUP2 MSTORE PUSH1 0xB PUSH1 0x20 SWAP1 DUP2 MSTORE PUSH1 0x40 DUP1 DUP4 KECCAK256 SLOAD DUP1 DUP5 MSTORE PUSH1 0x9 SWAP1 SWAP3 MSTORE SWAP1 SWAP2 KECCAK256 PUSH1 0x3 ADD PUSH2 0x24AE DUP5 PUSH2 0x33E2 JUMP JUMPDEST PUSH1 0x40 MLOAD PUSH1 0x20 ADD PUSH2 0x24BF SWAP3 SWAP2 SWAP1 PUSH2 0x482A JUMP JUMPDEST PUSH1 0x40 MLOAD PUSH1 0x20 DUP2 DUP4 SUB SUB DUP2 MSTORE SWAP1 PUSH1 0x40 MSTORE SWAP2 POP POP SWAP2 SWAP1 POP JUMP JUMPDEST PUSH2 0x252E PUSH1 0x40 MLOAD DUP1 PUSH2 0x140 ADD PUSH1 0x40 MSTORE DUP1 PUSH1 0x0 DUP2 MSTORE PUSH1 0x20 ADD PUSH1 0x0 DUP2 MSTORE PUSH1 0x20 ADD PUSH1 0x0 DUP2 MSTORE PUSH1 0x20 ADD PUSH1 0x60 DUP2 MSTORE PUSH1 0x20 ADD PUSH1 0x0 ISZERO ISZERO DUP2 MSTORE PUSH1 0x20 ADD PUSH1 0x60 DUP2 MSTORE PUSH1 0x20 ADD PUSH1 0x60 DUP2 MSTORE PUSH1 0x20 ADD PUSH1 0x0 DUP2 MSTORE PUSH1 0x20 ADD PUSH1 0x60 DUP2 MSTORE PUSH1 0x20 ADD PUSH1 0x0 DUP2 MSTORE POP SWAP1 JUMP JUMPDEST PUSH1 0x9 PUSH1 0x0 DUP4 DUP2 MSTORE PUSH1 0x20 ADD SWAP1 DUP2 MSTORE PUSH1 0x20 ADD PUSH1 0x0 KECCAK256 PUSH1 0x40 MLOAD DUP1 PUSH2 0x140 ADD PUSH1 0x40 MSTORE SWAP1 DUP2 PUSH1 0x0 DUP3 ADD SLOAD DUP2 MSTORE PUSH1 0x20 ADD PUSH1 0x1 DUP3 ADD SLOAD DUP2 MSTORE PUSH1 0x20 ADD PUSH1 0x2 DUP3 ADD SLOAD DUP2 MSTORE PUSH1 0x20 ADD PUSH1 0x3 DUP3 ADD DUP1 SLOAD PUSH2 0x257B SWAP1 PUSH2 0x458B JUMP JUMPDEST DUP1 PUSH1 0x1F ADD PUSH1 0x20 DUP1 SWAP2 DIV MUL PUSH1 0x20 ADD PUSH1 0x40 MLOAD SWAP1 DUP2 ADD PUSH1 0x40 MSTORE DUP1 SWAP3 SWAP2 SWAP1 DUP2 DUP2 MSTORE PUSH1 0x20 ADD DUP3 DUP1 SLOAD PUSH2 0x25A7 SWAP1 PUSH2 0x458B JUMP JUMPDEST DUP1 ISZERO PUSH2 0x25F4 JUMPI DUP1 PUSH1 0x1F LT PUSH2 0x25C9 JUMPI PUSH2 0x100 DUP1 DUP4 SLOAD DIV MUL DUP4 MSTORE SWAP2 PUSH1 0x20 ADD SWAP2 PUSH2 0x25F4 JUMP JUMPDEST DUP3 ADD SWAP2 SWAP1 PUSH1 0x0 MSTORE PUSH1 0x20 PUSH1 0x0 KECCAK256 SWAP1 JUMPDEST DUP2 SLOAD DUP2 MSTORE SWAP1 PUSH1 0x1 ADD SWAP1 PUSH1 0x20 ADD DUP1 DUP4 GT PUSH2 0x25D7 JUMPI DUP3 SWAP1 SUB PUSH1 0x1F AND DUP3 ADD SWAP2 JUMPDEST POP POP POP SWAP2 DUP4 MSTORE POP POP PUSH1 0x4 DUP3 ADD SLOAD PUSH1 0xFF AND ISZERO ISZERO PUSH1 0x20 DUP3 ADD MSTORE PUSH1 0x5 DUP3 ADD DUP1 SLOAD PUSH1 0x40 SWAP1 SWAP3 ADD SWAP2 PUSH2 0x2620 SWAP1 PUSH2 0x458B JUMP JUMPDEST DUP1 PUSH1 0x1F ADD PUSH1 0x20 DUP1 SWAP2 DIV MUL PUSH1 0x20 ADD PUSH1 0x40 MLOAD SWAP1 DUP2 ADD PUSH1 0x40 MSTORE DUP1 SWAP3 SWAP2 SWAP1 DUP2 DUP2 MSTORE PUSH1 0x20 ADD DUP3 DUP1 SLOAD PUSH2 0x264C SWAP1 PUSH2 0x458B JUMP JUMPDEST DUP1 ISZERO PUSH2 0x2699 JUMPI DUP1 PUSH1 0x1F LT PUSH2 0x266E JUMPI PUSH2 0x100 DUP1 DUP4 SLOAD DIV MUL DUP4 MSTORE SWAP2 PUSH1 0x20 ADD SWAP2 PUSH2 0x2699 JUMP JUMPDEST DUP3 ADD SWAP2 SWAP1 PUSH1 0x0 MSTORE PUSH1 0x20 PUSH1 0x0 KECCAK256 SWAP1 JUMPDEST DUP2 SLOAD DUP2 MSTORE SWAP1 PUSH1 0x1 ADD SWAP1 PUSH1 0x20 ADD DUP1 DUP4 GT PUSH2 0x267C JUMPI DUP3 SWAP1 SUB PUSH1 0x1F AND DUP3 ADD SWAP2 JUMPDEST POP POP POP POP POP DUP2 MSTORE PUSH1 0x20 ADD PUSH1 0x6 DUP3 ADD DUP1 SLOAD PUSH2 0x26B2 SWAP1 PUSH2 0x458B JUMP JUMPDEST DUP1 PUSH1 0x1F ADD PUSH1 0x20 DUP1 SWAP2 DIV MUL PUSH1 0x20 ADD PUSH1 0x40 MLOAD SWAP1 DUP2 ADD PUSH1 0x40 MSTORE DUP1 SWAP3 SWAP2 SWAP1 DUP2 DUP2 MSTORE PUSH1 0x20 ADD DUP3 DUP1 SLOAD PUSH2 0x26DE SWAP1 PUSH2 0x458B JUMP JUMPDEST DUP1 ISZERO PUSH2 0x272B JUMPI DUP1 PUSH1 0x1F LT PUSH2 0x2700 JUMPI PUSH2 0x100 DUP1 DUP4 SLOAD DIV MUL DUP4 MSTORE SWAP2 PUSH1 0x20 ADD SWAP2 PUSH2 0x272B JUMP JUMPDEST DUP3 ADD SWAP2 SWAP1 PUSH1 0x0 MSTORE PUSH1 0x20 PUSH1 0x0 KECCAK256 SWAP1 JUMPDEST DUP2 SLOAD DUP2 MSTORE SWAP1 PUSH1 0x1 ADD SWAP1 PUSH1 0x20 ADD DUP1 DUP4 GT PUSH2 0x270E JUMPI DUP3 SWAP1 SUB PUSH1 0x1F AND DUP3 ADD SWAP2 JUMPDEST POP POP POP POP POP DUP2 MSTORE PUSH1 0x20 ADD PUSH1 0x7 DUP3 ADD SLOAD DUP2 MSTORE PUSH1 0x20 ADD PUSH1 0x8 DUP3 ADD DUP1 SLOAD DUP1 PUSH1 0x20 MUL PUSH1 0x20 ADD PUSH1 0x40 MLOAD SWAP1 DUP2 ADD PUSH1 0x40 MSTORE DUP1 SWAP3 SWAP2 SWAP1 DUP2 DUP2 MSTORE PUSH1 0x20 ADD PUSH1 0x0 SWAP1 JUMPDEST DUP3 DUP3 LT ISZERO PUSH2 0x280F JUMPI DUP4 DUP3 SWAP1 PUSH1 0x0 MSTORE PUSH1 0x20 PUSH1 0x0 KECCAK256 ADD DUP1 SLOAD PUSH2 0x2782 SWAP1 PUSH2 0x458B JUMP JUMPDEST DUP1 PUSH1 0x1F ADD PUSH1 0x20 DUP1 SWAP2 DIV MUL PUSH1 0x20 ADD PUSH1 0x40 MLOAD SWAP1 DUP2 ADD PUSH1 0x40 MSTORE DUP1 SWAP3 SWAP2 SWAP1 DUP2 DUP2 MSTORE PUSH1 0x20 ADD DUP3 DUP1 SLOAD PUSH2 0x27AE SWAP1 PUSH2 0x458B JUMP JUMPDEST DUP1 ISZERO PUSH2 0x27FB JUMPI DUP1 PUSH1 0x1F LT PUSH2 0x27D0 JUMPI PUSH2 0x100 DUP1 DUP4 SLOAD DIV MUL DUP4 MSTORE SWAP2 PUSH1 0x20 ADD SWAP2 PUSH2 0x27FB JUMP JUMPDEST DUP3 ADD SWAP2 SWAP1 PUSH1 0x0 MSTORE PUSH1 0x20 PUSH1 0x0 KECCAK256 SWAP1 JUMPDEST DUP2 SLOAD DUP2 MSTORE SWAP1 PUSH1 0x1 ADD SWAP1 PUSH1 0x20 ADD DUP1 DUP4 GT PUSH2 0x27DE JUMPI DUP3 SWAP1 SUB PUSH1 0x1F AND DUP3 ADD SWAP2 JUMPDEST POP POP POP POP POP DUP2 MSTORE PUSH1 0x20 ADD SWAP1 PUSH1 0x1 ADD SWAP1 PUSH2 0x2763 JUMP JUMPDEST POP POP POP POP DUP2 MSTORE PUSH1 0x20 ADD PUSH1 0x9 DUP3 ADD SLOAD DUP2 MSTORE POP POP SWAP1 POP SWAP2 SWAP1 POP JUMP JUMPDEST PUSH2 0x2830 PUSH2 0x2E63 JUMP JUMPDEST PUSH1 0x1 PUSH1 0x1 PUSH1 0xA0 SHL SUB DUP2 AND PUSH2 0x2879 JUMPI PUSH1 0x40 MLOAD PUSH3 0x461BCD PUSH1 0xE5 SHL DUP2 MSTORE PUSH1 0x20 PUSH1 0x4 DUP3 ADD MSTORE PUSH1 0x10 PUSH1 0x24 DUP3 ADD MSTORE PUSH16 0x4164726573736520696E76616C696465 PUSH1 0x80 SHL PUSH1 0x44 DUP3 ADD MSTORE PUSH1 0x64 ADD PUSH2 0x9C7 JUMP JUMPDEST PUSH1 0x11 DUP1 SLOAD PUSH1 0x1 PUSH1 0x1 PUSH1 0xA0 SHL SUB DUP4 DUP2 AND PUSH1 0x1 PUSH1 0x1 PUSH1 0xA0 SHL SUB NOT DUP4 AND DUP2 OR SWAP1 SWAP4 SSTORE PUSH1 0x40 DUP1 MLOAD SWAP2 SWAP1 SWAP3 AND DUP1 DUP3 MSTORE PUSH1 0x20 DUP3 ADD SWAP4 SWAP1 SWAP4 MSTORE PUSH32 0x4AB5BE82436D353E61CA18726E984E561F5C1CC7C6D38B29D2553C790434705A SWAP2 ADD PUSH1 0x40 MLOAD DUP1 SWAP2 SUB SWAP1 LOG1 POP POP JUMP JUMPDEST PUSH2 0x28E2 PUSH2 0x2E63 JUMP JUMPDEST PUSH1 0x0 SWAP1 DUP2 MSTORE PUSH1 0x9 PUSH1 0x20 MSTORE PUSH1 0x40 SWAP1 KECCAK256 PUSH1 0x4 ADD DUP1 SLOAD PUSH1 0xFF NOT AND PUSH1 0x1 OR SWAP1 SSTORE JUMP JUMPDEST PUSH1 0x60 PUSH1 0x0 DUP1 JUMPDEST PUSH1 0xA SLOAD DUP2 LT ISZERO PUSH2 0x296E JUMPI PUSH1 0x9 PUSH1 0x0 PUSH1 0xA DUP4 DUP2 SLOAD DUP2 LT PUSH2 0x2927 JUMPI PUSH2 0x2927 PUSH2 0x469D JUMP JUMPDEST PUSH1 0x0 SWAP2 DUP3 MSTORE PUSH1 0x20 DUP1 DUP4 KECCAK256 SWAP1 SWAP2 ADD SLOAD DUP4 MSTORE DUP3 ADD SWAP3 SWAP1 SWAP3 MSTORE PUSH1 0x40 ADD SWAP1 KECCAK256 PUSH1 0x4 ADD SLOAD PUSH1 0xFF AND ISZERO PUSH2 0x295C JUMPI DUP2 PUSH2 0x2958 DUP2 PUSH2 0x46B3 JUMP JUMPDEST SWAP3 POP POP JUMPDEST DUP1 PUSH2 0x2966 DUP2 PUSH2 0x46B3 JUMP JUMPDEST SWAP2 POP POP PUSH2 0x2906 JUMP JUMPDEST POP PUSH1 0x0 DUP2 PUSH1 0x1 PUSH1 0x1 PUSH1 0x40 SHL SUB DUP2 GT ISZERO PUSH2 0x2989 JUMPI PUSH2 0x2989 PUSH2 0x3CB7 JUMP JUMPDEST PUSH1 0x40 MLOAD SWAP1 DUP1 DUP3 MSTORE DUP1 PUSH1 0x20 MUL PUSH1 0x20 ADD DUP3 ADD PUSH1 0x40 MSTORE DUP1 ISZERO PUSH2 0x29B2 JUMPI DUP2 PUSH1 0x20 ADD PUSH1 0x20 DUP3 MUL DUP1 CALLDATASIZE DUP4 CALLDATACOPY ADD SWAP1 POP JUMPDEST POP SWAP1 POP PUSH1 0x0 DUP1 JUMPDEST PUSH1 0xA SLOAD DUP2 LT ISZERO PUSH2 0x148A JUMPI PUSH1 0x9 PUSH1 0x0 PUSH1 0xA DUP4 DUP2 SLOAD DUP2 LT PUSH2 0x29DA JUMPI PUSH2 0x29DA PUSH2 0x469D JUMP JUMPDEST PUSH1 0x0 SWAP2 DUP3 MSTORE PUSH1 0x20 DUP1 DUP4 KECCAK256 SWAP1 SWAP2 ADD SLOAD DUP4 MSTORE DUP3 ADD SWAP3 SWAP1 SWAP3 MSTORE PUSH1 0x40 ADD SWAP1 KECCAK256 PUSH1 0x4 ADD SLOAD PUSH1 0xFF AND ISZERO PUSH2 0x2A4A JUMPI PUSH1 0xA DUP2 DUP2 SLOAD DUP2 LT PUSH2 0x2A14 JUMPI PUSH2 0x2A14 PUSH2 0x469D JUMP JUMPDEST SWAP1 PUSH1 0x0 MSTORE PUSH1 0x20 PUSH1 0x0 KECCAK256 ADD SLOAD DUP4 DUP4 DUP2 MLOAD DUP2 LT PUSH2 0x2A31 JUMPI PUSH2 0x2A31 PUSH2 0x469D JUMP JUMPDEST PUSH1 0x20 SWAP1 DUP2 MUL SWAP2 SWAP1 SWAP2 ADD ADD MSTORE DUP2 PUSH2 0x2A46 DUP2 PUSH2 0x46B3 JUMP JUMPDEST SWAP3 POP POP JUMPDEST DUP1 PUSH2 0x2A54 DUP2 PUSH2 0x46B3 JUMP JUMPDEST SWAP2 POP POP PUSH2 0x29B9 JUMP JUMPDEST PUSH2 0x2A64 PUSH2 0x2E63 JUMP JUMPDEST PUSH1 0x1 PUSH1 0x1 PUSH1 0xA0 SHL SUB DUP2 AND PUSH2 0x2AC9 JUMPI PUSH1 0x40 MLOAD PUSH3 0x461BCD PUSH1 0xE5 SHL DUP2 MSTORE PUSH1 0x20 PUSH1 0x4 DUP3 ADD MSTORE PUSH1 0x26 PUSH1 0x24 DUP3 ADD MSTORE PUSH32 0x4F776E61626C653A206E6577206F776E657220697320746865207A65726F2061 PUSH1 0x44 DUP3 ADD MSTORE PUSH6 0x646472657373 PUSH1 0xD0 SHL PUSH1 0x64 DUP3 ADD MSTORE PUSH1 0x84 ADD PUSH2 0x9C7 JUMP JUMPDEST PUSH2 0xF86 DUP2 PUSH2 0x3297 JUMP JUMPDEST CALLER PUSH1 0x0 SWAP1 DUP2 MSTORE PUSH1 0xE PUSH1 0x20 MSTORE PUSH1 0x40 SWAP1 KECCAK256 SLOAD PUSH1 0x5 SWAP1 PUSH1 0xFF AND PUSH2 0x2B34 JUMPI PUSH1 0x40 MLOAD PUSH3 0x461BCD PUSH1 0xE5 SHL DUP2 MSTORE PUSH1 0x20 PUSH1 0x4 DUP3 ADD MSTORE PUSH1 0x1E PUSH1 0x24 DUP3 ADD MSTORE PUSH32 0x4E6F6E20656C696769626C6520706F7572204E465420666964656C6974650000 PUSH1 0x44 DUP3 ADD MSTORE PUSH1 0x64 ADD PUSH2 0x9C7 JUMP JUMPDEST PUSH1 0x0 DUP2 DUP2 MSTORE PUSH1 0x9 PUSH1 0x20 MSTORE PUSH1 0x40 SWAP1 KECCAK256 PUSH1 0x4 ADD SLOAD PUSH1 0xFF AND PUSH2 0x2B8F JUMPI PUSH1 0x40 MLOAD PUSH3 0x461BCD PUSH1 0xE5 SHL DUP2 MSTORE PUSH1 0x20 PUSH1 0x4 DUP3 ADD MSTORE PUSH1 0x17 PUSH1 0x24 DUP3 ADD MSTORE PUSH23 0x2A34B2B9103334B232B634BA32903737B71030B1BA34B3 PUSH1 0x49 SHL PUSH1 0x44 DUP3 ADD MSTORE PUSH1 0x64 ADD PUSH2 0x9C7 JUMP JUMPDEST PUSH1 0x0 DUP2 DUP2 MSTORE PUSH1 0x9 PUSH1 0x20 MSTORE PUSH1 0x40 SWAP1 KECCAK256 PUSH1 0x1 DUP2 ADD SLOAD PUSH1 0x2 SWAP1 SWAP2 ADD SLOAD LT PUSH2 0x2BEF JUMPI PUSH1 0x40 MLOAD PUSH3 0x461BCD PUSH1 0xE5 SHL DUP2 MSTORE PUSH1 0x20 PUSH1 0x4 DUP3 ADD MSTORE PUSH1 0x17 PUSH1 0x24 DUP3 ADD MSTORE PUSH23 0x537570706C7920666964656C6974652065707569736565 PUSH1 0x48 SHL PUSH1 0x44 DUP3 ADD MSTORE PUSH1 0x64 ADD PUSH2 0x9C7 JUMP JUMPDEST CALLER PUSH1 0x0 SWAP1 DUP2 MSTORE PUSH1 0xC PUSH1 0x20 SWAP1 DUP2 MSTORE PUSH1 0x40 DUP1 DUP4 KECCAK256 DUP5 DUP5 MSTORE SWAP1 SWAP2 MSTORE SWAP1 KECCAK256 SLOAD PUSH1 0xFF AND ISZERO PUSH2 0x2C56 JUMPI PUSH1 0x40 MLOAD PUSH3 0x461BCD PUSH1 0xE5 SHL DUP2 MSTORE PUSH1 0x20 PUSH1 0x4 DUP3 ADD MSTORE PUSH1 0x19 PUSH1 0x24 DUP3 ADD MSTORE PUSH25 0x4E465420466964656C6974652064656A6120706F7373656465 PUSH1 0x38 SHL PUSH1 0x44 DUP3 ADD MSTORE PUSH1 0x64 ADD PUSH2 0x9C7 JUMP JUMPDEST PUSH2 0x2C62 CALLER DUP3 PUSH1 0x1 PUSH2 0x2FE3 JUMP JUMPDEST CALLER PUSH1 0x0 DUP2 DUP2 MSTORE PUSH1 0xE PUSH1 0x20 MSTORE PUSH1 0x40 DUP1 DUP3 KECCAK256 DUP1 SLOAD PUSH1 0xFF NOT AND SWAP1 SSTORE PUSH1 0x12 SLOAD SWAP1 MLOAD SWAP1 SWAP3 SWAP2 PUSH32 0x4A953B86FD09D570573647F99531F4D35F1F3C5C165B58296E072709EEF1D55C SWAP2 LOG3 POP JUMP JUMPDEST PUSH2 0x2CB0 PUSH2 0x2E63 JUMP JUMPDEST PUSH1 0x5 PUSH1 0x0 DUP2 SWAP1 MSTORE PUSH1 0x9 PUSH1 0x20 MSTORE PUSH32 0x74B05292D1D4B2B48B65261B07099D24244BCB069F138D9A6BFDCF776BECAC50 SLOAD PUSH1 0xFF AND PUSH2 0x2D27 JUMPI PUSH1 0x40 MLOAD PUSH3 0x461BCD PUSH1 0xE5 SHL DUP2 MSTORE PUSH1 0x20 PUSH1 0x4 DUP3 ADD MSTORE PUSH1 0x17 PUSH1 0x24 DUP3 ADD MSTORE PUSH23 0x2A34B2B9103334B232B634BA32903737B71030B1BA34B3 PUSH1 0x49 SHL PUSH1 0x44 DUP3 ADD MSTORE PUSH1 0x64 ADD PUSH2 0x9C7 JUMP JUMPDEST PUSH1 0x0 DUP2 DUP2 MSTORE PUSH1 0x9 PUSH1 0x20 MSTORE PUSH1 0x40 SWAP1 KECCAK256 PUSH1 0x1 DUP2 ADD SLOAD PUSH1 0x2 SWAP1 SWAP2 ADD SLOAD LT PUSH2 0x2D87 JUMPI PUSH1 0x40 MLOAD PUSH3 0x461BCD PUSH1 0xE5 SHL DUP2 MSTORE PUSH1 0x20 PUSH1 0x4 DUP3 ADD MSTORE PUSH1 0x17 PUSH1 0x24 DUP3 ADD MSTORE PUSH23 0x537570706C7920666964656C6974652065707569736565 PUSH1 0x48 SHL PUSH1 0x44 DUP3 ADD MSTORE PUSH1 0x64 ADD PUSH2 0x9C7 JUMP JUMPDEST PUSH1 0x1 PUSH1 0x1 PUSH1 0xA0 SHL SUB DUP3 AND PUSH1 0x0 SWAP1 DUP2 MSTORE PUSH1 0xC PUSH1 0x20 SWAP1 DUP2 MSTORE PUSH1 0x40 DUP1 DUP4 KECCAK256 DUP5 DUP5 MSTORE SWAP1 SWAP2 MSTORE SWAP1 KECCAK256 SLOAD PUSH1 0xFF AND ISZERO PUSH2 0x2DF7 JUMPI PUSH1 0x40 MLOAD PUSH3 0x461BCD PUSH1 0xE5 SHL DUP2 MSTORE PUSH1 0x20 PUSH1 0x4 DUP3 ADD MSTORE PUSH1 0x19 PUSH1 0x24 DUP3 ADD MSTORE PUSH25 0x4E465420466964656C6974652064656A6120706F7373656465 PUSH1 0x38 SHL PUSH1 0x44 DUP3 ADD MSTORE PUSH1 0x64 ADD PUSH2 0x9C7 JUMP JUMPDEST PUSH2 0x2E03 DUP3 DUP3 PUSH1 0x1 PUSH2 0x2FE3 JUMP JUMPDEST PUSH1 0x12 SLOAD PUSH1 0x40 MLOAD PUSH1 0x1 PUSH1 0x1 PUSH1 0xA0 SHL SUB DUP5 AND SWAP1 PUSH32 0x4A953B86FD09D570573647F99531F4D35F1F3C5C165B58296E072709EEF1D55C SWAP1 PUSH1 0x0 SWAP1 LOG3 POP POP JUMP JUMPDEST PUSH1 0x0 PUSH1 0x1 PUSH1 0x1 PUSH1 0xE0 SHL SUB NOT DUP3 AND PUSH4 0x24832483 PUSH1 0xE1 SHL EQ DUP1 PUSH2 0x871 JUMPI POP PUSH2 0x871 DUP3 PUSH2 0x3474 JUMP JUMPDEST PUSH1 0x7 SLOAD PUSH1 0x1 PUSH1 0x1 PUSH1 0xA0 SHL SUB AND CALLER EQ PUSH2 0x1D8E JUMPI PUSH1 0x40 MLOAD PUSH3 0x461BCD PUSH1 0xE5 SHL DUP2 MSTORE PUSH1 0x20 PUSH1 0x4 DUP3 ADD DUP2 SWAP1 MSTORE PUSH1 0x24 DUP3 ADD MSTORE PUSH32 0x4F776E61626C653A2063616C6C6572206973206E6F7420746865206F776E6572 PUSH1 0x44 DUP3 ADD MSTORE PUSH1 0x64 ADD PUSH2 0x9C7 JUMP JUMPDEST PUSH1 0x0 DUP2 DUP2 MSTORE PUSH1 0x2 PUSH1 0x20 MSTORE PUSH1 0x40 SWAP1 KECCAK256 SLOAD PUSH1 0x1 PUSH1 0x1 PUSH1 0xA0 SHL SUB AND PUSH2 0xF86 JUMPI PUSH1 0x40 MLOAD PUSH3 0x461BCD PUSH1 0xE5 SHL DUP2 MSTORE PUSH1 0x20 PUSH1 0x4 DUP3 ADD MSTORE PUSH1 0x18 PUSH1 0x24 DUP3 ADD MSTORE PUSH24 0x115490CDCC8C4E881A5B9D985B1A59081D1BDAD95B881251 PUSH1 0x42 SHL PUSH1 0x44 DUP3 ADD MSTORE PUSH1 0x64 ADD PUSH2 0x9C7 JUMP JUMPDEST PUSH1 0x0 DUP2 DUP2 MSTORE PUSH1 0x4 PUSH1 0x20 MSTORE PUSH1 0x40 SWAP1 KECCAK256 DUP1 SLOAD PUSH1 0x1 PUSH1 0x1 PUSH1 0xA0 SHL SUB NOT AND PUSH1 0x1 PUSH1 0x1 PUSH1 0xA0 SHL SUB DUP5 AND SWAP1 DUP2 OR SWAP1 SWAP2 SSTORE DUP2 SWAP1 PUSH2 0x2F51 DUP3 PUSH2 0x1ADA JUMP JUMPDEST PUSH1 0x1 PUSH1 0x1 PUSH1 0xA0 SHL SUB AND PUSH32 0x8C5BE1E5EBEC7D5BD14F71427D1E84F3DD0314C0F7B2291E5B200AC8C7C3B925 PUSH1 0x40 MLOAD PUSH1 0x40 MLOAD DUP1 SWAP2 SUB SWAP1 LOG4 POP POP JUMP JUMPDEST PUSH1 0x2 PUSH1 0x8 SLOAD SUB PUSH2 0x2FDC JUMPI PUSH1 0x40 MLOAD PUSH3 0x461BCD PUSH1 0xE5 SHL DUP2 MSTORE PUSH1 0x20 PUSH1 0x4 DUP3 ADD MSTORE PUSH1 0x1F PUSH1 0x24 DUP3 ADD MSTORE PUSH32 0x5265656E7472616E637947756172643A207265656E7472616E742063616C6C00 PUSH1 0x44 DUP3 ADD MSTORE PUSH1 0x64 ADD PUSH2 0x9C7 JUMP JUMPDEST PUSH1 0x2 PUSH1 0x8 SSTORE JUMP JUMPDEST PUSH1 0x12 DUP1 SLOAD SWAP1 PUSH1 0x0 PUSH2 0x2FF3 DUP4 PUSH2 0x46B3 JUMP JUMPDEST SWAP1 SWAP2 SSTORE POP POP PUSH1 0x12 SLOAD PUSH2 0x3005 DUP5 DUP3 PUSH2 0x34C4 JUMP JUMPDEST PUSH1 0x0 DUP2 DUP2 MSTORE PUSH1 0xB PUSH1 0x20 SWAP1 DUP2 MSTORE PUSH1 0x40 DUP1 DUP4 KECCAK256 DUP7 SWAP1 SSTORE PUSH1 0x1 PUSH1 0x1 PUSH1 0xA0 SHL SUB DUP8 AND DUP4 MSTORE PUSH1 0xC DUP3 MSTORE DUP1 DUP4 KECCAK256 DUP7 DUP5 MSTORE DUP3 MSTORE DUP1 DUP4 KECCAK256 DUP1 SLOAD PUSH1 0xFF NOT AND PUSH1 0x1 OR SWAP1 SSTORE PUSH1 0x9 SWAP1 SWAP2 MSTORE DUP2 KECCAK256 PUSH1 0x2 ADD DUP1 SLOAD SWAP2 PUSH2 0x3055 DUP4 PUSH2 0x46B3 JUMP JUMPDEST SWAP1 SWAP2 SSTORE POP POP PUSH1 0x1 PUSH1 0x1 PUSH1 0xA0 SHL SUB DUP5 AND PUSH1 0x0 DUP2 DUP2 MSTORE PUSH1 0xF PUSH1 0x20 SWAP1 DUP2 MSTORE PUSH1 0x40 DUP3 KECCAK256 DUP1 SLOAD PUSH1 0x1 DUP2 DUP2 ADD DUP4 SSTORE DUP3 DUP6 MSTORE SWAP3 DUP5 KECCAK256 ADD DUP6 SWAP1 SSTORE SWAP3 SWAP1 SWAP2 MSTORE SWAP1 SLOAD PUSH2 0x3097 SWAP2 SWAP1 PUSH2 0x463D JUMP JUMPDEST PUSH1 0x0 SWAP2 DUP3 MSTORE PUSH1 0x10 PUSH1 0x20 MSTORE PUSH1 0x40 SWAP1 SWAP2 KECCAK256 SSTORE POP POP POP JUMP JUMPDEST PUSH1 0x0 DUP1 PUSH2 0x30B8 DUP4 PUSH2 0x1ADA JUMP JUMPDEST SWAP1 POP DUP1 PUSH1 0x1 PUSH1 0x1 PUSH1 0xA0 SHL SUB AND DUP5 PUSH1 0x1 PUSH1 0x1 PUSH1 0xA0 SHL SUB AND EQ DUP1 PUSH2 0x30FF JUMPI POP PUSH1 0x1 PUSH1 0x1 PUSH1 0xA0 SHL SUB DUP1 DUP3 AND PUSH1 0x0 SWAP1 DUP2 MSTORE PUSH1 0x5 PUSH1 0x20 SWAP1 DUP2 MSTORE PUSH1 0x40 DUP1 DUP4 KECCAK256 SWAP4 DUP9 AND DUP4 MSTORE SWAP3 SWAP1 MSTORE KECCAK256 SLOAD PUSH1 0xFF AND JUMPDEST DUP1 PUSH2 0x3123 JUMPI POP DUP4 PUSH1 0x1 PUSH1 0x1 PUSH1 0xA0 SHL SUB AND PUSH2 0x3118 DUP5 PUSH2 0x92C JUMP JUMPDEST PUSH1 0x1 PUSH1 0x1 PUSH1 0xA0 SHL SUB AND EQ JUMPDEST SWAP5 SWAP4 POP POP POP POP JUMP JUMPDEST DUP3 PUSH1 0x1 PUSH1 0x1 PUSH1 0xA0 SHL SUB AND PUSH2 0x313E DUP3 PUSH2 0x1ADA JUMP JUMPDEST PUSH1 0x1 PUSH1 0x1 PUSH1 0xA0 SHL SUB AND EQ PUSH2 0x3164 JUMPI PUSH1 0x40 MLOAD PUSH3 0x461BCD PUSH1 0xE5 SHL DUP2 MSTORE PUSH1 0x4 ADD PUSH2 0x9C7 SWAP1 PUSH2 0x48C1 JUMP JUMPDEST PUSH1 0x1 PUSH1 0x1 PUSH1 0xA0 SHL SUB DUP3 AND PUSH2 0x31C6 JUMPI PUSH1 0x40 MLOAD PUSH3 0x461BCD PUSH1 0xE5 SHL DUP2 MSTORE PUSH1 0x20 PUSH1 0x4 DUP3 ADD MSTORE PUSH1 0x24 DUP1 DUP3 ADD MSTORE PUSH32 0x4552433732313A207472616E7366657220746F20746865207A65726F20616464 PUSH1 0x44 DUP3 ADD MSTORE PUSH4 0x72657373 PUSH1 0xE0 SHL PUSH1 0x64 DUP3 ADD MSTORE PUSH1 0x84 ADD PUSH2 0x9C7 JUMP JUMPDEST DUP3 PUSH1 0x1 PUSH1 0x1 PUSH1 0xA0 SHL SUB AND PUSH2 0x31D9 DUP3 PUSH2 0x1ADA JUMP JUMPDEST PUSH1 0x1 PUSH1 0x1 PUSH1 0xA0 SHL SUB AND EQ PUSH2 0x31FF JUMPI PUSH1 0x40 MLOAD PUSH3 0x461BCD PUSH1 0xE5 SHL DUP2 MSTORE PUSH1 0x4 ADD PUSH2 0x9C7 SWAP1 PUSH2 0x48C1 JUMP JUMPDEST PUSH1 0x0 DUP2 DUP2 MSTORE PUSH1 0x4 PUSH1 0x20 SWAP1 DUP2 MSTORE PUSH1 0x40 DUP1 DUP4 KECCAK256 DUP1 SLOAD PUSH1 0x1 PUSH1 0x1 PUSH1 0xA0 SHL SUB NOT SWAP1 DUP2 AND SWAP1 SWAP2 SSTORE PUSH1 0x1 PUSH1 0x1 PUSH1 0xA0 SHL SUB DUP8 DUP2 AND DUP1 DUP7 MSTORE PUSH1 0x3 DUP6 MSTORE DUP4 DUP7 KECCAK256 DUP1 SLOAD PUSH1 0x0 NOT ADD SWAP1 SSTORE SWAP1 DUP8 AND DUP1 DUP7 MSTORE DUP4 DUP7 KECCAK256 DUP1 SLOAD PUSH1 0x1 ADD SWAP1 SSTORE DUP7 DUP7 MSTORE PUSH1 0x2 SWAP1 SWAP5 MSTORE DUP3 DUP6 KECCAK256 DUP1 SLOAD SWAP1 SWAP3 AND DUP5 OR SWAP1 SWAP2 SSTORE SWAP1 MLOAD DUP5 SWAP4 PUSH32 0xDDF252AD1BE2C89B69C2B068FC378DAA952BA7F163C4A11628F55A4DF523B3EF SWAP2 LOG4 PUSH2 0xA68 DUP4 DUP4 DUP4 PUSH1 0x1 PUSH2 0x34DE JUMP JUMPDEST PUSH1 0x7 DUP1 SLOAD PUSH1 0x1 PUSH1 0x1 PUSH1 0xA0 SHL SUB DUP4 DUP2 AND PUSH1 0x1 PUSH1 0x1 PUSH1 0xA0 SHL SUB NOT DUP4 AND DUP2 OR SWAP1 SWAP4 SSTORE PUSH1 0x40 MLOAD SWAP2 AND SWAP2 SWAP1 DUP3 SWAP1 PUSH32 0x8BE0079C531659141344CD1FD0A4F28419497F9722A3DAAFE3B4186F6B6457E0 SWAP1 PUSH1 0x0 SWAP1 LOG3 POP POP JUMP JUMPDEST DUP2 PUSH1 0x1 PUSH1 0x1 PUSH1 0xA0 SHL SUB AND DUP4 PUSH1 0x1 PUSH1 0x1 PUSH1 0xA0 SHL SUB AND SUB PUSH2 0x334A JUMPI PUSH1 0x40 MLOAD PUSH3 0x461BCD PUSH1 0xE5 SHL DUP2 MSTORE PUSH1 0x20 PUSH1 0x4 DUP3 ADD MSTORE PUSH1 0x19 PUSH1 0x24 DUP3 ADD MSTORE PUSH32 0x4552433732313A20617070726F766520746F2063616C6C657200000000000000 PUSH1 0x44 DUP3 ADD MSTORE PUSH1 0x64 ADD PUSH2 0x9C7 JUMP JUMPDEST PUSH1 0x1 PUSH1 0x1 PUSH1 0xA0 SHL SUB DUP4 DUP2 AND PUSH1 0x0 DUP2 DUP2 MSTORE PUSH1 0x5 PUSH1 0x20 SWAP1 DUP2 MSTORE PUSH1 0x40 DUP1 DUP4 KECCAK256 SWAP5 DUP8 AND DUP1 DUP5 MSTORE SWAP5 DUP3 MSTORE SWAP2 DUP3 SWAP1 KECCAK256 DUP1 SLOAD PUSH1 0xFF NOT AND DUP7 ISZERO ISZERO SWAP1 DUP2 OR SWAP1 SWAP2 SSTORE SWAP2 MLOAD SWAP2 DUP3 MSTORE PUSH32 0x17307EAB39AB6107E8899845AD3D59BD9653F200F220920489CA2B5937696C31 SWAP2 ADD PUSH2 0x10D8 JUMP JUMPDEST PUSH2 0x33BA DUP5 DUP5 DUP5 PUSH2 0x312B JUMP JUMPDEST PUSH2 0x33C6 DUP5 DUP5 DUP5 DUP5 PUSH2 0x36F5 JUMP JUMPDEST PUSH2 0x226A JUMPI PUSH1 0x40 MLOAD PUSH3 0x461BCD PUSH1 0xE5 SHL DUP2 MSTORE PUSH1 0x4 ADD PUSH2 0x9C7 SWAP1 PUSH2 0x4906 JUMP JUMPDEST PUSH1 0x60 PUSH1 0x0 PUSH2 0x33EF DUP4 PUSH2 0x37F6 JUMP JUMPDEST PUSH1 0x1 ADD SWAP1 POP PUSH1 0x0 DUP2 PUSH1 0x1 PUSH1 0x1 PUSH1 0x40 SHL SUB DUP2 GT ISZERO PUSH2 0x340E JUMPI PUSH2 0x340E PUSH2 0x3CB7 JUMP JUMPDEST PUSH1 0x40 MLOAD SWAP1 DUP1 DUP3 MSTORE DUP1 PUSH1 0x1F ADD PUSH1 0x1F NOT AND PUSH1 0x20 ADD DUP3 ADD PUSH1 0x40 MSTORE DUP1 ISZERO PUSH2 0x3438 JUMPI PUSH1 0x20 DUP3 ADD DUP2 DUP1 CALLDATASIZE DUP4 CALLDATACOPY ADD SWAP1 POP JUMPDEST POP SWAP1 POP DUP2 DUP2 ADD PUSH1 0x20 ADD JUMPDEST PUSH1 0x0 NOT ADD PUSH16 0x181899199A1A9B1B9C1CB0B131B232B3 PUSH1 0x81 SHL PUSH1 0xA DUP7 MOD BYTE DUP2 MSTORE8 PUSH1 0xA DUP6 DIV SWAP5 POP DUP5 PUSH2 0x3442 JUMPI POP SWAP4 SWAP3 POP POP POP JUMP JUMPDEST PUSH1 0x0 PUSH1 0x1 PUSH1 0x1 PUSH1 0xE0 SHL SUB NOT DUP3 AND PUSH4 0x80AC58CD PUSH1 0xE0 SHL EQ DUP1 PUSH2 0x34A5 JUMPI POP PUSH1 0x1 PUSH1 0x1 PUSH1 0xE0 SHL SUB NOT DUP3 AND PUSH4 0x5B5E139F PUSH1 0xE0 SHL EQ JUMPDEST DUP1 PUSH2 0x871 JUMPI POP PUSH4 0x1FFC9A7 PUSH1 0xE0 SHL PUSH1 0x1 PUSH1 0x1 PUSH1 0xE0 SHL SUB NOT DUP4 AND EQ PUSH2 0x871 JUMP JUMPDEST PUSH2 0x20EB DUP3 DUP3 PUSH1 0x40 MLOAD DUP1 PUSH1 0x20 ADD PUSH1 0x40 MSTORE DUP1 PUSH1 0x0 DUP2 MSTORE POP PUSH2 0x38CE JUMP JUMPDEST PUSH1 0x1 PUSH1 0x1 PUSH1 0xA0 SHL SUB DUP5 AND ISZERO DUP1 ISZERO SWAP1 PUSH2 0x34FE JUMPI POP PUSH1 0x1 PUSH1 0x1 PUSH1 0xA0 SHL SUB DUP4 AND ISZERO ISZERO JUMPDEST ISZERO PUSH2 0x226A JUMPI PUSH1 0x0 DUP3 DUP2 MSTORE PUSH1 0xB PUSH1 0x20 SWAP1 DUP2 MSTORE PUSH1 0x40 DUP1 DUP4 KECCAK256 SLOAD PUSH1 0x1 PUSH1 0x1 PUSH1 0xA0 SHL SUB DUP9 AND DUP5 MSTORE PUSH1 0xF SWAP1 SWAP3 MSTORE DUP3 KECCAK256 SLOAD SWAP1 SWAP2 SWAP1 PUSH2 0x3538 SWAP1 PUSH1 0x1 SWAP1 PUSH2 0x463D JUMP JUMPDEST PUSH1 0x0 DUP6 DUP2 MSTORE PUSH1 0x10 PUSH1 0x20 MSTORE PUSH1 0x40 SWAP1 KECCAK256 SLOAD SWAP1 SWAP2 POP DUP1 DUP3 EQ PUSH2 0x35DF JUMPI PUSH1 0x1 PUSH1 0x1 PUSH1 0xA0 SHL SUB DUP8 AND PUSH1 0x0 SWAP1 DUP2 MSTORE PUSH1 0xF PUSH1 0x20 MSTORE PUSH1 0x40 DUP2 KECCAK256 DUP1 SLOAD DUP5 SWAP1 DUP2 LT PUSH2 0x357B JUMPI PUSH2 0x357B PUSH2 0x469D JUMP JUMPDEST SWAP1 PUSH1 0x0 MSTORE PUSH1 0x20 PUSH1 0x0 KECCAK256 ADD SLOAD SWAP1 POP DUP1 PUSH1 0xF PUSH1 0x0 DUP11 PUSH1 0x1 PUSH1 0x1 PUSH1 0xA0 SHL SUB AND PUSH1 0x1 PUSH1 0x1 PUSH1 0xA0 SHL SUB AND DUP2 MSTORE PUSH1 0x20 ADD SWAP1 DUP2 MSTORE PUSH1 0x20 ADD PUSH1 0x0 KECCAK256 DUP4 DUP2 SLOAD DUP2 LT PUSH2 0x35BF JUMPI PUSH2 0x35BF PUSH2 0x469D JUMP JUMPDEST PUSH1 0x0 SWAP2 DUP3 MSTORE PUSH1 0x20 DUP1 DUP4 KECCAK256 SWAP1 SWAP2 ADD SWAP3 SWAP1 SWAP3 SSTORE SWAP2 DUP3 MSTORE PUSH1 0x10 SWAP1 MSTORE PUSH1 0x40 SWAP1 KECCAK256 DUP2 SWAP1 SSTORE JUMPDEST PUSH1 0x1 PUSH1 0x1 PUSH1 0xA0 SHL SUB DUP8 AND PUSH1 0x0 SWAP1 DUP2 MSTORE PUSH1 0xF PUSH1 0x20 MSTORE PUSH1 0x40 SWAP1 KECCAK256 DUP1 SLOAD DUP1 PUSH2 0x3606 JUMPI PUSH2 0x3606 PUSH2 0x4958 JUMP JUMPDEST PUSH1 0x0 DUP3 DUP2 MSTORE PUSH1 0x20 DUP1 DUP3 KECCAK256 DUP4 ADD PUSH1 0x0 NOT SWAP1 DUP2 ADD DUP4 SWAP1 SSTORE SWAP1 SWAP3 ADD SWAP1 SWAP3 SSTORE DUP7 DUP3 MSTORE PUSH1 0x10 DUP2 MSTORE PUSH1 0x40 DUP1 DUP4 KECCAK256 DUP4 SWAP1 SSTORE PUSH1 0x1 PUSH1 0x1 PUSH1 0xA0 SHL SUB DUP10 AND DUP1 DUP5 MSTORE PUSH1 0xF DUP4 MSTORE SWAP1 DUP4 KECCAK256 DUP1 SLOAD PUSH1 0x1 DUP2 DUP2 ADD DUP4 SSTORE DUP3 DUP7 MSTORE SWAP4 DUP6 KECCAK256 ADD DUP10 SWAP1 SSTORE SWAP3 MSTORE SWAP1 SLOAD PUSH2 0x3665 SWAP2 SWAP1 PUSH2 0x463D JUMP JUMPDEST PUSH1 0x0 DUP7 DUP2 MSTORE PUSH1 0x10 PUSH1 0x20 MSTORE PUSH1 0x40 SWAP1 KECCAK256 SSTORE PUSH2 0x367D DUP8 PUSH2 0x1B3A JUMP JUMPDEST ISZERO DUP1 PUSH2 0x3690 JUMPI POP PUSH2 0x368E DUP8 DUP5 PUSH2 0x3901 JUMP JUMPDEST ISZERO JUMPDEST ISZERO PUSH2 0x36C1 JUMPI PUSH1 0x1 PUSH1 0x1 PUSH1 0xA0 SHL SUB DUP8 AND PUSH1 0x0 SWAP1 DUP2 MSTORE PUSH1 0xC PUSH1 0x20 SWAP1 DUP2 MSTORE PUSH1 0x40 DUP1 DUP4 KECCAK256 DUP7 DUP5 MSTORE SWAP1 SWAP2 MSTORE SWAP1 KECCAK256 DUP1 SLOAD PUSH1 0xFF NOT AND SWAP1 SSTORE JUMPDEST POP POP PUSH1 0x1 PUSH1 0x1 PUSH1 0xA0 SHL SUB DUP5 AND PUSH1 0x0 SWAP1 DUP2 MSTORE PUSH1 0xC PUSH1 0x20 SWAP1 DUP2 MSTORE PUSH1 0x40 DUP1 DUP4 KECCAK256 SWAP4 DUP4 MSTORE SWAP3 SWAP1 MSTORE KECCAK256 DUP1 SLOAD PUSH1 0xFF NOT AND PUSH1 0x1 OR SWAP1 SSTORE PUSH2 0x226A JUMP JUMPDEST PUSH1 0x0 PUSH1 0x1 PUSH1 0x1 PUSH1 0xA0 SHL SUB DUP5 AND EXTCODESIZE ISZERO PUSH2 0x37EB JUMPI PUSH1 0x40 MLOAD PUSH4 0xA85BD01 PUSH1 0xE1 SHL DUP2 MSTORE PUSH1 0x1 PUSH1 0x1 PUSH1 0xA0 SHL SUB DUP6 AND SWAP1 PUSH4 0x150B7A02 SWAP1 PUSH2 0x3739 SWAP1 CALLER SWAP1 DUP10 SWAP1 DUP9 SWAP1 DUP9 SWAP1 PUSH1 0x4 ADD PUSH2 0x496E JUMP JUMPDEST PUSH1 0x20 PUSH1 0x40 MLOAD DUP1 DUP4 SUB DUP2 PUSH1 0x0 DUP8 GAS CALL SWAP3 POP POP POP DUP1 ISZERO PUSH2 0x3774 JUMPI POP PUSH1 0x40 DUP1 MLOAD PUSH1 0x1F RETURNDATASIZE SWAP1 DUP2 ADD PUSH1 0x1F NOT AND DUP3 ADD SWAP1 SWAP3 MSTORE PUSH2 0x3771 SWAP2 DUP2 ADD SWAP1 PUSH2 0x49A1 JUMP JUMPDEST PUSH1 0x1 JUMPDEST PUSH2 0x37D1 JUMPI RETURNDATASIZE DUP1 DUP1 ISZERO PUSH2 0x37A2 JUMPI PUSH1 0x40 MLOAD SWAP2 POP PUSH1 0x1F NOT PUSH1 0x3F RETURNDATASIZE ADD AND DUP3 ADD PUSH1 0x40 MSTORE RETURNDATASIZE DUP3 MSTORE RETURNDATASIZE PUSH1 0x0 PUSH1 0x20 DUP5 ADD RETURNDATACOPY PUSH2 0x37A7 JUMP JUMPDEST PUSH1 0x60 SWAP2 POP JUMPDEST POP DUP1 MLOAD PUSH1 0x0 SUB PUSH2 0x37C9 JUMPI PUSH1 0x40 MLOAD PUSH3 0x461BCD PUSH1 0xE5 SHL DUP2 MSTORE PUSH1 0x4 ADD PUSH2 0x9C7 SWAP1 PUSH2 0x4906 JUMP JUMPDEST DUP1 MLOAD DUP2 PUSH1 0x20 ADD REVERT JUMPDEST PUSH1 0x1 PUSH1 0x1 PUSH1 0xE0 SHL SUB NOT AND PUSH4 0xA85BD01 PUSH1 0xE1 SHL EQ SWAP1 POP PUSH2 0x3123 JUMP JUMPDEST POP PUSH1 0x1 SWAP5 SWAP4 POP POP POP POP JUMP JUMPDEST PUSH1 0x0 DUP1 PUSH19 0x184F03E93FF9F4DAA797ED6E38ED64BF6A1F01 PUSH1 0x40 SHL DUP4 LT PUSH2 0x3835 JUMPI PUSH19 0x184F03E93FF9F4DAA797ED6E38ED64BF6A1F01 PUSH1 0x40 SHL DUP4 DIV SWAP3 POP PUSH1 0x40 ADD JUMPDEST PUSH14 0x4EE2D6D415B85ACEF8100000000 DUP4 LT PUSH2 0x3861 JUMPI PUSH14 0x4EE2D6D415B85ACEF8100000000 DUP4 DIV SWAP3 POP PUSH1 0x20 ADD JUMPDEST PUSH7 0x2386F26FC10000 DUP4 LT PUSH2 0x387F JUMPI PUSH7 0x2386F26FC10000 DUP4 DIV SWAP3 POP PUSH1 0x10 ADD JUMPDEST PUSH4 0x5F5E100 DUP4 LT PUSH2 0x3897 JUMPI PUSH4 0x5F5E100 DUP4 DIV SWAP3 POP PUSH1 0x8 ADD JUMPDEST PUSH2 0x2710 DUP4 LT PUSH2 0x38AB JUMPI PUSH2 0x2710 DUP4 DIV SWAP3 POP PUSH1 0x4 ADD JUMPDEST PUSH1 0x64 DUP4 LT PUSH2 0x38BD JUMPI PUSH1 0x64 DUP4 DIV SWAP3 POP PUSH1 0x2 ADD JUMPDEST PUSH1 0xA DUP4 LT PUSH2 0x871 JUMPI PUSH1 0x1 ADD SWAP3 SWAP2 POP POP JUMP JUMPDEST PUSH2 0x38D8 DUP4 DUP4 PUSH2 0x3969 JUMP JUMPDEST PUSH2 0x38E5 PUSH1 0x0 DUP5 DUP5 DUP5 PUSH2 0x36F5 JUMP JUMPDEST PUSH2 0xA68 JUMPI PUSH1 0x40 MLOAD PUSH3 0x461BCD PUSH1 0xE5 SHL DUP2 MSTORE PUSH1 0x4 ADD PUSH2 0x9C7 SWAP1 PUSH2 0x4906 JUMP JUMPDEST PUSH1 0x0 DUP1 PUSH2 0x390D DUP5 PUSH2 0x1B3A JUMP JUMPDEST SWAP1 POP PUSH1 0x0 JUMPDEST DUP2 DUP2 LT ISZERO PUSH2 0x395E JUMPI PUSH1 0x0 PUSH2 0x3926 DUP7 DUP4 PUSH2 0x1493 JUMP JUMPDEST PUSH1 0x0 DUP2 DUP2 MSTORE PUSH1 0xB PUSH1 0x20 MSTORE PUSH1 0x40 SWAP1 KECCAK256 SLOAD SWAP1 SWAP2 POP DUP6 SWAP1 SUB PUSH2 0x394B JUMPI PUSH1 0x1 SWAP4 POP POP POP POP PUSH2 0x871 JUMP JUMPDEST POP DUP1 PUSH2 0x3956 DUP2 PUSH2 0x46B3 JUMP JUMPDEST SWAP2 POP POP PUSH2 0x3912 JUMP JUMPDEST POP PUSH1 0x0 SWAP5 SWAP4 POP POP POP POP JUMP JUMPDEST PUSH1 0x1 PUSH1 0x1 PUSH1 0xA0 SHL SUB DUP3 AND PUSH2 0x39BF JUMPI PUSH1 0x40 MLOAD PUSH3 0x461BCD PUSH1 0xE5 SHL DUP2 MSTORE PUSH1 0x20 PUSH1 0x4 DUP3 ADD DUP2 SWAP1 MSTORE PUSH1 0x24 DUP3 ADD MSTORE PUSH32 0x4552433732313A206D696E7420746F20746865207A65726F2061646472657373 PUSH1 0x44 DUP3 ADD MSTORE PUSH1 0x64 ADD PUSH2 0x9C7 JUMP JUMPDEST PUSH1 0x0 DUP2 DUP2 MSTORE PUSH1 0x2 PUSH1 0x20 MSTORE PUSH1 0x40 SWAP1 KECCAK256 SLOAD PUSH1 0x1 PUSH1 0x1 PUSH1 0xA0 SHL SUB AND ISZERO PUSH2 0x3A24 JUMPI PUSH1 0x40 MLOAD PUSH3 0x461BCD PUSH1 0xE5 SHL DUP2 MSTORE PUSH1 0x20 PUSH1 0x4 DUP3 ADD MSTORE PUSH1 0x1C PUSH1 0x24 DUP3 ADD MSTORE PUSH32 0x4552433732313A20746F6B656E20616C7265616479206D696E74656400000000 PUSH1 0x44 DUP3 ADD MSTORE PUSH1 0x64 ADD PUSH2 0x9C7 JUMP JUMPDEST PUSH1 0x0 DUP2 DUP2 MSTORE PUSH1 0x2 PUSH1 0x20 MSTORE PUSH1 0x40 SWAP1 KECCAK256 SLOAD PUSH1 0x1 PUSH1 0x1 PUSH1 0xA0 SHL SUB AND ISZERO PUSH2 0x3A89 JUMPI PUSH1 0x40 MLOAD PUSH3 0x461BCD PUSH1 0xE5 SHL DUP2 MSTORE PUSH1 0x20 PUSH1 0x4 DUP3 ADD MSTORE PUSH1 0x1C PUSH1 0x24 DUP3 ADD MSTORE PUSH32 0x4552433732313A20746F6B656E20616C7265616479206D696E74656400000000 PUSH1 0x44 DUP3 ADD MSTORE PUSH1 0x64 ADD PUSH2 0x9C7 JUMP JUMPDEST PUSH1 0x1 PUSH1 0x1 PUSH1 0xA0 SHL SUB DUP3 AND PUSH1 0x0 DUP2 DUP2 MSTORE PUSH1 0x3 PUSH1 0x20 SWAP1 DUP2 MSTORE PUSH1 0x40 DUP1 DUP4 KECCAK256 DUP1 SLOAD PUSH1 0x1 ADD SWAP1 SSTORE DUP5 DUP4 MSTORE PUSH1 0x2 SWAP1 SWAP2 MSTORE DUP1 DUP3 KECCAK256 DUP1 SLOAD PUSH1 0x1 PUSH1 0x1 PUSH1 0xA0 SHL SUB NOT AND DUP5 OR SWAP1 SSTORE MLOAD DUP4 SWAP3 SWAP2 SWAP1 PUSH32 0xDDF252AD1BE2C89B69C2B068FC378DAA952BA7F163C4A11628F55A4DF523B3EF SWAP1 DUP3 SWAP1 LOG4 PUSH2 0x20EB PUSH1 0x0 DUP4 DUP4 PUSH1 0x1 PUSH2 0x34DE JUMP JUMPDEST DUP3 DUP1 SLOAD DUP3 DUP3 SSTORE SWAP1 PUSH1 0x0 MSTORE PUSH1 0x20 PUSH1 0x0 KECCAK256 SWAP1 DUP2 ADD SWAP3 DUP3 ISZERO PUSH2 0x3B44 JUMPI SWAP2 PUSH1 0x20 MUL DUP3 ADD JUMPDEST DUP3 DUP2 GT ISZERO PUSH2 0x3B44 JUMPI DUP3 MLOAD DUP3 SWAP1 PUSH2 0x3B34 SWAP1 DUP3 PUSH2 0x471A JUMP JUMPDEST POP SWAP2 PUSH1 0x20 ADD SWAP2 SWAP1 PUSH1 0x1 ADD SWAP1 PUSH2 0x3B1E JUMP JUMPDEST POP PUSH2 0x3B50 SWAP3 SWAP2 POP PUSH2 0x3B54 JUMP JUMPDEST POP SWAP1 JUMP JUMPDEST DUP1 DUP3 GT ISZERO PUSH2 0x3B50 JUMPI PUSH1 0x0 PUSH2 0x3B68 DUP3 DUP3 PUSH2 0x3B71 JUMP JUMPDEST POP PUSH1 0x1 ADD PUSH2 0x3B54 JUMP JUMPDEST POP DUP1 SLOAD PUSH2 0x3B7D SWAP1 PUSH2 0x458B JUMP JUMPDEST PUSH1 0x0 DUP3 SSTORE DUP1 PUSH1 0x1F LT PUSH2 0x3B8D JUMPI POP POP JUMP JUMPDEST PUSH1 0x1F ADD PUSH1 0x20 SWAP1 DIV SWAP1 PUSH1 0x0 MSTORE PUSH1 0x20 PUSH1 0x0 KECCAK256 SWAP1 DUP2 ADD SWAP1 PUSH2 0xF86 SWAP2 SWAP1 JUMPDEST DUP1 DUP3 GT ISZERO PUSH2 0x3B50 JUMPI PUSH1 0x0 DUP2 SSTORE PUSH1 0x1 ADD PUSH2 0x3BA7 JUMP JUMPDEST PUSH1 0x1 PUSH1 0x1 PUSH1 0xE0 SHL SUB NOT DUP2 AND DUP2 EQ PUSH2 0xF86 JUMPI PUSH1 0x0 DUP1 REVERT JUMPDEST PUSH1 0x0 PUSH1 0x20 DUP3 DUP5 SUB SLT ISZERO PUSH2 0x3BE3 JUMPI PUSH1 0x0 DUP1 REVERT JUMPDEST DUP2 CALLDATALOAD PUSH2 0x3BEE DUP2 PUSH2 0x3BBB JUMP JUMPDEST SWAP4 SWAP3 POP POP POP JUMP JUMPDEST PUSH1 0x0 PUSH1 0x20 DUP3 DUP5 SUB SLT ISZERO PUSH2 0x3C07 JUMPI PUSH1 0x0 DUP1 REVERT JUMPDEST POP CALLDATALOAD SWAP2 SWAP1 POP JUMP JUMPDEST PUSH1 0x0 JUMPDEST DUP4 DUP2 LT ISZERO PUSH2 0x3C29 JUMPI DUP2 DUP2 ADD MLOAD DUP4 DUP3 ADD MSTORE PUSH1 0x20 ADD PUSH2 0x3C11 JUMP JUMPDEST POP POP PUSH1 0x0 SWAP2 ADD MSTORE JUMP JUMPDEST PUSH1 0x0 DUP2 MLOAD DUP1 DUP5 MSTORE PUSH2 0x3C4A DUP2 PUSH1 0x20 DUP7 ADD PUSH1 0x20 DUP7 ADD PUSH2 0x3C0E JUMP JUMPDEST PUSH1 0x1F ADD PUSH1 0x1F NOT AND SWAP3 SWAP1 SWAP3 ADD PUSH1 0x20 ADD SWAP3 SWAP2 POP POP JUMP JUMPDEST PUSH1 0x20 DUP2 MSTORE PUSH1 0x0 PUSH2 0x3BEE PUSH1 0x20 DUP4 ADD DUP5 PUSH2 0x3C32 JUMP JUMPDEST DUP1 CALLDATALOAD PUSH1 0x1 PUSH1 0x1 PUSH1 0xA0 SHL SUB DUP2 AND DUP2 EQ PUSH2 0x3C88 JUMPI PUSH1 0x0 DUP1 REVERT JUMPDEST SWAP2 SWAP1 POP JUMP JUMPDEST PUSH1 0x0 DUP1 PUSH1 0x40 DUP4 DUP6 SUB SLT ISZERO PUSH2 0x3CA0 JUMPI PUSH1 0x0 DUP1 REVERT JUMPDEST PUSH2 0x3CA9 DUP4 PUSH2 0x3C71 JUMP JUMPDEST SWAP5 PUSH1 0x20 SWAP4 SWAP1 SWAP4 ADD CALLDATALOAD SWAP4 POP POP POP JUMP JUMPDEST PUSH4 0x4E487B71 PUSH1 0xE0 SHL PUSH1 0x0 MSTORE PUSH1 0x41 PUSH1 0x4 MSTORE PUSH1 0x24 PUSH1 0x0 REVERT JUMPDEST PUSH1 0x40 MLOAD PUSH1 0x1F DUP3 ADD PUSH1 0x1F NOT AND DUP2 ADD PUSH1 0x1 PUSH1 0x1 PUSH1 0x40 SHL SUB DUP2 GT DUP3 DUP3 LT OR ISZERO PUSH2 0x3CF5 JUMPI PUSH2 0x3CF5 PUSH2 0x3CB7 JUMP JUMPDEST PUSH1 0x40 MSTORE SWAP2 SWAP1 POP JUMP JUMPDEST PUSH1 0x0 PUSH1 0x1 PUSH1 0x1 PUSH1 0x40 SHL SUB DUP4 GT ISZERO PUSH2 0x3D16 JUMPI PUSH2 0x3D16 PUSH2 0x3CB7 JUMP JUMPDEST PUSH2 0x3D29 PUSH1 0x1F DUP5 ADD PUSH1 0x1F NOT AND PUSH1 0x20 ADD PUSH2 0x3CCD JUMP JUMPDEST SWAP1 POP DUP3 DUP2 MSTORE DUP4 DUP4 DUP4 ADD GT ISZERO PUSH2 0x3D3D JUMPI PUSH1 0x0 DUP1 REVERT JUMPDEST DUP3 DUP3 PUSH1 0x20 DUP4 ADD CALLDATACOPY PUSH1 0x0 PUSH1 0x20 DUP5 DUP4 ADD ADD MSTORE SWAP4 SWAP3 POP POP POP JUMP JUMPDEST PUSH1 0x0 DUP3 PUSH1 0x1F DUP4 ADD SLT PUSH2 0x3D65 JUMPI PUSH1 0x0 DUP1 REVERT JUMPDEST PUSH2 0x3BEE DUP4 DUP4 CALLDATALOAD PUSH1 0x20 DUP6 ADD PUSH2 0x3CFD JUMP JUMPDEST PUSH1 0x0 DUP1 PUSH1 0x0 PUSH1 0x60 DUP5 DUP7 SUB SLT ISZERO PUSH2 0x3D89 JUMPI PUSH1 0x0 DUP1 REVERT JUMPDEST PUSH2 0x3D92 DUP5 PUSH2 0x3C71 JUMP JUMPDEST SWAP3 POP PUSH1 0x20 DUP5 ADD CALLDATALOAD SWAP2 POP PUSH1 0x40 DUP5 ADD CALLDATALOAD PUSH1 0x1 PUSH1 0x1 PUSH1 0x40 SHL SUB DUP2 GT ISZERO PUSH2 0x3DB4 JUMPI PUSH1 0x0 DUP1 REVERT JUMPDEST PUSH2 0x3DC0 DUP7 DUP3 DUP8 ADD PUSH2 0x3D54 JUMP JUMPDEST SWAP2 POP POP SWAP3 POP SWAP3 POP SWAP3 JUMP JUMPDEST PUSH1 0x0 PUSH1 0x20 DUP3 DUP5 SUB SLT ISZERO PUSH2 0x3DDC JUMPI PUSH1 0x0 DUP1 REVERT JUMPDEST PUSH2 0x3BEE DUP3 PUSH2 0x3C71 JUMP JUMPDEST PUSH1 0x0 DUP1 PUSH1 0x0 PUSH1 0x60 DUP5 DUP7 SUB SLT ISZERO PUSH2 0x3DFA JUMPI PUSH1 0x0 DUP1 REVERT JUMPDEST PUSH2 0x3E03 DUP5 PUSH2 0x3C71 JUMP JUMPDEST SWAP3 POP PUSH2 0x3E11 PUSH1 0x20 DUP6 ADD PUSH2 0x3C71 JUMP JUMPDEST SWAP2 POP PUSH1 0x40 DUP5 ADD CALLDATALOAD SWAP1 POP SWAP3 POP SWAP3 POP SWAP3 JUMP JUMPDEST DUP1 ISZERO ISZERO DUP2 EQ PUSH2 0xF86 JUMPI PUSH1 0x0 DUP1 REVERT JUMPDEST DUP1 CALLDATALOAD PUSH2 0x3C88 DUP2 PUSH2 0x3E21 JUMP JUMPDEST PUSH1 0x0 DUP1 PUSH1 0x40 DUP4 DUP6 SUB SLT ISZERO PUSH2 0x3E4D JUMPI PUSH1 0x0 DUP1 REVERT JUMPDEST PUSH2 0x3E56 DUP4 PUSH2 0x3C71 JUMP JUMPDEST SWAP2 POP PUSH1 0x20 DUP4 ADD CALLDATALOAD PUSH2 0x3E66 DUP2 PUSH2 0x3E21 JUMP JUMPDEST DUP1 SWAP2 POP POP SWAP3 POP SWAP3 SWAP1 POP JUMP JUMPDEST PUSH1 0x0 DUP2 MLOAD DUP1 DUP5 MSTORE PUSH1 0x20 DUP1 DUP6 ADD DUP1 DUP2 SWAP7 POP DUP4 PUSH1 0x5 SHL DUP2 ADD SWAP2 POP DUP3 DUP7 ADD PUSH1 0x0 JUMPDEST DUP6 DUP2 LT ISZERO PUSH2 0x3EB9 JUMPI DUP3 DUP5 SUB DUP10 MSTORE PUSH2 0x3EA7 DUP5 DUP4 MLOAD PUSH2 0x3C32 JUMP JUMPDEST SWAP9 DUP6 ADD SWAP9 SWAP4 POP SWAP1 DUP5 ADD SWAP1 PUSH1 0x1 ADD PUSH2 0x3E8F JUMP JUMPDEST POP SWAP2 SWAP8 SWAP7 POP POP POP POP POP POP POP JUMP JUMPDEST PUSH1 0x20 DUP2 MSTORE PUSH1 0x0 PUSH2 0x3BEE PUSH1 0x20 DUP4 ADD DUP5 PUSH2 0x3E71 JUMP JUMPDEST PUSH1 0x0 DUP2 MLOAD DUP1 DUP5 MSTORE PUSH1 0x20 DUP1 DUP6 ADD SWAP5 POP DUP1 DUP5 ADD PUSH1 0x0 JUMPDEST DUP4 DUP2 LT ISZERO PUSH2 0x3F09 JUMPI DUP2 MLOAD DUP8 MSTORE SWAP6 DUP3 ADD SWAP6 SWAP1 DUP3 ADD SWAP1 PUSH1 0x1 ADD PUSH2 0x3EED JUMP JUMPDEST POP SWAP5 SWAP6 SWAP5 POP POP POP POP POP JUMP JUMPDEST PUSH1 0x20 DUP2 MSTORE PUSH1 0x0 PUSH2 0x3BEE PUSH1 0x20 DUP4 ADD DUP5 PUSH2 0x3ED9 JUMP JUMPDEST PUSH1 0x0 PUSH1 0x1 PUSH1 0x1 PUSH1 0x40 SHL SUB DUP3 GT ISZERO PUSH2 0x3F40 JUMPI PUSH2 0x3F40 PUSH2 0x3CB7 JUMP JUMPDEST POP PUSH1 0x5 SHL PUSH1 0x20 ADD SWAP1 JUMP JUMPDEST PUSH1 0x0 DUP3 PUSH1 0x1F DUP4 ADD SLT PUSH2 0x3F5B JUMPI PUSH1 0x0 DUP1 REVERT JUMPDEST DUP2 CALLDATALOAD PUSH1 0x20 PUSH2 0x3F70 PUSH2 0x3F6B DUP4 PUSH2 0x3F27 JUMP JUMPDEST PUSH2 0x3CCD JUMP JUMPDEST DUP3 DUP2 MSTORE PUSH1 0x5 SWAP3 SWAP1 SWAP3 SHL DUP5 ADD DUP2 ADD SWAP2 DUP2 DUP2 ADD SWAP1 DUP7 DUP5 GT ISZERO PUSH2 0x3F8F JUMPI PUSH1 0x0 DUP1 REVERT JUMPDEST DUP3 DUP7 ADD JUMPDEST DUP5 DUP2 LT ISZERO PUSH2 0x3FCE JUMPI DUP1 CALLDATALOAD PUSH1 0x1 PUSH1 0x1 PUSH1 0x40 SHL SUB DUP2 GT ISZERO PUSH2 0x3FB2 JUMPI PUSH1 0x0 DUP1 DUP2 REVERT JUMPDEST PUSH2 0x3FC0 DUP10 DUP7 DUP4 DUP12 ADD ADD PUSH2 0x3D54 JUMP JUMPDEST DUP5 MSTORE POP SWAP2 DUP4 ADD SWAP2 DUP4 ADD PUSH2 0x3F93 JUMP JUMPDEST POP SWAP7 SWAP6 POP POP POP POP POP POP JUMP JUMPDEST PUSH1 0x0 DUP1 PUSH1 0x0 DUP1 PUSH1 0x0 DUP1 PUSH1 0x0 DUP1 PUSH2 0x100 DUP10 DUP12 SUB SLT ISZERO PUSH2 0x3FF6 JUMPI PUSH1 0x0 DUP1 REVERT JUMPDEST DUP9 CALLDATALOAD PUSH1 0x1 PUSH1 0x1 PUSH1 0x40 SHL SUB DUP1 DUP3 GT ISZERO PUSH2 0x400D JUMPI PUSH1 0x0 DUP1 REVERT JUMPDEST PUSH2 0x4019 DUP13 DUP4 DUP14 ADD PUSH2 0x3D54 JUMP JUMPDEST SWAP10 POP PUSH1 0x20 DUP12 ADD CALLDATALOAD SWAP2 POP DUP1 DUP3 GT ISZERO PUSH2 0x402F JUMPI PUSH1 0x0 DUP1 REVERT JUMPDEST PUSH2 0x403B DUP13 DUP4 DUP14 ADD PUSH2 0x3D54 JUMP JUMPDEST SWAP9 POP PUSH1 0x40 DUP12 ADD CALLDATALOAD SWAP8 POP PUSH1 0x60 DUP12 ADD CALLDATALOAD SWAP7 POP PUSH1 0x80 DUP12 ADD CALLDATALOAD SWAP6 POP PUSH1 0xA0 DUP12 ADD CALLDATALOAD SWAP2 POP DUP1 DUP3 GT ISZERO PUSH2 0x4066 JUMPI PUSH1 0x0 DUP1 REVERT JUMPDEST PUSH2 0x4072 DUP13 DUP4 DUP14 ADD PUSH2 0x3D54 JUMP JUMPDEST SWAP5 POP PUSH1 0xC0 DUP12 ADD CALLDATALOAD SWAP2 POP DUP1 DUP3 GT ISZERO PUSH2 0x4088 JUMPI PUSH1 0x0 DUP1 REVERT JUMPDEST POP PUSH2 0x4095 DUP12 DUP3 DUP13 ADD PUSH2 0x3F4A JUMP JUMPDEST SWAP3 POP POP PUSH2 0x40A4 PUSH1 0xE0 DUP11 ADD PUSH2 0x3E2F JUMP JUMPDEST SWAP1 POP SWAP3 SWAP6 SWAP9 POP SWAP3 SWAP6 SWAP9 SWAP1 SWAP4 SWAP7 POP JUMP JUMPDEST PUSH1 0x0 PUSH2 0x120 DUP12 DUP4 MSTORE DUP11 PUSH1 0x20 DUP5 ADD MSTORE DUP10 PUSH1 0x40 DUP5 ADD MSTORE DUP1 PUSH1 0x60 DUP5 ADD MSTORE PUSH2 0x40D9 DUP2 DUP5 ADD DUP11 PUSH2 0x3C32 JUMP JUMPDEST SWAP1 POP DUP8 ISZERO ISZERO PUSH1 0x80 DUP5 ADD MSTORE DUP3 DUP2 SUB PUSH1 0xA0 DUP5 ADD MSTORE PUSH2 0x40F5 DUP2 DUP9 PUSH2 0x3C32 JUMP JUMPDEST SWAP1 POP DUP3 DUP2 SUB PUSH1 0xC0 DUP5 ADD MSTORE PUSH2 0x4109 DUP2 DUP8 PUSH2 0x3C32 JUMP JUMPDEST PUSH1 0xE0 DUP5 ADD SWAP6 SWAP1 SWAP6 MSTORE POP POP PUSH2 0x100 ADD MSTORE SWAP8 SWAP7 POP POP POP POP POP POP POP JUMP JUMPDEST PUSH1 0x0 DUP1 PUSH1 0x0 DUP1 PUSH1 0x0 DUP1 PUSH1 0x0 PUSH1 0xE0 DUP9 DUP11 SUB SLT ISZERO PUSH2 0x413E JUMPI PUSH1 0x0 DUP1 REVERT JUMPDEST DUP8 CALLDATALOAD PUSH1 0x1 PUSH1 0x1 PUSH1 0x40 SHL SUB DUP1 DUP3 GT ISZERO PUSH2 0x4155 JUMPI PUSH1 0x0 DUP1 REVERT JUMPDEST PUSH2 0x4161 DUP12 DUP4 DUP13 ADD PUSH2 0x3D54 JUMP JUMPDEST SWAP9 POP PUSH1 0x20 DUP11 ADD CALLDATALOAD SWAP2 POP DUP1 DUP3 GT ISZERO PUSH2 0x4177 JUMPI PUSH1 0x0 DUP1 REVERT JUMPDEST PUSH2 0x4183 DUP12 DUP4 DUP13 ADD PUSH2 0x3D54 JUMP JUMPDEST SWAP8 POP PUSH1 0x40 DUP11 ADD CALLDATALOAD SWAP7 POP PUSH1 0x60 DUP11 ADD CALLDATALOAD SWAP6 POP PUSH1 0x80 DUP11 ADD CALLDATALOAD SWAP5 POP PUSH1 0xA0 DUP11 ADD CALLDATALOAD SWAP2 POP DUP1 DUP3 GT ISZERO PUSH2 0x41AE JUMPI PUSH1 0x0 DUP1 REVERT JUMPDEST PUSH2 0x41BA DUP12 DUP4 DUP13 ADD PUSH2 0x3D54 JUMP JUMPDEST SWAP4 POP PUSH1 0xC0 DUP11 ADD CALLDATALOAD SWAP2 POP DUP1 DUP3 GT ISZERO PUSH2 0x41D0 JUMPI PUSH1 0x0 DUP1 REVERT JUMPDEST POP PUSH2 0x41DD DUP11 DUP3 DUP12 ADD PUSH2 0x3F4A JUMP JUMPDEST SWAP2 POP POP SWAP3 SWAP6 SWAP9 SWAP2 SWAP5 SWAP8 POP SWAP3 SWAP6 POP JUMP JUMPDEST PUSH1 0x0 DUP1 PUSH1 0x0 DUP1 PUSH1 0x0 DUP1 PUSH1 0xC0 DUP8 DUP10 SUB SLT ISZERO PUSH2 0x4205 JUMPI PUSH1 0x0 DUP1 REVERT JUMPDEST DUP7 CALLDATALOAD PUSH1 0x1 PUSH1 0x1 PUSH1 0x40 SHL SUB DUP1 DUP3 GT ISZERO PUSH2 0x421C JUMPI PUSH1 0x0 DUP1 REVERT JUMPDEST PUSH2 0x4228 DUP11 DUP4 DUP12 ADD PUSH2 0x3D54 JUMP JUMPDEST SWAP8 POP PUSH1 0x20 DUP10 ADD CALLDATALOAD SWAP2 POP DUP1 DUP3 GT ISZERO PUSH2 0x423E JUMPI PUSH1 0x0 DUP1 REVERT JUMPDEST PUSH2 0x424A DUP11 DUP4 DUP12 ADD PUSH2 0x3D54 JUMP JUMPDEST SWAP7 POP PUSH1 0x40 DUP10 ADD CALLDATALOAD SWAP6 POP PUSH1 0x60 DUP10 ADD CALLDATALOAD SWAP5 POP PUSH1 0x80 DUP10 ADD CALLDATALOAD SWAP2 POP DUP1 DUP3 GT ISZERO PUSH2 0x426E JUMPI PUSH1 0x0 DUP1 REVERT JUMPDEST PUSH2 0x427A DUP11 DUP4 DUP12 ADD PUSH2 0x3D54 JUMP JUMPDEST SWAP4 POP PUSH1 0xA0 DUP10 ADD CALLDATALOAD SWAP2 POP DUP1 DUP3 GT ISZERO PUSH2 0x4290 JUMPI PUSH1 0x0 DUP1 REVERT JUMPDEST POP PUSH2 0x429D DUP10 DUP3 DUP11 ADD PUSH2 0x3F4A JUMP JUMPDEST SWAP2 POP POP SWAP3 SWAP6 POP SWAP3 SWAP6 POP SWAP3 SWAP6 JUMP JUMPDEST PUSH1 0x0 DUP1 PUSH1 0x40 DUP4 DUP6 SUB SLT ISZERO PUSH2 0x42BD JUMPI PUSH1 0x0 DUP1 REVERT JUMPDEST DUP3 CALLDATALOAD PUSH1 0x1 PUSH1 0x1 PUSH1 0x40 SHL SUB DUP2 GT ISZERO PUSH2 0x42D3 JUMPI PUSH1 0x0 DUP1 REVERT JUMPDEST DUP4 ADD PUSH1 0x1F DUP2 ADD DUP6 SGT PUSH2 0x42E4 JUMPI PUSH1 0x0 DUP1 REVERT JUMPDEST DUP1 CALLDATALOAD PUSH1 0x20 PUSH2 0x42F4 PUSH2 0x3F6B DUP4 PUSH2 0x3F27 JUMP JUMPDEST DUP3 DUP2 MSTORE PUSH1 0x5 SWAP3 SWAP1 SWAP3 SHL DUP4 ADD DUP2 ADD SWAP2 DUP2 DUP2 ADD SWAP1 DUP9 DUP5 GT ISZERO PUSH2 0x4313 JUMPI PUSH1 0x0 DUP1 REVERT JUMPDEST SWAP4 DUP3 ADD SWAP4 JUMPDEST DUP4 DUP6 LT ISZERO PUSH2 0x4338 JUMPI PUSH2 0x4329 DUP6 PUSH2 0x3C71 JUMP JUMPDEST DUP3 MSTORE SWAP4 DUP3 ADD SWAP4 SWAP1 DUP3 ADD SWAP1 PUSH2 0x4318 JUMP JUMPDEST SWAP6 POP PUSH2 0x4347 SWAP1 POP DUP7 DUP3 ADD PUSH2 0x3E2F JUMP JUMPDEST SWAP4 POP POP POP POP SWAP3 POP SWAP3 SWAP1 POP JUMP JUMPDEST PUSH1 0x0 DUP1 PUSH1 0x40 DUP4 DUP6 SUB SLT ISZERO PUSH2 0x4366 JUMPI PUSH1 0x0 DUP1 REVERT JUMPDEST DUP3 CALLDATALOAD SWAP2 POP PUSH1 0x20 DUP4 ADD CALLDATALOAD PUSH1 0x1 PUSH1 0x1 PUSH1 0x40 SHL SUB DUP2 GT ISZERO PUSH2 0x4383 JUMPI PUSH1 0x0 DUP1 REVERT JUMPDEST PUSH2 0x438F DUP6 DUP3 DUP7 ADD PUSH2 0x3F4A JUMP JUMPDEST SWAP2 POP POP SWAP3 POP SWAP3 SWAP1 POP JUMP JUMPDEST DUP4 DUP2 MSTORE PUSH1 0x60 PUSH1 0x20 DUP3 ADD MSTORE PUSH1 0x0 PUSH2 0x43B2 PUSH1 0x60 DUP4 ADD DUP6 PUSH2 0x3ED9 JUMP JUMPDEST DUP3 DUP2 SUB PUSH1 0x40 DUP5 ADD MSTORE PUSH2 0x43C4 DUP2 DUP6 PUSH2 0x3ED9 JUMP JUMPDEST SWAP7 SWAP6 POP POP POP POP POP POP JUMP JUMPDEST PUSH1 0x0 DUP1 PUSH1 0x0 DUP1 PUSH1 0x80 DUP6 DUP8 SUB SLT ISZERO PUSH2 0x43E4 JUMPI PUSH1 0x0 DUP1 REVERT JUMPDEST PUSH2 0x43ED DUP6 PUSH2 0x3C71 JUMP JUMPDEST SWAP4 POP PUSH2 0x43FB PUSH1 0x20 DUP7 ADD PUSH2 0x3C71 JUMP JUMPDEST SWAP3 POP PUSH1 0x40 DUP6 ADD CALLDATALOAD SWAP2 POP PUSH1 0x60 DUP6 ADD CALLDATALOAD PUSH1 0x1 PUSH1 0x1 PUSH1 0x40 SHL SUB DUP2 GT ISZERO PUSH2 0x441D JUMPI PUSH1 0x0 DUP1 REVERT JUMPDEST DUP6 ADD PUSH1 0x1F DUP2 ADD DUP8 SGT PUSH2 0x442E JUMPI PUSH1 0x0 DUP1 REVERT JUMPDEST PUSH2 0x443D DUP8 DUP3 CALLDATALOAD PUSH1 0x20 DUP5 ADD PUSH2 0x3CFD JUMP JUMPDEST SWAP2 POP POP SWAP3 SWAP6 SWAP2 SWAP5 POP SWAP3 POP JUMP JUMPDEST PUSH1 0x0 DUP1 PUSH1 0x0 DUP1 PUSH1 0x80 DUP6 DUP8 SUB SLT ISZERO PUSH2 0x445F JUMPI PUSH1 0x0 DUP1 REVERT JUMPDEST DUP5 CALLDATALOAD SWAP4 POP PUSH1 0x20 DUP6 ADD CALLDATALOAD SWAP3 POP PUSH1 0x40 DUP6 ADD CALLDATALOAD SWAP2 POP PUSH1 0x60 DUP6 ADD CALLDATALOAD PUSH2 0x447F DUP2 PUSH2 0x3E21 JUMP JUMPDEST SWAP4 SWAP7 SWAP3 SWAP6 POP SWAP1 SWAP4 POP POP JUMP JUMPDEST PUSH1 0x20 DUP2 MSTORE DUP2 MLOAD PUSH1 0x20 DUP3 ADD MSTORE PUSH1 0x20 DUP3 ADD MLOAD PUSH1 0x40 DUP3 ADD MSTORE PUSH1 0x40 DUP3 ADD MLOAD PUSH1 0x60 DUP3 ADD MSTORE PUSH1 0x0 PUSH1 0x60 DUP4 ADD MLOAD PUSH2 0x140 DUP1 PUSH1 0x80 DUP6 ADD MSTORE PUSH2 0x44C7 PUSH2 0x160 DUP6 ADD DUP4 PUSH2 0x3C32 JUMP JUMPDEST SWAP2 POP PUSH1 0x80 DUP6 ADD MLOAD PUSH2 0x44DC PUSH1 0xA0 DUP7 ADD DUP3 ISZERO ISZERO SWAP1 MSTORE JUMP JUMPDEST POP PUSH1 0xA0 DUP6 ADD MLOAD PUSH1 0x1F NOT DUP1 DUP7 DUP6 SUB ADD PUSH1 0xC0 DUP8 ADD MSTORE PUSH2 0x44F9 DUP5 DUP4 PUSH2 0x3C32 JUMP JUMPDEST SWAP4 POP PUSH1 0xC0 DUP8 ADD MLOAD SWAP2 POP DUP1 DUP7 DUP6 SUB ADD PUSH1 0xE0 DUP8 ADD MSTORE PUSH2 0x4516 DUP5 DUP4 PUSH2 0x3C32 JUMP JUMPDEST SWAP4 POP PUSH1 0xE0 DUP8 ADD MLOAD SWAP2 POP PUSH2 0x100 DUP3 DUP2 DUP9 ADD MSTORE DUP1 DUP9 ADD MLOAD SWAP3 POP POP PUSH2 0x120 DUP2 DUP8 DUP7 SUB ADD DUP2 DUP9 ADD MSTORE PUSH2 0x4544 DUP6 DUP5 PUSH2 0x3E71 JUMP JUMPDEST SWAP8 ADD MLOAD SWAP6 SWAP1 SWAP3 ADD SWAP5 SWAP1 SWAP5 MSTORE POP SWAP3 SWAP4 SWAP3 POP POP POP JUMP JUMPDEST PUSH1 0x0 DUP1 PUSH1 0x40 DUP4 DUP6 SUB SLT ISZERO PUSH2 0x456B JUMPI PUSH1 0x0 DUP1 REVERT JUMPDEST PUSH2 0x4574 DUP4 PUSH2 0x3C71 JUMP JUMPDEST SWAP2 POP PUSH2 0x4582 PUSH1 0x20 DUP5 ADD PUSH2 0x3C71 JUMP JUMPDEST SWAP1 POP SWAP3 POP SWAP3 SWAP1 POP JUMP JUMPDEST PUSH1 0x1 DUP2 DUP2 SHR SWAP1 DUP3 AND DUP1 PUSH2 0x459F JUMPI PUSH1 0x7F DUP3 AND SWAP2 POP JUMPDEST PUSH1 0x20 DUP3 LT DUP2 SUB PUSH2 0x45BF JUMPI PUSH4 0x4E487B71 PUSH1 0xE0 SHL PUSH1 0x0 MSTORE PUSH1 0x22 PUSH1 0x4 MSTORE PUSH1 0x24 PUSH1 0x0 REVERT JUMPDEST POP SWAP2 SWAP1 POP JUMP JUMPDEST PUSH1 0x0 PUSH1 0x20 DUP3 DUP5 SUB SLT ISZERO PUSH2 0x45D7 JUMPI PUSH1 0x0 DUP1 REVERT JUMPDEST POP MLOAD SWAP2 SWAP1 POP JUMP JUMPDEST PUSH1 0x0 PUSH1 0x20 DUP3 DUP5 SUB SLT ISZERO PUSH2 0x45F0 JUMPI PUSH1 0x0 DUP1 REVERT JUMPDEST DUP2 MLOAD PUSH2 0x3BEE DUP2 PUSH2 0x3E21 JUMP JUMPDEST PUSH4 0x4E487B71 PUSH1 0xE0 SHL PUSH1 0x0 MSTORE PUSH1 0x11 PUSH1 0x4 MSTORE PUSH1 0x24 PUSH1 0x0 REVERT JUMPDEST DUP1 DUP3 ADD DUP1 DUP3 GT ISZERO PUSH2 0x871 JUMPI PUSH2 0x871 PUSH2 0x45FB JUMP JUMPDEST DUP3 DUP2 MSTORE PUSH1 0x40 PUSH1 0x20 DUP3 ADD MSTORE PUSH1 0x0 PUSH2 0x3123 PUSH1 0x40 DUP4 ADD DUP5 PUSH2 0x3C32 JUMP JUMPDEST DUP2 DUP2 SUB DUP2 DUP2 GT ISZERO PUSH2 0x871 JUMPI PUSH2 0x871 PUSH2 0x45FB JUMP JUMPDEST PUSH1 0x20 DUP1 DUP3 MSTORE PUSH1 0x2D SWAP1 DUP3 ADD MSTORE PUSH32 0x4552433732313A2063616C6C6572206973206E6F7420746F6B656E206F776E65 PUSH1 0x40 DUP3 ADD MSTORE PUSH13 0x1C881BDC88185C1C1C9BDD9959 PUSH1 0x9A SHL PUSH1 0x60 DUP3 ADD MSTORE PUSH1 0x80 ADD SWAP1 JUMP JUMPDEST PUSH4 0x4E487B71 PUSH1 0xE0 SHL PUSH1 0x0 MSTORE PUSH1 0x32 PUSH1 0x4 MSTORE PUSH1 0x24 PUSH1 0x0 REVERT JUMPDEST PUSH1 0x0 PUSH1 0x1 DUP3 ADD PUSH2 0x46C5 JUMPI PUSH2 0x46C5 PUSH2 0x45FB JUMP JUMPDEST POP PUSH1 0x1 ADD SWAP1 JUMP JUMPDEST PUSH1 0x1F DUP3 GT ISZERO PUSH2 0xA68 JUMPI PUSH1 0x0 DUP2 DUP2 MSTORE PUSH1 0x20 DUP2 KECCAK256 PUSH1 0x1F DUP6 ADD PUSH1 0x5 SHR DUP2 ADD PUSH1 0x20 DUP7 LT ISZERO PUSH2 0x46F3 JUMPI POP DUP1 JUMPDEST PUSH1 0x1F DUP6 ADD PUSH1 0x5 SHR DUP3 ADD SWAP2 POP JUMPDEST DUP2 DUP2 LT ISZERO PUSH2 0x4712 JUMPI DUP3 DUP2 SSTORE PUSH1 0x1 ADD PUSH2 0x46FF JUMP JUMPDEST POP POP POP POP POP POP JUMP JUMPDEST DUP2 MLOAD PUSH1 0x1 PUSH1 0x1 PUSH1 0x40 SHL SUB DUP2 GT ISZERO PUSH2 0x4733 JUMPI PUSH2 0x4733 PUSH2 0x3CB7 JUMP JUMPDEST PUSH2 0x4747 DUP2 PUSH2 0x4741 DUP5 SLOAD PUSH2 0x458B JUMP JUMPDEST DUP5 PUSH2 0x46CC JUMP JUMPDEST PUSH1 0x20 DUP1 PUSH1 0x1F DUP4 GT PUSH1 0x1 DUP2 EQ PUSH2 0x477C JUMPI PUSH1 0x0 DUP5 ISZERO PUSH2 0x4764 JUMPI POP DUP6 DUP4 ADD MLOAD JUMPDEST PUSH1 0x0 NOT PUSH1 0x3 DUP7 SWAP1 SHL SHR NOT AND PUSH1 0x1 DUP6 SWAP1 SHL OR DUP6 SSTORE PUSH2 0x4712 JUMP JUMPDEST PUSH1 0x0 DUP6 DUP2 MSTORE PUSH1 0x20 DUP2 KECCAK256 PUSH1 0x1F NOT DUP7 AND SWAP2 JUMPDEST DUP3 DUP2 LT ISZERO PUSH2 0x47AB JUMPI DUP9 DUP7 ADD MLOAD DUP3 SSTORE SWAP5 DUP5 ADD SWAP5 PUSH1 0x1 SWAP1 SWAP2 ADD SWAP1 DUP5 ADD PUSH2 0x478C JUMP JUMPDEST POP DUP6 DUP3 LT ISZERO PUSH2 0x47C9 JUMPI DUP8 DUP6 ADD MLOAD PUSH1 0x0 NOT PUSH1 0x3 DUP9 SWAP1 SHL PUSH1 0xF8 AND SHR NOT AND DUP2 SSTORE JUMPDEST POP POP POP POP POP PUSH1 0x1 SWAP1 DUP2 SHL ADD SWAP1 SSTORE POP JUMP JUMPDEST PUSH1 0x60 DUP2 MSTORE PUSH1 0x0 PUSH2 0x47EC PUSH1 0x60 DUP4 ADD DUP7 PUSH2 0x3C32 JUMP JUMPDEST PUSH1 0x20 DUP4 ADD SWAP5 SWAP1 SWAP5 MSTORE POP PUSH1 0x40 ADD MSTORE SWAP2 SWAP1 POP JUMP JUMPDEST PUSH4 0x27232A1 PUSH1 0xE5 SHL DUP2 MSTORE PUSH1 0x0 DUP3 MLOAD PUSH2 0x481D DUP2 PUSH1 0x4 DUP6 ADD PUSH1 0x20 DUP8 ADD PUSH2 0x3C0E JUMP JUMPDEST SWAP2 SWAP1 SWAP2 ADD PUSH1 0x4 ADD SWAP3 SWAP2 POP POP JUMP JUMPDEST PUSH1 0x0 DUP1 DUP5 SLOAD PUSH2 0x4838 DUP2 PUSH2 0x458B JUMP JUMPDEST PUSH1 0x1 DUP3 DUP2 AND DUP1 ISZERO PUSH2 0x4850 JUMPI PUSH1 0x1 DUP2 EQ PUSH2 0x4865 JUMPI PUSH2 0x4894 JUMP JUMPDEST PUSH1 0xFF NOT DUP5 AND DUP8 MSTORE DUP3 ISZERO ISZERO DUP4 MUL DUP8 ADD SWAP5 POP PUSH2 0x4894 JUMP JUMPDEST DUP9 PUSH1 0x0 MSTORE PUSH1 0x20 DUP1 PUSH1 0x0 KECCAK256 PUSH1 0x0 JUMPDEST DUP6 DUP2 LT ISZERO PUSH2 0x488B JUMPI DUP2 SLOAD DUP11 DUP3 ADD MSTORE SWAP1 DUP5 ADD SWAP1 DUP3 ADD PUSH2 0x4872 JUMP JUMPDEST POP POP POP DUP3 DUP8 ADD SWAP5 POP JUMPDEST POP POP POP POP DUP4 MLOAD PUSH2 0x48A8 DUP2 DUP4 PUSH1 0x20 DUP9 ADD PUSH2 0x3C0E JUMP JUMPDEST PUSH5 0x173539B7B7 PUSH1 0xD9 SHL SWAP2 ADD SWAP1 DUP2 MSTORE PUSH1 0x5 ADD SWAP5 SWAP4 POP POP POP POP JUMP JUMPDEST PUSH1 0x20 DUP1 DUP3 MSTORE PUSH1 0x25 SWAP1 DUP3 ADD MSTORE PUSH32 0x4552433732313A207472616E736665722066726F6D20696E636F727265637420 PUSH1 0x40 DUP3 ADD MSTORE PUSH5 0x37BBB732B9 PUSH1 0xD9 SHL PUSH1 0x60 DUP3 ADD MSTORE PUSH1 0x80 ADD SWAP1 JUMP JUMPDEST PUSH1 0x20 DUP1 DUP3 MSTORE PUSH1 0x32 SWAP1 DUP3 ADD MSTORE PUSH32 0x4552433732313A207472616E7366657220746F206E6F6E204552433732315265 PUSH1 0x40 DUP3 ADD MSTORE PUSH18 0x31B2B4BB32B91034B6B83632B6B2B73A32B9 PUSH1 0x71 SHL PUSH1 0x60 DUP3 ADD MSTORE PUSH1 0x80 ADD SWAP1 JUMP JUMPDEST PUSH4 0x4E487B71 PUSH1 0xE0 SHL PUSH1 0x0 MSTORE PUSH1 0x31 PUSH1 0x4 MSTORE PUSH1 0x24 PUSH1 0x0 REVERT JUMPDEST PUSH1 0x1 PUSH1 0x1 PUSH1 0xA0 SHL SUB DUP6 DUP2 AND DUP3 MSTORE DUP5 AND PUSH1 0x20 DUP3 ADD MSTORE PUSH1 0x40 DUP2 ADD DUP4 SWAP1 MSTORE PUSH1 0x80 PUSH1 0x60 DUP3 ADD DUP2 SWAP1 MSTORE PUSH1 0x0 SWAP1 PUSH2 0x43C4 SWAP1 DUP4 ADD DUP5 PUSH2 0x3C32 JUMP JUMPDEST PUSH1 0x0 PUSH1 0x20 DUP3 DUP5 SUB SLT ISZERO PUSH2 0x49B3 JUMPI PUSH1 0x0 DUP1 REVERT JUMPDEST DUP2 MLOAD PUSH2 0x3BEE DUP2 PUSH2 0x3BBB JUMP INVALID LOG2 PUSH5 0x6970667358 0x22 SLT KECCAK256 GAS 0x2B 0xEC 0x22 0xDC SHR DIV 0xD6 0xD0 0x25 DUP6 XOR GAS PUSH5 0x92C81D0574 DUP10 GASPRICE JUMP 0x5E SWAP7 JUMPDEST DUP9 STATICCALL DUP2 MULMOD PUSH7 0x58B064736F6C63 NUMBER STOP ADDMOD EQ STOP CALLER PUSH9 0x747470733A2F2F6F6C PUSH10 0x76652D717569636B2D64 PUSH16 0x6C7068696E2D3236362E6D7970696E61 PUSH21 0x612E636C6F75642F697066732F6261667962656968 PUSH5 0x34687A6C68 PUSH20 0x37353576726B3366667264617861727533346879 PUSH7 0x376B7375767A79 PUSH4 0x62746B35 PUSH23 0x716A6C78373263797A692F8DC18C4CCFD75F5C815B6377 0xF 0xA5 TIMESTAMP REVERT SWAP6 RETURNDATACOPY DUP16 0xEF PUSH31 0xE44BBDD4913470CE7E9D34163636573206175782073747261746567696573 KECCAK256 PUSH5 0x6520626173 PUSH6 0x206176656320 PUSH3 0x6F6E75 PUSH20 0x20323025C575C31FEA594A6EB97C8E9D3F9CAEE4 0xC1 PUSH3 0x18C6EF CALLDATACOPY 0xE9 0x23 0x23 0x4C 0xF 0xE9 ADD 0x4A PUSH2 0xEF00 "},"methodIdentifiers":{"TREASURY_WALLET()":"5daf3146","activeTiers(uint256)":"58c3fa46","addAccessPlansToTier(uint256,string[])":"9ff522f0","approve(address,uint256)":"095ea7b3","backupTreasuryWallet()":"6a8d0c6b","balanceOf(address)":"70a08231","checkFidelityEligibility(address)":"1d2572b6","claimFidelityNFT(address)":"f5932382","claimMyFidelityNFT()":"f49fcb1c","createEventNFT(string,string,uint256,uint256,string,string[])":"70bbcc48","createNewTier(string,string,uint256,uint256,uint256,string,string[],bool)":"3ea4a023","createPartnershipNFT(string,string,uint256,uint256,uint256,string,string[])":"4752184d","emergencyWithdraw(address,uint256)":"95ccea67","fidelityEligible(address)":"b49829f6","getAllActiveTiers()":"ee93ba22","getApproved(uint256)":"081812fc","getRemainingSupply(uint256)":"8c858a14","getRevenueStats()":"ac18992c","getSpecialTiers()":"2e51bf76","getTierAccessPlans(uint256)":"2afd4295","getTierInfo(uint256)":"cc9d7519","getTreasuryInfo()":"c2939471","getUserHighestTier(address)":"7a65cdca","getUserMultiplier(address)":"c5e22f3f","isApprovedForAll(address,address)":"e985e9c5","isSpecialTier(uint256)":"3fe32348","mintSpecialNFT(address,uint256,string)":"1bc806e3","name()":"06fdde03","nextTierId()":"0594fd04","nftTiers(uint256)":"40241b69","nftToTier(uint256)":"27cd41c2","owner()":"8da5cb5b","ownerHasTier(address,uint256)":"e79004f6","ownerOf(uint256)":"6352211e","pauseTier(uint256)":"04e2886b","purchaseNFT(uint256)":"150bde03","renounceOwnership()":"715018a6","safeTransferFrom(address,address,uint256)":"42842e0e","safeTransferFrom(address,address,uint256,bytes)":"b88d4fde","setApprovalForAll(address,bool)":"a22cb465","setFidelityEligible(address,bool)":"23bacf8a","setMultipleFidelityEligible(address[],bool)":"72a8d623","supportsInterface(bytes4)":"01ffc9a7","symbol()":"95d89b41","tierRevenue(uint256)":"3b2e8657","tokenOfOwnerByIndex(address,uint256)":"2f745c59","tokenURI(uint256)":"c87b56dd","totalRevenue()":"bf2d9e0b","transferFrom(address,address,uint256)":"23b872dd","transferOwnership(address)":"f2fde38b","unpauseTier(uint256)":"e0ca0cd1","updateBackupTreasury(address)":"cf457321","updateTier(uint256,uint256,uint256,bool)":"c621f94c","usdcToken()":"11eac855"}}}}}