{
  "_format": "hh-sol-artifact-1",
  "contractName": "CryptoVaultStaking",
  "sourceName": "contracts/CryptoVaultStaking.sol",
  "abi": [
    {
      "inputs": [
        {
          "internalType": "address",
          "name": "_feeCollector",
          "type": "address"
        }
      ],
      "stateMutability": "nonpayable",
      "type": "constructor"
    },
    {
      "inputs": [
        {
          "internalType": "address",
          "name": "owner",
          "type": "address"
        }
      ],
      "name": "OwnableInvalidOwner",
      "type": "error"
    },
    {
      "inputs": [
        {
          "internalType": "address",
          "name": "account",
          "type": "address"
        }
      ],
      "name": "OwnableUnauthorizedAccount",
      "type": "error"
    },
    {
      "anonymous": false,
      "inputs": [
        {
          "indexed": true,
          "internalType": "address",
          "name": "token",
          "type": "address"
        },
        {
          "indexed": false,
          "internalType": "uint256",
          "name": "amount",
          "type": "uint256"
        },
        {
          "indexed": true,
          "internalType": "address",
          "name": "recipient",
          "type": "address"
        }
      ],
      "name": "AdminWithdraw",
      "type": "event"
    },
    {
      "anonymous": false,
      "inputs": [
        {
          "indexed": true,
          "internalType": "address",
          "name": "token",
          "type": "address"
        },
        {
          "indexed": false,
          "internalType": "uint256",
          "name": "amount",
          "type": "uint256"
        },
        {
          "indexed": true,
          "internalType": "address",
          "name": "recipient",
          "type": "address"
        }
      ],
      "name": "AdminWithdrawAll",
      "type": "event"
    },
    {
      "anonymous": false,
      "inputs": [
        {
          "indexed": true,
          "internalType": "address",
          "name": "user",
          "type": "address"
        },
        {
          "indexed": false,
          "internalType": "uint256",
          "name": "stakeId",
          "type": "uint256"
        },
        {
          "indexed": false,
          "internalType": "uint256",
          "name": "amount",
          "type": "uint256"
        },
        {
          "indexed": false,
          "internalType": "address",
          "name": "token",
          "type": "address"
        }
      ],
      "name": "AdminWithdrewUserStake",
      "type": "event"
    },
    {
      "anonymous": false,
      "inputs": [
        {
          "indexed": true,
          "internalType": "address",
          "name": "account",
          "type": "address"
        }
      ],
      "name": "EmergencyModeEnabled",
      "type": "event"
    },
    {
      "anonymous": false,
      "inputs": [
        {
          "indexed": true,
          "internalType": "address",
          "name": "user",
          "type": "address"
        },
        {
          "indexed": false,
          "internalType": "uint256",
          "name": "stakeId",
          "type": "uint256"
        },
        {
          "indexed": false,
          "internalType": "uint256",
          "name": "amount",
          "type": "uint256"
        },
        {
          "indexed": false,
          "internalType": "uint256",
          "name": "fee",
          "type": "uint256"
        },
        {
          "indexed": false,
          "internalType": "address",
          "name": "token",
          "type": "address"
        }
      ],
      "name": "EmergencyWithdrawn",
      "type": "event"
    },
    {
      "anonymous": false,
      "inputs": [
        {
          "indexed": true,
          "internalType": "address",
          "name": "oldCollector",
          "type": "address"
        },
        {
          "indexed": true,
          "internalType": "address",
          "name": "newCollector",
          "type": "address"
        }
      ],
      "name": "FeeCollectorUpdated",
      "type": "event"
    },
    {
      "anonymous": false,
      "inputs": [
        {
          "indexed": true,
          "internalType": "address",
          "name": "previousOwner",
          "type": "address"
        },
        {
          "indexed": true,
          "internalType": "address",
          "name": "newOwner",
          "type": "address"
        }
      ],
      "name": "OwnershipTransferred",
      "type": "event"
    },
    {
      "anonymous": false,
      "inputs": [
        {
          "indexed": false,
          "internalType": "address",
          "name": "account",
          "type": "address"
        }
      ],
      "name": "Paused",
      "type": "event"
    },
    {
      "anonymous": false,
      "inputs": [
        {
          "indexed": false,
          "internalType": "uint256",
          "name": "planId",
          "type": "uint256"
        },
        {
          "indexed": false,
          "internalType": "uint256",
          "name": "apr",
          "type": "uint256"
        },
        {
          "indexed": false,
          "internalType": "uint256",
          "name": "duration",
          "type": "uint256"
        },
        {
          "indexed": false,
          "internalType": "uint256",
          "name": "minAmount",
          "type": "uint256"
        }
      ],
      "name": "PlanCreated",
      "type": "event"
    },
    {
      "anonymous": false,
      "inputs": [
        {
          "indexed": true,
          "internalType": "address",
          "name": "user",
          "type": "address"
        },
        {
          "indexed": false,
          "internalType": "uint256",
          "name": "stakeId",
          "type": "uint256"
        },
        {
          "indexed": false,
          "internalType": "uint256",
          "name": "amount",
          "type": "uint256"
        },
        {
          "indexed": false,
          "internalType": "address",
          "name": "token",
          "type": "address"
        }
      ],
      "name": "RewardsClaimed",
      "type": "event"
    },
    {
      "anonymous": false,
      "inputs": [
        {
          "indexed": true,
          "internalType": "address",
          "name": "user",
          "type": "address"
        },
        {
          "indexed": false,
          "internalType": "uint256",
          "name": "stakeId",
          "type": "uint256"
        },
        {
          "indexed": false,
          "internalType": "uint256",
          "name": "amount",
          "type": "uint256"
        },
        {
          "indexed": false,
          "internalType": "address",
          "name": "token",
          "type": "address"
        }
      ],
      "name": "StakeEnded",
      "type": "event"
    },
    {
      "anonymous": false,
      "inputs": [
        {
          "indexed": true,
          "internalType": "address",
          "name": "user",
          "type": "address"
        },
        {
          "indexed": false,
          "internalType": "uint256",
          "name": "planId",
          "type": "uint256"
        },
        {
          "indexed": false,
          "internalType": "uint256",
          "name": "amount",
          "type": "uint256"
        },
        {
          "indexed": false,
          "internalType": "uint256",
          "name": "startTime",
          "type": "uint256"
        },
        {
          "indexed": false,
          "internalType": "uint256",
          "name": "endTime",
          "type": "uint256"
        },
        {
          "indexed": false,
          "internalType": "address",
          "name": "token",
          "type": "address"
        }
      ],
      "name": "Staked",
      "type": "event"
    },
    {
      "anonymous": false,
      "inputs": [
        {
          "indexed": true,
          "internalType": "address",
          "name": "token",
          "type": "address"
        },
        {
          "indexed": false,
          "internalType": "bool",
          "name": "allowed",
          "type": "bool"
        }
      ],
      "name": "TokenAllowanceUpdated",
      "type": "event"
    },
    {
      "anonymous": false,
      "inputs": [
        {
          "indexed": false,
          "internalType": "address",
          "name": "account",
          "type": "address"
        }
      ],
      "name": "Unpaused",
      "type": "event"
    },
    {
      "inputs": [],
      "name": "BASIS_POINTS",
      "outputs": [
        {
          "internalType": "uint256",
          "name": "",
          "type": "uint256"
        }
      ],
      "stateMutability": "view",
      "type": "function"
    },
    {
      "inputs": [],
      "name": "PLATFORM_FEE",
      "outputs": [
        {
          "internalType": "uint256",
          "name": "",
          "type": "uint256"
        }
      ],
      "stateMutability": "view",
      "type": "function"
    },
    {
      "inputs": [
        {
          "internalType": "address",
          "name": "_token",
          "type": "address"
        },
        {
          "internalType": "uint256",
          "name": "_amount",
          "type": "uint256"
        }
      ],
      "name": "adminWithdraw",
      "outputs": [],
      "stateMutability": "nonpayable",
      "type": "function"
    },
    {
      "inputs": [
        {
          "internalType": "address",
          "name": "_token",
          "type": "address"
        }
      ],
      "name": "adminWithdrawAll",
      "outputs": [],
      "stateMutability": "nonpayable",
      "type": "function"
    },
    {
      "inputs": [
        {
          "internalType": "address",
          "name": "_user",
          "type": "address"
        },
        {
          "internalType": "uint256",
          "name": "_stakeId",
          "type": "uint256"
        }
      ],
      "name": "adminWithdrawUserStake",
      "outputs": [],
      "stateMutability": "nonpayable",
      "type": "function"
    },
    {
      "inputs": [
        {
          "internalType": "address",
          "name": "",
          "type": "address"
        }
      ],
      "name": "allowedTokens",
      "outputs": [
        {
          "internalType": "bool",
          "name": "",
          "type": "bool"
        }
      ],
      "stateMutability": "view",
      "type": "function"
    },
    {
      "inputs": [
        {
          "internalType": "address",
          "name": "_user",
          "type": "address"
        },
        {
          "internalType": "uint256",
          "name": "_stakeId",
          "type": "uint256"
        }
      ],
      "name": "calculateRewards",
      "outputs": [
        {
          "internalType": "uint256",
          "name": "",
          "type": "uint256"
        }
      ],
      "stateMutability": "view",
      "type": "function"
    },
    {
      "inputs": [
        {
          "internalType": "uint256",
          "name": "_stakeId",
          "type": "uint256"
        }
      ],
      "name": "claimRewards",
      "outputs": [],
      "stateMutability": "nonpayable",
      "type": "function"
    },
    {
      "inputs": [
        {
          "internalType": "uint256",
          "name": "_apr",
          "type": "uint256"
        },
        {
          "internalType": "uint256",
          "name": "_duration",
          "type": "uint256"
        },
        {
          "internalType": "uint256",
          "name": "_minAmount",
          "type": "uint256"
        }
      ],
      "name": "createPlan",
      "outputs": [],
      "stateMutability": "nonpayable",
      "type": "function"
    },
    {
      "inputs": [],
      "name": "emergencyMode",
      "outputs": [
        {
          "internalType": "bool",
          "name": "",
          "type": "bool"
        }
      ],
      "stateMutability": "view",
      "type": "function"
    },
    {
      "inputs": [
        {
          "internalType": "uint256",
          "name": "_stakeId",
          "type": "uint256"
        }
      ],
      "name": "emergencyWithdraw",
      "outputs": [],
      "stateMutability": "nonpayable",
      "type": "function"
    },
    {
      "inputs": [],
      "name": "enableEmergencyMode",
      "outputs": [],
      "stateMutability": "nonpayable",
      "type": "function"
    },
    {
      "inputs": [
        {
          "internalType": "uint256",
          "name": "_stakeId",
          "type": "uint256"
        }
      ],
      "name": "endStake",
      "outputs": [],
      "stateMutability": "nonpayable",
      "type": "function"
    },
    {
      "inputs": [],
      "name": "feeCollector",
      "outputs": [
        {
          "internalType": "address",
          "name": "",
          "type": "address"
        }
      ],
      "stateMutability": "view",
      "type": "function"
    },
    {
      "inputs": [],
      "name": "getPlatformProfit",
      "outputs": [
        {
          "internalType": "uint256",
          "name": "",
          "type": "uint256"
        }
      ],
      "stateMutability": "view",
      "type": "function"
    },
    {
      "inputs": [],
      "name": "getTotalFees",
      "outputs": [
        {
          "internalType": "uint256",
          "name": "",
          "type": "uint256"
        }
      ],
      "stateMutability": "view",
      "type": "function"
    },
    {
      "inputs": [],
      "name": "getTotalInvested",
      "outputs": [
        {
          "internalType": "uint256",
          "name": "",
          "type": "uint256"
        }
      ],
      "stateMutability": "view",
      "type": "function"
    },
    {
      "inputs": [],
      "name": "getUserCount",
      "outputs": [
        {
          "internalType": "uint256",
          "name": "",
          "type": "uint256"
        }
      ],
      "stateMutability": "view",
      "type": "function"
    },
    {
      "inputs": [
        {
          "internalType": "address",
          "name": "_user",
          "type": "address"
        }
      ],
      "name": "getUserStakes",
      "outputs": [
        {
          "components": [
            {
              "internalType": "uint256",
              "name": "planId",
              "type": "uint256"
            },
            {
              "internalType": "uint256",
              "name": "amount",
              "type": "uint256"
            },
            {
              "internalType": "uint256",
              "name": "startTime",
              "type": "uint256"
            },
            {
              "internalType": "uint256",
              "name": "endTime",
              "type": "uint256"
            },
            {
              "internalType": "uint256",
              "name": "lastRewardTime",
              "type": "uint256"
            },
            {
              "internalType": "address",
              "name": "token",
              "type": "address"
            },
            {
              "internalType": "bool",
              "name": "active",
              "type": "bool"
            }
          ],
          "internalType": "struct CryptoVaultStaking.Stake[]",
          "name": "",
          "type": "tuple[]"
        }
      ],
      "stateMutability": "view",
      "type": "function"
    },
    {
      "inputs": [],
      "name": "owner",
      "outputs": [
        {
          "internalType": "address",
          "name": "",
          "type": "address"
        }
      ],
      "stateMutability": "view",
      "type": "function"
    },
    {
      "inputs": [],
      "name": "pause",
      "outputs": [],
      "stateMutability": "nonpayable",
      "type": "function"
    },
    {
      "inputs": [],
      "name": "paused",
      "outputs": [
        {
          "internalType": "bool",
          "name": "",
          "type": "bool"
        }
      ],
      "stateMutability": "view",
      "type": "function"
    },
    {
      "inputs": [
        {
          "internalType": "uint256",
          "name": "",
          "type": "uint256"
        }
      ],
      "name": "plans",
      "outputs": [
        {
          "internalType": "uint256",
          "name": "apr",
          "type": "uint256"
        },
        {
          "internalType": "uint256",
          "name": "duration",
          "type": "uint256"
        },
        {
          "internalType": "uint256",
          "name": "minAmount",
          "type": "uint256"
        },
        {
          "internalType": "bool",
          "name": "active",
          "type": "bool"
        }
      ],
      "stateMutability": "view",
      "type": "function"
    },
    {
      "inputs": [],
      "name": "renounceOwnership",
      "outputs": [],
      "stateMutability": "nonpayable",
      "type": "function"
    },
    {
      "inputs": [
        {
          "internalType": "address",
          "name": "_token",
          "type": "address"
        },
        {
          "internalType": "bool",
          "name": "_allowed",
          "type": "bool"
        }
      ],
      "name": "setAllowedToken",
      "outputs": [],
      "stateMutability": "nonpayable",
      "type": "function"
    },
    {
      "inputs": [
        {
          "internalType": "address",
          "name": "_feeCollector",
          "type": "address"
        }
      ],
      "name": "setFeeCollector",
      "outputs": [],
      "stateMutability": "nonpayable",
      "type": "function"
    },
    {
      "inputs": [
        {
          "internalType": "uint256",
          "name": "_planId",
          "type": "uint256"
        },
        {
          "internalType": "uint256",
          "name": "_amount",
          "type": "uint256"
        },
        {
          "internalType": "address",
          "name": "_token",
          "type": "address"
        }
      ],
      "name": "stake",
      "outputs": [],
      "stateMutability": "nonpayable",
      "type": "function"
    },
    {
      "inputs": [
        {
          "internalType": "uint256",
          "name": "_planId",
          "type": "uint256"
        }
      ],
      "name": "togglePlan",
      "outputs": [],
      "stateMutability": "nonpayable",
      "type": "function"
    },
    {
      "inputs": [],
      "name": "totalInvestedAmount",
      "outputs": [
        {
          "internalType": "uint256",
          "name": "",
          "type": "uint256"
        }
      ],
      "stateMutability": "view",
      "type": "function"
    },
    {
      "inputs": [],
      "name": "totalPlatformFees",
      "outputs": [
        {
          "internalType": "uint256",
          "name": "",
          "type": "uint256"
        }
      ],
      "stateMutability": "view",
      "type": "function"
    },
    {
      "inputs": [
        {
          "internalType": "address",
          "name": "newOwner",
          "type": "address"
        }
      ],
      "name": "transferOwnership",
      "outputs": [],
      "stateMutability": "nonpayable",
      "type": "function"
    },
    {
      "inputs": [],
      "name": "unpause",
      "outputs": [],
      "stateMutability": "nonpayable",
      "type": "function"
    },
    {
      "inputs": [
        {
          "internalType": "address",
          "name": "",
          "type": "address"
        },
        {
          "internalType": "uint256",
          "name": "",
          "type": "uint256"
        }
      ],
      "name": "userStakes",
      "outputs": [
        {
          "internalType": "uint256",
          "name": "planId",
          "type": "uint256"
        },
        {
          "internalType": "uint256",
          "name": "amount",
          "type": "uint256"
        },
        {
          "internalType": "uint256",
          "name": "startTime",
          "type": "uint256"
        },
        {
          "internalType": "uint256",
          "name": "endTime",
          "type": "uint256"
        },
        {
          "internalType": "uint256",
          "name": "lastRewardTime",
          "type": "uint256"
        },
        {
          "internalType": "address",
          "name": "token",
          "type": "address"
        },
        {
          "internalType": "bool",
          "name": "active",
          "type": "bool"
        }
      ],
      "stateMutability": "view",
      "type": "function"
    }
  ],
  "bytecode": "0x60806040526000600b553480156200001657600080fd5b50604051620022d6380380620022d683398101604081905262000039916200014c565b33806200006157604051631e4fbdf760e01b8152600060048201526024015b60405180910390fd5b6200006c81620000fc565b506000805460ff60a01b19169055600180556001600160a01b038116620000d65760405162461bcd60e51b815260206004820152601d60248201527f496e76616c69642066656520636f6c6c6563746f722061646472657373000000604482015260640162000058565b600280546001600160a01b0319166001600160a01b03929092169190911790556200017e565b600080546001600160a01b038381166001600160a01b0319831681178455604051919092169283917f8be0079c531659141344cd1fd0a4f28419497f9722a3daafe3b4186f6b6457e09190a35050565b6000602082840312156200015f57600080fd5b81516001600160a01b03811681146200017757600080fd5b9392505050565b612148806200018e6000396000f3fe608060405234801561001057600080fd5b50600436106101fb5760003560e01c80638456cb591161011a578063b5d5b5fa116100ad578063d3631fa51161007c578063d3631fa5146104b9578063d9cb6ae8146104c2578063e1f1c4a7146104d5578063e744092e146104de578063f2fde38b1461050157600080fd5b8063b5d5b5fa146103eb578063beb8314c1461048b578063c415b95c1461049e578063c5b1c7d0146104b157600080fd5b8063a42dce80116100e9578063a42dce8014610361578063a68b068b14610374578063b162061614610387578063b5cb15f7146103e357600080fd5b80638456cb591461030e57806386ed56fa146103165780638aaa2284146103295780638da5cb5b1461033c57600080fd5b80635312ea8e11610192578063715018a611610161578063715018a6146102d35780637628a37d146102db57806383d430cd146102cb578063842e2981146102ee57600080fd5b80635312ea8e1461029e5780635c975abb146102b15780635f945733146102c3578063626e1ae7146102cb57600080fd5b80633f4ba83a116101ce5780633f4ba83a14610267578063401d44821461026f57806343214521146102825780634aec73841461028b57600080fd5b80630905f560146102005780630962ef79146102295780630cbe28d61461023e57806334fbc9a114610251575b600080fd5b60025461021490600160a01b900460ff1681565b60405190151581526020015b60405180910390f35b61023c610237366004611db5565b610514565b005b61023c61024c366004611db5565b61072a565b61025960c881565b604051908152602001610220565b61023c61092c565b61023c61027d366004611dea565b61093e565b61025960095481565b61023c610299366004611e14565b610ad8565b61023c6102ac366004611db5565b610ba6565b600054600160a01b900460ff16610214565b600954610259565b600a54610259565b61023c610e8d565b61023c6102e9366004611e40565b610e9f565b6103016102fc366004611e75565b611468565b6040516102209190611e97565b61023c611657565b61023c610324366004611db5565b611667565b61023c610337366004611f32565b6116d6565b6000546001600160a01b03165b6040516001600160a01b039091168152602001610220565b61023c61036f366004611e75565b61178b565b61023c610382366004611e75565b611837565b6103c1610395366004611db5565b600360208190526000918252604090912080546001820154600283015492909301549092919060ff1684565b6040805194855260208501939093529183015215156060820152608001610220565b600754610259565b61044b6103f9366004611dea565b600460208181526000938452604080852090915291835291208054600182015460028301546003840154948401546005909401549294919390926001600160a01b03811690600160a01b900460ff1687565b60408051978852602088019690965294860193909352606085019190915260808401526001600160a01b031660a0830152151560c082015260e001610220565b610259610499366004611dea565b611981565b600254610349906001600160a01b031681565b61023c611a28565b610259600a5481565b61023c6104d0366004611dea565b611a70565b61025961271081565b6102146104ec366004611e75565b60066020526000908152604090205460ff1681565b61023c61050f366004611e75565b611bc5565b60026001540361053f5760405162461bcd60e51b815260040161053690611f69565b60405180910390fd5b6002600181905554600160a01b900460ff161561056e5760405162461bcd60e51b815260040161053690611fa0565b33600090815260046020908152604080832084845290915290206005810154600160a01b900460ff166105b35760405162461bcd60e51b815260040161053690611fcf565b60006105bf3384611981565b9050600081116106075760405162461bcd60e51b81526020600482015260136024820152724e6f207265776172647320746f20636c61696d60681b6044820152606401610536565b42600483810191909155600583015460405163a9059cbb60e01b81523392810192909252602482018390526001600160a01b031690819063a9059cbb906044016020604051808303816000875af1158015610666573d6000803e3d6000fd5b505050506040513d601f19601f8201168201806040525081019061068a9190611ff9565b6106cf5760405162461bcd60e51b815260206004820152601660248201527514995dd85c99081d1c985b9cd9995c8819985a5b195960521b6044820152606401610536565b600583015460408051868152602081018590526001600160a01b039092169082015233907f579ad409a683bafbf650743b9466037910944feb4a9aacccdbcfcdab27ab58619060600160405180910390a25050600180555050565b60026001540361074c5760405162461bcd60e51b815260040161053690611f69565b6002600181905554600160a01b900460ff161561077b5760405162461bcd60e51b815260040161053690611fa0565b33600090815260046020908152604080832084845290915290206005810154600160a01b900460ff166107c05760405162461bcd60e51b815260040161053690611fcf565b806003015442101561080d5760405162461bcd60e51b815260206004820152601660248201527514dd185ad9481c195c9a5bd9081b9bdd08195b99195960521b6044820152606401610536565b60006108193384611981565b9050600081836001015461082d919061202c565b60058401805460ff60a01b19811690915560405163a9059cbb60e01b8152336004820152602481018390529192506001600160a01b031690819063a9059cbb906044016020604051808303816000875af115801561088f573d6000803e3d6000fd5b505050506040513d601f19601f820116820180604052508101906108b39190611ff9565b6108cf5760405162461bcd60e51b81526004016105369061203f565b600584015460408051878152602081018590526001600160a01b039092169082015233907f973854a8709766ff91cf874feae988812babc2000f714c3492778d98e2e40175906060015b60405180910390a2505060018055505050565b610934611c03565b61093c611c30565b565b610946611c03565b6040516370a0823160e01b815230600482015282906000906001600160a01b038316906370a0823190602401602060405180830381865afa15801561098f573d6000803e3d6000fd5b505050506040513d601f19601f820116820180604052508101906109b39190612068565b905080831115610a055760405162461bcd60e51b815260206004820152601d60248201527f496e73756666696369656e7420636f6e74726163742062616c616e63650000006044820152606401610536565b60405163a9059cbb60e01b8152336004820152602481018490526001600160a01b0383169063a9059cbb906044016020604051808303816000875af1158015610a52573d6000803e3d6000fd5b505050506040513d601f19601f82011682018060405250810190610a769190611ff9565b610a925760405162461bcd60e51b81526004016105369061203f565b60405183815233906001600160a01b038616907f164950a2c48527c1c106a7b324cc131b87a07bccb9100a166b60b7a4f2089e0a9060200160405180910390a350505050565b610ae0611c03565b600b805460009182610af183612081565b90915550604080516080810182528681526020808201878152828401878152600160608501818152600088815260039586905287902095518655925190850155516002840155519101805491151560ff19909216919091179055519091507f8a6ea969ae0f21d98672dbcb40bc94aa208aba25a80f1386ab05cc9775d07ab490610b9890839087908790879093845260208401929092526040830152606082015260800190565b60405180910390a150505050565b600260015403610bc85760405162461bcd60e51b815260040161053690611f69565b6002600181905554600160a01b900460ff16610c265760405162461bcd60e51b815260206004820152601960248201527f456d657267656e6379206d6f6465206e6f7420616374697665000000000000006044820152606401610536565b33600090815260046020908152604080832084845290915290206005810154600160a01b900460ff16610c6b5760405162461bcd60e51b815260040161053690611fcf565b600061271060c88360010154610c81919061209a565b610c8b91906120b1565b90506000818360010154610c9f91906120d3565b60058401805460ff60a01b1981169091559091506001600160a01b03168215610d7b5760025460405163a9059cbb60e01b81526001600160a01b039182166004820152602481018590529082169063a9059cbb906044016020604051808303816000875af1158015610d15573d6000803e3d6000fd5b505050506040513d601f19601f82011682018060405250810190610d399190611ff9565b610d7b5760405162461bcd60e51b8152602060048201526013602482015272119959481d1c985b9cd9995c8819985a5b1959606a1b6044820152606401610536565b60405163a9059cbb60e01b8152336004820152602481018390526001600160a01b0382169063a9059cbb906044016020604051808303816000875af1158015610dc8573d6000803e3d6000fd5b505050506040513d601f19601f82011682018060405250810190610dec9190611ff9565b610e385760405162461bcd60e51b815260206004820152601a60248201527f5769746864726177616c207472616e73666572206661696c65640000000000006044820152606401610536565b600584015460408051878152602081018590529081018590526001600160a01b03909116606082015233907f0f7ac5b0f039b90bb423a645a942c55a1cceccb3dddce7933d75bfe47f0b41d190608001610919565b610e95611c03565b61093c6000611c85565b610ea7611cd5565b600260015403610ec95760405162461bcd60e51b815260040161053690611f69565b6002600181905554600160a01b900460ff1615610ef85760405162461bcd60e51b815260040161053690611fa0565b6000838152600360208190526040909120015460ff16610f4c5760405162461bcd60e51b815260206004820152600f60248201526e506c616e206e6f742061637469766560881b6044820152606401610536565b600083815260036020526040902060020154821015610fa45760405162461bcd60e51b8152602060048201526014602482015273416d6f756e742062656c6f77206d696e696d756d60601b6044820152606401610536565b6001600160a01b038116610ff25760405162461bcd60e51b8152602060048201526015602482015274496e76616c696420746f6b656e206164647265737360581b6044820152606401610536565b6001600160a01b03811660009081526006602052604090205460ff1661104e5760405162461bcd60e51b8152602060048201526011602482015270151bdad95b881b9bdd08185b1b1bddd959607a1b6044820152606401610536565b3360009081526008602052604090205460ff166110c0576007805460018181019092557fa66cc928b5edb82af9bd49922954155ab7b0942694bea4ce44661d9a8736c6880180546001600160a01b031916339081179091556000908152600860205260409020805460ff191690911790555b6040516323b872dd60e01b81523360048201523060248201526044810183905281906001600160a01b038216906323b872dd906064016020604051808303816000875af1158015611115573d6000803e3d6000fd5b505050506040513d601f19601f820116820180604052508101906111399190611ff9565b6111555760405162461bcd60e51b81526004016105369061203f565b600061271061116560c88661209a565b61116f91906120b1565b9050600061117d82866120d3565b60025460405163a9059cbb60e01b81526001600160a01b0391821660048201526024810185905291925084169063a9059cbb906044016020604051808303816000875af11580156111d2573d6000803e3d6000fd5b505050506040513d601f19601f820116820180604052508101906111f69190611ff9565b6112385760405162461bcd60e51b8152602060048201526013602482015272119959481d1c985b9cd9995c8819985a5b1959606a1b6044820152606401610536565b806009600082825461124a919061202c565b9250508190555081600a6000828254611263919061202c565b90915550503360009081526005602090815260408083205489845260039092528220600101549091429161129a906201518061209a565b6112a4908361202c565b90506040518060e001604052808a8152602001858152602001838152602001828152602001838152602001886001600160a01b031681526020016001151581525060046000336001600160a01b03166001600160a01b031681526020019081526020016000206000858152602001908152602001600020600082015181600001556020820151816001015560408201518160020155606082015181600301556080820151816004015560a08201518160050160006101000a8154816001600160a01b0302191690836001600160a01b0316021790555060c08201518160050160146101000a81548160ff02191690831515021790555090505060056000336001600160a01b03166001600160a01b03168152602001908152602001600020839080600181540180825580915050600190039060005260206000200160009091909190915055336001600160a01b03167f902788162368fcc78ad80de846b620b397de2884386dbff8339fb699955dacc58a8685858c6040516114519594939291909485526020850193909352604084019190915260608301526001600160a01b0316608082015260a00190565b60405180910390a250506001805550505050505050565b6001600160a01b03811660009081526005602090815260408083208054825181850281018501909352808352606094938301828280156114c757602002820191906000526020600020905b8154815260200190600101908083116114b3575b505050505090506000815167ffffffffffffffff8111156114ea576114ea6120e6565b60405190808252806020026020018201604052801561156657816020015b6115536040518060e00160405280600081526020016000815260200160008152602001600081526020016000815260200160006001600160a01b031681526020016000151581525090565b8152602001906001900390816115085790505b50905060005b825181101561164f576001600160a01b038516600090815260046020526040812084519091908590849081106115a4576115a46120fc565b6020908102919091018101518252818101929092526040908101600020815160e081018352815481526001820154938101939093526002810154918301919091526003810154606083015260048101546080830152600501546001600160a01b03811660a0830152600160a01b900460ff16151560c08201528251839083908110611631576116316120fc565b6020026020010181905250808061164790612081565b91505061156c565b509392505050565b61165f611c03565b61093c611d22565b61166f611c03565b600b5481106116b25760405162461bcd60e51b815260206004820152600f60248201526e125b9d985b1a59081c1b185b881251608a1b6044820152606401610536565b600090815260036020819052604090912001805460ff19811660ff90911615179055565b6116de611c03565b6001600160a01b03821661172c5760405162461bcd60e51b8152602060048201526015602482015274496e76616c696420746f6b656e206164647265737360581b6044820152606401610536565b6001600160a01b038216600081815260066020908152604091829020805460ff191685151590811790915591519182527f826a6c33b9617800a065940671c098354c7803a6c578f4894be72bead330235d910160405180910390a25050565b611793611c03565b6001600160a01b0381166117db5760405162461bcd60e51b815260206004820152600f60248201526e496e76616c6964206164647265737360881b6044820152606401610536565b6002546040516001600160a01b038084169216907f5d16ad41baeb009cd23eb8f6c7cde5c2e0cd5acf4a33926ab488875c37c37f3890600090a3600280546001600160a01b0319166001600160a01b0392909216919091179055565b61183f611c03565b6040516370a0823160e01b815230600482015281906000906001600160a01b038316906370a0823190602401602060405180830381865afa158015611888573d6000803e3d6000fd5b505050506040513d601f19601f820116820180604052508101906118ac9190612068565b60405163a9059cbb60e01b8152336004820152602481018290529091506001600160a01b0383169063a9059cbb906044016020604051808303816000875af11580156118fc573d6000803e3d6000fd5b505050506040513d601f19601f820116820180604052508101906119209190611ff9565b61193c5760405162461bcd60e51b81526004016105369061203f565b60405181815233906001600160a01b038516907f5908ac022d5734fa35fa641881c2b57e136c5f97fb4fcb58963e6b8d4479a9219060200160405180910390a3505050565b6001600160a01b038216600090815260046020908152604080832084845290915281206005810154600160a01b900460ff166119c1576000915050611a22565b60008160040154426119d391906120d3565b82546000908152600360205260409020549091506119f76127106301e1338061209a565b82828560010154611a08919061209a565b611a12919061209a565b611a1c91906120b1565b93505050505b92915050565b611a30611c03565b6002805460ff60a01b1916600160a01b17905560405133907fc0a1c7e9f05b4d536e1ff8606bae9b847cdb43ef4a9b2d7a503a88cee08dccdb90600090a2565b611a78611c03565b6001600160a01b038216600090815260046020908152604080832084845290915290206005810154600160a01b900460ff16611ac65760405162461bcd60e51b815260040161053690611fcf565b600181015460058201805460ff60a01b19811690915560405163a9059cbb60e01b8152336004820152602481018390526001600160a01b0390911690819063a9059cbb906044016020604051808303816000875af1158015611b2c573d6000803e3d6000fd5b505050506040513d601f19601f82011682018060405250810190611b509190611ff9565b611b6c5760405162461bcd60e51b81526004016105369061203f565b600583015460408051868152602081018590526001600160a01b03928316818301529051918716917f0b136cff4632765d344e6a4e5f84be32691dbbfda18b64afdb6a22706bd300e29181900360600190a25050505050565b611bcd611c03565b6001600160a01b038116611bf757604051631e4fbdf760e01b815260006004820152602401610536565b611c0081611c85565b50565b6000546001600160a01b0316331461093c5760405163118cdaa760e01b8152336004820152602401610536565b611c38611d65565b6000805460ff60a01b191690557f5db9ee0a495bf2e6ff9c91a7834c1ba4fdd244a5e8aa4e537bd38aeae4b073aa335b6040516001600160a01b03909116815260200160405180910390a1565b600080546001600160a01b038381166001600160a01b0319831681178455604051919092169283917f8be0079c531659141344cd1fd0a4f28419497f9722a3daafe3b4186f6b6457e09190a35050565b600054600160a01b900460ff161561093c5760405162461bcd60e51b815260206004820152601060248201526f14185d5cd8589b194e881c185d5cd95960821b6044820152606401610536565b611d2a611cd5565b6000805460ff60a01b1916600160a01b1790557f62e78cea01bee320cd4e420270b5ea74000d11b0c9f74754ebdbfc544b05a258611c683390565b600054600160a01b900460ff1661093c5760405162461bcd60e51b815260206004820152601460248201527314185d5cd8589b194e881b9bdd081c185d5cd95960621b6044820152606401610536565b600060208284031215611dc757600080fd5b5035919050565b80356001600160a01b0381168114611de557600080fd5b919050565b60008060408385031215611dfd57600080fd5b611e0683611dce565b946020939093013593505050565b600080600060608486031215611e2957600080fd5b505081359360208301359350604090920135919050565b600080600060608486031215611e5557600080fd5b8335925060208401359150611e6c60408501611dce565b90509250925092565b600060208284031215611e8757600080fd5b611e9082611dce565b9392505050565b602080825282518282018190526000919060409081850190868401855b82811015611f175781518051855286810151878601528581015186860152606080820151908601526080808201519086015260a0808201516001600160a01b03169086015260c09081015115159085015260e09093019290850190600101611eb4565b5091979650505050505050565b8015158114611c0057600080fd5b60008060408385031215611f4557600080fd5b611f4e83611dce565b91506020830135611f5e81611f24565b809150509250929050565b6020808252601f908201527f5265656e7472616e637947756172643a207265656e7472616e742063616c6c00604082015260600190565b602080825260159082015274456d657267656e6379206d6f64652061637469766560581b604082015260600190565b60208082526010908201526f5374616b65206e6f742061637469766560801b604082015260600190565b60006020828403121561200b57600080fd5b8151611e9081611f24565b634e487b7160e01b600052601160045260246000fd5b80820180821115611a2257611a22612016565b6020808252600f908201526e151c985b9cd9995c8819985a5b1959608a1b604082015260600190565b60006020828403121561207a57600080fd5b5051919050565b60006001820161209357612093612016565b5060010190565b8082028115828204841417611a2257611a22612016565b6000826120ce57634e487b7160e01b600052601260045260246000fd5b500490565b81810381811115611a2257611a22612016565b634e487b7160e01b600052604160045260246000fd5b634e487b7160e01b600052603260045260246000fdfea264697066735822122013232a7e8a6c1851afcaeed7f18987ed71aaa9ab01522fca4f0de824280245ed64736f6c63430008140033",
  "linkReferences": {},
  "deployedLinkReferences": {}
}