{
  "_format": "hh-sol-artifact-1",
  "contractName": "StrategyManager",
  "sourceName": "contracts/StrategyManager.sol",
  "abi": [
    {
      "inputs": [
        {
          "internalType": "address",
          "name": "_stakingContract",
          "type": "address"
        }
      ],
      "stateMutability": "nonpayable",
      "type": "constructor"
    },
    {
      "inputs": [
        {
          "internalType": "address",
          "name": "owner",
          "type": "address"
        }
      ],
      "name": "OwnableInvalidOwner",
      "type": "error"
    },
    {
      "inputs": [
        {
          "internalType": "address",
          "name": "account",
          "type": "address"
        }
      ],
      "name": "OwnableUnauthorizedAccount",
      "type": "error"
    },
    {
      "anonymous": false,
      "inputs": [
        {
          "indexed": true,
          "internalType": "address",
          "name": "token",
          "type": "address"
        },
        {
          "indexed": true,
          "internalType": "address",
          "name": "strategy",
          "type": "address"
        },
        {
          "indexed": false,
          "internalType": "uint256",
          "name": "amount",
          "type": "uint256"
        }
      ],
      "name": "FundsAllocated",
      "type": "event"
    },
    {
      "anonymous": false,
      "inputs": [
        {
          "indexed": true,
          "internalType": "address",
          "name": "previousOwner",
          "type": "address"
        },
        {
          "indexed": true,
          "internalType": "address",
          "name": "newOwner",
          "type": "address"
        }
      ],
      "name": "OwnershipTransferred",
      "type": "event"
    },
    {
      "anonymous": false,
      "inputs": [
        {
          "indexed": true,
          "internalType": "address",
          "name": "strategy",
          "type": "address"
        },
        {
          "indexed": false,
          "internalType": "string",
          "name": "name",
          "type": "string"
        }
      ],
      "name": "StrategyAdded",
      "type": "event"
    },
    {
      "anonymous": false,
      "inputs": [
        {
          "indexed": true,
          "internalType": "address",
          "name": "strategy",
          "type": "address"
        }
      ],
      "name": "StrategyDisabled",
      "type": "event"
    },
    {
      "anonymous": false,
      "inputs": [
        {
          "indexed": true,
          "internalType": "address",
          "name": "strategy",
          "type": "address"
        }
      ],
      "name": "StrategyEnabled",
      "type": "event"
    },
    {
      "anonymous": false,
      "inputs": [
        {
          "indexed": true,
          "internalType": "address",
          "name": "strategy",
          "type": "address"
        }
      ],
      "name": "StrategyRemoved",
      "type": "event"
    },
    {
      "anonymous": false,
      "inputs": [
        {
          "indexed": true,
          "internalType": "address",
          "name": "token",
          "type": "address"
        }
      ],
      "name": "TokenDisabled",
      "type": "event"
    },
    {
      "anonymous": false,
      "inputs": [
        {
          "indexed": true,
          "internalType": "address",
          "name": "token",
          "type": "address"
        }
      ],
      "name": "TokenEnabled",
      "type": "event"
    },
    {
      "inputs": [
        {
          "internalType": "address",
          "name": "_strategy",
          "type": "address"
        },
        {
          "internalType": "string",
          "name": "_name",
          "type": "string"
        }
      ],
      "name": "addStrategy",
      "outputs": [],
      "stateMutability": "nonpayable",
      "type": "function"
    },
    {
      "inputs": [
        {
          "internalType": "address",
          "name": "_token",
          "type": "address"
        },
        {
          "internalType": "address",
          "name": "_strategy",
          "type": "address"
        },
        {
          "internalType": "uint256",
          "name": "_amount",
          "type": "uint256"
        }
      ],
      "name": "allocateToStrategy",
      "outputs": [],
      "stateMutability": "nonpayable",
      "type": "function"
    },
    {
      "inputs": [
        {
          "internalType": "address",
          "name": "_strategy",
          "type": "address"
        }
      ],
      "name": "disableStrategy",
      "outputs": [],
      "stateMutability": "nonpayable",
      "type": "function"
    },
    {
      "inputs": [
        {
          "internalType": "address",
          "name": "_token",
          "type": "address"
        }
      ],
      "name": "disableToken",
      "outputs": [],
      "stateMutability": "nonpayable",
      "type": "function"
    },
    {
      "inputs": [
        {
          "internalType": "address",
          "name": "_strategy",
          "type": "address"
        }
      ],
      "name": "enableStrategy",
      "outputs": [],
      "stateMutability": "nonpayable",
      "type": "function"
    },
    {
      "inputs": [
        {
          "internalType": "address",
          "name": "_token",
          "type": "address"
        }
      ],
      "name": "enableToken",
      "outputs": [],
      "stateMutability": "nonpayable",
      "type": "function"
    },
    {
      "inputs": [],
      "name": "getActiveStrategies",
      "outputs": [
        {
          "internalType": "address[]",
          "name": "",
          "type": "address[]"
        }
      ],
      "stateMutability": "view",
      "type": "function"
    },
    {
      "inputs": [],
      "name": "getAllStrategies",
      "outputs": [
        {
          "internalType": "address[]",
          "name": "",
          "type": "address[]"
        }
      ],
      "stateMutability": "view",
      "type": "function"
    },
    {
      "inputs": [
        {
          "internalType": "address",
          "name": "",
          "type": "address"
        }
      ],
      "name": "isStrategyActive",
      "outputs": [
        {
          "internalType": "bool",
          "name": "",
          "type": "bool"
        }
      ],
      "stateMutability": "view",
      "type": "function"
    },
    {
      "inputs": [
        {
          "internalType": "address",
          "name": "_strategy",
          "type": "address"
        }
      ],
      "name": "isStrategyRegistered",
      "outputs": [
        {
          "internalType": "bool",
          "name": "",
          "type": "bool"
        }
      ],
      "stateMutability": "view",
      "type": "function"
    },
    {
      "inputs": [],
      "name": "owner",
      "outputs": [
        {
          "internalType": "address",
          "name": "",
          "type": "address"
        }
      ],
      "stateMutability": "view",
      "type": "function"
    },
    {
      "inputs": [],
      "name": "renounceOwnership",
      "outputs": [],
      "stateMutability": "nonpayable",
      "type": "function"
    },
    {
      "inputs": [],
      "name": "stakingContract",
      "outputs": [
        {
          "internalType": "contract ICryptoVaultStaking",
          "name": "",
          "type": "address"
        }
      ],
      "stateMutability": "view",
      "type": "function"
    },
    {
      "inputs": [
        {
          "internalType": "uint256",
          "name": "",
          "type": "uint256"
        }
      ],
      "name": "strategies",
      "outputs": [
        {
          "internalType": "address",
          "name": "",
          "type": "address"
        }
      ],
      "stateMutability": "view",
      "type": "function"
    },
    {
      "inputs": [
        {
          "internalType": "address",
          "name": "",
          "type": "address"
        }
      ],
      "name": "strategyNames",
      "outputs": [
        {
          "internalType": "string",
          "name": "",
          "type": "string"
        }
      ],
      "stateMutability": "view",
      "type": "function"
    },
    {
      "inputs": [
        {
          "internalType": "address",
          "name": "",
          "type": "address"
        }
      ],
      "name": "supportedTokens",
      "outputs": [
        {
          "internalType": "bool",
          "name": "",
          "type": "bool"
        }
      ],
      "stateMutability": "view",
      "type": "function"
    },
    {
      "inputs": [
        {
          "internalType": "address",
          "name": "newOwner",
          "type": "address"
        }
      ],
      "name": "transferOwnership",
      "outputs": [],
      "stateMutability": "nonpayable",
      "type": "function"
    }
  ],
  "bytecode": "0x608060405234801561001057600080fd5b5060405161111838038061111883398101604081905261002f916100d4565b338061005557604051631e4fbdf760e01b81526000600482015260240160405180910390fd5b61005e81610084565b50600180546001600160a01b0319166001600160a01b0392909216919091179055610104565b600080546001600160a01b038381166001600160a01b0319831681178455604051919092169283917f8be0079c531659141344cd1fd0a4f28419497f9722a3daafe3b4186f6b6457e09190a35050565b6000602082840312156100e657600080fd5b81516001600160a01b03811681146100fd57600080fd5b9392505050565b611005806101136000396000f3fe608060405234801561001057600080fd5b506004361061010b5760003560e01c806398425ee1116100a2578063d574ea3d11610071578063d574ea3d14610236578063e513032214610249578063ed2046071461025c578063ee99205c1461026f578063f2fde38b1461028257600080fd5b806398425ee1146101e8578063ac3fea33146101fb578063c3b288641461021b578063c690908a1461022357600080fd5b806368c4ac26116100de57806368c4ac2614610185578063715018a6146101a85780637cb9b544146101b05780638da5cb5b146101c357600080fd5b806323e27a64146101105780633742fcc91461012557806351764a7214610138578063587436e414610170575b600080fd5b61012361011e366004610c15565b610295565b005b610123610133366004610c15565b6102e6565b61015b610146366004610c15565b60036020526000908152604090205460ff1681565b60405190151581526020015b60405180910390f35b610178610368565b6040516101679190610c37565b61015b610193366004610c15565b60056020526000908152604090205460ff1681565b6101236104fa565b6101236101be366004610c84565b61050e565b6000546001600160a01b03165b6040516001600160a01b039091168152602001610167565b6101236101f6366004610c15565b610682565b61020e610209366004610c15565b6106f8565b6040516101679190610d07565b610178610792565b610123610231366004610c15565b6107f4565b6101d0610244366004610d55565b610896565b610123610257366004610d6e565b6108c0565b61015b61026a366004610c15565b610ad5565b6001546101d0906001600160a01b031681565b610123610290366004610c15565b610b3e565b61029d610b7c565b6001600160a01b038116600081815260056020526040808220805460ff19169055517f1fac2d788f45089e4f2b9e3484b1163143fdeab5eb480ab9a44b459d2dc476a29190a250565b6102ee610b7c565b6102f781610ad5565b61031c5760405162461bcd60e51b815260040161031390610daa565b60405180910390fd5b6001600160a01b038116600081815260036020526040808220805460ff19166001179055517fa6434bc2d6b34a56c06d20a8631c14f0e7204ed0664719aa112bf7db556c06ab9190a250565b60606000805b6002548110156103dc57600360006002838154811061038f5761038f610de1565b60009182526020808320909101546001600160a01b0316835282019290925260400190205460ff16156103ca57816103c681610df7565b9250505b806103d481610df7565b91505061036e565b5060008167ffffffffffffffff8111156103f8576103f8610e1e565b604051908082528060200260200182016040528015610421578160200160208202803683370190505b5090506000805b6002548110156104f157600360006002838154811061044957610449610de1565b60009182526020808320909101546001600160a01b0316835282019290925260400190205460ff16156104df576002818154811061048957610489610de1565b9060005260206000200160009054906101000a90046001600160a01b03168383815181106104b9576104b9610de1565b6001600160a01b0390921660209283029190910190910152816104db81610df7565b9250505b806104e981610df7565b915050610428565b50909392505050565b610502610b7c565b61050c6000610ba9565b565b610516610b7c565b6001600160a01b03831661056c5760405162461bcd60e51b815260206004820152601860248201527f496e76616c6964207374726174656779206164647265737300000000000000006044820152606401610313565b61057583610ad5565b156105c25760405162461bcd60e51b815260206004820152601b60248201527f537472617465677920616c7265616479207265676973746572656400000000006044820152606401610313565b6002805460018082019092557f405787fa12a823e0f2b7631cc41b3ba8828b3321ca811111fa75cd3aa3bb5ace0180546001600160a01b0319166001600160a01b0386169081179091556000908152600360209081526040808320805460ff19169094179093556004905220610639828483610ebd565b50826001600160a01b03167f79c1ca63c93011d0669968c3c0de2257452f472458d0c67b24b35ec94019f1eb8383604051610675929190610f7e565b60405180910390a2505050565b61068a610b7c565b61069381610ad5565b6106af5760405162461bcd60e51b815260040161031390610daa565b6001600160a01b038116600081815260036020526040808220805460ff19169055517f23d1e43aa530f63e967ef5fb407e8e66bfbbdf41f853a173a9d3587c7bed4e459190a250565b6004602052600090815260409020805461071190610e34565b80601f016020809104026020016040519081016040528092919081815260200182805461073d90610e34565b801561078a5780601f1061075f5761010080835404028352916020019161078a565b820191906000526020600020905b81548152906001019060200180831161076d57829003601f168201915b505050505081565b606060028054806020026020016040519081016040528092919081815260200182805480156107ea57602002820191906000526020600020905b81546001600160a01b031681526001909101906020018083116107cc575b5050505050905090565b6107fc610b7c565b6001600160a01b03811661084a5760405162461bcd60e51b8152602060048201526015602482015274496e76616c696420746f6b656e206164647265737360581b6044820152606401610313565b6001600160a01b038116600081815260056020526040808220805460ff19166001179055517fcae1c3a344f1ceafa83fd28022c2f57a3f99b00ec7046784b2276e853118a0af9190a250565b600281815481106108a657600080fd5b6000918252602090912001546001600160a01b0316905081565b6108c8610b7c565b6001600160a01b03831660009081526005602052604090205460ff166109265760405162461bcd60e51b8152602060048201526013602482015272151bdad95b881b9bdd081cdd5c1c1bdc9d1959606a1b6044820152606401610313565b61092f82610ad5565b61094b5760405162461bcd60e51b815260040161031390610daa565b6001600160a01b03821660009081526003602052604090205460ff166109a95760405162461bcd60e51b81526020600482015260136024820152725374726174656779206e6f742061637469766560681b6044820152606401610313565b60015460405163200ea24160e11b81526001600160a01b038581166004830152602482018490529091169063401d448290604401600060405180830381600087803b1580156109f757600080fd5b505af1158015610a0b573d6000803e3d6000fd5b505060405163095ea7b360e01b81526001600160a01b038581166004830152602482018590528616925063095ea7b391506044016020604051808303816000875af1158015610a5e573d6000803e3d6000fd5b505050506040513d601f19601f82011682018060405250810190610a829190610fad565b50816001600160a01b0316836001600160a01b03167f5aabe59a94326cbf612b52ddc5ffd665415ed13728203f670d72f07d6dd5db9483604051610ac891815260200190565b60405180910390a3505050565b6000805b600254811015610b3557826001600160a01b031660028281548110610b0057610b00610de1565b6000918252602090912001546001600160a01b031603610b235750600192915050565b80610b2d81610df7565b915050610ad9565b50600092915050565b610b46610b7c565b6001600160a01b038116610b7057604051631e4fbdf760e01b815260006004820152602401610313565b610b7981610ba9565b50565b6000546001600160a01b0316331461050c5760405163118cdaa760e01b8152336004820152602401610313565b600080546001600160a01b038381166001600160a01b0319831681178455604051919092169283917f8be0079c531659141344cd1fd0a4f28419497f9722a3daafe3b4186f6b6457e09190a35050565b80356001600160a01b0381168114610c1057600080fd5b919050565b600060208284031215610c2757600080fd5b610c3082610bf9565b9392505050565b6020808252825182820181905260009190848201906040850190845b81811015610c785783516001600160a01b031683529284019291840191600101610c53565b50909695505050505050565b600080600060408486031215610c9957600080fd5b610ca284610bf9565b9250602084013567ffffffffffffffff80821115610cbf57600080fd5b818601915086601f830112610cd357600080fd5b813581811115610ce257600080fd5b876020828501011115610cf457600080fd5b6020830194508093505050509250925092565b600060208083528351808285015260005b81811015610d3457858101830151858201604001528201610d18565b506000604082860101526040601f19601f8301168501019250505092915050565b600060208284031215610d6757600080fd5b5035919050565b600080600060608486031215610d8357600080fd5b610d8c84610bf9565b9250610d9a60208501610bf9565b9150604084013590509250925092565b60208082526017908201527f5374726174656779206e6f742072656769737465726564000000000000000000604082015260600190565b634e487b7160e01b600052603260045260246000fd5b600060018201610e1757634e487b7160e01b600052601160045260246000fd5b5060010190565b634e487b7160e01b600052604160045260246000fd5b600181811c90821680610e4857607f821691505b602082108103610e6857634e487b7160e01b600052602260045260246000fd5b50919050565b601f821115610eb857600081815260208120601f850160051c81016020861015610e955750805b601f850160051c820191505b81811015610eb457828155600101610ea1565b5050505b505050565b67ffffffffffffffff831115610ed557610ed5610e1e565b610ee983610ee38354610e34565b83610e6e565b6000601f841160018114610f1d5760008515610f055750838201355b600019600387901b1c1916600186901b178355610f77565b600083815260209020601f19861690835b82811015610f4e5786850135825560209485019460019092019101610f2e565b5086821015610f6b5760001960f88860031b161c19848701351681555b505060018560011b0183555b5050505050565b60208152816020820152818360408301376000818301604090810191909152601f909201601f19160101919050565b600060208284031215610fbf57600080fd5b81518015158114610c3057600080fdfea2646970667358221220be8382e9671e67d4d5e10cf2d8a8011d15cca734cf2c769e515ba8e4e74f1b0f64736f6c63430008140033",
  "linkReferences": {},
  "deployedLinkReferences": {}
}