{
  "_format": "hh-sol-artifact-1",
  "contractName": "CryptocaVaultNFT",
  "sourceName": "contracts/CryptocaVaultNFT.sol",
  "abi": [
    {
      "inputs": [
        {
          "internalType": "address",
          "name": "_usdcToken",
          "type": "address"
        }
      ],
      "stateMutability": "nonpayable",
      "type": "constructor"
    },
    {
      "anonymous": false,
      "inputs": [
        {
          "indexed": true,
          "internalType": "address",
          "name": "owner",
          "type": "address"
        },
        {
          "indexed": true,
          "internalType": "address",
          "name": "approved",
          "type": "address"
        },
        {
          "indexed": true,
          "internalType": "uint256",
          "name": "tokenId",
          "type": "uint256"
        }
      ],
      "name": "Approval",
      "type": "event"
    },
    {
      "anonymous": false,
      "inputs": [
        {
          "indexed": true,
          "internalType": "address",
          "name": "owner",
          "type": "address"
        },
        {
          "indexed": true,
          "internalType": "address",
          "name": "operator",
          "type": "address"
        },
        {
          "indexed": false,
          "internalType": "bool",
          "name": "approved",
          "type": "bool"
        }
      ],
      "name": "ApprovalForAll",
      "type": "event"
    },
    {
      "anonymous": false,
      "inputs": [
        {
          "indexed": false,
          "internalType": "uint256",
          "name": "_fromTokenId",
          "type": "uint256"
        },
        {
          "indexed": false,
          "internalType": "uint256",
          "name": "_toTokenId",
          "type": "uint256"
        }
      ],
      "name": "BatchMetadataUpdate",
      "type": "event"
    },
    {
      "anonymous": false,
      "inputs": [
        {
          "indexed": true,
          "internalType": "address",
          "name": "user",
          "type": "address"
        },
        {
          "indexed": false,
          "internalType": "bool",
          "name": "eligible",
          "type": "bool"
        }
      ],
      "name": "FidelityEligibilitySet",
      "type": "event"
    },
    {
      "anonymous": false,
      "inputs": [
        {
          "indexed": true,
          "internalType": "address",
          "name": "user",
          "type": "address"
        },
        {
          "indexed": true,
          "internalType": "uint256",
          "name": "tokenId",
          "type": "uint256"
        }
      ],
      "name": "FidelityNFTClaimed",
      "type": "event"
    },
    {
      "anonymous": false,
      "inputs": [
        {
          "indexed": false,
          "internalType": "uint256",
          "name": "_tokenId",
          "type": "uint256"
        }
      ],
      "name": "MetadataUpdate",
      "type": "event"
    },
    {
      "anonymous": false,
      "inputs": [
        {
          "indexed": true,
          "internalType": "address",
          "name": "buyer",
          "type": "address"
        },
        {
          "indexed": true,
          "internalType": "uint256",
          "name": "tokenId",
          "type": "uint256"
        },
        {
          "indexed": false,
          "internalType": "uint256",
          "name": "tier",
          "type": "uint256"
        },
        {
          "indexed": false,
          "internalType": "uint256",
          "name": "price",
          "type": "uint256"
        }
      ],
      "name": "NFTPurchased",
      "type": "event"
    },
    {
      "anonymous": false,
      "inputs": [
        {
          "indexed": true,
          "internalType": "address",
          "name": "previousOwner",
          "type": "address"
        },
        {
          "indexed": true,
          "internalType": "address",
          "name": "newOwner",
          "type": "address"
        }
      ],
      "name": "OwnershipTransferred",
      "type": "event"
    },
    {
      "anonymous": false,
      "inputs": [
        {
          "indexed": true,
          "internalType": "uint256",
          "name": "tier",
          "type": "uint256"
        },
        {
          "indexed": false,
          "internalType": "uint256",
          "name": "amount",
          "type": "uint256"
        },
        {
          "indexed": false,
          "internalType": "address",
          "name": "treasury",
          "type": "address"
        }
      ],
      "name": "RevenueGenerated",
      "type": "event"
    },
    {
      "anonymous": false,
      "inputs": [
        {
          "indexed": true,
          "internalType": "address",
          "name": "to",
          "type": "address"
        },
        {
          "indexed": true,
          "internalType": "uint256",
          "name": "tokenId",
          "type": "uint256"
        },
        {
          "indexed": false,
          "internalType": "uint256",
          "name": "tier",
          "type": "uint256"
        },
        {
          "indexed": false,
          "internalType": "string",
          "name": "reason",
          "type": "string"
        }
      ],
      "name": "SpecialNFTMinted",
      "type": "event"
    },
    {
      "anonymous": false,
      "inputs": [
        {
          "indexed": true,
          "internalType": "uint256",
          "name": "tier",
          "type": "uint256"
        },
        {
          "indexed": false,
          "internalType": "string",
          "name": "name",
          "type": "string"
        },
        {
          "indexed": false,
          "internalType": "uint256",
          "name": "price",
          "type": "uint256"
        },
        {
          "indexed": false,
          "internalType": "uint256",
          "name": "supply",
          "type": "uint256"
        }
      ],
      "name": "TierCreated",
      "type": "event"
    },
    {
      "anonymous": false,
      "inputs": [
        {
          "indexed": true,
          "internalType": "uint256",
          "name": "tier",
          "type": "uint256"
        },
        {
          "indexed": false,
          "internalType": "uint256",
          "name": "price",
          "type": "uint256"
        },
        {
          "indexed": false,
          "internalType": "uint256",
          "name": "supply",
          "type": "uint256"
        }
      ],
      "name": "TierUpdated",
      "type": "event"
    },
    {
      "anonymous": false,
      "inputs": [
        {
          "indexed": true,
          "internalType": "address",
          "name": "from",
          "type": "address"
        },
        {
          "indexed": true,
          "internalType": "address",
          "name": "to",
          "type": "address"
        },
        {
          "indexed": true,
          "internalType": "uint256",
          "name": "tokenId",
          "type": "uint256"
        }
      ],
      "name": "Transfer",
      "type": "event"
    },
    {
      "anonymous": false,
      "inputs": [
        {
          "indexed": false,
          "internalType": "address",
          "name": "oldTreasury",
          "type": "address"
        },
        {
          "indexed": false,
          "internalType": "address",
          "name": "newTreasury",
          "type": "address"
        }
      ],
      "name": "TreasuryUpdated",
      "type": "event"
    },
    {
      "inputs": [],
      "name": "TREASURY_WALLET",
      "outputs": [
        {
          "internalType": "address",
          "name": "",
          "type": "address"
        }
      ],
      "stateMutability": "view",
      "type": "function"
    },
    {
      "inputs": [
        {
          "internalType": "uint256",
          "name": "",
          "type": "uint256"
        }
      ],
      "name": "activeTiers",
      "outputs": [
        {
          "internalType": "uint256",
          "name": "",
          "type": "uint256"
        }
      ],
      "stateMutability": "view",
      "type": "function"
    },
    {
      "inputs": [
        {
          "internalType": "uint256",
          "name": "tier",
          "type": "uint256"
        },
        {
          "internalType": "string[]",
          "name": "newPlans",
          "type": "string[]"
        }
      ],
      "name": "addAccessPlansToTier",
      "outputs": [],
      "stateMutability": "nonpayable",
      "type": "function"
    },
    {
      "inputs": [
        {
          "internalType": "address",
          "name": "to",
          "type": "address"
        },
        {
          "internalType": "uint256",
          "name": "tokenId",
          "type": "uint256"
        }
      ],
      "name": "approve",
      "outputs": [],
      "stateMutability": "nonpayable",
      "type": "function"
    },
    {
      "inputs": [],
      "name": "backupTreasuryWallet",
      "outputs": [
        {
          "internalType": "address",
          "name": "",
          "type": "address"
        }
      ],
      "stateMutability": "view",
      "type": "function"
    },
    {
      "inputs": [
        {
          "internalType": "address",
          "name": "owner",
          "type": "address"
        }
      ],
      "name": "balanceOf",
      "outputs": [
        {
          "internalType": "uint256",
          "name": "",
          "type": "uint256"
        }
      ],
      "stateMutability": "view",
      "type": "function"
    },
    {
      "inputs": [
        {
          "internalType": "address",
          "name": "user",
          "type": "address"
        }
      ],
      "name": "checkFidelityEligibility",
      "outputs": [
        {
          "internalType": "bool",
          "name": "eligible",
          "type": "bool"
        },
        {
          "internalType": "bool",
          "name": "alreadyClaimed",
          "type": "bool"
        },
        {
          "internalType": "bool",
          "name": "tierActive",
          "type": "bool"
        },
        {
          "internalType": "uint256",
          "name": "remaining",
          "type": "uint256"
        }
      ],
      "stateMutability": "view",
      "type": "function"
    },
    {
      "inputs": [
        {
          "internalType": "address",
          "name": "fidelUser",
          "type": "address"
        }
      ],
      "name": "claimFidelityNFT",
      "outputs": [],
      "stateMutability": "nonpayable",
      "type": "function"
    },
    {
      "inputs": [],
      "name": "claimMyFidelityNFT",
      "outputs": [],
      "stateMutability": "nonpayable",
      "type": "function"
    },
    {
      "inputs": [
        {
          "internalType": "string",
          "name": "name",
          "type": "string"
        },
        {
          "internalType": "string",
          "name": "description",
          "type": "string"
        },
        {
          "internalType": "uint256",
          "name": "supply",
          "type": "uint256"
        },
        {
          "internalType": "uint256",
          "name": "multiplier",
          "type": "uint256"
        },
        {
          "internalType": "string",
          "name": "baseURI",
          "type": "string"
        },
        {
          "internalType": "string[]",
          "name": "accessPlans",
          "type": "string[]"
        }
      ],
      "name": "createEventNFT",
      "outputs": [
        {
          "internalType": "uint256",
          "name": "",
          "type": "uint256"
        }
      ],
      "stateMutability": "nonpayable",
      "type": "function"
    },
    {
      "inputs": [
        {
          "internalType": "string",
          "name": "name",
          "type": "string"
        },
        {
          "internalType": "string",
          "name": "description",
          "type": "string"
        },
        {
          "internalType": "uint256",
          "name": "price",
          "type": "uint256"
        },
        {
          "internalType": "uint256",
          "name": "supply",
          "type": "uint256"
        },
        {
          "internalType": "uint256",
          "name": "multiplier",
          "type": "uint256"
        },
        {
          "internalType": "string",
          "name": "baseURI",
          "type": "string"
        },
        {
          "internalType": "string[]",
          "name": "accessPlans",
          "type": "string[]"
        },
        {
          "internalType": "bool",
          "name": "isSpecial",
          "type": "bool"
        }
      ],
      "name": "createNewTier",
      "outputs": [
        {
          "internalType": "uint256",
          "name": "",
          "type": "uint256"
        }
      ],
      "stateMutability": "nonpayable",
      "type": "function"
    },
    {
      "inputs": [
        {
          "internalType": "string",
          "name": "partnerName",
          "type": "string"
        },
        {
          "internalType": "string",
          "name": "description",
          "type": "string"
        },
        {
          "internalType": "uint256",
          "name": "price",
          "type": "uint256"
        },
        {
          "internalType": "uint256",
          "name": "supply",
          "type": "uint256"
        },
        {
          "internalType": "uint256",
          "name": "multiplier",
          "type": "uint256"
        },
        {
          "internalType": "string",
          "name": "baseURI",
          "type": "string"
        },
        {
          "internalType": "string[]",
          "name": "accessPlans",
          "type": "string[]"
        }
      ],
      "name": "createPartnershipNFT",
      "outputs": [
        {
          "internalType": "uint256",
          "name": "",
          "type": "uint256"
        }
      ],
      "stateMutability": "nonpayable",
      "type": "function"
    },
    {
      "inputs": [
        {
          "internalType": "address",
          "name": "token",
          "type": "address"
        },
        {
          "internalType": "uint256",
          "name": "amount",
          "type": "uint256"
        }
      ],
      "name": "emergencyWithdraw",
      "outputs": [],
      "stateMutability": "nonpayable",
      "type": "function"
    },
    {
      "inputs": [
        {
          "internalType": "address",
          "name": "",
          "type": "address"
        }
      ],
      "name": "fidelityEligible",
      "outputs": [
        {
          "internalType": "bool",
          "name": "",
          "type": "bool"
        }
      ],
      "stateMutability": "view",
      "type": "function"
    },
    {
      "inputs": [],
      "name": "getAllActiveTiers",
      "outputs": [
        {
          "internalType": "uint256[]",
          "name": "",
          "type": "uint256[]"
        }
      ],
      "stateMutability": "view",
      "type": "function"
    },
    {
      "inputs": [
        {
          "internalType": "uint256",
          "name": "tokenId",
          "type": "uint256"
        }
      ],
      "name": "getApproved",
      "outputs": [
        {
          "internalType": "address",
          "name": "",
          "type": "address"
        }
      ],
      "stateMutability": "view",
      "type": "function"
    },
    {
      "inputs": [
        {
          "internalType": "uint256",
          "name": "tier",
          "type": "uint256"
        }
      ],
      "name": "getRemainingSupply",
      "outputs": [
        {
          "internalType": "uint256",
          "name": "",
          "type": "uint256"
        }
      ],
      "stateMutability": "view",
      "type": "function"
    },
    {
      "inputs": [],
      "name": "getRevenueStats",
      "outputs": [
        {
          "internalType": "uint256",
          "name": "totalRev",
          "type": "uint256"
        },
        {
          "internalType": "uint256[]",
          "name": "tierIds",
          "type": "uint256[]"
        },
        {
          "internalType": "uint256[]",
          "name": "tierRevenues",
          "type": "uint256[]"
        }
      ],
      "stateMutability": "view",
      "type": "function"
    },
    {
      "inputs": [],
      "name": "getSpecialTiers",
      "outputs": [
        {
          "internalType": "uint256[]",
          "name": "",
          "type": "uint256[]"
        }
      ],
      "stateMutability": "view",
      "type": "function"
    },
    {
      "inputs": [
        {
          "internalType": "uint256",
          "name": "tier",
          "type": "uint256"
        }
      ],
      "name": "getTierAccessPlans",
      "outputs": [
        {
          "internalType": "string[]",
          "name": "",
          "type": "string[]"
        }
      ],
      "stateMutability": "view",
      "type": "function"
    },
    {
      "inputs": [
        {
          "internalType": "uint256",
          "name": "tier",
          "type": "uint256"
        }
      ],
      "name": "getTierInfo",
      "outputs": [
        {
          "components": [
            {
              "internalType": "uint256",
              "name": "price",
              "type": "uint256"
            },
            {
              "internalType": "uint256",
              "name": "supply",
              "type": "uint256"
            },
            {
              "internalType": "uint256",
              "name": "minted",
              "type": "uint256"
            },
            {
              "internalType": "string",
              "name": "baseURI",
              "type": "string"
            },
            {
              "internalType": "bool",
              "name": "active",
              "type": "bool"
            },
            {
              "internalType": "string",
              "name": "name",
              "type": "string"
            },
            {
              "internalType": "string",
              "name": "description",
              "type": "string"
            },
            {
              "internalType": "uint256",
              "name": "multiplier",
              "type": "uint256"
            },
            {
              "internalType": "string[]",
              "name": "accessPlans",
              "type": "string[]"
            },
            {
              "internalType": "uint256",
              "name": "createdAt",
              "type": "uint256"
            }
          ],
          "internalType": "struct CryptocaVaultNFT.NFTTier",
          "name": "",
          "type": "tuple"
        }
      ],
      "stateMutability": "view",
      "type": "function"
    },
    {
      "inputs": [],
      "name": "getTreasuryInfo",
      "outputs": [
        {
          "internalType": "address",
          "name": "primaryTreasury",
          "type": "address"
        },
        {
          "internalType": "address",
          "name": "backupTreasury",
          "type": "address"
        },
        {
          "internalType": "uint256",
          "name": "totalGenerated",
          "type": "uint256"
        }
      ],
      "stateMutability": "view",
      "type": "function"
    },
    {
      "inputs": [
        {
          "internalType": "address",
          "name": "user",
          "type": "address"
        }
      ],
      "name": "getUserHighestTier",
      "outputs": [
        {
          "internalType": "uint256",
          "name": "",
          "type": "uint256"
        }
      ],
      "stateMutability": "view",
      "type": "function"
    },
    {
      "inputs": [
        {
          "internalType": "address",
          "name": "user",
          "type": "address"
        }
      ],
      "name": "getUserMultiplier",
      "outputs": [
        {
          "internalType": "uint256",
          "name": "",
          "type": "uint256"
        }
      ],
      "stateMutability": "view",
      "type": "function"
    },
    {
      "inputs": [
        {
          "internalType": "address",
          "name": "owner",
          "type": "address"
        },
        {
          "internalType": "address",
          "name": "operator",
          "type": "address"
        }
      ],
      "name": "isApprovedForAll",
      "outputs": [
        {
          "internalType": "bool",
          "name": "",
          "type": "bool"
        }
      ],
      "stateMutability": "view",
      "type": "function"
    },
    {
      "inputs": [
        {
          "internalType": "uint256",
          "name": "",
          "type": "uint256"
        }
      ],
      "name": "isSpecialTier",
      "outputs": [
        {
          "internalType": "bool",
          "name": "",
          "type": "bool"
        }
      ],
      "stateMutability": "view",
      "type": "function"
    },
    {
      "inputs": [
        {
          "internalType": "address",
          "name": "to",
          "type": "address"
        },
        {
          "internalType": "uint256",
          "name": "tier",
          "type": "uint256"
        },
        {
          "internalType": "string",
          "name": "reason",
          "type": "string"
        }
      ],
      "name": "mintSpecialNFT",
      "outputs": [],
      "stateMutability": "nonpayable",
      "type": "function"
    },
    {
      "inputs": [],
      "name": "name",
      "outputs": [
        {
          "internalType": "string",
          "name": "",
          "type": "string"
        }
      ],
      "stateMutability": "view",
      "type": "function"
    },
    {
      "inputs": [],
      "name": "nextTierId",
      "outputs": [
        {
          "internalType": "uint256",
          "name": "",
          "type": "uint256"
        }
      ],
      "stateMutability": "view",
      "type": "function"
    },
    {
      "inputs": [
        {
          "internalType": "uint256",
          "name": "",
          "type": "uint256"
        }
      ],
      "name": "nftTiers",
      "outputs": [
        {
          "internalType": "uint256",
          "name": "price",
          "type": "uint256"
        },
        {
          "internalType": "uint256",
          "name": "supply",
          "type": "uint256"
        },
        {
          "internalType": "uint256",
          "name": "minted",
          "type": "uint256"
        },
        {
          "internalType": "string",
          "name": "baseURI",
          "type": "string"
        },
        {
          "internalType": "bool",
          "name": "active",
          "type": "bool"
        },
        {
          "internalType": "string",
          "name": "name",
          "type": "string"
        },
        {
          "internalType": "string",
          "name": "description",
          "type": "string"
        },
        {
          "internalType": "uint256",
          "name": "multiplier",
          "type": "uint256"
        },
        {
          "internalType": "uint256",
          "name": "createdAt",
          "type": "uint256"
        }
      ],
      "stateMutability": "view",
      "type": "function"
    },
    {
      "inputs": [
        {
          "internalType": "uint256",
          "name": "",
          "type": "uint256"
        }
      ],
      "name": "nftToTier",
      "outputs": [
        {
          "internalType": "uint256",
          "name": "",
          "type": "uint256"
        }
      ],
      "stateMutability": "view",
      "type": "function"
    },
    {
      "inputs": [],
      "name": "owner",
      "outputs": [
        {
          "internalType": "address",
          "name": "",
          "type": "address"
        }
      ],
      "stateMutability": "view",
      "type": "function"
    },
    {
      "inputs": [
        {
          "internalType": "address",
          "name": "",
          "type": "address"
        },
        {
          "internalType": "uint256",
          "name": "",
          "type": "uint256"
        }
      ],
      "name": "ownerHasTier",
      "outputs": [
        {
          "internalType": "bool",
          "name": "",
          "type": "bool"
        }
      ],
      "stateMutability": "view",
      "type": "function"
    },
    {
      "inputs": [
        {
          "internalType": "uint256",
          "name": "tokenId",
          "type": "uint256"
        }
      ],
      "name": "ownerOf",
      "outputs": [
        {
          "internalType": "address",
          "name": "",
          "type": "address"
        }
      ],
      "stateMutability": "view",
      "type": "function"
    },
    {
      "inputs": [
        {
          "internalType": "uint256",
          "name": "tier",
          "type": "uint256"
        }
      ],
      "name": "pauseTier",
      "outputs": [],
      "stateMutability": "nonpayable",
      "type": "function"
    },
    {
      "inputs": [
        {
          "internalType": "uint256",
          "name": "tier",
          "type": "uint256"
        }
      ],
      "name": "purchaseNFT",
      "outputs": [],
      "stateMutability": "nonpayable",
      "type": "function"
    },
    {
      "inputs": [],
      "name": "renounceOwnership",
      "outputs": [],
      "stateMutability": "nonpayable",
      "type": "function"
    },
    {
      "inputs": [
        {
          "internalType": "address",
          "name": "from",
          "type": "address"
        },
        {
          "internalType": "address",
          "name": "to",
          "type": "address"
        },
        {
          "internalType": "uint256",
          "name": "tokenId",
          "type": "uint256"
        }
      ],
      "name": "safeTransferFrom",
      "outputs": [],
      "stateMutability": "nonpayable",
      "type": "function"
    },
    {
      "inputs": [
        {
          "internalType": "address",
          "name": "from",
          "type": "address"
        },
        {
          "internalType": "address",
          "name": "to",
          "type": "address"
        },
        {
          "internalType": "uint256",
          "name": "tokenId",
          "type": "uint256"
        },
        {
          "internalType": "bytes",
          "name": "data",
          "type": "bytes"
        }
      ],
      "name": "safeTransferFrom",
      "outputs": [],
      "stateMutability": "nonpayable",
      "type": "function"
    },
    {
      "inputs": [
        {
          "internalType": "address",
          "name": "operator",
          "type": "address"
        },
        {
          "internalType": "bool",
          "name": "approved",
          "type": "bool"
        }
      ],
      "name": "setApprovalForAll",
      "outputs": [],
      "stateMutability": "nonpayable",
      "type": "function"
    },
    {
      "inputs": [
        {
          "internalType": "address",
          "name": "user",
          "type": "address"
        },
        {
          "internalType": "bool",
          "name": "eligible",
          "type": "bool"
        }
      ],
      "name": "setFidelityEligible",
      "outputs": [],
      "stateMutability": "nonpayable",
      "type": "function"
    },
    {
      "inputs": [
        {
          "internalType": "address[]",
          "name": "users",
          "type": "address[]"
        },
        {
          "internalType": "bool",
          "name": "eligible",
          "type": "bool"
        }
      ],
      "name": "setMultipleFidelityEligible",
      "outputs": [],
      "stateMutability": "nonpayable",
      "type": "function"
    },
    {
      "inputs": [
        {
          "internalType": "bytes4",
          "name": "interfaceId",
          "type": "bytes4"
        }
      ],
      "name": "supportsInterface",
      "outputs": [
        {
          "internalType": "bool",
          "name": "",
          "type": "bool"
        }
      ],
      "stateMutability": "view",
      "type": "function"
    },
    {
      "inputs": [],
      "name": "symbol",
      "outputs": [
        {
          "internalType": "string",
          "name": "",
          "type": "string"
        }
      ],
      "stateMutability": "view",
      "type": "function"
    },
    {
      "inputs": [
        {
          "internalType": "uint256",
          "name": "",
          "type": "uint256"
        }
      ],
      "name": "tierRevenue",
      "outputs": [
        {
          "internalType": "uint256",
          "name": "",
          "type": "uint256"
        }
      ],
      "stateMutability": "view",
      "type": "function"
    },
    {
      "inputs": [
        {
          "internalType": "address",
          "name": "owner",
          "type": "address"
        },
        {
          "internalType": "uint256",
          "name": "index",
          "type": "uint256"
        }
      ],
      "name": "tokenOfOwnerByIndex",
      "outputs": [
        {
          "internalType": "uint256",
          "name": "",
          "type": "uint256"
        }
      ],
      "stateMutability": "view",
      "type": "function"
    },
    {
      "inputs": [
        {
          "internalType": "uint256",
          "name": "tokenId",
          "type": "uint256"
        }
      ],
      "name": "tokenURI",
      "outputs": [
        {
          "internalType": "string",
          "name": "",
          "type": "string"
        }
      ],
      "stateMutability": "view",
      "type": "function"
    },
    {
      "inputs": [],
      "name": "totalRevenue",
      "outputs": [
        {
          "internalType": "uint256",
          "name": "",
          "type": "uint256"
        }
      ],
      "stateMutability": "view",
      "type": "function"
    },
    {
      "inputs": [
        {
          "internalType": "address",
          "name": "from",
          "type": "address"
        },
        {
          "internalType": "address",
          "name": "to",
          "type": "address"
        },
        {
          "internalType": "uint256",
          "name": "tokenId",
          "type": "uint256"
        }
      ],
      "name": "transferFrom",
      "outputs": [],
      "stateMutability": "nonpayable",
      "type": "function"
    },
    {
      "inputs": [
        {
          "internalType": "address",
          "name": "newOwner",
          "type": "address"
        }
      ],
      "name": "transferOwnership",
      "outputs": [],
      "stateMutability": "nonpayable",
      "type": "function"
    },
    {
      "inputs": [
        {
          "internalType": "uint256",
          "name": "tier",
          "type": "uint256"
        }
      ],
      "name": "unpauseTier",
      "outputs": [],
      "stateMutability": "nonpayable",
      "type": "function"
    },
    {
      "inputs": [
        {
          "internalType": "address",
          "name": "newBackupTreasury",
          "type": "address"
        }
      ],
      "name": "updateBackupTreasury",
      "outputs": [],
      "stateMutability": "nonpayable",
      "type": "function"
    },
    {
      "inputs": [
        {
          "internalType": "uint256",
          "name": "tier",
          "type": "uint256"
        },
        {
          "internalType": "uint256",
          "name": "newPrice",
          "type": "uint256"
        },
        {
          "internalType": "uint256",
          "name": "newSupply",
          "type": "uint256"
        },
        {
          "internalType": "bool",
          "name": "active",
          "type": "bool"
        }
      ],
      "name": "updateTier",
      "outputs": [],
      "stateMutability": "nonpayable",
      "type": "function"
    },
    {
      "inputs": [],
      "name": "usdcToken",
      "outputs": [
        {
          "internalType": "contract IERC20",
          "name": "",
          "type": "address"
        }
      ],
      "stateMutability": "view",
      "type": "function"
    }
  ],
  "bytecode": "0x60a060405260056013553480156200001657600080fd5b506040516200579d3803806200579d833981016040819052620000399162000ab2565b6040518060400160405280601881526020017f43727970746f63615661756c7420416363657373204e465400000000000000008152506040518060400160405280600581526020016410d593919560da1b81525081600090816200009e919062000b89565b506001620000ad828262000b89565b505050620000ca620000c46200011360201b60201c565b62000117565b60016008556001600160a01b038116608052601180546001600160a01b03191673e0b7bcb42aebb5be565cc81518a48d780f3c001c1790556200010c62000169565b5062000c6b565b3390565b600780546001600160a01b038381166001600160a01b0319831681179093556040519116919082907f8be0079c531659141344cd1fd0a4f28419497f9722a3daafe3b4186f6b6457e090600090a35050565b6200025c600160405180610140016040528068068155a43676e0000081526020016103e88152602001600081526020016040518060a0016040528060708152602001620056c26070913981526020016001151581526020016040518060400160405280600f81526020016e5661656c697468206465205365766560881b81525081526020016040518060600160405280602b815260200162005752602b913981526078602082015260400160015b6040519080825280602002602001820160405280156200024c57816020015b6060815260200190600190039081620002365790505b50815242602090910152620008ef565b6040518060400160405280600781526020016639ba30b93a32b960c91b8152506009600060018152602001908152602001600020600801600081548110620002a857620002a862000c55565b906000526020600020019081620002c0919062000b89565b506200038d6002604051806101400160405280680d8d726b7177a8000081526020016101f48152602001600081526020016040518060a0016040528060708152602001620056c26070913981526001602080830191909152604080518082018252601181527053796c77656e20646573204272756d657360781b81840152818401528051808201909152601b81527f4163636573206574656e6475206176656320626f6e75732035302500000000009181019190915260608201526096608082015260a001600262000217565b6040518060400160405280600781526020016639ba30b93a32b960c91b8152506009600060028152602001908152602001600020600801600081548110620003d957620003d962000c55565b906000526020600020019081620003f1919062000b89565b506040805180820190915260088152671cdd185b99185c9960c21b6020808301919091526002600052600990527f6cde3cea4b3a3fb2488b2808bae7556f4a405e50f65e1794383bc026131b13cb8054600190811062000455576200045562000c55565b9060005260206000200190816200046d919062000b89565b50620005386003604051806101400160405280681b1ae4d6e2ef500000815260200160c88152602001600081526020016040518060a0016040528060708152602001620056c26070913981526001602080830191909152604080518082018252601081526f4e796d657269656c206465204c756e6560801b81840152818401528051808201909152601d81527f4163636573207072656d69756d206176656320626f6e7573203130302500000091810191909152606082015260c8608082015260a001600362000217565b6040518060400160405280600781526020016639ba30b93a32b960c91b815250600960006003815260200190815260200160002060080160008154811062000584576200058462000c55565b9060005260206000200190816200059c919062000b89565b506040805180820190915260088152671cdd185b99185c9960c21b6020808301919091526003600052600990526000805160206200577d83398151915280546001908110620005ef57620005ef62000c55565b90600052602060002001908162000607919062000b89565b506040805180820190915260078152667072656d69756d60c81b6020808301919091526003600052600990526000805160206200577d8339815191528054600290811062000659576200065962000c55565b90600052602060002001908162000671919062000b89565b50620007496004604051806101400160405280683635c9adc5dea00000815260200160328152602001600081526020016040518060a0016040528060708152602001620056c26070913981526001602080830191909152604080518082018252601481527f4661656c6f726961206c6120526164696575736500000000000000000000000081840152818401528051808201909152601e81527f4163636573206578636c75736966206176656320626f6e75732031353025000091810191909152606082015260fa608082015260a001600462000217565b6040518060400160405280600781526020016639ba30b93a32b960c91b815250600960006004815260200190815260200160002060080160008154811062000795576200079562000c55565b906000526020600020019081620007ad919062000b89565b506040805180820190915260088152671cdd185b99185c9960c21b602080830191909152600460005260099052600080516020620057328339815191528054600190811062000800576200080062000c55565b90600052602060002001908162000818919062000b89565b506040805180820190915260078152667072656d69756d60c81b60208083019190915260046000526009905260008051602062005732833981519152805460029081106200086a576200086a62000c55565b90600052602060002001908162000882919062000b89565b506040805180820190915260098082526870726976696c65676560b81b6020808401919091526004600052526000805160206200573283398151915280546003908110620008d457620008d462000c55565b906000526020600020019081620008ec919062000b89565b50565b600082815260096020908152604091829020835181559083015160018201559082015160028201556060820151829190600382019062000930908262000b89565b50608082015160048201805460ff191691151591909117905560a082015160058201906200095f908262000b89565b5060c0820151600682019062000976908262000b89565b5060e0820151600782015561010082015180516200099f916008840191602090910190620009e4565b50610120919091015160099091015550600a80546001810182556000919091527fc65a7bb8d6351c1cf70c95a316cc6a92839c986682d98bc35f958f4883f9d2a80155565b82805482825590600052602060002090810192821562000a2f579160200282015b8281111562000a2f578251829062000a1e908262000b89565b509160200191906001019062000a05565b5062000a3d92915062000a41565b5090565b8082111562000a3d57600062000a58828262000a62565b5060010162000a41565b50805462000a709062000afa565b6000825580601f1062000a81575050565b601f016020900490600052602060002090810190620008ec91905b8082111562000a3d576000815560010162000a9c565b60006020828403121562000ac557600080fd5b81516001600160a01b038116811462000add57600080fd5b9392505050565b634e487b7160e01b600052604160045260246000fd5b600181811c9082168062000b0f57607f821691505b60208210810362000b3057634e487b7160e01b600052602260045260246000fd5b50919050565b601f82111562000b8457600081815260208120601f850160051c8101602086101562000b5f5750805b601f850160051c820191505b8181101562000b805782815560010162000b6b565b5050505b505050565b81516001600160401b0381111562000ba55762000ba562000ae4565b62000bbd8162000bb6845462000afa565b8462000b36565b602080601f83116001811462000bf5576000841562000bdc5750858301515b600019600386901b1c1916600185901b17855562000b80565b600085815260208120601f198616915b8281101562000c265788860151825594840194600190910190840162000c05565b508582101562000c455787850151600019600388901b60f8161c191681555b5050505050600190811b01905550565b634e487b7160e01b600052603260045260246000fd5b608051614a2662000c9c600039600081816103f301528181610c1f01528181610cef0152610de90152614a266000f3fe608060405234801561001057600080fd5b50600436106103425760003560e01c806370bbcc48116101b8578063bf2d9e0b11610104578063e0ca0cd1116100a2578063ee93ba221161007c578063ee93ba2214610830578063f2fde38b14610838578063f49fcb1c1461084b578063f59323821461085357600080fd5b8063e0ca0cd1146107b3578063e79004f6146107c6578063e985e9c5146107f457600080fd5b8063c621f94c116100de578063c621f94c1461075a578063c87b56dd1461076d578063cc9d751914610780578063cf457321146107a057600080fd5b8063bf2d9e0b14610702578063c29394711461070b578063c5e22f3f1461074757600080fd5b806395ccea6711610171578063a22cb4651161014b578063a22cb465146106a2578063ac18992c146106b5578063b49829f6146106cc578063b88d4fde146106ef57600080fd5b806395ccea671461067457806395d89b41146106875780639ff522f01461068f57600080fd5b806370bbcc481461060f578063715018a61461062257806372a8d6231461062a5780637a65cdca1461063d5780638c858a14146106505780638da5cb5b1461066357600080fd5b80632afd42951161029257806342842e0e116102305780635daf31461161020a5780635daf3146146105bb5780636352211e146105d65780636a8d0c6b146105e957806370a08231146105fc57600080fd5b806342842e0e146105825780634752184d1461059557806358c3fa46146105a857600080fd5b80633b2e86571161026c5780633b2e8657146105045780633ea4a023146105245780633fe323481461053757806340241b691461055a57600080fd5b80632afd4295146104bc5780632e51bf76146104dc5780632f745c59146104f157600080fd5b806311eac855116102ff5780631d2572b6116102d95780631d2572b61461043b57806323b872dd1461047657806323bacf8a1461048957806327cd41c21461049c57600080fd5b806311eac855146103ee578063150bde03146104155780631bc806e31461042857600080fd5b806301ffc9a71461034757806304e2886b1461036f5780630594fd041461038457806306fdde031461039b578063081812fc146103b0578063095ea7b3146103db575b600080fd5b61035a610355366004613be4565b610866565b60405190151581526020015b60405180910390f35b61038261037d366004613c08565b610877565b005b61038d60135481565b604051908152602001610366565b6103a361089a565b6040516103669190613c71565b6103c36103be366004613c08565b61092c565b6040516001600160a01b039091168152602001610366565b6103826103e9366004613ca0565b610953565b6103c37f000000000000000000000000000000000000000000000000000000000000000081565b610382610423366004613c08565b610a6d565b610382610436366004613d87565b610f9c565b61044e610449366004613ddd565b6110f8565b6040805194151585529215156020850152901515918301919091526060820152608001610366565b610382610484366004613df8565b6111c0565b610382610497366004613e4d565b6111f1565b61038d6104aa366004613c08565b600b6020526000908152604090205481565b6104cf6104ca366004613c08565b611258565b6040516103669190613ed6565b6104e4611347565b6040516103669190613f24565b61038d6104ff366004613ca0565b6114a6565b61038d610512366004613c08565b60156020526000908152604090205481565b61038d610532366004613fe9565b611531565b61035a610545366004613c08565b600d6020526000908152604090205460ff1681565b61056d610568366004613c08565b6116f8565b604051610366999897969594939291906140c3565b610382610590366004613df8565b6118e2565b61038d6105a3366004614133565b6118fd565b61038d6105b6366004613c08565b611acc565b6103c373e0b7bcb42aebb5be565cc81518a48d780f3c001c81565b6103c36105e4366004613c08565b611aed565b6011546103c3906001600160a01b031681565b61038d61060a366004613ddd565b611b4d565b61038d61061d3660046141fc565b611bd3565b610382611d8f565b6103826106383660046142ba565b611da3565b61038d61064b366004613ddd565b611e7d565b61038d61065e366004613c08565b611f1c565b6007546001600160a01b03166103c3565b610382610682366004613ca0565b611f3f565b6103a361201b565b61038261069d366004614363565b61202a565b6103826106b0366004613e4d565b6120f3565b6106bd612102565b604051610366939291906143a9565b61035a6106da366004613ddd565b600e6020526000908152604090205460ff1681565b6103826106fd3660046143de565b61224b565b61038d60145481565b6011546014546040805173e0b7bcb42aebb5be565cc81518a48d780f3c001c81526001600160a01b039093166020840152820152606001610366565b61038d610755366004613ddd565b612283565b610382610768366004614459565b61231b565b6103a361077b366004613c08565b61243e565b61079361078e366004613c08565b6124e9565b604051610366919061449a565b6103826107ae366004613ddd565b61283b565b6103826107c1366004613c08565b6128ed565b61035a6107d4366004613ca0565b600c60209081526000928352604080842090915290825290205460ff1681565b61035a610802366004614568565b6001600160a01b03918216600090815260056020908152604080832093909416825291909152205460ff1690565b6104e4612913565b610382610846366004613ddd565b612a6f565b610382612ae5565b610382610861366004613ddd565b612cbb565b600061087182612e51565b92915050565b61087f612e76565b6000908152600960205260409020600401805460ff19169055565b6060600080546108a99061459b565b80601f01602080910402602001604051908101604052809291908181526020018280546108d59061459b565b80156109225780601f106108f757610100808354040283529160200191610922565b820191906000526020600020905b81548152906001019060200180831161090557829003601f168201915b5050505050905090565b600061093782612ed0565b506000908152600460205260409020546001600160a01b031690565b600061095e82611aed565b9050806001600160a01b0316836001600160a01b0316036109d05760405162461bcd60e51b815260206004820152602160248201527f4552433732313a20617070726f76616c20746f2063757272656e74206f776e656044820152603960f91b60648201526084015b60405180910390fd5b336001600160a01b03821614806109ec57506109ec8133610802565b610a5e5760405162461bcd60e51b815260206004820152603d60248201527f4552433732313a20617070726f76652063616c6c6572206973206e6f7420746f60448201527f6b656e206f776e6572206f7220617070726f76656420666f7220616c6c00000060648201526084016109c7565b610a688383612f2f565b505050565b610a75612f9d565b60008181526009602052604090206004015460ff16610ac75760405162461bcd60e51b815260206004820152600e60248201526d2a34b2b9103737b71030b1ba34b360911b60448201526064016109c7565b6000818152600960205260409020600181015460029091015410610b1e5760405162461bcd60e51b815260206004820152600e60248201526d537570706c79206570756973656560901b60448201526064016109c7565b600081815260096020526040902054610b795760405162461bcd60e51b815260206004820152601860248201527f5469657220696e76616c69646520706f7572206163686174000000000000000060448201526064016109c7565b6000818152600d602052604090205460ff1615610bd85760405162461bcd60e51b815260206004820152601a60248201527f54696572207370656369616c206e6f6e20616368657461626c6500000000000060448201526064016109c7565b60008181526009602052604081205490610bf764e8d4a51000836145eb565b604051636eb1769f60e11b815233600482015230602482015290915081906001600160a01b037f0000000000000000000000000000000000000000000000000000000000000000169063dd62ed3e90604401602060405180830381865afa158015610c66573d6000803e3d6000fd5b505050506040513d601f19601f82011682018060405250810190610c8a919061460d565b1015610cd85760405162461bcd60e51b815260206004820152601b60248201527f416c6c6f77616e6365205553444320696e737566666973616e7465000000000060448201526064016109c7565b6040516370a0823160e01b815233600482015281907f00000000000000000000000000000000000000000000000000000000000000006001600160a01b0316906370a0823190602401602060405180830381865afa158015610d3e573d6000803e3d6000fd5b505050506040513d601f19601f82011682018060405250810190610d62919061460d565b1015610db05760405162461bcd60e51b815260206004820152601960248201527f42616c616e6365205553444320696e737566666973616e74650000000000000060448201526064016109c7565b6040516323b872dd60e01b815233600482015273e0b7bcb42aebb5be565cc81518a48d780f3c001c6024820152604481018290526000907f00000000000000000000000000000000000000000000000000000000000000006001600160a01b0316906323b872dd906064016020604051808303816000875af1158015610e3a573d6000803e3d6000fd5b505050506040513d601f19601f82011682018060405250810190610e5e9190614626565b905080610eb95760405162461bcd60e51b815260206004820152602360248201527f5472616e736665727420555344432076657273207472656173757279206563686044820152626f756560e81b60648201526084016109c7565b8260146000828254610ecb9190614643565b909155505060008481526015602052604081208054859290610eee908490614643565b90915550610f00905033856000612ff6565b601254604080518681526020810186905233917f25d1144310b3f5e9cb8ad2e2bd379aef97847a57087ab9cbcd95a06105a4629c910160405180910390a36040805184815273e0b7bcb42aebb5be565cc81518a48d780f3c001c602082015285917f46bfe087193767d942e8352e78fdcc40911c5c3b332c01410b9864a6fa8a89ae910160405180910390a2505050610f996001600855565b50565b610fa4612e76565b60008281526009602052604090206004015460ff16610ff65760405162461bcd60e51b815260206004820152600e60248201526d2a34b2b9103737b71030b1ba34b360911b60448201526064016109c7565b6000828152600d602052604090205460ff1661104a5760405162461bcd60e51b815260206004820152601360248201527214185cc81d5b881d1a595c881cdc1958da585b606a1b60448201526064016109c7565b60008281526009602052604090206001810154600290910154106110a15760405162461bcd60e51b815260206004820152600e60248201526d537570706c79206570756973656560901b60448201526064016109c7565b6110ad83836001612ff6565b601254836001600160a01b03167fc7ece8dd4ef8de13da640ef8b2d8ad4cdf8e1fc865d3a7356d995ad714528a5c84846040516110eb929190614656565b60405180910390a3505050565b6001600160a01b0381166000908152600e6020908152604080832054600c835281842060058086529084529184205460099093527f74b05292d1d4b2b48b65261b07099d24244bcb069f138d9a6bfdcf776becac50547f74b05292d1d4b2b48b65261b07099d24244bcb069f138d9a6bfdcf776becac4e547f74b05292d1d4b2b48b65261b07099d24244bcb069f138d9a6bfdcf776becac4d54869586958695909460ff91821694928216939116916111b09161466f565b9450945094509450509193509193565b6111ca33826130bf565b6111e65760405162461bcd60e51b81526004016109c790614682565b610a6883838361313e565b6111f9612e76565b6001600160a01b0382166000818152600e6020908152604091829020805460ff191685151590811790915591519182527fb411a8b21a8114c276967c0fbdfa921c9d323c499c34022b1d150f60622d9622910160405180910390a25050565b606060096000838152602001908152602001600020600801805480602002602001604051908101604052809291908181526020016000905b8282101561133c5783829060005260206000200180546112af9061459b565b80601f01602080910402602001604051908101604052809291908181526020018280546112db9061459b565b80156113285780601f106112fd57610100808354040283529160200191611328565b820191906000526020600020905b81548152906001019060200180831161130b57829003601f168201915b505050505081526020019060010190611290565b505050509050919050565b60606000805b600a548110156113b257600d6000600a838154811061136e5761136e6146cf565b6000918252602080832090910154835282019290925260400190205460ff16156113a0578161139c816146e5565b9250505b806113aa816146e5565b91505061134d565b506000816001600160401b038111156113cd576113cd613cca565b6040519080825280602002602001820160405280156113f6578160200160208202803683370190505b5090506000805b600a5481101561149d57600d6000600a838154811061141e5761141e6146cf565b6000918252602080832090910154835282019290925260400190205460ff161561148b57600a8181548110611455576114556146cf565b9060005260206000200154838381518110611472576114726146cf565b602090810291909101015281611487816146e5565b9250505b80611495816146e5565b9150506113fd565b50909392505050565b60006114b183611b4d565b82106114f45760405162461bcd60e51b8152602060048201526012602482015271496e64657820686f7273206c696d6974657360701b60448201526064016109c7565b6001600160a01b0383166000908152600f6020526040902080548390811061151e5761151e6146cf565b9060005260206000200154905092915050565b600061153b612e76565b60138054908190600061154d836146e5565b9190505550604051806101400160405280898152602001888152602001600081526020018681526020016001151581526020018b81526020018a8152602001878152602001858152602001428152506009600083815260200190815260200160002060008201518160000155602082015181600101556040820151816002015560608201518160030190816115e2919061474c565b50608082015160048201805460ff191691151591909117905560a0820151600582019061160f908261474c565b5060c08201516006820190611624908261474c565b5060e08201516007820155610100820151805161164b916008840191602090910190613b11565b506101209190910151600990910155600a80546001810182556000919091527fc65a7bb8d6351c1cf70c95a316cc6a92839c986682d98bc35f958f4883f9d2a80181905582156116af576000818152600d60205260409020805460ff191660011790555b807f0655289c4d9d7c45c2b83b18a45e3ce05f40710e413db2117ee045e2ab12cab28b8a8a6040516116e39392919061480b565b60405180910390a29998505050505050505050565b6009602052600090815260409020805460018201546002830154600384018054939492939192916117289061459b565b80601f01602080910402602001604051908101604052809291908181526020018280546117549061459b565b80156117a15780601f10611776576101008083540402835291602001916117a1565b820191906000526020600020905b81548152906001019060200180831161178457829003601f168201915b5050506004840154600585018054949560ff9092169491935091506117c59061459b565b80601f01602080910402602001604051908101604052809291908181526020018280546117f19061459b565b801561183e5780601f106118135761010080835404028352916020019161183e565b820191906000526020600020905b81548152906001019060200180831161182157829003601f168201915b5050505050908060060180546118539061459b565b80601f016020809104026020016040519081016040528092919081815260200182805461187f9061459b565b80156118cc5780601f106118a1576101008083540402835291602001916118cc565b820191906000526020600020905b8154815290600101906020018083116118af57829003601f168201915b5050505050908060070154908060090154905089565b610a688383836040518060200160405280600081525061224b565b6000611907612e76565b60008860405160200161191a9190614830565b60408051601f19818403018152919052601380549192508190600061193e836146e5565b9190505550604051806101400160405280898152602001888152602001600081526020018681526020016001151581526020018381526020018a8152602001878152602001858152602001428152506009600083815260200190815260200160002060008201518160000155602082015181600101556040820151816002015560608201518160030190816119d3919061474c565b50608082015160048201805460ff191691151591909117905560a08201516005820190611a00908261474c565b5060c08201516006820190611a15908261474c565b5060e082015160078201556101008201518051611a3c916008840191602090910190613b11565b506101209190910151600990910155600a805460018181019092557fc65a7bb8d6351c1cf70c95a316cc6a92839c986682d98bc35f958f4883f9d2a8018290556000828152600d602052604090819020805460ff19169092179091555181907f0655289c4d9d7c45c2b83b18a45e3ce05f40710e413db2117ee045e2ab12cab2906116e39085908c908c9061480b565b600a8181548110611adc57600080fd5b600091825260209091200154905081565b6000818152600260205260408120546001600160a01b0316806108715760405162461bcd60e51b8152602060048201526018602482015277115490cdcc8c4e881a5b9d985b1a59081d1bdad95b88125160421b60448201526064016109c7565b60006001600160a01b038216611bb75760405162461bcd60e51b815260206004820152602960248201527f4552433732313a2061646472657373207a65726f206973206e6f7420612076616044820152683634b21037bbb732b960b91b60648201526084016109c7565b506001600160a01b031660009081526003602052604090205490565b6000611bdd612e76565b601380549081906000611bef836146e5565b9190505550604051806101400160405280600081526020018781526020016000815260200185815260200160011515815260200189815260200188815260200186815260200184815260200142815250600960008381526020019081526020016000206000820151816000015560208201518160010155604082015181600201556060820151816003019081611c85919061474c565b50608082015160048201805460ff191691151591909117905560a08201516005820190611cb2908261474c565b5060c08201516006820190611cc7908261474c565b5060e082015160078201556101008201518051611cee916008840191602090910190613b11565b506101209190910151600990910155600a805460018181019092557fc65a7bb8d6351c1cf70c95a316cc6a92839c986682d98bc35f958f4883f9d2a8018290556000828152600d6020526040808220805460ff1916909317909255905182917f0655289c4d9d7c45c2b83b18a45e3ce05f40710e413db2117ee045e2ab12cab291611d7c918c918b9061480b565b60405180910390a2979650505050505050565b611d97612e76565b611da160006132aa565b565b611dab612e76565b60005b8251811015610a685781600e6000858481518110611dce57611dce6146cf565b60200260200101516001600160a01b03166001600160a01b0316815260200190815260200160002060006101000a81548160ff021916908315150217905550828181518110611e1f57611e1f6146cf565b60200260200101516001600160a01b03167fb411a8b21a8114c276967c0fbdfa921c9d323c499c34022b1d150f60622d962283604051611e63911515815260200190565b60405180910390a280611e75816146e5565b915050611dae565b600080805b600a54811015611f15576000600a8281548110611ea157611ea16146cf565b60009182526020808320909101546001600160a01b0388168352600c8252604080842082855290925291205490915060ff1615611f025760008381526009602052604080822060079081015484845291909220909101541115611f02578092505b5080611f0d816146e5565b915050611e82565b5092915050565b60008181526009602052604081206002810154600190910154610871919061466f565b611f47612e76565b6001600160a01b038216611f965760405162461bcd60e51b81526020600482015260166024820152754164726573736520746f6b656e20696e76616c69646560501b60448201526064016109c7565b60405163a9059cbb60e01b815273e0b7bcb42aebb5be565cc81518a48d780f3c001c6004820152602481018290526001600160a01b0383169063a9059cbb906044016020604051808303816000875af1158015611ff7573d6000803e3d6000fd5b505050506040513d601f19601f82011682018060405250810190610a689190614626565b6060600180546108a99061459b565b612032612e76565b600082815260096020819052604090912001546120835760405162461bcd60e51b815260206004820152600f60248201526e151a595c881a5b995e1a5cdd185b9d608a1b60448201526064016109c7565b60005b8151811015610a6857600960008481526020019081526020016000206008018282815181106120b7576120b76146cf565b602090810291909101810151825460018101845560009384529190922001906120e0908261474c565b50806120eb816146e5565b915050612086565b6120fe3383836132fc565b5050565b6000606080600a805490506001600160401b0381111561212457612124613cca565b60405190808252806020026020018201604052801561214d578160200160208202803683370190505b50600a549092506001600160401b0381111561216b5761216b613cca565b604051908082528060200260200182016040528015612194578160200160208202803683370190505b50905060005b600a5481101561224057600a81815481106121b7576121b76146cf565b90600052602060002001548382815181106121d4576121d46146cf565b60200260200101818152505060156000600a83815481106121f7576121f76146cf565b9060005260206000200154815260200190815260200160002054828281518110612223576122236146cf565b602090810291909101015280612238816146e5565b91505061219a565b506014549250909192565b61225533836130bf565b6122715760405162461bcd60e51b81526004016109c790614682565b61227d848484846133c2565b50505050565b604051633d32e6e560e11b81526001600160a01b038216600482015260009081903090637a65cdca90602401602060405180830381865afa1580156122cc573d6000803e3d6000fd5b505050506040513d601f19601f820116820180604052508101906122f0919061460d565b9050806000036123035750606492915050565b60009081526009602052604090206007015492915050565b612323612e76565b600084815260096020819052604090912001546123745760405162461bcd60e51b815260206004820152600f60248201526e151a595c881a5b995e1a5cdd185b9d608a1b60448201526064016109c7565b6000848152600960205260409020600201548210156123d55760405162461bcd60e51b815260206004820152601a60248201527f537570706c7920696e66657269657572206175206d696e74656400000000000060448201526064016109c7565b60008481526009602090815260409182902085815560018101859055600401805460ff1916841515179055815185815290810184905285917f2702951ec468d8fb7c1501e01af87b4bd50cda65a20463fc38ee59b954a777b0910160405180910390a250505050565b6000818152600260205260409020546060906001600160a01b03166124985760405162461bcd60e51b815260206004820152601060248201526f151bdad95b881a5b995e1a5cdd185b9d60821b60448201526064016109c7565b6000828152600b602090815260408083205480845260099092529091206003016124c1826133f5565b6040516020016124d292919061485c565b604051602081830303815290604052915050919050565b6125416040518061014001604052806000815260200160008152602001600081526020016060815260200160001515815260200160608152602001606081526020016000815260200160608152602001600081525090565b600960008381526020019081526020016000206040518061014001604052908160008201548152602001600182015481526020016002820154815260200160038201805461258e9061459b565b80601f01602080910402602001604051908101604052809291908181526020018280546125ba9061459b565b80156126075780601f106125dc57610100808354040283529160200191612607565b820191906000526020600020905b8154815290600101906020018083116125ea57829003601f168201915b5050509183525050600482015460ff16151560208201526005820180546040909201916126339061459b565b80601f016020809104026020016040519081016040528092919081815260200182805461265f9061459b565b80156126ac5780601f10612681576101008083540402835291602001916126ac565b820191906000526020600020905b81548152906001019060200180831161268f57829003601f168201915b505050505081526020016006820180546126c59061459b565b80601f01602080910402602001604051908101604052809291908181526020018280546126f19061459b565b801561273e5780601f106127135761010080835404028352916020019161273e565b820191906000526020600020905b81548152906001019060200180831161272157829003601f168201915b505050505081526020016007820154815260200160088201805480602002602001604051908101604052809291908181526020016000905b828210156128225783829060005260206000200180546127959061459b565b80601f01602080910402602001604051908101604052809291908181526020018280546127c19061459b565b801561280e5780601f106127e35761010080835404028352916020019161280e565b820191906000526020600020905b8154815290600101906020018083116127f157829003601f168201915b505050505081526020019060010190612776565b5050505081526020016009820154815250509050919050565b612843612e76565b6001600160a01b03811661288c5760405162461bcd60e51b815260206004820152601060248201526f4164726573736520696e76616c69646560801b60448201526064016109c7565b601180546001600160a01b038381166001600160a01b031983168117909355604080519190921680825260208201939093527f4ab5be82436d353e61ca18726e984e561f5c1cc7c6d38b29d2553c790434705a910160405180910390a15050565b6128f5612e76565b6000908152600960205260409020600401805460ff19166001179055565b60606000805b600a548110156129815760096000600a838154811061293a5761293a6146cf565b6000918252602080832090910154835282019290925260400190206004015460ff161561296f578161296b816146e5565b9250505b80612979816146e5565b915050612919565b506000816001600160401b0381111561299c5761299c613cca565b6040519080825280602002602001820160405280156129c5578160200160208202803683370190505b5090506000805b600a5481101561149d5760096000600a83815481106129ed576129ed6146cf565b6000918252602080832090910154835282019290925260400190206004015460ff1615612a5d57600a8181548110612a2757612a276146cf565b9060005260206000200154838381518110612a4457612a446146cf565b602090810291909101015281612a59816146e5565b9250505b80612a67816146e5565b9150506129cc565b612a77612e76565b6001600160a01b038116612adc5760405162461bcd60e51b815260206004820152602660248201527f4f776e61626c653a206e6577206f776e657220697320746865207a65726f206160448201526564647265737360d01b60648201526084016109c7565b610f99816132aa565b336000908152600e602052604090205460059060ff16612b475760405162461bcd60e51b815260206004820152601e60248201527f4e6f6e20656c696769626c6520706f7572204e465420666964656c697465000060448201526064016109c7565b60008181526009602052604090206004015460ff16612ba25760405162461bcd60e51b81526020600482015260176024820152762a34b2b9103334b232b634ba32903737b71030b1ba34b360491b60448201526064016109c7565b6000818152600960205260409020600181015460029091015410612c025760405162461bcd60e51b8152602060048201526017602482015276537570706c7920666964656c697465206570756973656560481b60448201526064016109c7565b336000908152600c6020908152604080832084845290915290205460ff1615612c695760405162461bcd60e51b81526020600482015260196024820152784e465420466964656c6974652064656a6120706f737365646560381b60448201526064016109c7565b612c7533826001612ff6565b336000818152600e6020526040808220805460ff1916905560125490519092917f4a953b86fd09d570573647f99531f4d35f1f3c5c165b58296e072709eef1d55c91a350565b612cc3612e76565b6005600081905260096020527f74b05292d1d4b2b48b65261b07099d24244bcb069f138d9a6bfdcf776becac505460ff16612d3a5760405162461bcd60e51b81526020600482015260176024820152762a34b2b9103334b232b634ba32903737b71030b1ba34b360491b60448201526064016109c7565b6000818152600960205260409020600181015460029091015410612d9a5760405162461bcd60e51b8152602060048201526017602482015276537570706c7920666964656c697465206570756973656560481b60448201526064016109c7565b6001600160a01b0382166000908152600c6020908152604080832084845290915290205460ff1615612e0a5760405162461bcd60e51b81526020600482015260196024820152784e465420466964656c6974652064656a6120706f737365646560381b60448201526064016109c7565b612e1682826001612ff6565b6012546040516001600160a01b038416907f4a953b86fd09d570573647f99531f4d35f1f3c5c165b58296e072709eef1d55c90600090a35050565b60006001600160e01b03198216632483248360e11b1480610871575061087182613487565b6007546001600160a01b03163314611da15760405162461bcd60e51b815260206004820181905260248201527f4f776e61626c653a2063616c6c6572206973206e6f7420746865206f776e657260448201526064016109c7565b6000818152600260205260409020546001600160a01b0316610f995760405162461bcd60e51b8152602060048201526018602482015277115490cdcc8c4e881a5b9d985b1a59081d1bdad95b88125160421b60448201526064016109c7565b600081815260046020526040902080546001600160a01b0319166001600160a01b0384169081179091558190612f6482611aed565b6001600160a01b03167f8c5be1e5ebec7d5bd14f71427d1e84f3dd0314c0f7b2291e5b200ac8c7c3b92560405160405180910390a45050565b600260085403612fef5760405162461bcd60e51b815260206004820152601f60248201527f5265656e7472616e637947756172643a207265656e7472616e742063616c6c0060448201526064016109c7565b6002600855565b60128054906000613006836146e5565b909155505060125461301884826134d7565b6000818152600b602090815260408083208690556001600160a01b0387168352600c82528083208684528252808320805460ff1916600117905560099091528120600201805491613068836146e5565b90915550506001600160a01b0384166000818152600f602090815260408220805460018181018355828552928420018590559290915290546130aa919061466f565b60009182526010602052604090912055505050565b6000806130cb83611aed565b9050806001600160a01b0316846001600160a01b0316148061311257506001600160a01b0380821660009081526005602090815260408083209388168352929052205460ff165b806131365750836001600160a01b031661312b8461092c565b6001600160a01b0316145b949350505050565b826001600160a01b031661315182611aed565b6001600160a01b0316146131775760405162461bcd60e51b81526004016109c7906148f3565b6001600160a01b0382166131d95760405162461bcd60e51b8152602060048201526024808201527f4552433732313a207472616e7366657220746f20746865207a65726f206164646044820152637265737360e01b60648201526084016109c7565b826001600160a01b03166131ec82611aed565b6001600160a01b0316146132125760405162461bcd60e51b81526004016109c7906148f3565b600081815260046020908152604080832080546001600160a01b03199081169091556001600160a01b0387811680865260038552838620805460001901905590871680865283862080546001019055868652600290945282852080549092168417909155905184937fddf252ad1be2c89b69c2b068fc378daa952ba7f163c4a11628f55a4df523b3ef91a4610a6883838360016134f1565b600780546001600160a01b038381166001600160a01b0319831681179093556040519116919082907f8be0079c531659141344cd1fd0a4f28419497f9722a3daafe3b4186f6b6457e090600090a35050565b816001600160a01b0316836001600160a01b03160361335d5760405162461bcd60e51b815260206004820152601960248201527f4552433732313a20617070726f766520746f2063616c6c65720000000000000060448201526064016109c7565b6001600160a01b03838116600081815260056020908152604080832094871680845294825291829020805460ff191686151590811790915591519182527f17307eab39ab6107e8899845ad3d59bd9653f200f220920489ca2b5937696c3191016110eb565b6133cd84848461313e565b6133d984848484613708565b61227d5760405162461bcd60e51b81526004016109c790614938565b6060600061340283613809565b60010190506000816001600160401b0381111561342157613421613cca565b6040519080825280601f01601f19166020018201604052801561344b576020820181803683370190505b5090508181016020015b600019016f181899199a1a9b1b9c1cb0b131b232b360811b600a86061a8153600a850494508461345557509392505050565b60006001600160e01b031982166380ac58cd60e01b14806134b857506001600160e01b03198216635b5e139f60e01b145b8061087157506301ffc9a760e01b6001600160e01b0319831614610871565b6120fe8282604051806020016040528060008152506138e1565b6001600160a01b0384161580159061351157506001600160a01b03831615155b1561227d576000828152600b60209081526040808320546001600160a01b0388168452600f90925282205490919061354b9060019061466f565b6000858152601060205260409020549091508082146135f2576001600160a01b0387166000908152600f6020526040812080548490811061358e5761358e6146cf565b9060005260206000200154905080600f60008a6001600160a01b03166001600160a01b0316815260200190815260200160002083815481106135d2576135d26146cf565b600091825260208083209091019290925591825260109052604090208190555b6001600160a01b0387166000908152600f602052604090208054806136195761361961498a565b6000828152602080822083016000199081018390559092019092558682526010815260408083208390556001600160a01b038916808452600f83529083208054600181810183558286529385200189905592529054613678919061466f565b60008681526010602052604090205561369087611b4d565b15806136a357506136a18784613914565b155b156136d4576001600160a01b0387166000908152600c602090815260408083208684529091529020805460ff191690555b50506001600160a01b0384166000908152600c6020908152604080832093835292905220805460ff1916600117905561227d565b60006001600160a01b0384163b156137fe57604051630a85bd0160e11b81526001600160a01b0385169063150b7a029061374c9033908990889088906004016149a0565b6020604051808303816000875af1925050508015613787575060408051601f3d908101601f19168201909252613784918101906149d3565b60015b6137e4573d8080156137b5576040519150601f19603f3d011682016040523d82523d6000602084013e6137ba565b606091505b5080516000036137dc5760405162461bcd60e51b81526004016109c790614938565b805181602001fd5b6001600160e01b031916630a85bd0160e11b149050613136565b506001949350505050565b60008072184f03e93ff9f4daa797ed6e38ed64bf6a1f0160401b83106138485772184f03e93ff9f4daa797ed6e38ed64bf6a1f0160401b830492506040015b6d04ee2d6d415b85acef81000000008310613874576d04ee2d6d415b85acef8100000000830492506020015b662386f26fc10000831061389257662386f26fc10000830492506010015b6305f5e10083106138aa576305f5e100830492506008015b61271083106138be57612710830492506004015b606483106138d0576064830492506002015b600a83106108715760010192915050565b6138eb838361397c565b6138f86000848484613708565b610a685760405162461bcd60e51b81526004016109c790614938565b60008061392084611b4d565b905060005b8181101561397157600061393986836114a6565b6000818152600b602052604090205490915085900361395e5760019350505050610871565b5080613969816146e5565b915050613925565b506000949350505050565b6001600160a01b0382166139d25760405162461bcd60e51b815260206004820181905260248201527f4552433732313a206d696e7420746f20746865207a65726f206164647265737360448201526064016109c7565b6000818152600260205260409020546001600160a01b031615613a375760405162461bcd60e51b815260206004820152601c60248201527f4552433732313a20746f6b656e20616c7265616479206d696e7465640000000060448201526064016109c7565b6000818152600260205260409020546001600160a01b031615613a9c5760405162461bcd60e51b815260206004820152601c60248201527f4552433732313a20746f6b656e20616c7265616479206d696e7465640000000060448201526064016109c7565b6001600160a01b038216600081815260036020908152604080832080546001019055848352600290915280822080546001600160a01b0319168417905551839291907fddf252ad1be2c89b69c2b068fc378daa952ba7f163c4a11628f55a4df523b3ef908290a46120fe6000838360016134f1565b828054828255906000526020600020908101928215613b57579160200282015b82811115613b575782518290613b47908261474c565b5091602001919060010190613b31565b50613b63929150613b67565b5090565b80821115613b63576000613b7b8282613b84565b50600101613b67565b508054613b909061459b565b6000825580601f10613ba0575050565b601f016020900490600052602060002090810190610f9991905b80821115613b635760008155600101613bba565b6001600160e01b031981168114610f9957600080fd5b600060208284031215613bf657600080fd5b8135613c0181613bce565b9392505050565b600060208284031215613c1a57600080fd5b5035919050565b60005b83811015613c3c578181015183820152602001613c24565b50506000910152565b60008151808452613c5d816020860160208601613c21565b601f01601f19169290920160200192915050565b602081526000613c016020830184613c45565b80356001600160a01b0381168114613c9b57600080fd5b919050565b60008060408385031215613cb357600080fd5b613cbc83613c84565b946020939093013593505050565b634e487b7160e01b600052604160045260246000fd5b604051601f8201601f191681016001600160401b0381118282101715613d0857613d08613cca565b604052919050565b60006001600160401b03831115613d2957613d29613cca565b613d3c601f8401601f1916602001613ce0565b9050828152838383011115613d5057600080fd5b828260208301376000602084830101529392505050565b600082601f830112613d7857600080fd5b613c0183833560208501613d10565b600080600060608486031215613d9c57600080fd5b613da584613c84565b92506020840135915060408401356001600160401b03811115613dc757600080fd5b613dd386828701613d67565b9150509250925092565b600060208284031215613def57600080fd5b613c0182613c84565b600080600060608486031215613e0d57600080fd5b613e1684613c84565b9250613e2460208501613c84565b9150604084013590509250925092565b8015158114610f9957600080fd5b8035613c9b81613e34565b60008060408385031215613e6057600080fd5b613e6983613c84565b91506020830135613e7981613e34565b809150509250929050565b6000815180845260208085019450848260051b860182860160005b85811015613ec9578383038952613eb7838351613c45565b98850198925090840190600101613e9f565b5090979650505050505050565b602081526000613c016020830184613e84565b600081518084526020808501945080840160005b83811015613f1957815187529582019590820190600101613efd565b509495945050505050565b602081526000613c016020830184613ee9565b60006001600160401b03821115613f5057613f50613cca565b5060051b60200190565b600082601f830112613f6b57600080fd5b81356020613f80613f7b83613f37565b613ce0565b82815260059290921b84018101918181019086841115613f9f57600080fd5b8286015b84811015613fde5780356001600160401b03811115613fc25760008081fd5b613fd08986838b0101613d67565b845250918301918301613fa3565b509695505050505050565b600080600080600080600080610100898b03121561400657600080fd5b88356001600160401b038082111561401d57600080fd5b6140298c838d01613d67565b995060208b013591508082111561403f57600080fd5b61404b8c838d01613d67565b985060408b0135975060608b0135965060808b0135955060a08b013591508082111561407657600080fd5b6140828c838d01613d67565b945060c08b013591508082111561409857600080fd5b506140a58b828c01613f5a565b9250506140b460e08a01613e42565b90509295985092959890939650565b60006101208b83528a60208401528960408401528060608401526140e98184018a613c45565b9050871515608084015282810360a08401526141058188613c45565b905082810360c08401526141198187613c45565b60e084019590955250506101000152979650505050505050565b600080600080600080600060e0888a03121561414e57600080fd5b87356001600160401b038082111561416557600080fd5b6141718b838c01613d67565b985060208a013591508082111561418757600080fd5b6141938b838c01613d67565b975060408a0135965060608a0135955060808a0135945060a08a01359150808211156141be57600080fd5b6141ca8b838c01613d67565b935060c08a01359150808211156141e057600080fd5b506141ed8a828b01613f5a565b91505092959891949750929550565b60008060008060008060c0878903121561421557600080fd5b86356001600160401b038082111561422c57600080fd5b6142388a838b01613d67565b9750602089013591508082111561424e57600080fd5b61425a8a838b01613d67565b96506040890135955060608901359450608089013591508082111561427e57600080fd5b61428a8a838b01613d67565b935060a08901359150808211156142a057600080fd5b506142ad89828a01613f5a565b9150509295509295509295565b600080604083850312156142cd57600080fd5b82356001600160401b038111156142e357600080fd5b8301601f810185136142f457600080fd5b80356020614304613f7b83613f37565b82815260059290921b8301810191818101908884111561432357600080fd5b938201935b838510156143485761433985613c84565b82529382019390820190614328565b95506143579050868201613e42565b93505050509250929050565b6000806040838503121561437657600080fd5b8235915060208301356001600160401b0381111561439357600080fd5b61439f85828601613f5a565b9150509250929050565b8381526060602082015260006143c26060830185613ee9565b82810360408401526143d48185613ee9565b9695505050505050565b600080600080608085870312156143f457600080fd5b6143fd85613c84565b935061440b60208601613c84565b92506040850135915060608501356001600160401b0381111561442d57600080fd5b8501601f8101871361443e57600080fd5b61444d87823560208401613d10565b91505092959194509250565b6000806000806080858703121561446f57600080fd5b843593506020850135925060408501359150606085013561448f81613e34565b939692955090935050565b60208152815160208201526020820151604082015260408201516060820152600060608301516101408060808501526144d7610160850183613c45565b915060808501516144ec60a086018215159052565b5060a0850151601f19808685030160c08701526145098483613c45565b935060c08701519150808685030160e08701526145268483613c45565b935060e087015191506101008281880152808801519250506101208187860301818801526145548584613e84565b970151959092019490945250929392505050565b6000806040838503121561457b57600080fd5b61458483613c84565b915061459260208401613c84565b90509250929050565b600181811c908216806145af57607f821691505b6020821081036145cf57634e487b7160e01b600052602260045260246000fd5b50919050565b634e487b7160e01b600052601160045260246000fd5b60008261460857634e487b7160e01b600052601260045260246000fd5b500490565b60006020828403121561461f57600080fd5b5051919050565b60006020828403121561463857600080fd5b8151613c0181613e34565b80820180821115610871576108716145d5565b8281526040602082015260006131366040830184613c45565b81810381811115610871576108716145d5565b6020808252602d908201527f4552433732313a2063616c6c6572206973206e6f7420746f6b656e206f776e6560408201526c1c881bdc88185c1c1c9bdd9959609a1b606082015260800190565b634e487b7160e01b600052603260045260246000fd5b6000600182016146f7576146f76145d5565b5060010190565b601f821115610a6857600081815260208120601f850160051c810160208610156147255750805b601f850160051c820191505b8181101561474457828155600101614731565b505050505050565b81516001600160401b0381111561476557614765613cca565b61477981614773845461459b565b846146fe565b602080601f8311600181146147ae57600084156147965750858301515b600019600386901b1c1916600185901b178555614744565b600085815260208120601f198616915b828110156147dd578886015182559484019460019091019084016147be565b50858210156147fb5787850151600019600388901b60f8161c191681555b5050505050600190811b01905550565b60608152600061481e6060830186613c45565b60208301949094525060400152919050565b63027232a160e51b81526000825161484f816004850160208701613c21565b9190910160040192915050565b600080845461486a8161459b565b600182811680156148825760018114614897576148c6565b60ff19841687528215158302870194506148c6565b8860005260208060002060005b858110156148bd5781548a8201529084019082016148a4565b50505082870194505b5050505083516148da818360208801613c21565b64173539b7b760d91b9101908152600501949350505050565b60208082526025908201527f4552433732313a207472616e736665722066726f6d20696e636f72726563742060408201526437bbb732b960d91b606082015260800190565b60208082526032908201527f4552433732313a207472616e7366657220746f206e6f6e20455243373231526560408201527131b2b4bb32b91034b6b83632b6b2b73a32b960711b606082015260800190565b634e487b7160e01b600052603160045260246000fd5b6001600160a01b03858116825284166020820152604081018390526080606082018190526000906143d490830184613c45565b6000602082840312156149e557600080fd5b8151613c0181613bce56fea2646970667358221220554642de8651d462502f6053083220d27637b92385bd37856b505c6c1d8a305c64736f6c6343000814003368747470733a2f2f6f6c6976652d717569636b2d646f6c7068696e2d3236362e6d7970696e6174612e636c6f75642f697066732f62616679626569686434687a6c687337353576726b336666726461786172753334687966376b7375767a796362746b3576716a6c78373263797a692f8dc18c4ccfd75f5c815b63770fa542fd953e8fef7e0e44bbdd4913470ce7e9d341636365732061757820737472617465676965732064652062617365206176656320626f6e757320323025c575c31fea594a6eb97c8e9d3f9caee4c16218c6ef37e923234c0fe9014a61ef",
  "linkReferences": {},
  "deployedLinkReferences": {}
}