{
  "_format": "hh-sol-artifact-1",
  "contractName": "CakeStakingStrategy",
  "sourceName": "contracts/CakeStakingStrategy.sol",
  "abi": [
    {
      "inputs": [
        {
          "internalType": "address",
          "name": "_pancakeRouter",
          "type": "address"
        },
        {
          "internalType": "address",
          "name": "_cakePool",
          "type": "address"
        },
        {
          "internalType": "address",
          "name": "_cake",
          "type": "address"
        },
        {
          "internalType": "address",
          "name": "_depositToken",
          "type": "address"
        }
      ],
      "stateMutability": "nonpayable",
      "type": "constructor"
    },
    {
      "inputs": [
        {
          "internalType": "address",
          "name": "owner",
          "type": "address"
        }
      ],
      "name": "OwnableInvalidOwner",
      "type": "error"
    },
    {
      "inputs": [
        {
          "internalType": "address",
          "name": "account",
          "type": "address"
        }
      ],
      "name": "OwnableUnauthorizedAccount",
      "type": "error"
    },
    {
      "anonymous": false,
      "inputs": [
        {
          "indexed": false,
          "internalType": "uint256",
          "name": "amount",
          "type": "uint256"
        },
        {
          "indexed": false,
          "internalType": "uint256",
          "name": "cakeAmount",
          "type": "uint256"
        }
      ],
      "name": "Deposited",
      "type": "event"
    },
    {
      "anonymous": false,
      "inputs": [
        {
          "indexed": false,
          "internalType": "uint256",
          "name": "cakeRecovered",
          "type": "uint256"
        },
        {
          "indexed": false,
          "internalType": "uint256",
          "name": "tokenRecovered",
          "type": "uint256"
        }
      ],
      "name": "EmergencyExit",
      "type": "event"
    },
    {
      "anonymous": false,
      "inputs": [
        {
          "indexed": false,
          "internalType": "uint256",
          "name": "rewardAmount",
          "type": "uint256"
        }
      ],
      "name": "Harvested",
      "type": "event"
    },
    {
      "anonymous": false,
      "inputs": [
        {
          "indexed": true,
          "internalType": "address",
          "name": "previousOwner",
          "type": "address"
        },
        {
          "indexed": true,
          "internalType": "address",
          "name": "newOwner",
          "type": "address"
        }
      ],
      "name": "OwnershipTransferred",
      "type": "event"
    },
    {
      "anonymous": false,
      "inputs": [
        {
          "indexed": false,
          "internalType": "uint256",
          "name": "newTolerance",
          "type": "uint256"
        }
      ],
      "name": "SlippageToleranceUpdated",
      "type": "event"
    },
    {
      "anonymous": false,
      "inputs": [
        {
          "indexed": false,
          "internalType": "uint256",
          "name": "cakeRemaining",
          "type": "uint256"
        },
        {
          "indexed": false,
          "internalType": "uint256",
          "name": "penalty",
          "type": "uint256"
        }
      ],
      "name": "StakeUnlocked",
      "type": "event"
    },
    {
      "anonymous": false,
      "inputs": [
        {
          "indexed": false,
          "internalType": "uint256",
          "name": "amount",
          "type": "uint256"
        },
        {
          "indexed": false,
          "internalType": "uint256",
          "name": "cakeAmount",
          "type": "uint256"
        }
      ],
      "name": "Withdrawn",
      "type": "event"
    },
    {
      "anonymous": false,
      "inputs": [
        {
          "indexed": false,
          "internalType": "uint256",
          "name": "dailyYield",
          "type": "uint256"
        }
      ],
      "name": "YieldUpdated",
      "type": "event"
    },
    {
      "inputs": [],
      "name": "cake",
      "outputs": [
        {
          "internalType": "address",
          "name": "",
          "type": "address"
        }
      ],
      "stateMutability": "view",
      "type": "function"
    },
    {
      "inputs": [],
      "name": "cakePool",
      "outputs": [
        {
          "internalType": "contract ICakePool",
          "name": "",
          "type": "address"
        }
      ],
      "stateMutability": "view",
      "type": "function"
    },
    {
      "inputs": [],
      "name": "dailyYieldBps",
      "outputs": [
        {
          "internalType": "uint256",
          "name": "",
          "type": "uint256"
        }
      ],
      "stateMutability": "view",
      "type": "function"
    },
    {
      "inputs": [
        {
          "internalType": "uint256",
          "name": "_amount",
          "type": "uint256"
        },
        {
          "internalType": "uint256",
          "name": "_lockDuration",
          "type": "uint256"
        }
      ],
      "name": "deposit",
      "outputs": [],
      "stateMutability": "nonpayable",
      "type": "function"
    },
    {
      "inputs": [],
      "name": "depositToken",
      "outputs": [
        {
          "internalType": "address",
          "name": "",
          "type": "address"
        }
      ],
      "stateMutability": "view",
      "type": "function"
    },
    {
      "inputs": [],
      "name": "depositedAmount",
      "outputs": [
        {
          "internalType": "uint256",
          "name": "",
          "type": "uint256"
        }
      ],
      "stateMutability": "view",
      "type": "function"
    },
    {
      "inputs": [],
      "name": "emergencyExit",
      "outputs": [],
      "stateMutability": "nonpayable",
      "type": "function"
    },
    {
      "inputs": [],
      "name": "getCurrentValue",
      "outputs": [
        {
          "internalType": "uint256",
          "name": "",
          "type": "uint256"
        }
      ],
      "stateMutability": "view",
      "type": "function"
    },
    {
      "inputs": [],
      "name": "getDailyYield",
      "outputs": [
        {
          "internalType": "uint256",
          "name": "",
          "type": "uint256"
        }
      ],
      "stateMutability": "view",
      "type": "function"
    },
    {
      "inputs": [],
      "name": "getPoolStatus",
      "outputs": [
        {
          "internalType": "bool",
          "name": "active",
          "type": "bool"
        },
        {
          "internalType": "string",
          "name": "statusMessage",
          "type": "string"
        }
      ],
      "stateMutability": "view",
      "type": "function"
    },
    {
      "inputs": [],
      "name": "getRemainingLockTime",
      "outputs": [
        {
          "internalType": "uint256",
          "name": "",
          "type": "uint256"
        }
      ],
      "stateMutability": "view",
      "type": "function"
    },
    {
      "inputs": [],
      "name": "harvest",
      "outputs": [],
      "stateMutability": "nonpayable",
      "type": "function"
    },
    {
      "inputs": [],
      "name": "initialDepositTime",
      "outputs": [
        {
          "internalType": "uint256",
          "name": "",
          "type": "uint256"
        }
      ],
      "stateMutability": "view",
      "type": "function"
    },
    {
      "inputs": [],
      "name": "isActive",
      "outputs": [
        {
          "internalType": "bool",
          "name": "",
          "type": "bool"
        }
      ],
      "stateMutability": "view",
      "type": "function"
    },
    {
      "inputs": [],
      "name": "lastHarvestTime",
      "outputs": [
        {
          "internalType": "uint256",
          "name": "",
          "type": "uint256"
        }
      ],
      "stateMutability": "view",
      "type": "function"
    },
    {
      "inputs": [],
      "name": "lastValueUpdateTime",
      "outputs": [
        {
          "internalType": "uint256",
          "name": "",
          "type": "uint256"
        }
      ],
      "stateMutability": "view",
      "type": "function"
    },
    {
      "inputs": [],
      "name": "owner",
      "outputs": [
        {
          "internalType": "address",
          "name": "",
          "type": "address"
        }
      ],
      "stateMutability": "view",
      "type": "function"
    },
    {
      "inputs": [],
      "name": "pancakeRouter",
      "outputs": [
        {
          "internalType": "contract IPancakeRouter",
          "name": "",
          "type": "address"
        }
      ],
      "stateMutability": "view",
      "type": "function"
    },
    {
      "inputs": [],
      "name": "renounceOwnership",
      "outputs": [],
      "stateMutability": "nonpayable",
      "type": "function"
    },
    {
      "inputs": [
        {
          "internalType": "bool",
          "name": "_isActive",
          "type": "bool"
        }
      ],
      "name": "setActive",
      "outputs": [],
      "stateMutability": "nonpayable",
      "type": "function"
    },
    {
      "inputs": [
        {
          "internalType": "uint256",
          "name": "_newTolerance",
          "type": "uint256"
        }
      ],
      "name": "setSlippageTolerance",
      "outputs": [],
      "stateMutability": "nonpayable",
      "type": "function"
    },
    {
      "inputs": [],
      "name": "slippageTolerance",
      "outputs": [
        {
          "internalType": "uint256",
          "name": "",
          "type": "uint256"
        }
      ],
      "stateMutability": "view",
      "type": "function"
    },
    {
      "inputs": [],
      "name": "stakedCakeAmount",
      "outputs": [
        {
          "internalType": "uint256",
          "name": "",
          "type": "uint256"
        }
      ],
      "stateMutability": "view",
      "type": "function"
    },
    {
      "inputs": [],
      "name": "totalRewardsHarvested",
      "outputs": [
        {
          "internalType": "uint256",
          "name": "",
          "type": "uint256"
        }
      ],
      "stateMutability": "view",
      "type": "function"
    },
    {
      "inputs": [
        {
          "internalType": "address",
          "name": "newOwner",
          "type": "address"
        }
      ],
      "name": "transferOwnership",
      "outputs": [],
      "stateMutability": "nonpayable",
      "type": "function"
    },
    {
      "inputs": [],
      "name": "unlockStake",
      "outputs": [],
      "stateMutability": "nonpayable",
      "type": "function"
    },
    {
      "inputs": [],
      "name": "updateDailyYield",
      "outputs": [],
      "stateMutability": "nonpayable",
      "type": "function"
    },
    {
      "inputs": [
        {
          "internalType": "uint256",
          "name": "_amount",
          "type": "uint256"
        }
      ],
      "name": "withdraw",
      "outputs": [],
      "stateMutability": "nonpayable",
      "type": "function"
    },
    {
      "inputs": [],
      "name": "yesterdayValue",
      "outputs": [
        {
          "internalType": "uint256",
          "name": "",
          "type": "uint256"
        }
      ],
      "stateMutability": "view",
      "type": "function"
    }
  ],
  "bytecode": "0x6080604052600b805460ff1916600117905561012c600f553480156200002457600080fd5b5060405162001d6b38038062001d6b83398101604081905262000047916200013f565b33806200006e57604051631e4fbdf760e01b81526000600482015260240160405180910390fd5b6200007981620000d2565b5060018055600280546001600160a01b039586166001600160a01b03199182161790915560038054948616948216949094179093556004805492851692841692909217909155600580549190931691161790556200019c565b600080546001600160a01b038381166001600160a01b0319831681178455604051919092169283917f8be0079c531659141344cd1fd0a4f28419497f9722a3daafe3b4186f6b6457e09190a35050565b80516001600160a01b03811681146200013a57600080fd5b919050565b600080600080608085870312156200015657600080fd5b620001618562000122565b9350620001716020860162000122565b9250620001816040860162000122565b9150620001916060860162000122565b905092959194509250565b611bbf80620001ac6000396000f3fe608060405234801561001057600080fd5b50600436106101cf5760003560e01c8063715018a611610104578063c89039c5116100a2578063e2bbb15811610071578063e2bbb1581461033b578063ed64a9671461034e578063f2fde38b14610361578063ffc53ee21461037457600080fd5b8063c89039c514610303578063ceb0f62614610316578063d03153aa1461031f578063dce174841461032857600080fd5b80638da5cb5b116100de5780638da5cb5b146102b0578063acec338a146102d5578063bb9fe6bf146102e8578063c21ebd07146102f057600080fd5b8063715018a61461028a5780637a8cd156146102925780637f79496c1461029a57600080fd5b80632e1a7d4d116101715780635641ec031161014b5780635641ec03146102685780636326d8091461027057806366f202e0146102785780636eac61dd1461028157600080fd5b80632e1a7d4d146102445780634641257d1461025757806356315fcb1461025f57600080fd5b8063117da1ee116101ad578063117da1ee146102025780631d01364c146102155780631fdcdfe51461021e57806322f3e2d41461022757600080fd5b80630195f337146101d45780630506a2c4146101f05780630f76c114146101fa575b600080fd5b6101dd60075481565b6040519081526020015b60405180910390f35b6101f861037d565b005b6101dd61042c565b6101f8610210366004611828565b61043b565b6101dd60065481565b6101dd60085481565b600b546102349060ff1681565b60405190151581526020016101e7565b6101f8610252366004611828565b6104c3565b6101f861081e565b6101dd600c5481565b6101f8610ad8565b600e546101dd565b6101dd600d5481565b6101dd600a5481565b6101f8610e90565b6101dd610ea2565b6102a2610f0f565b6040516101e7929190611841565b6000546001600160a01b03165b6040516001600160a01b0390911681526020016101e7565b6101f86102e33660046118a7565b611041565b6101f861105c565b6002546102bd906001600160a01b031681565b6005546102bd906001600160a01b031681565b6101dd60095481565b6101dd600f5481565b6004546102bd906001600160a01b031681565b6101f86103493660046118cb565b61112c565b6003546102bd906001600160a01b031681565b6101f861036f3660046118ed565b6116a5565b6101dd600e5481565b600d5461038d906201518061192c565b421061042a57600061039d6116e3565b90506000600c541180156103b25750600c5481115b156103e257600c546103c48183611945565b6103d090612710611958565b6103da919061196f565b600e556103e8565b6000600e555b600c81905542600d55600e546040519081527f90427aaa52d772393dbc0baaaa6eb821cdec72ed0870206d71ccc004efe43bba906020015b60405180910390a1505b565b60006104366116e3565b905090565b6104436117ab565b6103e881111561048e5760405162461bcd60e51b81526020600482015260116024820152700a6d8d2e0e0c2ceca40e8dede40d0d2ced607b1b60448201526064015b60405180910390fd5b600f8190556040518181527fa3370f7fc7573d713f27ae89ba2f193d4b43991622ff969b0475e2f911aacf1a90602001610420565b6104cb6117ab565b6002600154036104ed5760405162461bcd60e51b815260040161048590611991565b60026001558061053f5760405162461bcd60e51b815260206004820152601d60248201527f416d6f756e74206d7573742062652067726561746572207468616e20300000006044820152606401610485565b6006548111156105915760405162461bcd60e51b815260206004820152601860248201527f416d6f756e742065786365656473206465706f736974656400000000000000006044820152606401610485565b6000600654600754836105a49190611958565b6105ae919061196f565b600354604051632e1a7d4d60e01b8152600481018390529192506001600160a01b031690632e1a7d4d90602401600060405180830381600087803b1580156105f557600080fd5b505af1158015610609573d6000803e3d6000fd5b50506004805460025460405163095ea7b360e01b81526001600160a01b03918216938101939093526024830186905216925063095ea7b391506044016020604051808303816000875af1158015610664573d6000803e3d6000fd5b505050506040513d601f19601f8201168201806040525081019061068891906119c8565b50604080516002808252606082018352600092602083019080368337505060045482519293506001600160a01b0316918391506000906106ca576106ca6119fb565b6001600160a01b0392831660209182029290920101526005548251911690829060019081106106fb576106fb6119fb565b6001600160a01b039283166020918202929092010152600254166338ed1739836000846107306000546001600160a01b031690565b61073c4261012c61192c565b6040518663ffffffff1660e01b815260040161075c959493929190611a55565b6000604051808303816000875af115801561077b573d6000803e3d6000fd5b505050506040513d6000823e601f3d908101601f191682016040526107a39190810190611a91565b5082600660008282546107b69190611945565b9250508190555081600760008282546107cf9190611945565b909155505060408051848152602081018490527f0c875c8d391179c5cf7ad8303d268efd50b8beb78b671f85cd54bfb91eb8ef40910160405180910390a161081561037d565b50506001805550565b6108266117ab565b6002600154036108485760405162461bcd60e51b815260040161048590611991565b6002600155600354604051637a0787a960e11b81523060048201526000916001600160a01b03169063f40f0f5290602401602060405180830381865afa158015610896573d6000803e3d6000fd5b505050506040513d601f19601f820116820180604052508101906108ba9190611b4f565b9050600081116109045760405162461bcd60e51b8152602060048201526015602482015274139bc81c995dd85c991cc81d1bc81a185c9d995cdd605a1b6044820152606401610485565b600360009054906101000a90046001600160a01b03166001600160a01b0316634641257d6040518163ffffffff1660e01b8152600401600060405180830381600087803b15801561095457600080fd5b505af1158015610968573d6000803e3d6000fd5b5050600480546040516370a0823160e01b81523092810192909252600093506001600160a01b031691506370a0823190602401602060405180830381865afa1580156109b8573d6000803e3d6000fd5b505050506040513d601f19601f820116820180604052508101906109dc9190611b4f565b90508015610ac8576004546001600160a01b031663a9059cbb610a076000546001600160a01b031690565b6040516001600160e01b031960e084901b1681526001600160a01b039091166004820152602481018490526044016020604051808303816000875af1158015610a54573d6000803e3d6000fd5b505050506040513d601f19601f82011682018060405250810190610a7891906119c8565b5080600a6000828254610a8b919061192c565b9091555050426009556040518181527f8e55ccfc9778ff8eba1646d765cf1982537ce0f9257054a17b48aad7452501839060200160405180910390a15b610ad061037d565b505060018055565b610ae06117ab565b600260015403610b025760405162461bcd60e51b815260040161048590611991565b60026001556003546040805163a69df4b560e01b815290516001600160a01b039092169163a69df4b59160048082019260009290919082900301818387803b158015610b4d57600080fd5b505af1925050508015610b5e575060015b50600360009054906101000a90046001600160a01b03166001600160a01b031663853828b66040518163ffffffff1660e01b8152600401600060405180830381600087803b158015610baf57600080fd5b505af1925050508015610bc0575060015b610c2757600360009054906101000a90046001600160a01b03166001600160a01b031663db2e21bc6040518163ffffffff1660e01b8152600401600060405180830381600087803b158015610c1457600080fd5b505af1925050508015610c25575060015b505b600480546040516370a0823160e01b815230928101929092526000916001600160a01b03909116906370a0823190602401602060405180830381865afa158015610c75573d6000803e3d6000fd5b505050506040513d601f19601f82011682018060405250810190610c999190611b4f565b6005546040516370a0823160e01b81523060048201529192506000916001600160a01b03909116906370a0823190602401602060405180830381865afa158015610ce7573d6000803e3d6000fd5b505050506040513d601f19601f82011682018060405250810190610d0b9190611b4f565b90508115610da9576004546001600160a01b031663a9059cbb610d366000546001600160a01b031690565b6040516001600160e01b031960e084901b1681526001600160a01b039091166004820152602481018590526044016020604051808303816000875af1158015610d83573d6000803e3d6000fd5b505050506040513d601f19601f82011682018060405250810190610da791906119c8565b505b8015610e45576005546001600160a01b031663a9059cbb610dd26000546001600160a01b031690565b6040516001600160e01b031960e084901b1681526001600160a01b039091166004820152602481018490526044016020604051808303816000875af1158015610e1f573d6000803e3d6000fd5b505050506040513d601f19601f82011682018060405250810190610e4391906119c8565b505b600b805460ff1916905560408051838152602081018390527fe69aa2e435ec063c41ddc8d262f8672906549b0cff0e2fcdec03de8a590a6329910160405180910390a1505060018055565b610e986117ab565b61042a60006117d8565b6003546040516311cc112560e21b81523060048201526000916001600160a01b031690634730449490602401602060405180830381865afa158015610eeb573d6000803e3d6000fd5b505050506040513d601f19601f820116820180604052508101906104369190611b4f565b600060606000600360009054906101000a90046001600160a01b03166001600160a01b03166322f3e2d46040518163ffffffff1660e01b8152600401602060405180830381865afa158015610f68573d6000803e3d6000fd5b505050506040513d601f19601f82011682018060405250810190610f8c91906119c8565b600b5490915060ff16610fd757505060408051808201909152601a81527f53747261746567792064697361626c6564206279206f776e65720000000000006020820152600092909150565b8061101a57505060408051808201909152601981527f50616e63616b655377617020706f6f6c20696e616374697665000000000000006020820152600092909150565b505060408051808201909152600681526541637469766560d01b6020820152600192909150565b6110496117ab565b600b805460ff1916911515919091179055565b6110646117ab565b6002600154036110865760405162461bcd60e51b815260040161048590611991565b60026001556003546040805163a69df4b560e01b815290516001600160a01b039092169163a69df4b59160048082019260009290919082900301818387803b1580156110d157600080fd5b505af11580156110e5573d6000803e3d6000fd5b505060075460408051918252600060208301527feb45e0a006731eb640ac4cf331ebc4648462a58fafd9bc9ef8914d4d5efb2148935001905060405180910390a160018055565b6111346117ab565b6002600154036111565760405162461bcd60e51b815260040161048590611991565b6002600155600b5460ff166111a15760405162461bcd60e51b8152602060048201526011602482015270537472617465677920696e61637469766560781b6044820152606401610485565b600082116111f15760405162461bcd60e51b815260206004820152601d60248201527f416d6f756e74206d7573742062652067726561746572207468616e20300000006044820152606401610485565b60055460025460405163095ea7b360e01b81526001600160a01b0391821660048201526024810185905291169063095ea7b3906044016020604051808303816000875af1158015611246573d6000803e3d6000fd5b505050506040513d601f19601f8201168201806040525081019061126a91906119c8565b50604080516002808252606082018352600092602083019080368337505060055482519293506001600160a01b0316918391506000906112ac576112ac6119fb565b6001600160a01b0392831660209182029290920101526004548251911690829060019081106112dd576112dd6119fb565b6001600160a01b03928316602091820292909201015260025460405163d06ca61f60e01b8152600092919091169063d06ca61f906113219087908690600401611b68565b600060405180830381865afa15801561133e573d6000803e3d6000fd5b505050506040513d6000823e601f3d908101601f191682016040526113669190810190611a91565b90506000612710600f5461271061137d9190611945565b83600181518110611390576113906119fb565b60200260200101516113a29190611958565b6113ac919061196f565b600480546040516370a0823160e01b815230928101929092529192506000916001600160a01b0316906370a0823190602401602060405180830381865afa1580156113fb573d6000803e3d6000fd5b505050506040513d601f19601f8201168201806040525081019061141f9190611b4f565b6002549091506001600160a01b03166338ed1739878487306114434261012c61192c565b6040518663ffffffff1660e01b8152600401611463959493929190611a55565b6000604051808303816000875af1158015611482573d6000803e3d6000fd5b505050506040513d6000823e601f3d908101601f191682016040526114aa9190810190611a91565b50600480546040516370a0823160e01b8152309281019290925260009183916001600160a01b0316906370a0823190602401602060405180830381865afa1580156114f9573d6000803e3d6000fd5b505050506040513d601f19601f8201168201806040525081019061151d9190611b4f565b6115279190611945565b6004805460035460405163095ea7b360e01b81526001600160a01b039182169381019390935260248301849052929350919091169063095ea7b3906044016020604051808303816000875af1158015611584573d6000803e3d6000fd5b505050506040513d601f19601f820116820180604052508101906115a891906119c8565b50600354604051631c57762b60e31b815260048101839052602481018890526001600160a01b039091169063e2bbb15890604401600060405180830381600087803b1580156115f657600080fd5b505af115801561160a573d6000803e3d6000fd5b5050505060065460000361162757426008819055600d55600c8790555b8660066000828254611639919061192c565b925050819055508060076000828254611652919061192c565b909155505060408051888152602081018390527f06da3309189fa49284f335d2c2bcb4cb0b8ad2a59ad92a9bdebeeb8f1ceba511910160405180910390a161169861037d565b5050600180555050505050565b6116ad6117ab565b6001600160a01b0381166116d757604051631e4fbdf760e01b815260006004820152602401610485565b6116e0816117d8565b50565b60006006546000036116f55750600090565b600654600354604051637a0787a960e11b81523060048201526000916001600160a01b03169063f40f0f5290602401602060405180830381865afa158015611741573d6000803e3d6000fd5b505050506040513d601f19601f820116820180604052508101906117659190611b4f565b905060008111801561177957506000600754115b156117a55760075460065461178e9083611958565b611798919061196f565b6117a2908361192c565b91505b50919050565b6000546001600160a01b0316331461042a5760405163118cdaa760e01b8152336004820152602401610485565b600080546001600160a01b038381166001600160a01b0319831681178455604051919092169283917f8be0079c531659141344cd1fd0a4f28419497f9722a3daafe3b4186f6b6457e09190a35050565b60006020828403121561183a57600080fd5b5035919050565b821515815260006020604081840152835180604085015260005b818110156118775785810183015185820160600152820161185b565b506000606082860101526060601f19601f830116850101925050509392505050565b80151581146116e057600080fd5b6000602082840312156118b957600080fd5b81356118c481611899565b9392505050565b600080604083850312156118de57600080fd5b50508035926020909101359150565b6000602082840312156118ff57600080fd5b81356001600160a01b03811681146118c457600080fd5b634e487b7160e01b600052601160045260246000fd5b8082018082111561193f5761193f611916565b92915050565b8181038181111561193f5761193f611916565b808202811582820484141761193f5761193f611916565b60008261198c57634e487b7160e01b600052601260045260246000fd5b500490565b6020808252601f908201527f5265656e7472616e637947756172643a207265656e7472616e742063616c6c00604082015260600190565b6000602082840312156119da57600080fd5b81516118c481611899565b634e487b7160e01b600052604160045260246000fd5b634e487b7160e01b600052603260045260246000fd5b600081518084526020808501945080840160005b83811015611a4a5781516001600160a01b031687529582019590820190600101611a25565b509495945050505050565b85815284602082015260a060408201526000611a7460a0830186611a11565b6001600160a01b0394909416606083015250608001529392505050565b60006020808385031215611aa457600080fd5b825167ffffffffffffffff80821115611abc57600080fd5b818501915085601f830112611ad057600080fd5b815181811115611ae257611ae26119e5565b8060051b604051601f19603f83011681018181108582111715611b0757611b076119e5565b604052918252848201925083810185019188831115611b2557600080fd5b938501935b82851015611b4357845184529385019392850192611b2a565b98975050505050505050565b600060208284031215611b6157600080fd5b5051919050565b828152604060208201526000611b816040830184611a11565b94935050505056fea2646970667358221220d5515917be801da7902c708655eaa18debb38a8b751f1ab0edf5ed47dd5fc27b64736f6c63430008140033",
  "linkReferences": {},
  "deployedLinkReferences": {}
}